{
  "contractName": "Web3Football",
  "abi": [
    {
      "inputs": [
        {
          "internalType": "uint64",
          "name": "subscriptionId",
          "type": "uint64"
        }
      ],
      "stateMutability": "nonpayable",
      "type": "constructor"
    },
    {
      "inputs": [
        {
          "internalType": "address",
          "name": "have",
          "type": "address"
        },
        {
          "internalType": "address",
          "name": "want",
          "type": "address"
        }
      ],
      "name": "OnlyCoordinatorCanFulfill",
      "type": "error"
    },
    {
      "anonymous": false,
      "inputs": [
        {
          "indexed": true,
          "internalType": "address",
          "name": "from",
          "type": "address"
        },
        {
          "indexed": true,
          "internalType": "address",
          "name": "to",
          "type": "address"
        }
      ],
      "name": "OwnershipTransferRequested",
      "type": "event"
    },
    {
      "anonymous": false,
      "inputs": [
        {
          "indexed": true,
          "internalType": "address",
          "name": "from",
          "type": "address"
        },
        {
          "indexed": true,
          "internalType": "address",
          "name": "to",
          "type": "address"
        }
      ],
      "name": "OwnershipTransferred",
      "type": "event"
    },
    {
      "anonymous": false,
      "inputs": [
        {
          "indexed": false,
          "internalType": "uint256",
          "name": "requestId",
          "type": "uint256"
        },
        {
          "indexed": false,
          "internalType": "uint256[]",
          "name": "randomWords",
          "type": "uint256[]"
        }
      ],
      "name": "RequestFulfilled",
      "type": "event"
    },
    {
      "anonymous": false,
      "inputs": [
        {
          "indexed": false,
          "internalType": "uint256",
          "name": "requestId",
          "type": "uint256"
        },
        {
          "indexed": false,
          "internalType": "uint32",
          "name": "numWords",
          "type": "uint32"
        }
      ],
      "name": "RequestSent",
      "type": "event"
    },
    {
      "anonymous": false,
      "inputs": [
        {
          "indexed": false,
          "internalType": "uint8",
          "name": "shoot_counter",
          "type": "uint8"
        },
        {
          "indexed": false,
          "internalType": "uint8",
          "name": "Team1_Lvl",
          "type": "uint8"
        },
        {
          "indexed": false,
          "internalType": "uint8",
          "name": "Team2_Lvl",
          "type": "uint8"
        }
      ],
      "name": "testi",
      "type": "event"
    },
    {
      "inputs": [
        {
          "internalType": "uint256",
          "name": "",
          "type": "uint256"
        }
      ],
      "name": "Shoot_Detail",
      "outputs": [
        {
          "internalType": "uint8",
          "name": "shoot_no",
          "type": "uint8"
        },
        {
          "internalType": "uint8",
          "name": "team1_lvl",
          "type": "uint8"
        },
        {
          "internalType": "uint8",
          "name": "team2_lvl",
          "type": "uint8"
        },
        {
          "internalType": "bool",
          "name": "select_interface",
          "type": "bool"
        },
        {
          "internalType": "uint8",
          "name": "selected_interface",
          "type": "uint8"
        },
        {
          "internalType": "bool",
          "name": "shoot_completed",
          "type": "bool"
        },
        {
          "internalType": "enum Web3Football.shoot_winner",
          "name": "Winner_playerType",
          "type": "uint8"
        },
        {
          "internalType": "enum Web3Football.team_shoot_winner",
          "name": "ShootWinner_Team",
          "type": "uint8"
        }
      ],
      "stateMutability": "view",
      "type": "function"
    },
    {
      "inputs": [],
      "name": "acceptOwnership",
      "outputs": [],
      "stateMutability": "nonpayable",
      "type": "function"
    },
    {
      "inputs": [],
      "name": "lastRequestId",
      "outputs": [
        {
          "internalType": "uint256",
          "name": "",
          "type": "uint256"
        }
      ],
      "stateMutability": "view",
      "type": "function"
    },
    {
      "inputs": [],
      "name": "owner",
      "outputs": [
        {
          "internalType": "address",
          "name": "",
          "type": "address"
        }
      ],
      "stateMutability": "view",
      "type": "function"
    },
    {
      "inputs": [],
      "name": "playerState",
      "outputs": [
        {
          "internalType": "uint8",
          "name": "",
          "type": "uint8"
        }
      ],
      "stateMutability": "view",
      "type": "function"
    },
    {
      "inputs": [
        {
          "internalType": "uint256",
          "name": "",
          "type": "uint256"
        }
      ],
      "name": "randomNumbers",
      "outputs": [
        {
          "internalType": "uint256",
          "name": "",
          "type": "uint256"
        }
      ],
      "stateMutability": "view",
      "type": "function"
    },
    {
      "inputs": [
        {
          "internalType": "uint256",
          "name": "requestId",
          "type": "uint256"
        },
        {
          "internalType": "uint256[]",
          "name": "randomWords",
          "type": "uint256[]"
        }
      ],
      "name": "rawFulfillRandomWords",
      "outputs": [],
      "stateMutability": "nonpayable",
      "type": "function"
    },
    {
      "inputs": [
        {
          "internalType": "uint256",
          "name": "",
          "type": "uint256"
        }
      ],
      "name": "requestIds",
      "outputs": [
        {
          "internalType": "uint256",
          "name": "",
          "type": "uint256"
        }
      ],
      "stateMutability": "view",
      "type": "function"
    },
    {
      "inputs": [],
      "name": "roundNumber",
      "outputs": [
        {
          "internalType": "uint8",
          "name": "",
          "type": "uint8"
        }
      ],
      "stateMutability": "view",
      "type": "function"
    },
    {
      "inputs": [],
      "name": "round_counter",
      "outputs": [
        {
          "internalType": "uint8",
          "name": "",
          "type": "uint8"
        }
      ],
      "stateMutability": "view",
      "type": "function"
    },
    {
      "inputs": [
        {
          "internalType": "uint256",
          "name": "",
          "type": "uint256"
        }
      ],
      "name": "s_requests",
      "outputs": [
        {
          "internalType": "bool",
          "name": "fulfilled",
          "type": "bool"
        },
        {
          "internalType": "bool",
          "name": "exists",
          "type": "bool"
        },
        {
          "internalType": "bool",
          "name": "didWin",
          "type": "bool"
        }
      ],
      "stateMutability": "view",
      "type": "function"
    },
    {
      "inputs": [],
      "name": "shoot_counter",
      "outputs": [
        {
          "internalType": "uint8",
          "name": "",
          "type": "uint8"
        }
      ],
      "stateMutability": "view",
      "type": "function"
    },
    {
      "inputs": [],
      "name": "team1Score",
      "outputs": [
        {
          "internalType": "uint8",
          "name": "",
          "type": "uint8"
        }
      ],
      "stateMutability": "view",
      "type": "function"
    },
    {
      "inputs": [],
      "name": "team2Score",
      "outputs": [
        {
          "internalType": "uint8",
          "name": "",
          "type": "uint8"
        }
      ],
      "stateMutability": "view",
      "type": "function"
    },
    {
      "inputs": [],
      "name": "tossChoice",
      "outputs": [
        {
          "internalType": "uint8",
          "name": "",
          "type": "uint8"
        }
      ],
      "stateMutability": "view",
      "type": "function"
    },
    {
      "inputs": [
        {
          "internalType": "address",
          "name": "to",
          "type": "address"
        }
      ],
      "name": "transferOwnership",
      "outputs": [],
      "stateMutability": "nonpayable",
      "type": "function"
    },
    {
      "inputs": [],
      "name": "winOrLoss",
      "outputs": [
        {
          "internalType": "bool",
          "name": "",
          "type": "bool"
        }
      ],
      "stateMutability": "view",
      "type": "function"
    },
    {
      "inputs": [],
      "name": "initialize_array",
      "outputs": [],
      "stateMutability": "nonpayable",
      "type": "function"
    },
    {
      "inputs": [
        {
          "internalType": "uint8",
          "name": "choice",
          "type": "uint8"
        }
      ],
      "name": "updatePlayerState",
      "outputs": [],
      "stateMutability": "nonpayable",
      "type": "function"
    },
    {
      "inputs": [],
      "name": "roundNumberIncrease",
      "outputs": [],
      "stateMutability": "nonpayable",
      "type": "function"
    },
    {
      "inputs": [
        {
          "internalType": "uint8",
          "name": "choice",
          "type": "uint8"
        }
      ],
      "name": "setPlayerState",
      "outputs": [],
      "stateMutability": "nonpayable",
      "type": "function"
    },
    {
      "inputs": [
        {
          "internalType": "uint8",
          "name": "_tossChoice",
          "type": "uint8"
        }
      ],
      "name": "toss",
      "outputs": [],
      "stateMutability": "nonpayable",
      "type": "function"
    },
    {
      "inputs": [],
      "name": "interface_Selection",
      "outputs": [
        {
          "internalType": "uint8",
          "name": "",
          "type": "uint8"
        }
      ],
      "stateMutability": "view",
      "type": "function"
    },
    {
      "inputs": [
        {
          "internalType": "uint8",
          "name": "penalty_interface",
          "type": "uint8"
        },
        {
          "internalType": "uint8",
          "name": "user_choice",
          "type": "uint8"
        }
      ],
      "name": "penalty_shoot",
      "outputs": [],
      "stateMutability": "nonpayable",
      "type": "function"
    },
    {
      "inputs": [],
      "name": "round_result_check",
      "outputs": [
        {
          "internalType": "uint8",
          "name": "",
          "type": "uint8"
        }
      ],
      "stateMutability": "view",
      "type": "function"
    },
    {
      "inputs": [],
      "name": "update_shoot_counter",
      "outputs": [],
      "stateMutability": "nonpayable",
      "type": "function"
    },
    {
      "inputs": [],
      "name": "update_round_counter",
      "outputs": [],
      "stateMutability": "nonpayable",
      "type": "function"
    },
    {
      "inputs": [],
      "name": "reset",
      "outputs": [],
      "stateMutability": "nonpayable",
      "type": "function"
    },
    {
      "inputs": [],
      "name": "score_team1",
      "outputs": [
        {
          "internalType": "uint8",
          "name": "",
          "type": "uint8"
        }
      ],
      "stateMutability": "view",
      "type": "function"
    },
    {
      "inputs": [],
      "name": "score_team2",
      "outputs": [
        {
          "internalType": "uint8",
          "name": "",
          "type": "uint8"
        }
      ],
      "stateMutability": "view",
      "type": "function"
    },
    {
      "inputs": [],
      "name": "requestRandomWords",
      "outputs": [
        {
          "internalType": "uint256",
          "name": "requestId",
          "type": "uint256"
        }
      ],
      "stateMutability": "nonpayable",
      "type": "function"
    },
    {
      "inputs": [
        {
          "internalType": "uint256",
          "name": "_requestId",
          "type": "uint256"
        }
      ],
      "name": "getRequestStatus",
      "outputs": [
        {
          "internalType": "bool",
          "name": "fulfilled",
          "type": "bool"
        },
        {
          "internalType": "uint256[]",
          "name": "randomWords",
          "type": "uint256[]"
        },
        {
          "internalType": "bool",
          "name": "didWin",
          "type": "bool"
        }
      ],
      "stateMutability": "view",
      "type": "function"
    }
  ],
  "bytecode": "0x60a06040525f600160146101000a81548160ff021916908360ff1602179055506002600160166101000a81548160ff02191690836002811115620000485762000047620005c5565b5b02179055506040518060c00160405280600360ff168152602001600160ff168152602001600160ff168152602001600260ff168152602001600360ff168152602001600260ff168152506003906006620000a4929190620004ff565b506040518060c00160405280600260ff168152602001600360ff168152602001600360ff168152602001600160ff168152602001600160ff168152602001600260ff168152506004906006620000fc929190620004ff565b505f60055f6101000a81548160ff021916908360ff1602179055505f600560016101000a81548160ff021916908360ff1602179055505f600560026101000a81548160ff021916908360ff1602179055507f474e34a077df58807dbe9c96d3c009b23b3c6d0cce433e59bbf5b34f823bc56c5f1b603255620f424060335f6101000a81548163ffffffff021916908363ffffffff1602179055506003603360046101000a81548161ffff021916908361ffff1602179055506014603360066101000a81548163ffffffff021916908363ffffffff160217905550348015620001e2575f80fd5b50604051620041f3380380620041f3833981810160405281019062000208919062000638565b33805f738103b0a8a00be2ddc778e6e7eaa21791cd3646258073ffffffffffffffffffffffffffffffffffffffff1660808173ffffffffffffffffffffffffffffffffffffffff1681525050505f73ffffffffffffffffffffffffffffffffffffffff168273ffffffffffffffffffffffffffffffffffffffff1603620002c6576040517f08c379a0000000000000000000000000000000000000000000000000000000008152600401620002bd90620006c6565b60405180910390fd5b815f806101000a81548173ffffffffffffffffffffffffffffffffffffffff021916908373ffffffffffffffffffffffffffffffffffffffff1602179055505f73ffffffffffffffffffffffffffffffffffffffff168173ffffffffffffffffffffffffffffffffffffffff16146200034b576200034a81620003d260201b60201c565b5b505050738103b0a8a00be2ddc778e6e7eaa21791cd364625602f5f6101000a81548173ffffffffffffffffffffffffffffffffffffffff021916908373ffffffffffffffffffffffffffffffffffffffff16021790555080602f60146101000a81548167ffffffffffffffff021916908367ffffffffffffffff1602179055505062000754565b3373ffffffffffffffffffffffffffffffffffffffff168173ffffffffffffffffffffffffffffffffffffffff160362000443576040517f08c379a00000000000000000000000000000000000000000000000000000000081526004016200043a9062000734565b60405180910390fd5b8060015f6101000a81548173ffffffffffffffffffffffffffffffffffffffff021916908373ffffffffffffffffffffffffffffffffffffffff1602179055508073ffffffffffffffffffffffffffffffffffffffff165f8054906101000a900473ffffffffffffffffffffffffffffffffffffffff1673ffffffffffffffffffffffffffffffffffffffff167fed8889f560326eb138920d842192f0eb3dd22b4f139c87a2c57538e05bae127860405160405180910390a350565b828054828255905f5260205f2090601f0160209004810192821562000595579160200282015f5b838211156200056557835183826101000a81548160ff021916908360ff16021790555092602001926001016020815f0104928301926001030262000526565b8015620005935782816101000a81549060ff02191690556001016020815f0104928301926001030262000565565b505b509050620005a49190620005a8565b5090565b5b80821115620005c1575f815f905550600101620005a9565b5090565b7f4e487b71000000000000000000000000000000000000000000000000000000005f52602160045260245ffd5b5f80fd5b5f67ffffffffffffffff82169050919050565b6200061481620005f6565b81146200061f575f80fd5b50565b5f81519050620006328162000609565b92915050565b5f6020828403121562000650576200064f620005f2565b5b5f6200065f8482850162000622565b91505092915050565b5f82825260208201905092915050565b7f43616e6e6f7420736574206f776e657220746f207a65726f00000000000000005f82015250565b5f620006ae60188362000668565b9150620006bb8262000678565b602082019050919050565b5f6020820190508181035f830152620006df81620006a0565b9050919050565b7f43616e6e6f74207472616e7366657220746f2073656c660000000000000000005f82015250565b5f6200071c60178362000668565b91506200072982620006e6565b602082019050919050565b5f6020820190508181035f8301526200074d816200070e565b9050919050565b608051613a7f620007745f395f8181611b500152611ba40152613a7f5ff3fe608060405234801561000f575f80fd5b50600436106101ee575f3560e01c8063a76885381161010d578063dd4b23cd116100a0578063f1b65bdb1161006f578063f1b65bdb1461051d578063f2fde38b1461053b578063fc2a88c314610557578063fccda8d414610575576101ee565b8063dd4b23cd146104bb578063e0c86289146104c5578063e497064a146104e3578063efb8e10914610501576101ee565b8063d34c9d46116100dc578063d34c9d4614610443578063d826f88f14610461578063d8a4676f1461046b578063dc91697e1461049d576101ee565b8063a7688538146103e1578063b2f343e6146103ff578063bc173c5f1461041b578063c8cf437814610439576101ee565b8063557fcdd81161018557806379ba50971161015457806379ba5097146103575780638796ba8c146103615780638da5cb5b14610391578063a168fa89146103af576101ee565b8063557fcdd8146102c85780635f59d29c146102e457806361958ca91461030257806370d02e9b14610339576101ee565b80634e2786fb116101c15780634e2786fb1461025257806350ace4e5146102705780635257cd901461028e57806354e52aed146102be576101ee565b80630a1aa765146101f257806311b7dedb146101fc5780631fe543e3146102185780633564ac9c14610234575b5f80fd5b6101fa610593565b005b61021660048036038101906102119190612ed9565b6105cd565b005b610232600480360381019061022d919061309a565b611b4e565b005b61023c611c0e565b6040516102499190613103565b60405180910390f35b61025a611c21565b6040516102679190613103565b60405180910390f35b610278611c34565b6040516102859190613103565b60405180910390f35b6102a860048036038101906102a3919061311c565b611c46565b6040516102b59190613156565b60405180910390f35b6102c6611c66565b005b6102e260048036038101906102dd919061316f565b611de2565b005b6102ec611e00565b6040516102f99190613103565b60405180910390f35b61031c6004803603810190610317919061311c565b611e13565b60405161033098979695949392919061326d565b60405180910390f35b610341611ebb565b60405161034e91906132e9565b60405180910390f35b61035f611ecc565b005b61037b6004803603810190610376919061311c565b61205b565b6040516103889190613156565b60405180910390f35b61039961207b565b6040516103a69190613341565b60405180910390f35b6103c960048036038101906103c4919061311c565b6120a2565b6040516103d89392919061335a565b60405180910390f35b6103e96120ec565b6040516103f69190613103565b60405180910390f35b6104196004803603810190610414919061316f565b6120ff565b005b610423612196565b6040516104309190613103565b60405180910390f35b6104416121a9565b005b61044b6121e1565b6040516104589190613103565b60405180910390f35b61046961221e565b005b6104856004803603810190610480919061311c565b6122a6565b60405161049493929190613446565b60405180910390f35b6104a56123e8565b6040516104b29190613103565b60405180910390f35b6104c3612425565b005b6104cd61245f565b6040516104da9190613156565b60405180910390f35b6104eb6126c7565b6040516104f89190613103565b60405180910390f35b61051b6004803603810190610516919061316f565b612962565b005b610525612980565b6040516105329190613103565b60405180910390f35b610555600480360381019061055091906134ac565b612993565b005b61055f6129a7565b60405161056c9190613156565b60405180910390f35b61057d6129ad565b60405161058a9190613103565b60405180910390f35b6001601581819054906101000a900460ff16809291906105b290613504565b91906101000a81548160ff021916908360ff16021790555050565b60018260ff161480156105f257506001600560039054906101000a900460ff1660ff16145b1561094a5760018160ff161015801561060f575060028160ff1611155b61064e576040517f08c379a000000000000000000000000000000000000000000000000000000000815260040161064590613586565b60405180910390fd5b5f6001600280600560029054906101000a900460ff1660ff1681548110610678576106776135a4565b5b905f5260205f20015461068b91906135fe565b610695919061362e565b9050808260ff16036107da5760016006600560029054906101000a900460ff1660ff16601481106106c9576106c86135a4565b5b015f0160056101000a81548160ff0219169083151502179055505f6006600560029054906101000a900460ff1660ff166014811061070a576107096135a4565b5b015f0160066101000a81548160ff0219169083600181111561072f5761072e6131b4565b5b02179055505f6006600560029054906101000a900460ff1660ff166014811061075b5761075a6135a4565b5b015f0160076101000a81548160ff021916908360018111156107805761077f6131b4565b5b0217905550600560029054906101000a900460ff16601a600160159054906101000a900460ff1660ff16601481106107bb576107ba6135a4565b5b015f015f6101000a81548160ff021916908360ff160217905550610948565b60016006600560029054906101000a900460ff1660ff1660148110610802576108016135a4565b5b015f0160056101000a81548160ff02191690831515021790555060016006600560029054906101000a900460ff1660ff1660148110610844576108436135a4565b5b015f0160066101000a81548160ff02191690836001811115610869576108686131b4565b5b021790555060016006600560029054906101000a900460ff1660ff1660148110610896576108956135a4565b5b015f0160076101000a81548160ff021916908360018111156108bb576108ba6131b4565b5b0217905550600560029054906101000a900460ff16601a600160159054906101000a900460ff1660ff16601481106108f6576108f56135a4565b5b015f015f6101000a81548160ff021916908360ff1602179055506001600560018282829054906101000a900460ff1661092f9190613661565b92506101000a81548160ff021916908360ff1602179055505b505b60018260ff1614801561096f57506002600560039054906101000a900460ff1660ff16145b15610cc65760018160ff161015801561098c575060028160ff1611155b6109cb576040517f08c379a00000000000000000000000000000000000000000000000000000000081526004016109c290613586565b60405180910390fd5b5f6001600280600560029054906101000a900460ff1660ff16815481106109f5576109f46135a4565b5b905f5260205f200154610a0891906135fe565b610a12919061362e565b9050808260ff1603610b585760016006600560029054906101000a900460ff1660ff1660148110610a4657610a456135a4565b5b015f0160056101000a81548160ff0219169083151502179055505f6006600560029054906101000a900460ff1660ff1660148110610a8757610a866135a4565b5b015f0160066101000a81548160ff02191690836001811115610aac57610aab6131b4565b5b021790555060016006600560029054906101000a900460ff1660ff1660148110610ad957610ad86135a4565b5b015f0160076101000a81548160ff02191690836001811115610afe57610afd6131b4565b5b0217905550600160149054906101000a900460ff16601a600160159054906101000a900460ff1660ff1660148110610b3957610b386135a4565b5b015f015f6101000a81548160ff021916908360ff160217905550610cc4565b60016006600560029054906101000a900460ff1660ff1660148110610b8057610b7f6135a4565b5b015f0160056101000a81548160ff02191690831515021790555060016006600560029054906101000a900460ff1660ff1660148110610bc257610bc16135a4565b5b015f0160066101000a81548160ff02191690836001811115610be757610be66131b4565b5b02179055505f6006600560029054906101000a900460ff1660ff1660148110610c1357610c126135a4565b5b015f0160076101000a81548160ff02191690836001811115610c3857610c376131b4565b5b0217905550600560029054906101000a900460ff16601a600160159054906101000a900460ff1660ff1660148110610c7357610c726135a4565b5b015f015f6101000a81548160ff021916908360ff160217905550600160055f8282829054906101000a900460ff16610cab9190613661565b92506101000a81548160ff021916908360ff1602179055505b505b60028260ff16148015610ceb57506001600560039054906101000a900460ff1660ff16145b156110445760018160ff1610158015610d08575060048160ff1611155b610d47576040517f08c379a0000000000000000000000000000000000000000000000000000000008152600401610d3e90613586565b60405180910390fd5b5f600160046002600560029054906101000a900460ff1660ff1681548110610d7257610d716135a4565b5b905f5260205f200154610d8591906135fe565b610d8f919061362e565b9050808260ff1603610ed45760016006600560029054906101000a900460ff1660ff1660148110610dc357610dc26135a4565b5b015f0160056101000a81548160ff0219169083151502179055505f6006600560029054906101000a900460ff1660ff1660148110610e0457610e036135a4565b5b015f0160066101000a81548160ff02191690836001811115610e2957610e286131b4565b5b02179055505f6006600560029054906101000a900460ff1660ff1660148110610e5557610e546135a4565b5b015f0160076101000a81548160ff02191690836001811115610e7a57610e796131b4565b5b0217905550600560029054906101000a900460ff16601a600160159054906101000a900460ff1660ff1660148110610eb557610eb46135a4565b5b015f015f6101000a81548160ff021916908360ff160217905550611042565b60016006600560029054906101000a900460ff1660ff1660148110610efc57610efb6135a4565b5b015f0160056101000a81548160ff02191690831515021790555060016006600560029054906101000a900460ff1660ff1660148110610f3e57610f3d6135a4565b5b015f0160066101000a81548160ff02191690836001811115610f6357610f626131b4565b5b021790555060016006600560029054906101000a900460ff1660ff1660148110610f9057610f8f6135a4565b5b015f0160076101000a81548160ff02191690836001811115610fb557610fb46131b4565b5b0217905550600560029054906101000a900460ff16601a600160159054906101000a900460ff1660ff1660148110610ff057610fef6135a4565b5b015f015f6101000a81548160ff021916908360ff1602179055506001600560018282829054906101000a900460ff166110299190613661565b92506101000a81548160ff021916908360ff1602179055505b505b60028260ff1614801561106957506002600560039054906101000a900460ff1660ff16145b156113c15760018160ff1610158015611086575060048160ff1611155b6110c5576040517f08c379a00000000000000000000000000000000000000000000000000000000081526004016110bc90613586565b60405180910390fd5b5f600160046002600560029054906101000a900460ff1660ff16815481106110f0576110ef6135a4565b5b905f5260205f20015461110391906135fe565b61110d919061362e565b9050808260ff16036112535760016006600560029054906101000a900460ff1660ff1660148110611141576111406135a4565b5b015f0160056101000a81548160ff0219169083151502179055505f6006600560029054906101000a900460ff1660ff1660148110611182576111816135a4565b5b015f0160066101000a81548160ff021916908360018111156111a7576111a66131b4565b5b021790555060016006600560029054906101000a900460ff1660ff16601481106111d4576111d36135a4565b5b015f0160076101000a81548160ff021916908360018111156111f9576111f86131b4565b5b0217905550600560029054906101000a900460ff16601a600160159054906101000a900460ff1660ff1660148110611234576112336135a4565b5b015f015f6101000a81548160ff021916908360ff1602179055506113bf565b60016006600560029054906101000a900460ff1660ff166014811061127b5761127a6135a4565b5b015f0160056101000a81548160ff02191690831515021790555060016006600560029054906101000a900460ff1660ff16601481106112bd576112bc6135a4565b5b015f0160066101000a81548160ff021916908360018111156112e2576112e16131b4565b5b02179055505f6006600560029054906101000a900460ff1660ff166014811061130e5761130d6135a4565b5b015f0160076101000a81548160ff02191690836001811115611333576113326131b4565b5b0217905550600560029054906101000a900460ff16601a600160159054906101000a900460ff1660ff166014811061136e5761136d6135a4565b5b015f015f6101000a81548160ff021916908360ff160217905550600160055f8282829054906101000a900460ff166113a69190613661565b92506101000a81548160ff021916908360ff1602179055505b505b60038260ff161480156113e657506001600560039054906101000a900460ff1660ff16145b1561173f5760018160ff1610158015611403575060088160ff1611155b611442576040517f08c379a000000000000000000000000000000000000000000000000000000000815260040161143990613586565b60405180910390fd5b5f600160086002600560029054906101000a900460ff1660ff168154811061146d5761146c6135a4565b5b905f5260205f20015461148091906135fe565b61148a919061362e565b9050808260ff16036115cf5760016006600560029054906101000a900460ff1660ff16601481106114be576114bd6135a4565b5b015f0160056101000a81548160ff0219169083151502179055505f6006600560029054906101000a900460ff1660ff16601481106114ff576114fe6135a4565b5b015f0160066101000a81548160ff02191690836001811115611524576115236131b4565b5b02179055505f6006600560029054906101000a900460ff1660ff16601481106115505761154f6135a4565b5b015f0160076101000a81548160ff02191690836001811115611575576115746131b4565b5b0217905550600560029054906101000a900460ff16601a600160159054906101000a900460ff1660ff16601481106115b0576115af6135a4565b5b015f015f6101000a81548160ff021916908360ff16021790555061173d565b60016006600560029054906101000a900460ff1660ff16601481106115f7576115f66135a4565b5b015f0160056101000a81548160ff02191690831515021790555060016006600560029054906101000a900460ff1660ff1660148110611639576116386135a4565b5b015f0160066101000a81548160ff0219169083600181111561165e5761165d6131b4565b5b021790555060016006600560029054906101000a900460ff1660ff166014811061168b5761168a6135a4565b5b015f0160076101000a81548160ff021916908360018111156116b0576116af6131b4565b5b0217905550600560029054906101000a900460ff16601a600160159054906101000a900460ff1660ff16601481106116eb576116ea6135a4565b5b015f015f6101000a81548160ff021916908360ff1602179055506001600560018282829054906101000a900460ff166117249190613661565b92506101000a81548160ff021916908360ff1602179055505b505b60038260ff1614801561176457506002600560039054906101000a900460ff1660ff16145b15611abc5760018160ff1610158015611781575060088160ff1611155b6117c0576040517f08c379a00000000000000000000000000000000000000000000000000000000081526004016117b790613586565b60405180910390fd5b5f600160086002600560029054906101000a900460ff1660ff16815481106117eb576117ea6135a4565b5b905f5260205f2001546117fe91906135fe565b611808919061362e565b9050808260ff160361194e5760016006600560029054906101000a900460ff1660ff166014811061183c5761183b6135a4565b5b015f0160056101000a81548160ff0219169083151502179055505f6006600560029054906101000a900460ff1660ff166014811061187d5761187c6135a4565b5b015f0160066101000a81548160ff021916908360018111156118a2576118a16131b4565b5b021790555060016006600560029054906101000a900460ff1660ff16601481106118cf576118ce6135a4565b5b015f0160076101000a81548160ff021916908360018111156118f4576118f36131b4565b5b0217905550600560029054906101000a900460ff16601a600160159054906101000a900460ff1660ff166014811061192f5761192e6135a4565b5b015f015f6101000a81548160ff021916908360ff160217905550611aba565b60016006600560029054906101000a900460ff1660ff1660148110611976576119756135a4565b5b015f0160056101000a81548160ff02191690831515021790555060016006600560029054906101000a900460ff1660ff16601481106119b8576119b76135a4565b5b015f0160066101000a81548160ff021916908360018111156119dd576119dc6131b4565b5b02179055505f6006600560029054906101000a900460ff1660ff1660148110611a0957611a086135a4565b5b015f0160076101000a81548160ff02191690836001811115611a2e57611a2d6131b4565b5b0217905550600560029054906101000a900460ff16601a600160159054906101000a900460ff1660ff1660148110611a6957611a686135a4565b5b015f015f6101000a81548160ff021916908360ff160217905550600160055f8282829054906101000a900460ff16611aa19190613661565b92506101000a81548160ff021916908360ff1602179055505b505b6001600560039054906101000a900460ff1660ff1603611af7576002600560036101000a81548160ff021916908360ff160217905550611b14565b6001600560036101000a81548160ff021916908360ff1602179055505b6001600560029054906101000a900460ff16611b309190613661565b600560026101000a81548160ff021916908360ff1602179055505050565b7f000000000000000000000000000000000000000000000000000000000000000073ffffffffffffffffffffffffffffffffffffffff163373ffffffffffffffffffffffffffffffffffffffff1614611c0057337f00000000000000000000000000000000000000000000000000000000000000006040517f1cf993f4000000000000000000000000000000000000000000000000000000008152600401611bf7929190613695565b60405180910390fd5b611c0a8282612b11565b5050565b600160149054906101000a900460ff1681565b600560029054906101000a900460ff1681565b60055f9054906101000a900460ff1681565b60028181548110611c55575f80fd5b905f5260205f20015f915090505481565b6303227f2860025f81548110611c7f57611c7e6135a4565b5b905f5260205f20018190555063356c19966002600181548110611ca557611ca46135a4565b5b905f5260205f200181905550632d69508860028081548110611cca57611cc96135a4565b5b905f5260205f20018190555063279df8006002600381548110611cf057611cef6135a4565b5b905f5260205f2001819055506328582b376002600481548110611d1657611d156135a4565b5b905f5260205f2001819055506303227f286002600581548110611d3c57611d3b6135a4565b5b905f5260205f20018190555063356c19966002600681548110611d6257611d616135a4565b5b905f5260205f200181905550632d6950886002600781548110611d8857611d876135a4565b5b905f5260205f20018190555063279df8006002600881548110611dae57611dad6135a4565b5b905f5260205f2001819055506328582b376002600981548110611dd457611dd36135a4565b5b905f5260205f200181905550565b80600560036101000a81548160ff021916908360ff16021790555050565b600160159054906101000a900460ff1681565b60068160148110611e22575f80fd5b015f91509050805f015f9054906101000a900460ff1690805f0160019054906101000a900460ff1690805f0160029054906101000a900460ff1690805f0160039054906101000a900460ff1690805f0160049054906101000a900460ff1690805f0160059054906101000a900460ff1690805f0160069054906101000a900460ff1690805f0160079054906101000a900460ff16905088565b60058054906101000a900460ff1681565b60015f9054906101000a900473ffffffffffffffffffffffffffffffffffffffff1673ffffffffffffffffffffffffffffffffffffffff163373ffffffffffffffffffffffffffffffffffffffff1614611f5b576040517f08c379a0000000000000000000000000000000000000000000000000000000008152600401611f5290613706565b60405180910390fd5b5f805f9054906101000a900473ffffffffffffffffffffffffffffffffffffffff169050335f806101000a81548173ffffffffffffffffffffffffffffffffffffffff021916908373ffffffffffffffffffffffffffffffffffffffff1602179055505f60015f6101000a81548173ffffffffffffffffffffffffffffffffffffffff021916908373ffffffffffffffffffffffffffffffffffffffff1602179055503373ffffffffffffffffffffffffffffffffffffffff168173ffffffffffffffffffffffffffffffffffffffff167f8be0079c531659141344cd1fd0a4f28419497f9722a3daafe3b4186f6b6457e060405160405180910390a350565b6030818154811061206a575f80fd5b905f5260205f20015f915090505481565b5f805f9054906101000a900473ffffffffffffffffffffffffffffffffffffffff16905090565b602e602052805f5260405f205f91509050805f015f9054906101000a900460ff1690805f0160019054906101000a900460ff1690806002015f9054906101000a900460ff16905083565b600560019054906101000a900460ff1681565b80600560046101000a81548160ff021916908360ff160217905550600560049054906101000a900460ff1660ff166002805f81548110612142576121416135a4565b5b905f5260205f20015461215591906135fe565b036121795760016005806101000a81548160ff021916908315150217905550612193565b5f6005806101000a81548160ff0219169083151502179055505b50565b600560039054906101000a900460ff1681565b6001600560029054906101000a900460ff166121c59190613661565b600560026101000a81548160ff021916908360ff160217905550565b5f601a600160159054906101000a900460ff1660ff1660148110612208576122076135a4565b5b015f0160019054906101000a900460ff16905090565b5f600160146101000a81548160ff021916908360ff1602179055505f600560026101000a81548160ff021916908360ff1602179055505f60055f6101000a81548160ff021916908360ff1602179055505f600560016101000a81548160ff021916908360ff1602179055505f600560036101000a81548160ff021916908360ff160217905550565b5f60605f602e5f8581526020019081526020015f205f0160019054906101000a900460ff1661230a576040517f08c379a00000000000000000000000000000000000000000000000000000000081526004016123019061376e565b60405180910390fd5b5f602e5f8681526020019081526020015f206040518060800160405290815f82015f9054906101000a900460ff161515151581526020015f820160019054906101000a900460ff16151515158152602001600182018054806020026020016040519081016040528092919081815260200182805480156123a757602002820191905f5260205f20905b815481526020019060010190808311612393575b50505050508152602001600282015f9054906101000a900460ff1615151515815250509050805f015181604001518260600151935093509350509193909250565b5f601a600160159054906101000a900460ff1660ff166014811061240f5761240e6135a4565b5b015f0160029054906101000a900460ff16905090565b6001601481819054906101000a900460ff168092919061244490613504565b91906101000a81548160ff021916908360ff16021790555050565b5f602f5f9054906101000a900473ffffffffffffffffffffffffffffffffffffffff1673ffffffffffffffffffffffffffffffffffffffff16635d3b1d30603254602f60149054906101000a900467ffffffffffffffff16603360049054906101000a900461ffff1660335f9054906101000a900463ffffffff16603360069054906101000a900463ffffffff166040518663ffffffff1660e01b815260040161250d959493929190613800565b6020604051808303815f875af1158015612529573d5f803e3d5ffd5b505050506040513d601f19601f8201168201806040525081019061254d9190613865565b905060405180608001604052805f151581526020016001151581526020015f67ffffffffffffffff81111561258557612584612f5e565b5b6040519080825280602002602001820160405280156125b35781602001602082028036833780820191505090505b50815260200160011515815250602e5f8381526020019081526020015f205f820151815f015f6101000a81548160ff0219169083151502179055506020820151815f0160016101000a81548160ff0219169083151502179055506040820151816001019080519060200190612629929190612e2c565b506060820151816002015f6101000a81548160ff021916908315150217905550905050603081908060018154018082558091505060019003905f5260205f20015f9091909190915055806031819055507fcc58b13ad3eab50626c6a6300b1d139cd6ebb1688a7cced9461c2f7e762665ee81603360069054906101000a900463ffffffff166040516126bc929190613890565b60405180910390a190565b5f8060055f9054906101000a900460ff1690505f600560019054906101000a900460ff169050600a600560029054906101000a900460ff1660ff16116128ec575f805f6002600560029054906101000a900460ff1661272691906138b7565b60ff160361279d57836002600560029054906101000a900460ff1661274b91906138e7565b60056127579190613917565b6127619190613661565b9150826002600560029054906101000a900460ff1661278091906138e7565b600561278c9190613917565b6127969190613661565b90506128aa565b6002600560039054906101000a900460ff1660ff160361283257836002600560029054906101000a900460ff166127d491906138e7565b60056127e09190613917565b6127ea9190613661565b91508260016002600560029054906101000a900460ff1661280b91906138e7565b60056128179190613917565b6128219190613917565b61282b9190613661565b90506128a9565b8360016002600560029054906101000a900460ff1661285191906138e7565b600561285d9190613917565b6128679190613917565b6128719190613661565b9150826002600560029054906101000a900460ff1661289091906138e7565b600561289c9190613917565b6128a69190613661565b90505b5b8060ff168460ff1611156128c557600194505050505061295f565b8160ff168360ff1611156128e057600294505050505061295f565b5f94505050505061295f565b5f60026001600560029054906101000a900460ff1661290b9190613661565b61291591906138b7565b60ff1603612959578060ff168260ff1611156129365760019250505061295f565b8060ff168260ff16101561294f5760029250505061295f565b5f9250505061295f565b5f925050505b90565b80600560036101000a81548160ff021916908360ff16021790555050565b600560049054906101000a900460ff1681565b61299b612c73565b6129a481612d02565b50565b60315481565b5f805f806002600a600560029054906101000a900460ff166129cf91906138b7565b6129d991906138e7565b90506002600560039054906101000a900460ff1660ff1603612a665760038160ff1681548110612a0c57612a0b6135a4565b5b905f5260205f2090602091828204019190069054906101000a900460ff1691506004600581548110612a4157612a406135a4565b5b905f5260205f2090602091828204019190069054906101000a900460ff169250612ad3565b60048160ff1681548110612a7d57612a7c6135a4565b5b905f5260205f2090602091828204019190069054906101000a900460ff1691506003600581548110612ab257612ab16135a4565b5b905f5260205f2090602091828204019190069054906101000a900460ff1692505b8260ff168260ff161115612aed5760039350505050612b0e565b8260ff168260ff1603612b065760029350505050612b0e565b600193505050505b90565b602e5f8381526020019081526020015f205f0160019054906101000a900460ff16612b71576040517f08c379a0000000000000000000000000000000000000000000000000000000008152600401612b689061376e565b60405180910390fd5b6001602e5f8481526020019081526020015f205f015f6101000a81548160ff02191690831515021790555080602e5f8481526020019081526020015f206001019080519060200190612bc4929190612e2c565b505f6002825f81518110612bdb57612bda6135a4565b5b6020026020010151612bed91906135fe565b03612c1f576001602e5f8481526020019081526020015f206002015f6101000a81548160ff0219169083151502179055505b8060029080519060200190612c35929190612e2c565b507ffe2e2d779dba245964d4e3ef9b994be63856fd568bf7d3ca9e224755cb1bd54d8282604051612c6792919061394b565b60405180910390a15050565b5f8054906101000a900473ffffffffffffffffffffffffffffffffffffffff1673ffffffffffffffffffffffffffffffffffffffff163373ffffffffffffffffffffffffffffffffffffffff1614612d00576040517f08c379a0000000000000000000000000000000000000000000000000000000008152600401612cf7906139c3565b60405180910390fd5b565b3373ffffffffffffffffffffffffffffffffffffffff168173ffffffffffffffffffffffffffffffffffffffff1603612d70576040517f08c379a0000000000000000000000000000000000000000000000000000000008152600401612d6790613a2b565b60405180910390fd5b8060015f6101000a81548173ffffffffffffffffffffffffffffffffffffffff021916908373ffffffffffffffffffffffffffffffffffffffff1602179055508073ffffffffffffffffffffffffffffffffffffffff165f8054906101000a900473ffffffffffffffffffffffffffffffffffffffff1673ffffffffffffffffffffffffffffffffffffffff167fed8889f560326eb138920d842192f0eb3dd22b4f139c87a2c57538e05bae127860405160405180910390a350565b828054828255905f5260205f20908101928215612e66579160200282015b82811115612e65578251825591602001919060010190612e4a565b5b509050612e739190612e77565b5090565b5b80821115612e8e575f815f905550600101612e78565b5090565b5f604051905090565b5f80fd5b5f80fd5b5f60ff82169050919050565b612eb881612ea3565b8114612ec2575f80fd5b50565b5f81359050612ed381612eaf565b92915050565b5f8060408385031215612eef57612eee612e9b565b5b5f612efc85828601612ec5565b9250506020612f0d85828601612ec5565b9150509250929050565b5f819050919050565b612f2981612f17565b8114612f33575f80fd5b50565b5f81359050612f4481612f20565b92915050565b5f80fd5b5f601f19601f8301169050919050565b7f4e487b71000000000000000000000000000000000000000000000000000000005f52604160045260245ffd5b612f9482612f4e565b810181811067ffffffffffffffff82111715612fb357612fb2612f5e565b5b80604052505050565b5f612fc5612e92565b9050612fd18282612f8b565b919050565b5f67ffffffffffffffff821115612ff057612fef612f5e565b5b602082029050602081019050919050565b5f80fd5b5f61301761301284612fd6565b612fbc565b9050808382526020820190506020840283018581111561303a57613039613001565b5b835b81811015613063578061304f8882612f36565b84526020840193505060208101905061303c565b5050509392505050565b5f82601f83011261308157613080612f4a565b5b8135613091848260208601613005565b91505092915050565b5f80604083850312156130b0576130af612e9b565b5b5f6130bd85828601612f36565b925050602083013567ffffffffffffffff8111156130de576130dd612e9f565b5b6130ea8582860161306d565b9150509250929050565b6130fd81612ea3565b82525050565b5f6020820190506131165f8301846130f4565b92915050565b5f6020828403121561313157613130612e9b565b5b5f61313e84828501612f36565b91505092915050565b61315081612f17565b82525050565b5f6020820190506131695f830184613147565b92915050565b5f6020828403121561318457613183612e9b565b5b5f61319184828501612ec5565b91505092915050565b5f8115159050919050565b6131ae8161319a565b82525050565b7f4e487b71000000000000000000000000000000000000000000000000000000005f52602160045260245ffd5b600281106131f2576131f16131b4565b5b50565b5f819050613202826131e1565b919050565b5f613211826131f5565b9050919050565b61322181613207565b82525050565b60028110613238576132376131b4565b5b50565b5f81905061324882613227565b919050565b5f6132578261323b565b9050919050565b6132678161324d565b82525050565b5f610100820190506132815f83018b6130f4565b61328e602083018a6130f4565b61329b60408301896130f4565b6132a860608301886131a5565b6132b560808301876130f4565b6132c260a08301866131a5565b6132cf60c0830185613218565b6132dc60e083018461325e565b9998505050505050505050565b5f6020820190506132fc5f8301846131a5565b92915050565b5f73ffffffffffffffffffffffffffffffffffffffff82169050919050565b5f61332b82613302565b9050919050565b61333b81613321565b82525050565b5f6020820190506133545f830184613332565b92915050565b5f60608201905061336d5f8301866131a5565b61337a60208301856131a5565b61338760408301846131a5565b949350505050565b5f81519050919050565b5f82825260208201905092915050565b5f819050602082019050919050565b6133c181612f17565b82525050565b5f6133d283836133b8565b60208301905092915050565b5f602082019050919050565b5f6133f48261338f565b6133fe8185613399565b9350613409836133a9565b805f5b8381101561343957815161342088826133c7565b975061342b836133de565b92505060018101905061340c565b5085935050505092915050565b5f6060820190506134595f8301866131a5565b818103602083015261346b81856133ea565b905061347a60408301846131a5565b949350505050565b61348b81613321565b8114613495575f80fd5b50565b5f813590506134a681613482565b92915050565b5f602082840312156134c1576134c0612e9b565b5b5f6134ce84828501613498565b91505092915050565b7f4e487b71000000000000000000000000000000000000000000000000000000005f52601160045260245ffd5b5f61350e82612ea3565b915060ff8203613521576135206134d7565b5b600182019050919050565b5f82825260208201905092915050565b7f496e76616c69642063686f6963652066726f6d20706c617965720000000000005f82015250565b5f613570601a8361352c565b915061357b8261353c565b602082019050919050565b5f6020820190508181035f83015261359d81613564565b9050919050565b7f4e487b71000000000000000000000000000000000000000000000000000000005f52603260045260245ffd5b7f4e487b71000000000000000000000000000000000000000000000000000000005f52601260045260245ffd5b5f61360882612f17565b915061361383612f17565b925082613623576136226135d1565b5b828206905092915050565b5f61363882612f17565b915061364383612f17565b925082820190508082111561365b5761365a6134d7565b5b92915050565b5f61366b82612ea3565b915061367683612ea3565b9250828201905060ff81111561368f5761368e6134d7565b5b92915050565b5f6040820190506136a85f830185613332565b6136b56020830184613332565b9392505050565b7f4d7573742062652070726f706f736564206f776e6572000000000000000000005f82015250565b5f6136f060168361352c565b91506136fb826136bc565b602082019050919050565b5f6020820190508181035f83015261371d816136e4565b9050919050565b7f72657175657374206e6f7420666f756e640000000000000000000000000000005f82015250565b5f61375860118361352c565b915061376382613724565b602082019050919050565b5f6020820190508181035f8301526137858161374c565b9050919050565b5f819050919050565b61379e8161378c565b82525050565b5f67ffffffffffffffff82169050919050565b6137c0816137a4565b82525050565b5f61ffff82169050919050565b6137dc816137c6565b82525050565b5f63ffffffff82169050919050565b6137fa816137e2565b82525050565b5f60a0820190506138135f830188613795565b61382060208301876137b7565b61382d60408301866137d3565b61383a60608301856137f1565b61384760808301846137f1565b9695505050505050565b5f8151905061385f81612f20565b92915050565b5f6020828403121561387a57613879612e9b565b5b5f61388784828501613851565b91505092915050565b5f6040820190506138a35f830185613147565b6138b060208301846137f1565b9392505050565b5f6138c182612ea3565b91506138cc83612ea3565b9250826138dc576138db6135d1565b5b828206905092915050565b5f6138f182612ea3565b91506138fc83612ea3565b92508261390c5761390b6135d1565b5b828204905092915050565b5f61392182612ea3565b915061392c83612ea3565b9250828203905060ff811115613945576139446134d7565b5b92915050565b5f60408201905061395e5f830185613147565b818103602083015261397081846133ea565b90509392505050565b7f4f6e6c792063616c6c61626c65206279206f776e6572000000000000000000005f82015250565b5f6139ad60168361352c565b91506139b882613979565b602082019050919050565b5f6020820190508181035f8301526139da816139a1565b9050919050565b7f43616e6e6f74207472616e7366657220746f2073656c660000000000000000005f82015250565b5f613a1560178361352c565b9150613a20826139e1565b602082019050919050565b5f6020820190508181035f830152613a4281613a09565b905091905056fea2646970667358221220c08264142d195bfc5eed9a1f874b0e0aa77d8f277efc0e96a302f022ead1008664736f6c63430008140033",
  "immutableReferences": {
    "192": [
      {
        "length": 32,
        "start": 6992
      },
      {
        "length": 32,
        "start": 7076
      }
    ]
  },
  "source": "// SPDX-License-Identifier: MIT\r\n// An example of a consumer contract that relies on a subscription for funding.\r\npragma solidity ^0.8.7;\r\n\r\nimport \"@chainlink/contracts/src/v0.8/interfaces/VRFCoordinatorV2Interface.sol\";\r\nimport \"@chainlink/contracts/src/v0.8/VRFConsumerBaseV2.sol\";\r\nimport \"@chainlink/contracts/src/v0.8/ConfirmedOwner.sol\";\r\n\r\n/**\r\n * Request testnet LINK and ETH here: https://faucets.chain.link/\r\n * Find information on LINK Token Contracts and get the latest ETH and LINK faucets here: https://docs.chain.link/docs/link-token-contracts/\r\n */\r\n\r\n/**\r\n * THIS IS AN EXAMPLE CONTRACT THAT USES HARDCODED VALUES FOR CLARITY.\r\n * THIS IS AN EXAMPLE CONTRACT THAT USES UN-AUDITED CODE.\r\n * DO NOT USE THIS CODE IN PRODUCTION.\r\n */\r\n\r\ncontract Web3Football is VRFConsumerBaseV2, ConfirmedOwner {\r\n    uint8 public shoot_counter = 0;\r\n    uint8 public round_counter;\r\n    round_winner status = round_winner.MATCH_GOING_ON;\r\n    uint256[] public randomNumbers;\r\n    uint8[] team1Ratings = [3, 1, 1, 2, 3, 2];\r\n    uint8[] team2Ratings = [2, 3, 3, 1, 1, 2];\r\n    uint8 public team1Score = 0;\r\n    uint8 public team2Score = 0;\r\n    uint8 public roundNumber = 0;\r\n\r\n    function initialize_array() public {\r\n        randomNumbers[0] = 52592424;\r\n        randomNumbers[1] = 896276886;\r\n        randomNumbers[2] = 761876616;\r\n        randomNumbers[3] = 664664064;\r\n        randomNumbers[4] = 676866871;\r\n        randomNumbers[5] = 52592424;\r\n        randomNumbers[6] = 896276886;\r\n        randomNumbers[7] = 761876616;\r\n        randomNumbers[8] = 664664064;\r\n        randomNumbers[9] = 676866871;\r\n    }\r\n\r\n    uint8 public playerState;\r\n\r\n    function updatePlayerState(uint8 choice) public {\r\n        playerState = choice;\r\n    }\r\n\r\n    function roundNumberIncrease() public {\r\n        roundNumber = roundNumber + 1;\r\n    }\r\n\r\n    function setPlayerState(uint8 choice) public {\r\n        playerState = choice;\r\n    }\r\n\r\n    //stores the random number in the array\r\n\r\n    //toss\r\n\r\n    uint8 public tossChoice;\r\n    bool public winOrLoss;\r\n\r\n    function toss(uint8 _tossChoice) public {\r\n        tossChoice = _tossChoice;\r\n        if (randomNumbers[0] % 2 == tossChoice) {\r\n            winOrLoss = true;\r\n        } else {\r\n            winOrLoss = false;\r\n        }\r\n    }\r\n\r\n    //structure that stores the details\r\n    struct game_starting_details {\r\n        uint8 player1_level;\r\n        uint8 player2_level;\r\n        string wonToss;\r\n    }\r\n\r\n    enum shoot_winner {\r\n        GOALKEEPER,\r\n        STRIKER\r\n    }\r\n\r\n    enum round_winner {\r\n        TEAM1,\r\n        TEAM2,\r\n        MATCH_GOING_ON\r\n    }\r\n\r\n    enum team_shoot_winner {\r\n        team1,\r\n        team2\r\n    }\r\n\r\n    //structure that has shoot details\r\n    struct shoot_detail {\r\n        uint8 shoot_no;\r\n        uint8 team1_lvl; //player is team 1\r\n        uint8 team2_lvl; //computer is team 2\r\n        bool select_interface; //checks if the interface has been selected or not\r\n        uint8 selected_interface; // stores the interface a =1, b = 2, c =3\r\n        bool shoot_completed; //checks if the shoot is completed or not\r\n        shoot_winner Winner_playerType;\r\n        team_shoot_winner ShootWinner_Team;\r\n    }\r\n\r\n    //structure that has round details\r\n    struct round_detail {\r\n        uint8 no_of_shoots;\r\n        uint8 team1_score;\r\n        uint8 team2_score;\r\n        bool round_complete;\r\n        round_winner Round_Winner;\r\n    }\r\n\r\n    shoot_detail[20] public Shoot_Detail;\r\n    round_detail[20] Round_Detail;\r\n\r\n    //function that selects which interface to play on\r\n    //return?\r\n    event testi(uint8 shoot_counter, uint8 Team1_Lvl, uint8 Team2_Lvl); //team 1 lvl is goalkeeper level and team 2 levelis striker level\r\n\r\n    function interface_Selection() external view returns (uint8) {\r\n        uint8 goalkeeper;\r\n        uint8 striker;\r\n        uint8 index = (roundNumber % 10) / 2;\r\n\r\n        if (playerState == 2) {\r\n            striker = team1Ratings[index];\r\n            goalkeeper = team2Ratings[5];\r\n        } else {\r\n            striker = team2Ratings[index];\r\n            goalkeeper = team1Ratings[5];\r\n        }\r\n\r\n        if (striker > goalkeeper) {\r\n            return 3;\r\n        } else if (striker == goalkeeper) {\r\n            return 2;\r\n        } else {\r\n            return 1;\r\n        }\r\n    }\r\n\r\n    //this function will process the random number and check the result\r\n    function penalty_shoot(\r\n        uint8 penalty_interface,\r\n        uint8 user_choice\r\n    ) external {\r\n        //logic for interface 1\r\n        if (penalty_interface == 1 && playerState == 1) {\r\n            require(\r\n                user_choice >= 1 && user_choice <= 2,\r\n                \"Invalid choice from player\"\r\n            );\r\n            uint256 computer_choice = (randomNumbers[roundNumber] % 2) + 1;\r\n\r\n            if (user_choice == computer_choice) {\r\n                Shoot_Detail[roundNumber].shoot_completed = true;\r\n                Shoot_Detail[roundNumber].Winner_playerType = shoot_winner\r\n                    .GOALKEEPER;\r\n                Shoot_Detail[roundNumber].ShootWinner_Team = team_shoot_winner\r\n                    .team1;\r\n\r\n                Round_Detail[round_counter].no_of_shoots = roundNumber;\r\n                // Round_Detail[round_counter].team1_score += 1;\r\n            } else {\r\n                Shoot_Detail[roundNumber].shoot_completed = true;\r\n                Shoot_Detail[roundNumber].Winner_playerType = shoot_winner\r\n                    .STRIKER;\r\n                Shoot_Detail[roundNumber].ShootWinner_Team = team_shoot_winner\r\n                    .team2;\r\n\r\n                Round_Detail[round_counter].no_of_shoots = roundNumber;\r\n                team2Score += 1;\r\n            }\r\n        }\r\n\r\n        if (penalty_interface == 1 && playerState == 2) {\r\n            require(\r\n                user_choice >= 1 && user_choice <= 2,\r\n                \"Invalid choice from player\"\r\n            );\r\n            uint256 computer_choice = (randomNumbers[roundNumber] % 2) + 1;\r\n\r\n            if (user_choice == computer_choice) {\r\n                Shoot_Detail[roundNumber].shoot_completed = true;\r\n                Shoot_Detail[roundNumber].Winner_playerType = shoot_winner\r\n                    .GOALKEEPER;\r\n                Shoot_Detail[roundNumber].ShootWinner_Team = team_shoot_winner\r\n                    .team2;\r\n\r\n                Round_Detail[round_counter].no_of_shoots = shoot_counter;\r\n                // Round_Detail[round_counter].team2_score += 1;\r\n            } else {\r\n                Shoot_Detail[roundNumber].shoot_completed = true;\r\n                Shoot_Detail[roundNumber].Winner_playerType = shoot_winner\r\n                    .STRIKER;\r\n                Shoot_Detail[roundNumber].ShootWinner_Team = team_shoot_winner\r\n                    .team1;\r\n\r\n                Round_Detail[round_counter].no_of_shoots = roundNumber;\r\n                team1Score += 1;\r\n            }\r\n        }\r\n\r\n        //logic for interface 2\r\n        //add 1 to user choice as indexing starts from 0\r\n        if (penalty_interface == 2 && playerState == 1) {\r\n            require(\r\n                user_choice >= 1 && user_choice <= 4,\r\n                \"Invalid choice from player\"\r\n            );\r\n            uint256 computer_choice = (randomNumbers[roundNumber] % 4) + 1;\r\n            if (user_choice == computer_choice) {\r\n                Shoot_Detail[roundNumber].shoot_completed = true;\r\n                Shoot_Detail[roundNumber].Winner_playerType = shoot_winner\r\n                    .GOALKEEPER;\r\n                Shoot_Detail[roundNumber].ShootWinner_Team = team_shoot_winner\r\n                    .team1;\r\n\r\n                Round_Detail[round_counter].no_of_shoots = roundNumber;\r\n                // Round_Detail[round_counter].team1_score += 1;\r\n            } else {\r\n                Shoot_Detail[roundNumber].shoot_completed = true;\r\n                Shoot_Detail[roundNumber].Winner_playerType = shoot_winner\r\n                    .STRIKER;\r\n                Shoot_Detail[roundNumber].ShootWinner_Team = team_shoot_winner\r\n                    .team2;\r\n\r\n                Round_Detail[round_counter].no_of_shoots = roundNumber;\r\n                team2Score += 1;\r\n            }\r\n        }\r\n\r\n        if (penalty_interface == 2 && playerState == 2) {\r\n            require(\r\n                user_choice >= 1 && user_choice <= 4,\r\n                \"Invalid choice from player\"\r\n            );\r\n            uint256 computer_choice = (randomNumbers[roundNumber] % 4) + 1;\r\n            if (user_choice == computer_choice) {\r\n                Shoot_Detail[roundNumber].shoot_completed = true;\r\n                Shoot_Detail[roundNumber].Winner_playerType = shoot_winner\r\n                    .GOALKEEPER;\r\n                Shoot_Detail[roundNumber].ShootWinner_Team = team_shoot_winner\r\n                    .team2;\r\n\r\n                Round_Detail[round_counter].no_of_shoots = roundNumber;\r\n                // Round_Detail[round_counter].team2_score += 1;\r\n            } else {\r\n                Shoot_Detail[roundNumber].shoot_completed = true;\r\n                Shoot_Detail[roundNumber].Winner_playerType = shoot_winner\r\n                    .STRIKER;\r\n                Shoot_Detail[roundNumber].ShootWinner_Team = team_shoot_winner\r\n                    .team1;\r\n\r\n                Round_Detail[round_counter].no_of_shoots = roundNumber;\r\n                team1Score += 1;\r\n            }\r\n        }\r\n\r\n        //logic for interface 3\r\n\r\n        if (penalty_interface == 3 && playerState == 1) {\r\n            require(\r\n                user_choice >= 1 && user_choice <= 8,\r\n                \"Invalid choice from player\"\r\n            );\r\n            uint256 computer_choice = (randomNumbers[roundNumber] % 8) + 1;\r\n            if (user_choice == computer_choice) {\r\n                Shoot_Detail[roundNumber].shoot_completed = true;\r\n                Shoot_Detail[roundNumber].Winner_playerType = shoot_winner\r\n                    .GOALKEEPER;\r\n                Shoot_Detail[roundNumber].ShootWinner_Team = team_shoot_winner\r\n                    .team1;\r\n\r\n                Round_Detail[round_counter].no_of_shoots = roundNumber;\r\n                // Round_Detail[round_counter].team1_score += 1;\r\n            } else {\r\n                Shoot_Detail[roundNumber].shoot_completed = true;\r\n                Shoot_Detail[roundNumber].Winner_playerType = shoot_winner\r\n                    .STRIKER;\r\n                Shoot_Detail[roundNumber].ShootWinner_Team = team_shoot_winner\r\n                    .team2;\r\n\r\n                Round_Detail[round_counter].no_of_shoots = roundNumber;\r\n                team2Score += 1;\r\n            }\r\n        }\r\n\r\n        if (penalty_interface == 3 && playerState == 2) {\r\n            require(\r\n                user_choice >= 1 && user_choice <= 8,\r\n                \"Invalid choice from player\"\r\n            );\r\n            uint256 computer_choice = (randomNumbers[roundNumber] % 8) + 1;\r\n            if (user_choice == computer_choice) {\r\n                Shoot_Detail[roundNumber].shoot_completed = true;\r\n                Shoot_Detail[roundNumber].Winner_playerType = shoot_winner\r\n                    .GOALKEEPER;\r\n                Shoot_Detail[roundNumber].ShootWinner_Team = team_shoot_winner\r\n                    .team2;\r\n\r\n                Round_Detail[round_counter].no_of_shoots = roundNumber;\r\n                // Round_Detail[round_counter].team2_score += 1;\r\n            } else {\r\n                Shoot_Detail[roundNumber].shoot_completed = true;\r\n                Shoot_Detail[roundNumber].Winner_playerType = shoot_winner\r\n                    .STRIKER;\r\n                Shoot_Detail[roundNumber].ShootWinner_Team = team_shoot_winner\r\n                    .team1;\r\n\r\n                Round_Detail[round_counter].no_of_shoots = roundNumber;\r\n                team1Score += 1;\r\n            }\r\n        }\r\n        if (playerState == 1) {\r\n            playerState = 2;\r\n        } else {\r\n            playerState = 1;\r\n        }\r\n        roundNumber = roundNumber + 1;\r\n    }\r\n\r\n    //this function will check the round result by comparing score\r\n    function round_result_check() external view returns (uint8) {\r\n        uint8 curr_team1 = team1Score;\r\n        uint8 curr_team2 = team2Score;\r\n        if (roundNumber <= 10) {\r\n            uint8 potential_team1;\r\n            uint8 potential_team2;\r\n\r\n            if (roundNumber % 2 == 0) {\r\n                potential_team1 = 5 - ((roundNumber) / 2) + curr_team1;\r\n                potential_team2 = 5 - ((roundNumber) / 2) + curr_team2;\r\n            } else {\r\n                if (playerState == 2) {\r\n                    potential_team1 = 5 - ((roundNumber) / 2) + curr_team1;\r\n                    potential_team2 = 5 - ((roundNumber) / 2) - 1 + curr_team2;\r\n                } else {\r\n                    potential_team1 = 5 - ((roundNumber) / 2) - 1 + curr_team1;\r\n                    potential_team2 = 5 - ((roundNumber) / 2) + curr_team2;\r\n                }\r\n            }\r\n\r\n            if (curr_team1 > potential_team2) {\r\n                // Round_Detail[round_counter].round_complete = true;\r\n                // Round_Detail[round_counter].Round_Winner = round_winner.TEAM1;\r\n                // status = round_winner.TEAM1;\r\n                return 1; //returning 1 means that team 1 has won(player)\r\n            } else if (curr_team2 > potential_team1) {\r\n                // Round_Detail[round_counter].round_complete = true;\r\n                // Round_Detail[round_counter].Round_Winner = round_winner.TEAM2;\r\n                // status = round_winner.TEAM2;\r\n                return 2; //returning 2 means that team 2 has won(computer)\r\n            } else {\r\n                return 0; //match is still going on\r\n            }\r\n        } else {\r\n            if ((roundNumber + 1) % 2 == 0) {\r\n                if (curr_team1 > curr_team2) {\r\n                    // Round_Detail[round_counter].round_complete = true;\r\n                    // Round_Detail[round_counter].Round_Winner = round_winner\r\n                    // .TEAM1;\r\n                    // status = round_winner.TEAM1;\r\n                    return 1;\r\n                } else if (curr_team1 < curr_team2) {\r\n                    // Round_Detail[round_counter].round_complete = true;\r\n                    // Round_Detail[round_counter].Round_Winner = round_winner\r\n                    // .TEAM2;\r\n                    // status = round_winner.TEAM2;\r\n                    return 2;\r\n                } else {\r\n                    return 0;\r\n                }\r\n            } else {\r\n                return 0;\r\n            }\r\n        }\r\n    }\r\n\r\n    //this function updates the shoot_counter variable. It is done after every penaly shot taken.\r\n    function update_shoot_counter() public {\r\n        shoot_counter++;\r\n    }\r\n\r\n    //function that updates the round counter\r\n    function update_round_counter() public {\r\n        round_counter++;\r\n    }\r\n\r\n    function reset() public {\r\n        shoot_counter = 0;\r\n        roundNumber = 0;\r\n        team1Score = 0;\r\n        team2Score = 0;\r\n        playerState = 0;\r\n    }\r\n\r\n    function score_team1() external view returns (uint8) {\r\n        return Round_Detail[round_counter].team1_score;\r\n    }\r\n\r\n    function score_team2() external view returns (uint8) {\r\n        return Round_Detail[round_counter].team2_score;\r\n    }\r\n\r\n    //////////////////////////////////////////////////////////\r\n\r\n    event RequestSent(uint256 requestId, uint32 numWords);\r\n    event RequestFulfilled(uint256 requestId, uint256[] randomWords);\r\n\r\n    struct RequestStatus {\r\n        bool fulfilled; // whether the request has been successfully fulfilled\r\n        bool exists; // whether a requestId exists\r\n        uint256[] randomWords;\r\n        bool didWin;\r\n    }\r\n    mapping(uint256 => RequestStatus)\r\n        public s_requests; /* requestId --> requestStatus */\r\n    VRFCoordinatorV2Interface COORDINATOR;\r\n\r\n    // Your subscription ID.\r\n    uint64 s_subscriptionId;\r\n\r\n    // past requests Id.\r\n    uint256[] public requestIds;\r\n    uint256 public lastRequestId;\r\n\r\n    // The gas lane to use, which specifies the maximum gas price to bump to.\r\n    // For a list of available gas lanes on each network,\r\n    // see https://docs.chain.link/docs/vrf/v2/subscription/supported-networks/#configurations\r\n    bytes32 keyHash =\r\n        0x474e34a077df58807dbe9c96d3c009b23b3c6d0cce433e59bbf5b34f823bc56c;\r\n\r\n    // Depends on the number of requested values that you want sent to the\r\n    // fulfillRandomWords() function. Storing each word costs about 20,000 gas,\r\n    // so 100,000 is a safe default for this example contract. Test and adjust\r\n    // this limit based on the network that you select, the size of the request,\r\n    // and the processing of the callback request in the fulfillRandomWords()\r\n    // function.\r\n    uint32 callbackGasLimit = 1000000;\r\n\r\n    // The default is 3, but you can set this higher.\r\n    uint16 requestConfirmations = 3;\r\n\r\n    // For this example, retrieve 2 random values in one request.\r\n    // Cannot exceed VRFCoordinatorV2.MAX_NUM_WORDS.\r\n    uint32 numWords = 20;\r\n\r\n    /**\r\n     * HARDCODED FOR SEPOLIA\r\n     * COORDINATOR: 0x8103B0A8A00be2DDC778e6e7eaa21791Cd364625\r\n     */\r\n    constructor(\r\n        uint64 subscriptionId\r\n    )\r\n        VRFConsumerBaseV2(0x8103B0A8A00be2DDC778e6e7eaa21791Cd364625)\r\n        ConfirmedOwner(msg.sender)\r\n    {\r\n        COORDINATOR = VRFCoordinatorV2Interface(\r\n            0x8103B0A8A00be2DDC778e6e7eaa21791Cd364625\r\n        );\r\n        s_subscriptionId = subscriptionId;\r\n    }\r\n\r\n    // Assumes the subscription is funded sufficiently.\r\n    function requestRandomWords() external returns (uint256 requestId) {\r\n        // Will revert if subscription is not set and funded.\r\n        requestId = COORDINATOR.requestRandomWords(\r\n            keyHash,\r\n            s_subscriptionId,\r\n            requestConfirmations,\r\n            callbackGasLimit,\r\n            numWords\r\n        );\r\n        s_requests[requestId] = RequestStatus({\r\n            randomWords: new uint256[](0),\r\n            exists: true,\r\n            fulfilled: false,\r\n            didWin: true\r\n        });\r\n        requestIds.push(requestId);\r\n        lastRequestId = requestId;\r\n        emit RequestSent(requestId, numWords);\r\n        return requestId;\r\n    }\r\n\r\n    function fulfillRandomWords(\r\n        uint256 _requestId,\r\n        uint256[] memory _randomWords\r\n    ) internal override {\r\n        require(s_requests[_requestId].exists, \"request not found\");\r\n        s_requests[_requestId].fulfilled = true;\r\n        s_requests[_requestId].randomWords = _randomWords;\r\n        if (_randomWords[0] % 2 == 0) {\r\n            s_requests[_requestId].didWin = true;\r\n        }\r\n        randomNumbers = _randomWords;\r\n        emit RequestFulfilled(_requestId, _randomWords);\r\n    }\r\n\r\n    function getRequestStatus(\r\n        uint256 _requestId\r\n    )\r\n        external\r\n        view\r\n        returns (bool fulfilled, uint256[] memory randomWords, bool didWin)\r\n    {\r\n        require(s_requests[_requestId].exists, \"request not found\");\r\n        RequestStatus memory request = s_requests[_requestId];\r\n        return (request.fulfilled, request.randomWords, request.didWin);\r\n    }\r\n\r\n    //mycode\r\n}\r\n",
  "sourcePath": "C:\\Users\\Akash Sahu\\Desktop\\chainlink\\Web3Football\\contracts\\Web3Football.sol",
  "compiler": {
    "name": "solc",
    "version": "0.8.20+commit.a1b79de6.Emscripten.clang"
  },
  "schemaVersion": "3.4.14",
  "updatedAt": "2023-06-09T19:13:02.086Z",
  "devdoc": {
    "kind": "dev",
    "methods": {},
    "version": 1
  },
  "userdoc": {
    "kind": "user",
    "methods": {
      "acceptOwnership()": {
        "notice": "Allows an ownership transfer to be completed by the recipient."
      },
      "constructor": {
        "notice": "HARDCODED FOR SEPOLIA COORDINATOR: 0x8103B0A8A00be2DDC778e6e7eaa21791Cd364625"
      },
      "owner()": {
        "notice": "Get the current owner"
      },
      "transferOwnership(address)": {
        "notice": "Allows an owner to begin transferring ownership to a new address, pending."
      }
    },
    "notice": "THIS IS AN EXAMPLE CONTRACT THAT USES HARDCODED VALUES FOR CLARITY. THIS IS AN EXAMPLE CONTRACT THAT USES UN-AUDITED CODE. DO NOT USE THIS CODE IN PRODUCTION.",
    "version": 1
  }
}