{
  "contractName": "Web3Football",
  "abi": [
    {
      "inputs": [
        {
          "internalType": "uint64",
          "name": "subscriptionId",
          "type": "uint64"
        }
      ],
      "stateMutability": "nonpayable",
      "type": "constructor"
    },
    {
      "inputs": [
        {
          "internalType": "address",
          "name": "have",
          "type": "address"
        },
        {
          "internalType": "address",
          "name": "want",
          "type": "address"
        }
      ],
      "name": "OnlyCoordinatorCanFulfill",
      "type": "error"
    },
    {
      "anonymous": false,
      "inputs": [
        {
          "indexed": true,
          "internalType": "address",
          "name": "from",
          "type": "address"
        },
        {
          "indexed": true,
          "internalType": "address",
          "name": "to",
          "type": "address"
        }
      ],
      "name": "OwnershipTransferRequested",
      "type": "event"
    },
    {
      "anonymous": false,
      "inputs": [
        {
          "indexed": true,
          "internalType": "address",
          "name": "from",
          "type": "address"
        },
        {
          "indexed": true,
          "internalType": "address",
          "name": "to",
          "type": "address"
        }
      ],
      "name": "OwnershipTransferred",
      "type": "event"
    },
    {
      "anonymous": false,
      "inputs": [
        {
          "indexed": false,
          "internalType": "uint256",
          "name": "requestId",
          "type": "uint256"
        },
        {
          "indexed": false,
          "internalType": "uint256[]",
          "name": "randomWords",
          "type": "uint256[]"
        }
      ],
      "name": "RequestFulfilled",
      "type": "event"
    },
    {
      "anonymous": false,
      "inputs": [
        {
          "indexed": false,
          "internalType": "uint256",
          "name": "requestId",
          "type": "uint256"
        },
        {
          "indexed": false,
          "internalType": "uint32",
          "name": "numWords",
          "type": "uint32"
        }
      ],
      "name": "RequestSent",
      "type": "event"
    },
    {
      "anonymous": false,
      "inputs": [
        {
          "indexed": false,
          "internalType": "uint8",
          "name": "shoot_counter",
          "type": "uint8"
        },
        {
          "indexed": false,
          "internalType": "uint8",
          "name": "Team1_Lvl",
          "type": "uint8"
        },
        {
          "indexed": false,
          "internalType": "uint8",
          "name": "Team2_Lvl",
          "type": "uint8"
        }
      ],
      "name": "testi",
      "type": "event"
    },
    {
      "inputs": [
        {
          "internalType": "uint256",
          "name": "",
          "type": "uint256"
        }
      ],
      "name": "Shoot_Detail",
      "outputs": [
        {
          "internalType": "uint8",
          "name": "shoot_no",
          "type": "uint8"
        },
        {
          "internalType": "uint8",
          "name": "team1_lvl",
          "type": "uint8"
        },
        {
          "internalType": "uint8",
          "name": "team2_lvl",
          "type": "uint8"
        },
        {
          "internalType": "bool",
          "name": "select_interface",
          "type": "bool"
        },
        {
          "internalType": "uint8",
          "name": "selected_interface",
          "type": "uint8"
        },
        {
          "internalType": "bool",
          "name": "shoot_completed",
          "type": "bool"
        },
        {
          "internalType": "enum Web3Football.shoot_winner",
          "name": "Winner_playerType",
          "type": "uint8"
        },
        {
          "internalType": "enum Web3Football.team_shoot_winner",
          "name": "ShootWinner_Team",
          "type": "uint8"
        }
      ],
      "stateMutability": "view",
      "type": "function",
      "constant": true
    },
    {
      "inputs": [],
      "name": "acceptOwnership",
      "outputs": [],
      "stateMutability": "nonpayable",
      "type": "function"
    },
    {
      "inputs": [],
      "name": "lastRequestId",
      "outputs": [
        {
          "internalType": "uint256",
          "name": "",
          "type": "uint256"
        }
      ],
      "stateMutability": "view",
      "type": "function",
      "constant": true
    },
    {
      "inputs": [],
      "name": "owner",
      "outputs": [
        {
          "internalType": "address",
          "name": "",
          "type": "address"
        }
      ],
      "stateMutability": "view",
      "type": "function",
      "constant": true
    },
    {
      "inputs": [],
      "name": "playerState",
      "outputs": [
        {
          "internalType": "uint8",
          "name": "",
          "type": "uint8"
        }
      ],
      "stateMutability": "view",
      "type": "function",
      "constant": true
    },
    {
      "inputs": [
        {
          "internalType": "uint256",
          "name": "",
          "type": "uint256"
        }
      ],
      "name": "randomNumbers",
      "outputs": [
        {
          "internalType": "uint256",
          "name": "",
          "type": "uint256"
        }
      ],
      "stateMutability": "view",
      "type": "function",
      "constant": true
    },
    {
      "inputs": [
        {
          "internalType": "uint256",
          "name": "requestId",
          "type": "uint256"
        },
        {
          "internalType": "uint256[]",
          "name": "randomWords",
          "type": "uint256[]"
        }
      ],
      "name": "rawFulfillRandomWords",
      "outputs": [],
      "stateMutability": "nonpayable",
      "type": "function"
    },
    {
      "inputs": [
        {
          "internalType": "uint256",
          "name": "",
          "type": "uint256"
        }
      ],
      "name": "requestIds",
      "outputs": [
        {
          "internalType": "uint256",
          "name": "",
          "type": "uint256"
        }
      ],
      "stateMutability": "view",
      "type": "function",
      "constant": true
    },
    {
      "inputs": [],
      "name": "roundNumber",
      "outputs": [
        {
          "internalType": "uint8",
          "name": "",
          "type": "uint8"
        }
      ],
      "stateMutability": "view",
      "type": "function",
      "constant": true
    },
    {
      "inputs": [],
      "name": "round_counter",
      "outputs": [
        {
          "internalType": "uint8",
          "name": "",
          "type": "uint8"
        }
      ],
      "stateMutability": "view",
      "type": "function",
      "constant": true
    },
    {
      "inputs": [
        {
          "internalType": "uint256",
          "name": "",
          "type": "uint256"
        }
      ],
      "name": "s_requests",
      "outputs": [
        {
          "internalType": "bool",
          "name": "fulfilled",
          "type": "bool"
        },
        {
          "internalType": "bool",
          "name": "exists",
          "type": "bool"
        },
        {
          "internalType": "bool",
          "name": "didWin",
          "type": "bool"
        }
      ],
      "stateMutability": "view",
      "type": "function",
      "constant": true
    },
    {
      "inputs": [],
      "name": "shoot_counter",
      "outputs": [
        {
          "internalType": "uint8",
          "name": "",
          "type": "uint8"
        }
      ],
      "stateMutability": "view",
      "type": "function",
      "constant": true
    },
    {
      "inputs": [],
      "name": "team1Score",
      "outputs": [
        {
          "internalType": "uint8",
          "name": "",
          "type": "uint8"
        }
      ],
      "stateMutability": "view",
      "type": "function",
      "constant": true
    },
    {
      "inputs": [],
      "name": "team2Score",
      "outputs": [
        {
          "internalType": "uint8",
          "name": "",
          "type": "uint8"
        }
      ],
      "stateMutability": "view",
      "type": "function",
      "constant": true
    },
    {
      "inputs": [],
      "name": "tossChoice",
      "outputs": [
        {
          "internalType": "uint8",
          "name": "",
          "type": "uint8"
        }
      ],
      "stateMutability": "view",
      "type": "function",
      "constant": true
    },
    {
      "inputs": [
        {
          "internalType": "address",
          "name": "to",
          "type": "address"
        }
      ],
      "name": "transferOwnership",
      "outputs": [],
      "stateMutability": "nonpayable",
      "type": "function"
    },
    {
      "inputs": [],
      "name": "winOrLoss",
      "outputs": [
        {
          "internalType": "bool",
          "name": "",
          "type": "bool"
        }
      ],
      "stateMutability": "view",
      "type": "function",
      "constant": true
    },
    {
      "inputs": [],
      "name": "initialize_array",
      "outputs": [],
      "stateMutability": "nonpayable",
      "type": "function"
    },
    {
      "inputs": [
        {
          "internalType": "uint8",
          "name": "choice",
          "type": "uint8"
        }
      ],
      "name": "updatePlayerState",
      "outputs": [],
      "stateMutability": "nonpayable",
      "type": "function"
    },
    {
      "inputs": [],
      "name": "roundNumberIncrease",
      "outputs": [],
      "stateMutability": "nonpayable",
      "type": "function"
    },
    {
      "inputs": [
        {
          "internalType": "uint8",
          "name": "choice",
          "type": "uint8"
        }
      ],
      "name": "setPlayerState",
      "outputs": [],
      "stateMutability": "nonpayable",
      "type": "function"
    },
    {
      "inputs": [
        {
          "internalType": "uint8",
          "name": "_tossChoice",
          "type": "uint8"
        }
      ],
      "name": "toss",
      "outputs": [],
      "stateMutability": "nonpayable",
      "type": "function"
    },
    {
      "inputs": [],
      "name": "interface_Selection",
      "outputs": [
        {
          "internalType": "uint8",
          "name": "",
          "type": "uint8"
        }
      ],
      "stateMutability": "view",
      "type": "function",
      "constant": true
    },
    {
      "inputs": [
        {
          "internalType": "uint8",
          "name": "penalty_interface",
          "type": "uint8"
        },
        {
          "internalType": "uint8",
          "name": "user_choice",
          "type": "uint8"
        }
      ],
      "name": "penalty_shoot",
      "outputs": [],
      "stateMutability": "nonpayable",
      "type": "function"
    },
    {
      "inputs": [],
      "name": "round_result_check",
      "outputs": [
        {
          "internalType": "uint8",
          "name": "",
          "type": "uint8"
        }
      ],
      "stateMutability": "view",
      "type": "function",
      "constant": true
    },
    {
      "inputs": [],
      "name": "update_shoot_counter",
      "outputs": [],
      "stateMutability": "nonpayable",
      "type": "function"
    },
    {
      "inputs": [],
      "name": "update_round_counter",
      "outputs": [],
      "stateMutability": "nonpayable",
      "type": "function"
    },
    {
      "inputs": [],
      "name": "reset",
      "outputs": [],
      "stateMutability": "nonpayable",
      "type": "function"
    },
    {
      "inputs": [],
      "name": "score_team1",
      "outputs": [
        {
          "internalType": "uint8",
          "name": "",
          "type": "uint8"
        }
      ],
      "stateMutability": "view",
      "type": "function",
      "constant": true
    },
    {
      "inputs": [],
      "name": "score_team2",
      "outputs": [
        {
          "internalType": "uint8",
          "name": "",
          "type": "uint8"
        }
      ],
      "stateMutability": "view",
      "type": "function",
      "constant": true
    },
    {
      "inputs": [],
      "name": "requestRandomWords",
      "outputs": [
        {
          "internalType": "uint256",
          "name": "requestId",
          "type": "uint256"
        }
      ],
      "stateMutability": "nonpayable",
      "type": "function"
    },
    {
      "inputs": [
        {
          "internalType": "uint256",
          "name": "_requestId",
          "type": "uint256"
        }
      ],
      "name": "getRequestStatus",
      "outputs": [
        {
          "internalType": "bool",
          "name": "fulfilled",
          "type": "bool"
        },
        {
          "internalType": "uint256[]",
          "name": "randomWords",
          "type": "uint256[]"
        },
        {
          "internalType": "bool",
          "name": "didWin",
          "type": "bool"
        }
      ],
      "stateMutability": "view",
      "type": "function",
      "constant": true
    }
  ],
  "bytecode": "0x60a06040525f600160146101000a81548160ff021916908360ff1602179055506002600160166101000a81548160ff02191690836002811115620000485762000047620005c5565b5b02179055506040518060c00160405280600360ff168152602001600160ff168152602001600160ff168152602001600260ff168152602001600360ff168152602001600260ff168152506016906006620000a4929190620004ff565b506040518060c00160405280600260ff168152602001600360ff168152602001600360ff168152602001600160ff168152602001600160ff168152602001600260ff168152506017906006620000fc929190620004ff565b505f60185f6101000a81548160ff021916908360ff1602179055505f601860016101000a81548160ff021916908360ff1602179055505f601860036101000a81548160ff021916908360ff1602179055507f474e34a077df58807dbe9c96d3c009b23b3c6d0cce433e59bbf5b34f823bc56c5f1b604555620f424060465f6101000a81548163ffffffff021916908363ffffffff1602179055506003604660046101000a81548161ffff021916908361ffff1602179055506014604660066101000a81548163ffffffff021916908363ffffffff160217905550348015620001e2575f80fd5b506040516200404a3803806200404a833981810160405281019062000208919062000638565b33805f738103b0a8a00be2ddc778e6e7eaa21791cd3646258073ffffffffffffffffffffffffffffffffffffffff1660808173ffffffffffffffffffffffffffffffffffffffff1681525050505f73ffffffffffffffffffffffffffffffffffffffff168273ffffffffffffffffffffffffffffffffffffffff1603620002c6576040517f08c379a0000000000000000000000000000000000000000000000000000000008152600401620002bd90620006c6565b60405180910390fd5b815f806101000a81548173ffffffffffffffffffffffffffffffffffffffff021916908373ffffffffffffffffffffffffffffffffffffffff1602179055505f73ffffffffffffffffffffffffffffffffffffffff168173ffffffffffffffffffffffffffffffffffffffff16146200034b576200034a81620003d260201b60201c565b5b505050738103b0a8a00be2ddc778e6e7eaa21791cd36462560425f6101000a81548173ffffffffffffffffffffffffffffffffffffffff021916908373ffffffffffffffffffffffffffffffffffffffff16021790555080604260146101000a81548167ffffffffffffffff021916908367ffffffffffffffff1602179055505062000754565b3373ffffffffffffffffffffffffffffffffffffffff168173ffffffffffffffffffffffffffffffffffffffff160362000443576040517f08c379a00000000000000000000000000000000000000000000000000000000081526004016200043a9062000734565b60405180910390fd5b8060015f6101000a81548173ffffffffffffffffffffffffffffffffffffffff021916908373ffffffffffffffffffffffffffffffffffffffff1602179055508073ffffffffffffffffffffffffffffffffffffffff165f8054906101000a900473ffffffffffffffffffffffffffffffffffffffff1673ffffffffffffffffffffffffffffffffffffffff167fed8889f560326eb138920d842192f0eb3dd22b4f139c87a2c57538e05bae127860405160405180910390a350565b828054828255905f5260205f2090601f0160209004810192821562000595579160200282015f5b838211156200056557835183826101000a81548160ff021916908360ff16021790555092602001926001016020815f0104928301926001030262000526565b8015620005935782816101000a81549060ff02191690556001016020815f0104928301926001030262000565565b505b509050620005a49190620005a8565b5090565b5b80821115620005c1575f815f905550600101620005a9565b5090565b7f4e487b71000000000000000000000000000000000000000000000000000000005f52602160045260245ffd5b5f80fd5b5f67ffffffffffffffff82169050919050565b6200061481620005f6565b81146200061f575f80fd5b50565b5f81519050620006328162000609565b92915050565b5f6020828403121562000650576200064f620005f2565b5b5f6200065f8482850162000622565b91505092915050565b5f82825260208201905092915050565b7f43616e6e6f7420736574206f776e657220746f207a65726f00000000000000005f82015250565b5f620006ae60188362000668565b9150620006bb8262000678565b602082019050919050565b5f6020820190508181035f830152620006df81620006a0565b9050919050565b7f43616e6e6f74207472616e7366657220746f2073656c660000000000000000005f82015250565b5f6200071c60178362000668565b91506200072982620006e6565b602082019050919050565b5f6020820190508181035f8301526200074d816200070e565b9050919050565b6080516138d6620007745f395f8181611ad80152611b2c01526138d65ff3fe608060405234801561000f575f80fd5b50600436106101ee575f3560e01c8063a76885381161010d578063dd4b23cd116100a0578063f1b65bdb1161006f578063f1b65bdb1461051d578063f2fde38b1461053b578063fc2a88c314610557578063fccda8d414610575576101ee565b8063dd4b23cd146104bb578063e0c86289146104c5578063e497064a146104e3578063efb8e10914610501576101ee565b8063d34c9d46116100dc578063d34c9d4614610443578063d826f88f14610461578063d8a4676f1461046b578063dc91697e1461049d576101ee565b8063a7688538146103e1578063b2f343e6146103ff578063bc173c5f1461041b578063c8cf437814610439576101ee565b8063557fcdd81161018557806379ba50971161015457806379ba5097146103575780638796ba8c146103615780638da5cb5b14610391578063a168fa89146103af576101ee565b8063557fcdd8146102c85780635f59d29c146102e457806361958ca91461030257806370d02e9b14610339576101ee565b80634e2786fb116101c15780634e2786fb1461025257806350ace4e5146102705780635257cd901461028e57806354e52aed146102be576101ee565b80630a1aa765146101f257806311b7dedb146101fc5780631fe543e3146102185780633564ac9c14610234575b5f80fd5b6101fa610593565b005b61021660048036038101906102119190612d63565b6105cd565b005b610232600480360381019061022d9190612f24565b611ad6565b005b61023c611b96565b6040516102499190612f8d565b60405180910390f35b61025a611ba9565b6040516102679190612f8d565b60405180910390f35b610278611bbc565b6040516102859190612f8d565b60405180910390f35b6102a860048036038101906102a39190612fa6565b611bce565b6040516102b59190612fe0565b60405180910390f35b6102c6611be7565b005b6102e260048036038101906102dd9190612ff9565b611d1d565b005b6102ec611d3b565b6040516102f99190612f8d565b60405180910390f35b61031c60048036038101906103179190612fa6565b611d4e565b6040516103309897969594939291906130f7565b60405180910390f35b610341611df6565b60405161034e9190613173565b60405180910390f35b61035f611e09565b005b61037b60048036038101906103769190612fa6565b611f98565b6040516103889190612fe0565b60405180910390f35b610399611fb8565b6040516103a691906131cb565b60405180910390f35b6103c960048036038101906103c49190612fa6565b611fdf565b6040516103d8939291906131e4565b60405180910390f35b6103e9612029565b6040516103f69190612f8d565b60405180910390f35b61041960048036038101906104149190612ff9565b61203c565b005b6104236120ce565b6040516104309190612f8d565b60405180910390f35b6104416120e1565b005b61044b612119565b6040516104589190612f8d565b60405180910390f35b610469612156565b005b61048560048036038101906104809190612fa6565b6121c3565b604051610494939291906132d0565b60405180910390f35b6104a5612305565b6040516104b29190612f8d565b60405180910390f35b6104c3612342565b005b6104cd61237c565b6040516104da9190612fe0565b60405180910390f35b6104eb6125e4565b6040516104f89190612f8d565b60405180910390f35b61051b60048036038101906105169190612ff9565b612803565b005b610525612821565b6040516105329190612f8d565b60405180910390f35b61055560048036038101906105509190613336565b612834565b005b61055f612848565b60405161056c9190612fe0565b60405180910390f35b61057d61284e565b60405161058a9190612f8d565b60405180910390f35b6001601581819054906101000a900460ff16809291906105b29061338e565b91906101000a81548160ff021916908360ff16021790555050565b60018260ff161480156105f257506001601860029054906101000a900460ff1660ff16145b15610936575f8160ff161015801561060e575060018160ff1611155b61064d576040517f08c379a000000000000000000000000000000000000000000000000000000000815260040161064490613410565b60405180910390fd5b5f600280601860039054906101000a900460ff1660ff16601481106106755761067461342e565b5b01546106819190613488565b9050808260ff16036107c65760016019601860039054906101000a900460ff1660ff16601481106106b5576106b461342e565b5b015f0160056101000a81548160ff0219169083151502179055505f6019601860039054906101000a900460ff1660ff16601481106106f6576106f561342e565b5b015f0160066101000a81548160ff0219169083600181111561071b5761071a61303e565b5b02179055505f6019601860039054906101000a900460ff1660ff16601481106107475761074661342e565b5b015f0160076101000a81548160ff0219169083600181111561076c5761076b61303e565b5b0217905550601860039054906101000a900460ff16602d600160159054906101000a900460ff1660ff16601481106107a7576107a661342e565b5b015f015f6101000a81548160ff021916908360ff160217905550610934565b60016019601860039054906101000a900460ff1660ff16601481106107ee576107ed61342e565b5b015f0160056101000a81548160ff02191690831515021790555060016019601860039054906101000a900460ff1660ff16601481106108305761082f61342e565b5b015f0160066101000a81548160ff021916908360018111156108555761085461303e565b5b021790555060016019601860039054906101000a900460ff1660ff16601481106108825761088161342e565b5b015f0160076101000a81548160ff021916908360018111156108a7576108a661303e565b5b0217905550601860039054906101000a900460ff16602d600160159054906101000a900460ff1660ff16601481106108e2576108e161342e565b5b015f015f6101000a81548160ff021916908360ff1602179055506001601860018282829054906101000a900460ff1661091b91906134b8565b92506101000a81548160ff021916908360ff1602179055505b505b60018260ff1614801561095b57506002601860029054906101000a900460ff1660ff16145b15610c9e575f8160ff1610158015610977575060018160ff1611155b6109b6576040517f08c379a00000000000000000000000000000000000000000000000000000000081526004016109ad90613410565b60405180910390fd5b5f600280601860039054906101000a900460ff1660ff16601481106109de576109dd61342e565b5b01546109ea9190613488565b9050808260ff1603610b305760016019601860039054906101000a900460ff1660ff1660148110610a1e57610a1d61342e565b5b015f0160056101000a81548160ff0219169083151502179055505f6019601860039054906101000a900460ff1660ff1660148110610a5f57610a5e61342e565b5b015f0160066101000a81548160ff02191690836001811115610a8457610a8361303e565b5b021790555060016019601860039054906101000a900460ff1660ff1660148110610ab157610ab061342e565b5b015f0160076101000a81548160ff02191690836001811115610ad657610ad561303e565b5b0217905550600160149054906101000a900460ff16602d600160159054906101000a900460ff1660ff1660148110610b1157610b1061342e565b5b015f015f6101000a81548160ff021916908360ff160217905550610c9c565b60016019601860039054906101000a900460ff1660ff1660148110610b5857610b5761342e565b5b015f0160056101000a81548160ff02191690831515021790555060016019601860039054906101000a900460ff1660ff1660148110610b9a57610b9961342e565b5b015f0160066101000a81548160ff02191690836001811115610bbf57610bbe61303e565b5b02179055505f6019601860039054906101000a900460ff1660ff1660148110610beb57610bea61342e565b5b015f0160076101000a81548160ff02191690836001811115610c1057610c0f61303e565b5b0217905550601860039054906101000a900460ff16602d600160159054906101000a900460ff1660ff1660148110610c4b57610c4a61342e565b5b015f015f6101000a81548160ff021916908360ff160217905550600160185f8282829054906101000a900460ff16610c8391906134b8565b92506101000a81548160ff021916908360ff1602179055505b505b60028260ff16148015610cc357506001601860029054906101000a900460ff1660ff16145b15611008575f8160ff1610158015610cdf575060038160ff1611155b610d1e576040517f08c379a0000000000000000000000000000000000000000000000000000000008152600401610d1590613410565b60405180910390fd5b5f60046002600160149054906101000a900460ff1660ff1660148110610d4757610d4661342e565b5b0154610d539190613488565b9050808260ff1603610e985760016019601860039054906101000a900460ff1660ff1660148110610d8757610d8661342e565b5b015f0160056101000a81548160ff0219169083151502179055505f6019601860039054906101000a900460ff1660ff1660148110610dc857610dc761342e565b5b015f0160066101000a81548160ff02191690836001811115610ded57610dec61303e565b5b02179055505f6019601860039054906101000a900460ff1660ff1660148110610e1957610e1861342e565b5b015f0160076101000a81548160ff02191690836001811115610e3e57610e3d61303e565b5b0217905550601860039054906101000a900460ff16602d600160159054906101000a900460ff1660ff1660148110610e7957610e7861342e565b5b015f015f6101000a81548160ff021916908360ff160217905550611006565b60016019601860039054906101000a900460ff1660ff1660148110610ec057610ebf61342e565b5b015f0160056101000a81548160ff02191690831515021790555060016019601860039054906101000a900460ff1660ff1660148110610f0257610f0161342e565b5b015f0160066101000a81548160ff02191690836001811115610f2757610f2661303e565b5b021790555060016019601860039054906101000a900460ff1660ff1660148110610f5457610f5361342e565b5b015f0160076101000a81548160ff02191690836001811115610f7957610f7861303e565b5b0217905550601860039054906101000a900460ff16602d600160159054906101000a900460ff1660ff1660148110610fb457610fb361342e565b5b015f015f6101000a81548160ff021916908360ff1602179055506001601860018282829054906101000a900460ff16610fed91906134b8565b92506101000a81548160ff021916908360ff1602179055505b505b60028260ff1614801561102d57506002601860029054906101000a900460ff1660ff16145b15611371575f8160ff1610158015611049575060038160ff1611155b611088576040517f08c379a000000000000000000000000000000000000000000000000000000000815260040161107f90613410565b60405180910390fd5b5f60046002600160149054906101000a900460ff1660ff16601481106110b1576110b061342e565b5b01546110bd9190613488565b9050808260ff16036112035760016019601860039054906101000a900460ff1660ff16601481106110f1576110f061342e565b5b015f0160056101000a81548160ff0219169083151502179055505f6019601860039054906101000a900460ff1660ff16601481106111325761113161342e565b5b015f0160066101000a81548160ff021916908360018111156111575761115661303e565b5b021790555060016019601860039054906101000a900460ff1660ff16601481106111845761118361342e565b5b015f0160076101000a81548160ff021916908360018111156111a9576111a861303e565b5b0217905550601860039054906101000a900460ff16602d600160159054906101000a900460ff1660ff16601481106111e4576111e361342e565b5b015f015f6101000a81548160ff021916908360ff16021790555061136f565b60016019601860039054906101000a900460ff1660ff166014811061122b5761122a61342e565b5b015f0160056101000a81548160ff02191690831515021790555060016019601860039054906101000a900460ff1660ff166014811061126d5761126c61342e565b5b015f0160066101000a81548160ff021916908360018111156112925761129161303e565b5b02179055505f6019601860039054906101000a900460ff1660ff16601481106112be576112bd61342e565b5b015f0160076101000a81548160ff021916908360018111156112e3576112e261303e565b5b0217905550601860039054906101000a900460ff16602d600160159054906101000a900460ff1660ff166014811061131e5761131d61342e565b5b015f015f6101000a81548160ff021916908360ff160217905550600160185f8282829054906101000a900460ff1661135691906134b8565b92506101000a81548160ff021916908360ff1602179055505b505b60038260ff1614801561139657506001601860029054906101000a900460ff1660ff16145b156116db575f8160ff16101580156113b2575060078160ff1611155b6113f1576040517f08c379a00000000000000000000000000000000000000000000000000000000081526004016113e890613410565b60405180910390fd5b5f60086002600160149054906101000a900460ff1660ff166014811061141a5761141961342e565b5b01546114269190613488565b9050808260ff160361156b5760016019601860039054906101000a900460ff1660ff166014811061145a5761145961342e565b5b015f0160056101000a81548160ff0219169083151502179055505f6019601860039054906101000a900460ff1660ff166014811061149b5761149a61342e565b5b015f0160066101000a81548160ff021916908360018111156114c0576114bf61303e565b5b02179055505f6019601860039054906101000a900460ff1660ff16601481106114ec576114eb61342e565b5b015f0160076101000a81548160ff021916908360018111156115115761151061303e565b5b0217905550601860039054906101000a900460ff16602d600160159054906101000a900460ff1660ff166014811061154c5761154b61342e565b5b015f015f6101000a81548160ff021916908360ff1602179055506116d9565b60016019601860039054906101000a900460ff1660ff16601481106115935761159261342e565b5b015f0160056101000a81548160ff02191690831515021790555060016019601860039054906101000a900460ff1660ff16601481106115d5576115d461342e565b5b015f0160066101000a81548160ff021916908360018111156115fa576115f961303e565b5b021790555060016019601860039054906101000a900460ff1660ff16601481106116275761162661342e565b5b015f0160076101000a81548160ff0219169083600181111561164c5761164b61303e565b5b0217905550601860039054906101000a900460ff16602d600160159054906101000a900460ff1660ff16601481106116875761168661342e565b5b015f015f6101000a81548160ff021916908360ff1602179055506001601860018282829054906101000a900460ff166116c091906134b8565b92506101000a81548160ff021916908360ff1602179055505b505b60038260ff1614801561170057506002601860029054906101000a900460ff1660ff16145b15611a44575f8160ff161015801561171c575060078160ff1611155b61175b576040517f08c379a000000000000000000000000000000000000000000000000000000000815260040161175290613410565b60405180910390fd5b5f60086002600160149054906101000a900460ff1660ff16601481106117845761178361342e565b5b01546117909190613488565b9050808260ff16036118d65760016019601860039054906101000a900460ff1660ff16601481106117c4576117c361342e565b5b015f0160056101000a81548160ff0219169083151502179055505f6019601860039054906101000a900460ff1660ff16601481106118055761180461342e565b5b015f0160066101000a81548160ff0219169083600181111561182a5761182961303e565b5b021790555060016019601860039054906101000a900460ff1660ff16601481106118575761185661342e565b5b015f0160076101000a81548160ff0219169083600181111561187c5761187b61303e565b5b0217905550601860039054906101000a900460ff16602d600160159054906101000a900460ff1660ff16601481106118b7576118b661342e565b5b015f015f6101000a81548160ff021916908360ff160217905550611a42565b60016019601860039054906101000a900460ff1660ff16601481106118fe576118fd61342e565b5b015f0160056101000a81548160ff02191690831515021790555060016019601860039054906101000a900460ff1660ff16601481106119405761193f61342e565b5b015f0160066101000a81548160ff021916908360018111156119655761196461303e565b5b02179055505f6019601860039054906101000a900460ff1660ff16601481106119915761199061342e565b5b015f0160076101000a81548160ff021916908360018111156119b6576119b561303e565b5b0217905550601860039054906101000a900460ff16602d600160159054906101000a900460ff1660ff16601481106119f1576119f061342e565b5b015f015f6101000a81548160ff021916908360ff160217905550600160185f8282829054906101000a900460ff16611a2991906134b8565b92506101000a81548160ff021916908360ff1602179055505b505b6001601860029054906101000a900460ff1660ff1603611a7f576002601860026101000a81548160ff021916908360ff160217905550611a9c565b6001601860026101000a81548160ff021916908360ff1602179055505b6001601860039054906101000a900460ff16611ab891906134b8565b601860036101000a81548160ff021916908360ff1602179055505050565b7f000000000000000000000000000000000000000000000000000000000000000073ffffffffffffffffffffffffffffffffffffffff163373ffffffffffffffffffffffffffffffffffffffff1614611b8857337f00000000000000000000000000000000000000000000000000000000000000006040517f1cf993f4000000000000000000000000000000000000000000000000000000008152600401611b7f9291906134ec565b60405180910390fd5b611b9282826129b2565b5050565b600160149054906101000a900460ff1681565b601860039054906101000a900460ff1681565b60185f9054906101000a900460ff1681565b60028160148110611bdd575f80fd5b015f915090505481565b6303227f2860025f60148110611c0057611bff61342e565b5b018190555063356c19966002600160148110611c1f57611c1e61342e565b5b0181905550632d69508860028060148110611c3d57611c3c61342e565b5b018190555063279df8006002600360148110611c5c57611c5b61342e565b5b01819055506328582b376002600460148110611c7b57611c7a61342e565b5b01819055506303227f286002600560148110611c9a57611c9961342e565b5b018190555063356c19966002600660148110611cb957611cb861342e565b5b0181905550632d6950886002600760148110611cd857611cd761342e565b5b018190555063279df8006002600860148110611cf757611cf661342e565b5b01819055506328582b376002600960148110611d1657611d1561342e565b5b0181905550565b80601860026101000a81548160ff021916908360ff16021790555050565b600160159054906101000a900460ff1681565b60198160148110611d5d575f80fd5b015f91509050805f015f9054906101000a900460ff1690805f0160019054906101000a900460ff1690805f0160029054906101000a900460ff1690805f0160039054906101000a900460ff1690805f0160049054906101000a900460ff1690805f0160059054906101000a900460ff1690805f0160069054906101000a900460ff1690805f0160079054906101000a900460ff16905088565b601860059054906101000a900460ff1681565b60015f9054906101000a900473ffffffffffffffffffffffffffffffffffffffff1673ffffffffffffffffffffffffffffffffffffffff163373ffffffffffffffffffffffffffffffffffffffff1614611e98576040517f08c379a0000000000000000000000000000000000000000000000000000000008152600401611e8f9061355d565b60405180910390fd5b5f805f9054906101000a900473ffffffffffffffffffffffffffffffffffffffff169050335f806101000a81548173ffffffffffffffffffffffffffffffffffffffff021916908373ffffffffffffffffffffffffffffffffffffffff1602179055505f60015f6101000a81548173ffffffffffffffffffffffffffffffffffffffff021916908373ffffffffffffffffffffffffffffffffffffffff1602179055503373ffffffffffffffffffffffffffffffffffffffff168173ffffffffffffffffffffffffffffffffffffffff167f8be0079c531659141344cd1fd0a4f28419497f9722a3daafe3b4186f6b6457e060405160405180910390a350565b60438181548110611fa7575f80fd5b905f5260205f20015f915090505481565b5f805f9054906101000a900473ffffffffffffffffffffffffffffffffffffffff16905090565b6041602052805f5260405f205f91509050805f015f9054906101000a900460ff1690805f0160019054906101000a900460ff1690806002015f9054906101000a900460ff16905083565b601860019054906101000a900460ff1681565b80601860046101000a81548160ff021916908360ff160217905550601860049054906101000a900460ff1660ff166002805f6014811061207f5761207e61342e565b5b015461208b9190613488565b036120b0576001601860056101000a81548160ff0219169083151502179055506120cb565b5f601860056101000a81548160ff0219169083151502179055505b50565b601860029054906101000a900460ff1681565b6001601860039054906101000a900460ff166120fd91906134b8565b601860036101000a81548160ff021916908360ff160217905550565b5f602d600160159054906101000a900460ff1660ff16601481106121405761213f61342e565b5b015f0160019054906101000a900460ff16905090565b5f600160146101000a81548160ff021916908360ff1602179055505f60185f6101000a81548160ff021916908360ff1602179055505f601860016101000a81548160ff021916908360ff1602179055505f601860036101000a81548160ff021916908360ff160217905550565b5f60605f60415f8581526020019081526020015f205f0160019054906101000a900460ff16612227576040517f08c379a000000000000000000000000000000000000000000000000000000000815260040161221e906135c5565b60405180910390fd5b5f60415f8681526020019081526020015f206040518060800160405290815f82015f9054906101000a900460ff161515151581526020015f820160019054906101000a900460ff16151515158152602001600182018054806020026020016040519081016040528092919081815260200182805480156122c457602002820191905f5260205f20905b8154815260200190600101908083116122b0575b50505050508152602001600282015f9054906101000a900460ff1615151515815250509050805f015181604001518260600151935093509350509193909250565b5f602d600160159054906101000a900460ff1660ff166014811061232c5761232b61342e565b5b015f0160029054906101000a900460ff16905090565b6001601481819054906101000a900460ff16809291906123619061338e565b91906101000a81548160ff021916908360ff16021790555050565b5f60425f9054906101000a900473ffffffffffffffffffffffffffffffffffffffff1673ffffffffffffffffffffffffffffffffffffffff16635d3b1d30604554604260149054906101000a900467ffffffffffffffff16604660049054906101000a900461ffff1660465f9054906101000a900463ffffffff16604660069054906101000a900463ffffffff166040518663ffffffff1660e01b815260040161242a959493929190613657565b6020604051808303815f875af1158015612446573d5f803e3d5ffd5b505050506040513d601f19601f8201168201806040525081019061246a91906136bc565b905060405180608001604052805f151581526020016001151581526020015f67ffffffffffffffff8111156124a2576124a1612de8565b5b6040519080825280602002602001820160405280156124d05781602001602082028036833780820191505090505b5081526020016001151581525060415f8381526020019081526020015f205f820151815f015f6101000a81548160ff0219169083151502179055506020820151815f0160016101000a81548160ff0219169083151502179055506040820151816001019080519060200190612546929190612cb6565b506060820151816002015f6101000a81548160ff021916908315150217905550905050604381908060018154018082558091505060019003905f5260205f20015f9091909190915055806044819055507fcc58b13ad3eab50626c6a6300b1d139cd6ebb1688a7cced9461c2f7e762665ee81604660069054906101000a900463ffffffff166040516125d99291906136e7565b60405180910390a190565b5f8060185f9054906101000a900460ff1690505f601860019054906101000a900460ff169050600a600160149054906101000a900460ff1660ff16101561278d575f8060016002600160149054906101000a900460ff16612645919061370e565b60ff16036126d4578360026001601860039054906101000a900460ff1661266c91906134b8565b612676919061373e565b6005612682919061376e565b61268c91906134b8565b91508260026001601860039054906101000a900460ff166126ad91906134b8565b6126b7919061373e565b60056126c3919061376e565b6126cd91906134b8565b905061274b565b8360016002601860039054906101000a900460ff166126f3919061373e565b60056126ff919061376e565b612709919061376e565b61271391906134b8565b9150826002601860039054906101000a900460ff16612732919061373e565b600561273e919061376e565b61274891906134b8565b90505b8060ff168460ff161115612766576001945050505050612800565b8160ff168360ff161115612781576002945050505050612800565b5f945050505050612800565b5f60026001601860039054906101000a900460ff166127ac91906134b8565b6127b6919061370e565b60ff16036127fa578060ff168260ff1611156127d757600192505050612800565b8060ff168260ff1610156127f057600292505050612800565b5f92505050612800565b5f925050505b90565b80601860026101000a81548160ff021916908360ff16021790555050565b601860049054906101000a900460ff1681565b61283c612afd565b61284581612b8c565b50565b60445481565b5f805f806002600a601860039054906101000a900460ff16612870919061370e565b61287a919061373e565b90506002601860029054906101000a900460ff1660ff16036129075760168160ff16815481106128ad576128ac61342e565b5b905f5260205f2090602091828204019190069054906101000a900460ff16915060176005815481106128e2576128e161342e565b5b905f5260205f2090602091828204019190069054906101000a900460ff169250612974565b60178160ff168154811061291e5761291d61342e565b5b905f5260205f2090602091828204019190069054906101000a900460ff16915060166005815481106129535761295261342e565b5b905f5260205f2090602091828204019190069054906101000a900460ff1692505b8260ff168260ff16111561298e57600393505050506129af565b8260ff168260ff16036129a757600293505050506129af565b600193505050505b90565b60415f8381526020019081526020015f205f0160019054906101000a900460ff16612a12576040517f08c379a0000000000000000000000000000000000000000000000000000000008152600401612a09906135c5565b60405180910390fd5b600160415f8481526020019081526020015f205f015f6101000a81548160ff0219169083151502179055508060415f8481526020019081526020015f206001019080519060200190612a65929190612cb6565b505f6002825f81518110612a7c57612a7b61342e565b5b6020026020010151612a8e9190613488565b03612ac057600160415f8481526020019081526020015f206002015f6101000a81548160ff0219169083151502179055505b7ffe2e2d779dba245964d4e3ef9b994be63856fd568bf7d3ca9e224755cb1bd54d8282604051612af19291906137a2565b60405180910390a15050565b5f8054906101000a900473ffffffffffffffffffffffffffffffffffffffff1673ffffffffffffffffffffffffffffffffffffffff163373ffffffffffffffffffffffffffffffffffffffff1614612b8a576040517f08c379a0000000000000000000000000000000000000000000000000000000008152600401612b819061381a565b60405180910390fd5b565b3373ffffffffffffffffffffffffffffffffffffffff168173ffffffffffffffffffffffffffffffffffffffff1603612bfa576040517f08c379a0000000000000000000000000000000000000000000000000000000008152600401612bf190613882565b60405180910390fd5b8060015f6101000a81548173ffffffffffffffffffffffffffffffffffffffff021916908373ffffffffffffffffffffffffffffffffffffffff1602179055508073ffffffffffffffffffffffffffffffffffffffff165f8054906101000a900473ffffffffffffffffffffffffffffffffffffffff1673ffffffffffffffffffffffffffffffffffffffff167fed8889f560326eb138920d842192f0eb3dd22b4f139c87a2c57538e05bae127860405160405180910390a350565b828054828255905f5260205f20908101928215612cf0579160200282015b82811115612cef578251825591602001919060010190612cd4565b5b509050612cfd9190612d01565b5090565b5b80821115612d18575f815f905550600101612d02565b5090565b5f604051905090565b5f80fd5b5f80fd5b5f60ff82169050919050565b612d4281612d2d565b8114612d4c575f80fd5b50565b5f81359050612d5d81612d39565b92915050565b5f8060408385031215612d7957612d78612d25565b5b5f612d8685828601612d4f565b9250506020612d9785828601612d4f565b9150509250929050565b5f819050919050565b612db381612da1565b8114612dbd575f80fd5b50565b5f81359050612dce81612daa565b92915050565b5f80fd5b5f601f19601f8301169050919050565b7f4e487b71000000000000000000000000000000000000000000000000000000005f52604160045260245ffd5b612e1e82612dd8565b810181811067ffffffffffffffff82111715612e3d57612e3c612de8565b5b80604052505050565b5f612e4f612d1c565b9050612e5b8282612e15565b919050565b5f67ffffffffffffffff821115612e7a57612e79612de8565b5b602082029050602081019050919050565b5f80fd5b5f612ea1612e9c84612e60565b612e46565b90508083825260208201905060208402830185811115612ec457612ec3612e8b565b5b835b81811015612eed5780612ed98882612dc0565b845260208401935050602081019050612ec6565b5050509392505050565b5f82601f830112612f0b57612f0a612dd4565b5b8135612f1b848260208601612e8f565b91505092915050565b5f8060408385031215612f3a57612f39612d25565b5b5f612f4785828601612dc0565b925050602083013567ffffffffffffffff811115612f6857612f67612d29565b5b612f7485828601612ef7565b9150509250929050565b612f8781612d2d565b82525050565b5f602082019050612fa05f830184612f7e565b92915050565b5f60208284031215612fbb57612fba612d25565b5b5f612fc884828501612dc0565b91505092915050565b612fda81612da1565b82525050565b5f602082019050612ff35f830184612fd1565b92915050565b5f6020828403121561300e5761300d612d25565b5b5f61301b84828501612d4f565b91505092915050565b5f8115159050919050565b61303881613024565b82525050565b7f4e487b71000000000000000000000000000000000000000000000000000000005f52602160045260245ffd5b6002811061307c5761307b61303e565b5b50565b5f81905061308c8261306b565b919050565b5f61309b8261307f565b9050919050565b6130ab81613091565b82525050565b600281106130c2576130c161303e565b5b50565b5f8190506130d2826130b1565b919050565b5f6130e1826130c5565b9050919050565b6130f1816130d7565b82525050565b5f6101008201905061310b5f83018b612f7e565b613118602083018a612f7e565b6131256040830189612f7e565b613132606083018861302f565b61313f6080830187612f7e565b61314c60a083018661302f565b61315960c08301856130a2565b61316660e08301846130e8565b9998505050505050505050565b5f6020820190506131865f83018461302f565b92915050565b5f73ffffffffffffffffffffffffffffffffffffffff82169050919050565b5f6131b58261318c565b9050919050565b6131c5816131ab565b82525050565b5f6020820190506131de5f8301846131bc565b92915050565b5f6060820190506131f75f83018661302f565b613204602083018561302f565b613211604083018461302f565b949350505050565b5f81519050919050565b5f82825260208201905092915050565b5f819050602082019050919050565b61324b81612da1565b82525050565b5f61325c8383613242565b60208301905092915050565b5f602082019050919050565b5f61327e82613219565b6132888185613223565b935061329383613233565b805f5b838110156132c35781516132aa8882613251565b97506132b583613268565b925050600181019050613296565b5085935050505092915050565b5f6060820190506132e35f83018661302f565b81810360208301526132f58185613274565b9050613304604083018461302f565b949350505050565b613315816131ab565b811461331f575f80fd5b50565b5f813590506133308161330c565b92915050565b5f6020828403121561334b5761334a612d25565b5b5f61335884828501613322565b91505092915050565b7f4e487b71000000000000000000000000000000000000000000000000000000005f52601160045260245ffd5b5f61339882612d2d565b915060ff82036133ab576133aa613361565b5b600182019050919050565b5f82825260208201905092915050565b7f496e76616c69642063686f6963652066726f6d20706c617965720000000000005f82015250565b5f6133fa601a836133b6565b9150613405826133c6565b602082019050919050565b5f6020820190508181035f830152613427816133ee565b9050919050565b7f4e487b71000000000000000000000000000000000000000000000000000000005f52603260045260245ffd5b7f4e487b71000000000000000000000000000000000000000000000000000000005f52601260045260245ffd5b5f61349282612da1565b915061349d83612da1565b9250826134ad576134ac61345b565b5b828206905092915050565b5f6134c282612d2d565b91506134cd83612d2d565b9250828201905060ff8111156134e6576134e5613361565b5b92915050565b5f6040820190506134ff5f8301856131bc565b61350c60208301846131bc565b9392505050565b7f4d7573742062652070726f706f736564206f776e6572000000000000000000005f82015250565b5f6135476016836133b6565b915061355282613513565b602082019050919050565b5f6020820190508181035f8301526135748161353b565b9050919050565b7f72657175657374206e6f7420666f756e640000000000000000000000000000005f82015250565b5f6135af6011836133b6565b91506135ba8261357b565b602082019050919050565b5f6020820190508181035f8301526135dc816135a3565b9050919050565b5f819050919050565b6135f5816135e3565b82525050565b5f67ffffffffffffffff82169050919050565b613617816135fb565b82525050565b5f61ffff82169050919050565b6136338161361d565b82525050565b5f63ffffffff82169050919050565b61365181613639565b82525050565b5f60a08201905061366a5f8301886135ec565b613677602083018761360e565b613684604083018661362a565b6136916060830185613648565b61369e6080830184613648565b9695505050505050565b5f815190506136b681612daa565b92915050565b5f602082840312156136d1576136d0612d25565b5b5f6136de848285016136a8565b91505092915050565b5f6040820190506136fa5f830185612fd1565b6137076020830184613648565b9392505050565b5f61371882612d2d565b915061372383612d2d565b9250826137335761373261345b565b5b828206905092915050565b5f61374882612d2d565b915061375383612d2d565b9250826137635761376261345b565b5b828204905092915050565b5f61377882612d2d565b915061378383612d2d565b9250828203905060ff81111561379c5761379b613361565b5b92915050565b5f6040820190506137b55f830185612fd1565b81810360208301526137c78184613274565b90509392505050565b7f4f6e6c792063616c6c61626c65206279206f776e6572000000000000000000005f82015250565b5f6138046016836133b6565b915061380f826137d0565b602082019050919050565b5f6020820190508181035f830152613831816137f8565b9050919050565b7f43616e6e6f74207472616e7366657220746f2073656c660000000000000000005f82015250565b5f61386c6017836133b6565b915061387782613838565b602082019050919050565b5f6020820190508181035f83015261389981613860565b905091905056fea264697066735822122045509684cba0ae6af27b3848466c6054ec19e2523d265993a156295481734b5964736f6c63430008140033",
  "immutableReferences": {
    "192": [
      {
        "length": 32,
        "start": 6872
      },
      {
        "length": 32,
        "start": 6956
      }
    ]
  },
  "source": "// SPDX-License-Identifier: MIT\r\n// An example of a consumer contract that relies on a subscription for funding.\r\npragma solidity ^0.8.7;\r\n\r\nimport \"@chainlink/contracts/src/v0.8/interfaces/VRFCoordinatorV2Interface.sol\";\r\nimport \"@chainlink/contracts/src/v0.8/VRFConsumerBaseV2.sol\";\r\nimport \"@chainlink/contracts/src/v0.8/ConfirmedOwner.sol\";\r\n\r\n/**\r\n * Request testnet LINK and ETH here: https://faucets.chain.link/\r\n * Find information on LINK Token Contracts and get the latest ETH and LINK faucets here: https://docs.chain.link/docs/link-token-contracts/\r\n */\r\n\r\n/**\r\n * THIS IS AN EXAMPLE CONTRACT THAT USES HARDCODED VALUES FOR CLARITY.\r\n * THIS IS AN EXAMPLE CONTRACT THAT USES UN-AUDITED CODE.\r\n * DO NOT USE THIS CODE IN PRODUCTION.\r\n */\r\n\r\ncontract Web3Football is VRFConsumerBaseV2, ConfirmedOwner {\r\n    uint8 public shoot_counter = 0;\r\n    uint8 public round_counter;\r\n    round_winner status = round_winner.MATCH_GOING_ON;\r\n    uint256[20] public randomNumbers;\r\n    uint8[] team1Ratings = [3, 1, 1, 2, 3, 2];\r\n    uint8[] team2Ratings = [2, 3, 3, 1, 1, 2];\r\n    uint8 public team1Score = 0;\r\n    uint8 public team2Score = 0;\r\n\r\n    function initialize_array() public {\r\n        randomNumbers[0] = 52592424;\r\n        randomNumbers[1] = 896276886;\r\n        randomNumbers[2] = 761876616;\r\n        randomNumbers[3] = 664664064;\r\n        randomNumbers[4] = 676866871;\r\n        randomNumbers[5] = 52592424;\r\n        randomNumbers[6] = 896276886;\r\n        randomNumbers[7] = 761876616;\r\n        randomNumbers[8] = 664664064;\r\n        randomNumbers[9] = 676866871;\r\n    }\r\n\r\n    uint8 public playerState;\r\n    uint8 public roundNumber = 0;\r\n\r\n    function updatePlayerState(uint8 choice) public {\r\n        playerState = choice;\r\n    }\r\n\r\n    function roundNumberIncrease() public {\r\n        roundNumber = roundNumber + 1;\r\n    }\r\n\r\n    function setPlayerState(uint8 choice) public {\r\n        playerState = choice;\r\n    }\r\n\r\n    //stores the random number in the array\r\n\r\n    //toss\r\n\r\n    uint8 public tossChoice;\r\n    bool public winOrLoss;\r\n\r\n    function toss(uint8 _tossChoice) public {\r\n        tossChoice = _tossChoice;\r\n        if (randomNumbers[0] % 2 == tossChoice) {\r\n            winOrLoss = true;\r\n        } else {\r\n            winOrLoss = false;\r\n        }\r\n    }\r\n\r\n    //structure that stores the details\r\n    struct game_starting_details {\r\n        uint8 player1_level;\r\n        uint8 player2_level;\r\n        string wonToss;\r\n    }\r\n\r\n    enum shoot_winner {\r\n        GOALKEEPER,\r\n        STRIKER\r\n    }\r\n\r\n    enum round_winner {\r\n        TEAM1,\r\n        TEAM2,\r\n        MATCH_GOING_ON\r\n    }\r\n\r\n    enum team_shoot_winner {\r\n        team1,\r\n        team2\r\n    }\r\n\r\n    //structure that has shoot details\r\n    struct shoot_detail {\r\n        uint8 shoot_no;\r\n        uint8 team1_lvl; //player is team 1\r\n        uint8 team2_lvl; //computer is team 2\r\n        bool select_interface; //checks if the interface has been selected or not\r\n        uint8 selected_interface; // stores the interface a =1, b = 2, c =3\r\n        bool shoot_completed; //checks if the shoot is completed or not\r\n        shoot_winner Winner_playerType;\r\n        team_shoot_winner ShootWinner_Team;\r\n    }\r\n\r\n    //structure that has round details\r\n    struct round_detail {\r\n        uint8 no_of_shoots;\r\n        uint8 team1_score;\r\n        uint8 team2_score;\r\n        bool round_complete;\r\n        round_winner Round_Winner;\r\n    }\r\n\r\n    shoot_detail[20] public Shoot_Detail;\r\n    round_detail[20] Round_Detail;\r\n\r\n    //function that selects which interface to play on\r\n    //return?\r\n    event testi(uint8 shoot_counter, uint8 Team1_Lvl, uint8 Team2_Lvl); //team 1 lvl is goalkeeper level and team 2 levelis striker level\r\n\r\n    function interface_Selection() external view returns (uint8) {\r\n        uint8 goalkeeper;\r\n        uint8 striker;\r\n        uint8 index = (roundNumber % 10) / 2;\r\n\r\n        if (playerState == 2) {\r\n            striker = team1Ratings[index];\r\n            goalkeeper = team2Ratings[5];\r\n        } else {\r\n            striker = team2Ratings[index];\r\n            goalkeeper = team1Ratings[5];\r\n        }\r\n\r\n        if (striker > goalkeeper) {\r\n            return 3;\r\n        } else if (striker == goalkeeper) {\r\n            return 2;\r\n        } else {\r\n            return 1;\r\n        }\r\n    }\r\n\r\n    //this function will process the random number and check the result\r\n    function penalty_shoot(\r\n        uint8 penalty_interface,\r\n        uint8 user_choice\r\n    ) external {\r\n        //logic for interface 1\r\n        if (penalty_interface == 1 && playerState == 1) {\r\n            require(\r\n                user_choice >= 0 && user_choice <= 1,\r\n                \"Invalid choice from player\"\r\n            );\r\n            uint256 computer_choice = randomNumbers[roundNumber] % 2;\r\n\r\n            if (user_choice == computer_choice) {\r\n                Shoot_Detail[roundNumber].shoot_completed = true;\r\n                Shoot_Detail[roundNumber].Winner_playerType = shoot_winner\r\n                    .GOALKEEPER;\r\n                Shoot_Detail[roundNumber].ShootWinner_Team = team_shoot_winner\r\n                    .team1;\r\n\r\n                Round_Detail[round_counter].no_of_shoots = roundNumber;\r\n                // Round_Detail[round_counter].team1_score += 1;\r\n            } else {\r\n                Shoot_Detail[roundNumber].shoot_completed = true;\r\n                Shoot_Detail[roundNumber].Winner_playerType = shoot_winner\r\n                    .STRIKER;\r\n                Shoot_Detail[roundNumber].ShootWinner_Team = team_shoot_winner\r\n                    .team2;\r\n\r\n                Round_Detail[round_counter].no_of_shoots = roundNumber;\r\n                team2Score += 1;\r\n            }\r\n        }\r\n\r\n        if (penalty_interface == 1 && playerState == 2) {\r\n            require(\r\n                user_choice >= 0 && user_choice <= 1,\r\n                \"Invalid choice from player\"\r\n            );\r\n            uint256 computer_choice = randomNumbers[roundNumber] % 2;\r\n            if (user_choice == computer_choice) {\r\n                Shoot_Detail[roundNumber].shoot_completed = true;\r\n                Shoot_Detail[roundNumber].Winner_playerType = shoot_winner\r\n                    .GOALKEEPER;\r\n                Shoot_Detail[roundNumber].ShootWinner_Team = team_shoot_winner\r\n                    .team2;\r\n\r\n                Round_Detail[round_counter].no_of_shoots = shoot_counter;\r\n                // Round_Detail[round_counter].team2_score += 1;\r\n            } else {\r\n                Shoot_Detail[roundNumber].shoot_completed = true;\r\n                Shoot_Detail[roundNumber].Winner_playerType = shoot_winner\r\n                    .STRIKER;\r\n                Shoot_Detail[roundNumber].ShootWinner_Team = team_shoot_winner\r\n                    .team1;\r\n\r\n                Round_Detail[round_counter].no_of_shoots = roundNumber;\r\n                team1Score += 1;\r\n            }\r\n        }\r\n\r\n        //logic for interface 2\r\n        //add 1 to user choice as indexing starts from 0\r\n        if (penalty_interface == 2 && playerState == 1) {\r\n            require(\r\n                user_choice >= 0 && user_choice <= 3,\r\n                \"Invalid choice from player\"\r\n            );\r\n            uint256 computer_choice = randomNumbers[shoot_counter] % 4;\r\n            if (user_choice == computer_choice) {\r\n                Shoot_Detail[roundNumber].shoot_completed = true;\r\n                Shoot_Detail[roundNumber].Winner_playerType = shoot_winner\r\n                    .GOALKEEPER;\r\n                Shoot_Detail[roundNumber].ShootWinner_Team = team_shoot_winner\r\n                    .team1;\r\n\r\n                Round_Detail[round_counter].no_of_shoots = roundNumber;\r\n                // Round_Detail[round_counter].team1_score += 1;\r\n            } else {\r\n                Shoot_Detail[roundNumber].shoot_completed = true;\r\n                Shoot_Detail[roundNumber].Winner_playerType = shoot_winner\r\n                    .STRIKER;\r\n                Shoot_Detail[roundNumber].ShootWinner_Team = team_shoot_winner\r\n                    .team2;\r\n\r\n                Round_Detail[round_counter].no_of_shoots = roundNumber;\r\n                team2Score += 1;\r\n            }\r\n        }\r\n\r\n        if (penalty_interface == 2 && playerState == 2) {\r\n            require(\r\n                user_choice >= 0 && user_choice <= 3,\r\n                \"Invalid choice from player\"\r\n            );\r\n            uint256 computer_choice = randomNumbers[shoot_counter] % 4;\r\n            if (user_choice == computer_choice) {\r\n                Shoot_Detail[roundNumber].shoot_completed = true;\r\n                Shoot_Detail[roundNumber].Winner_playerType = shoot_winner\r\n                    .GOALKEEPER;\r\n                Shoot_Detail[roundNumber].ShootWinner_Team = team_shoot_winner\r\n                    .team2;\r\n\r\n                Round_Detail[round_counter].no_of_shoots = roundNumber;\r\n                // Round_Detail[round_counter].team2_score += 1;\r\n            } else {\r\n                Shoot_Detail[roundNumber].shoot_completed = true;\r\n                Shoot_Detail[roundNumber].Winner_playerType = shoot_winner\r\n                    .STRIKER;\r\n                Shoot_Detail[roundNumber].ShootWinner_Team = team_shoot_winner\r\n                    .team1;\r\n\r\n                Round_Detail[round_counter].no_of_shoots = roundNumber;\r\n                team1Score += 1;\r\n            }\r\n        }\r\n\r\n        //logic for interface 3\r\n\r\n        if (penalty_interface == 3 && playerState == 1) {\r\n            require(\r\n                user_choice >= 0 && user_choice <= 7,\r\n                \"Invalid choice from player\"\r\n            );\r\n            uint256 computer_choice = randomNumbers[shoot_counter] % 8;\r\n            if (user_choice == computer_choice) {\r\n                Shoot_Detail[roundNumber].shoot_completed = true;\r\n                Shoot_Detail[roundNumber].Winner_playerType = shoot_winner\r\n                    .GOALKEEPER;\r\n                Shoot_Detail[roundNumber].ShootWinner_Team = team_shoot_winner\r\n                    .team1;\r\n\r\n                Round_Detail[round_counter].no_of_shoots = roundNumber;\r\n                // Round_Detail[round_counter].team1_score += 1;\r\n            } else {\r\n                Shoot_Detail[roundNumber].shoot_completed = true;\r\n                Shoot_Detail[roundNumber].Winner_playerType = shoot_winner\r\n                    .STRIKER;\r\n                Shoot_Detail[roundNumber].ShootWinner_Team = team_shoot_winner\r\n                    .team2;\r\n\r\n                Round_Detail[round_counter].no_of_shoots = roundNumber;\r\n                team2Score += 1;\r\n            }\r\n        }\r\n\r\n        if (penalty_interface == 3 && playerState == 2) {\r\n            require(\r\n                user_choice >= 0 && user_choice <= 7,\r\n                \"Invalid choice from player\"\r\n            );\r\n            uint256 computer_choice = randomNumbers[shoot_counter] % 8;\r\n            if (user_choice == computer_choice) {\r\n                Shoot_Detail[roundNumber].shoot_completed = true;\r\n                Shoot_Detail[roundNumber].Winner_playerType = shoot_winner\r\n                    .GOALKEEPER;\r\n                Shoot_Detail[roundNumber].ShootWinner_Team = team_shoot_winner\r\n                    .team2;\r\n\r\n                Round_Detail[round_counter].no_of_shoots = roundNumber;\r\n                // Round_Detail[round_counter].team2_score += 1;\r\n            } else {\r\n                Shoot_Detail[roundNumber].shoot_completed = true;\r\n                Shoot_Detail[roundNumber].Winner_playerType = shoot_winner\r\n                    .STRIKER;\r\n                Shoot_Detail[roundNumber].ShootWinner_Team = team_shoot_winner\r\n                    .team1;\r\n\r\n                Round_Detail[round_counter].no_of_shoots = roundNumber;\r\n                team1Score += 1;\r\n            }\r\n        }\r\n        if (playerState == 1) {\r\n            playerState = 2;\r\n        } else {\r\n            playerState = 1;\r\n        }\r\n        roundNumber = roundNumber + 1;\r\n    }\r\n\r\n    //this function will check the round result by comparing score\r\n    function round_result_check() external view returns (uint8) {\r\n        uint8 curr_team1 = team1Score;\r\n        uint8 curr_team2 = team2Score;\r\n        if (shoot_counter < 10) {\r\n            uint8 potential_team1;\r\n            uint8 potential_team2;\r\n\r\n            if (shoot_counter % 2 == 1) {\r\n                potential_team1 = 5 - ((roundNumber + 1) / 2) + curr_team1;\r\n                potential_team2 = 5 - ((roundNumber + 1) / 2) + curr_team2;\r\n            } else {\r\n                potential_team1 = 5 - ((roundNumber) / 2) - 1 + curr_team1;\r\n                potential_team2 = 5 - ((roundNumber) / 2) + curr_team2;\r\n            }\r\n\r\n            if (curr_team1 > potential_team2) {\r\n                // Round_Detail[round_counter].round_complete = true;\r\n                // Round_Detail[round_counter].Round_Winner = round_winner.TEAM1;\r\n                // status = round_winner.TEAM1;\r\n                return 1; //returning 1 means that team 1 has won(player)\r\n            } else if (curr_team2 > potential_team1) {\r\n                // Round_Detail[round_counter].round_complete = true;\r\n                // Round_Detail[round_counter].Round_Winner = round_winner.TEAM2;\r\n                // status = round_winner.TEAM2;\r\n                return 2; //returning 2 means that team 2 has won(computer)\r\n            } else {\r\n                return 0; //match is still going on\r\n            }\r\n        } else {\r\n            if ((roundNumber + 1) % 2 == 0) {\r\n                if (curr_team1 > curr_team2) {\r\n                    // Round_Detail[round_counter].round_complete = true;\r\n                    // Round_Detail[round_counter].Round_Winner = round_winner\r\n                    // .TEAM1;\r\n                    // status = round_winner.TEAM1;\r\n                    return 1;\r\n                } else if (curr_team1 < curr_team2) {\r\n                    // Round_Detail[round_counter].round_complete = true;\r\n                    // Round_Detail[round_counter].Round_Winner = round_winner\r\n                    // .TEAM2;\r\n                    // status = round_winner.TEAM2;\r\n                    return 2;\r\n                } else {\r\n                    return 0;\r\n                }\r\n            } else {\r\n                return 0;\r\n            }\r\n        }\r\n    }\r\n\r\n    //this function updates the shoot_counter variable. It is done after every penaly shot taken.\r\n    function update_shoot_counter() public {\r\n        shoot_counter++;\r\n    }\r\n\r\n    //function that updates the round counter\r\n    function update_round_counter() public {\r\n        round_counter++;\r\n    }\r\n\r\n    function reset() public {\r\n        shoot_counter = 0;\r\n        team1Score = 0;\r\n        team2Score = 0;\r\n        roundNumber = 0;\r\n    }\r\n\r\n    function score_team1() external view returns (uint8) {\r\n        return Round_Detail[round_counter].team1_score;\r\n    }\r\n\r\n    function score_team2() external view returns (uint8) {\r\n        return Round_Detail[round_counter].team2_score;\r\n    }\r\n\r\n    //////////////////////////////////////////////////////////\r\n\r\n    event RequestSent(uint256 requestId, uint32 numWords);\r\n    event RequestFulfilled(uint256 requestId, uint256[] randomWords);\r\n\r\n    struct RequestStatus {\r\n        bool fulfilled; // whether the request has been successfully fulfilled\r\n        bool exists; // whether a requestId exists\r\n        uint256[] randomWords;\r\n        bool didWin;\r\n    }\r\n    mapping(uint256 => RequestStatus)\r\n        public s_requests; /* requestId --> requestStatus */\r\n    VRFCoordinatorV2Interface COORDINATOR;\r\n\r\n    // Your subscription ID.\r\n    uint64 s_subscriptionId;\r\n\r\n    // past requests Id.\r\n    uint256[] public requestIds;\r\n    uint256 public lastRequestId;\r\n\r\n    // The gas lane to use, which specifies the maximum gas price to bump to.\r\n    // For a list of available gas lanes on each network,\r\n    // see https://docs.chain.link/docs/vrf/v2/subscription/supported-networks/#configurations\r\n    bytes32 keyHash =\r\n        0x474e34a077df58807dbe9c96d3c009b23b3c6d0cce433e59bbf5b34f823bc56c;\r\n\r\n    // Depends on the number of requested values that you want sent to the\r\n    // fulfillRandomWords() function. Storing each word costs about 20,000 gas,\r\n    // so 100,000 is a safe default for this example contract. Test and adjust\r\n    // this limit based on the network that you select, the size of the request,\r\n    // and the processing of the callback request in the fulfillRandomWords()\r\n    // function.\r\n    uint32 callbackGasLimit = 1000000;\r\n\r\n    // The default is 3, but you can set this higher.\r\n    uint16 requestConfirmations = 3;\r\n\r\n    // For this example, retrieve 2 random values in one request.\r\n    // Cannot exceed VRFCoordinatorV2.MAX_NUM_WORDS.\r\n    uint32 numWords = 20;\r\n\r\n    /**\r\n     * HARDCODED FOR SEPOLIA\r\n     * COORDINATOR: 0x8103B0A8A00be2DDC778e6e7eaa21791Cd364625\r\n     */\r\n    constructor(\r\n        uint64 subscriptionId\r\n    )\r\n        VRFConsumerBaseV2(0x8103B0A8A00be2DDC778e6e7eaa21791Cd364625)\r\n        ConfirmedOwner(msg.sender)\r\n    {\r\n        COORDINATOR = VRFCoordinatorV2Interface(\r\n            0x8103B0A8A00be2DDC778e6e7eaa21791Cd364625\r\n        );\r\n        s_subscriptionId = subscriptionId;\r\n    }\r\n\r\n    // Assumes the subscription is funded sufficiently.\r\n    function requestRandomWords() external returns (uint256 requestId) {\r\n        // Will revert if subscription is not set and funded.\r\n        requestId = COORDINATOR.requestRandomWords(\r\n            keyHash,\r\n            s_subscriptionId,\r\n            requestConfirmations,\r\n            callbackGasLimit,\r\n            numWords\r\n        );\r\n        s_requests[requestId] = RequestStatus({\r\n            randomWords: new uint256[](0),\r\n            exists: true,\r\n            fulfilled: false,\r\n            didWin: true\r\n        });\r\n        requestIds.push(requestId);\r\n        lastRequestId = requestId;\r\n        emit RequestSent(requestId, numWords);\r\n        return requestId;\r\n    }\r\n\r\n    function fulfillRandomWords(\r\n        uint256 _requestId,\r\n        uint256[] memory _randomWords\r\n    ) internal override {\r\n        require(s_requests[_requestId].exists, \"request not found\");\r\n        s_requests[_requestId].fulfilled = true;\r\n        s_requests[_requestId].randomWords = _randomWords;\r\n        if (_randomWords[0] % 2 == 0) {\r\n            s_requests[_requestId].didWin = true;\r\n        }\r\n        // randomNumbers = _randomWords;\r\n        emit RequestFulfilled(_requestId, _randomWords);\r\n    }\r\n\r\n    function getRequestStatus(\r\n        uint256 _requestId\r\n    )\r\n        external\r\n        view\r\n        returns (bool fulfilled, uint256[] memory randomWords, bool didWin)\r\n    {\r\n        require(s_requests[_requestId].exists, \"request not found\");\r\n        RequestStatus memory request = s_requests[_requestId];\r\n        return (request.fulfilled, request.randomWords, request.didWin);\r\n    }\r\n\r\n    //mycode\r\n}\r\n",
  "sourcePath": "C:\\Users\\Akash Sahu\\Desktop\\chainlink\\Web3Football\\contracts\\Web3Football.sol",
  "compiler": {
    "name": "solc",
    "version": "0.8.20+commit.a1b79de6.Emscripten.clang"
  },
  "schemaVersion": "3.4.14",
  "updatedAt": "2023-06-08T13:50:32.403Z",
  "networkType": "ethereum",
  "devdoc": {
    "kind": "dev",
    "methods": {},
    "version": 1
  },
  "userdoc": {
    "kind": "user",
    "methods": {
      "acceptOwnership()": {
        "notice": "Allows an ownership transfer to be completed by the recipient."
      },
      "constructor": {
        "notice": "HARDCODED FOR SEPOLIA COORDINATOR: 0x8103B0A8A00be2DDC778e6e7eaa21791Cd364625"
      },
      "owner()": {
        "notice": "Get the current owner"
      },
      "transferOwnership(address)": {
        "notice": "Allows an owner to begin transferring ownership to a new address, pending."
      }
    },
    "notice": "THIS IS AN EXAMPLE CONTRACT THAT USES HARDCODED VALUES FOR CLARITY. THIS IS AN EXAMPLE CONTRACT THAT USES UN-AUDITED CODE. DO NOT USE THIS CODE IN PRODUCTION.",
    "version": 1
  }
}