{
  "contractName": "Web3Football",
  "abi": [
    {
      "inputs": [
        {
          "internalType": "uint64",
          "name": "subscriptionId",
          "type": "uint64"
        }
      ],
      "stateMutability": "nonpayable",
      "type": "constructor"
    },
    {
      "inputs": [
        {
          "internalType": "address",
          "name": "have",
          "type": "address"
        },
        {
          "internalType": "address",
          "name": "want",
          "type": "address"
        }
      ],
      "name": "OnlyCoordinatorCanFulfill",
      "type": "error"
    },
    {
      "anonymous": false,
      "inputs": [
        {
          "indexed": true,
          "internalType": "address",
          "name": "from",
          "type": "address"
        },
        {
          "indexed": true,
          "internalType": "address",
          "name": "to",
          "type": "address"
        }
      ],
      "name": "OwnershipTransferRequested",
      "type": "event"
    },
    {
      "anonymous": false,
      "inputs": [
        {
          "indexed": true,
          "internalType": "address",
          "name": "from",
          "type": "address"
        },
        {
          "indexed": true,
          "internalType": "address",
          "name": "to",
          "type": "address"
        }
      ],
      "name": "OwnershipTransferred",
      "type": "event"
    },
    {
      "anonymous": false,
      "inputs": [
        {
          "indexed": false,
          "internalType": "uint256",
          "name": "requestId",
          "type": "uint256"
        },
        {
          "indexed": false,
          "internalType": "uint256[]",
          "name": "randomWords",
          "type": "uint256[]"
        }
      ],
      "name": "RequestFulfilled",
      "type": "event"
    },
    {
      "anonymous": false,
      "inputs": [
        {
          "indexed": false,
          "internalType": "uint256",
          "name": "requestId",
          "type": "uint256"
        },
        {
          "indexed": false,
          "internalType": "uint32",
          "name": "numWords",
          "type": "uint32"
        }
      ],
      "name": "RequestSent",
      "type": "event"
    },
    {
      "anonymous": false,
      "inputs": [
        {
          "indexed": false,
          "internalType": "uint8",
          "name": "shoot_counter",
          "type": "uint8"
        },
        {
          "indexed": false,
          "internalType": "uint8",
          "name": "Team1_Lvl",
          "type": "uint8"
        },
        {
          "indexed": false,
          "internalType": "uint8",
          "name": "Team2_Lvl",
          "type": "uint8"
        }
      ],
      "name": "testi",
      "type": "event"
    },
    {
      "inputs": [],
      "name": "acceptOwnership",
      "outputs": [],
      "stateMutability": "nonpayable",
      "type": "function"
    },
    {
      "inputs": [],
      "name": "lastRequestId",
      "outputs": [
        {
          "internalType": "uint256",
          "name": "",
          "type": "uint256"
        }
      ],
      "stateMutability": "view",
      "type": "function",
      "constant": true
    },
    {
      "inputs": [],
      "name": "owner",
      "outputs": [
        {
          "internalType": "address",
          "name": "",
          "type": "address"
        }
      ],
      "stateMutability": "view",
      "type": "function",
      "constant": true
    },
    {
      "inputs": [
        {
          "internalType": "uint256",
          "name": "",
          "type": "uint256"
        }
      ],
      "name": "randomNumbers",
      "outputs": [
        {
          "internalType": "uint256",
          "name": "",
          "type": "uint256"
        }
      ],
      "stateMutability": "view",
      "type": "function",
      "constant": true
    },
    {
      "inputs": [
        {
          "internalType": "uint256",
          "name": "requestId",
          "type": "uint256"
        },
        {
          "internalType": "uint256[]",
          "name": "randomWords",
          "type": "uint256[]"
        }
      ],
      "name": "rawFulfillRandomWords",
      "outputs": [],
      "stateMutability": "nonpayable",
      "type": "function"
    },
    {
      "inputs": [
        {
          "internalType": "uint256",
          "name": "",
          "type": "uint256"
        }
      ],
      "name": "requestIds",
      "outputs": [
        {
          "internalType": "uint256",
          "name": "",
          "type": "uint256"
        }
      ],
      "stateMutability": "view",
      "type": "function",
      "constant": true
    },
    {
      "inputs": [],
      "name": "round_counter",
      "outputs": [
        {
          "internalType": "uint8",
          "name": "",
          "type": "uint8"
        }
      ],
      "stateMutability": "view",
      "type": "function",
      "constant": true
    },
    {
      "inputs": [
        {
          "internalType": "uint256",
          "name": "",
          "type": "uint256"
        }
      ],
      "name": "s_requests",
      "outputs": [
        {
          "internalType": "bool",
          "name": "fulfilled",
          "type": "bool"
        },
        {
          "internalType": "bool",
          "name": "exists",
          "type": "bool"
        },
        {
          "internalType": "bool",
          "name": "didWin",
          "type": "bool"
        }
      ],
      "stateMutability": "view",
      "type": "function",
      "constant": true
    },
    {
      "inputs": [],
      "name": "shoot_counter",
      "outputs": [
        {
          "internalType": "uint8",
          "name": "",
          "type": "uint8"
        }
      ],
      "stateMutability": "view",
      "type": "function",
      "constant": true
    },
    {
      "inputs": [],
      "name": "test",
      "outputs": [
        {
          "internalType": "uint256",
          "name": "",
          "type": "uint256"
        }
      ],
      "stateMutability": "view",
      "type": "function",
      "constant": true
    },
    {
      "inputs": [
        {
          "internalType": "address",
          "name": "to",
          "type": "address"
        }
      ],
      "name": "transferOwnership",
      "outputs": [],
      "stateMutability": "nonpayable",
      "type": "function"
    },
    {
      "inputs": [
        {
          "internalType": "uint256",
          "name": "_test",
          "type": "uint256"
        }
      ],
      "name": "raghav",
      "outputs": [],
      "stateMutability": "nonpayable",
      "type": "function"
    },
    {
      "inputs": [],
      "name": "initialize_array",
      "outputs": [],
      "stateMutability": "nonpayable",
      "type": "function"
    },
    {
      "inputs": [
        {
          "internalType": "uint8",
          "name": "Shoot_No",
          "type": "uint8"
        },
        {
          "internalType": "uint8",
          "name": "Team1_Lvl",
          "type": "uint8"
        },
        {
          "internalType": "uint8",
          "name": "Team2_Lvl",
          "type": "uint8"
        }
      ],
      "name": "interface_Selection",
      "outputs": [
        {
          "internalType": "uint8",
          "name": "",
          "type": "uint8"
        }
      ],
      "stateMutability": "nonpayable",
      "type": "function"
    },
    {
      "inputs": [
        {
          "internalType": "uint8",
          "name": "penalty_interface",
          "type": "uint8"
        },
        {
          "internalType": "uint8",
          "name": "user_choice",
          "type": "uint8"
        },
        {
          "internalType": "uint8",
          "name": "player_type",
          "type": "uint8"
        }
      ],
      "name": "penalty_shoot",
      "outputs": [],
      "stateMutability": "nonpayable",
      "type": "function"
    },
    {
      "inputs": [],
      "name": "round_result_check",
      "outputs": [
        {
          "internalType": "uint8",
          "name": "",
          "type": "uint8"
        }
      ],
      "stateMutability": "nonpayable",
      "type": "function"
    },
    {
      "inputs": [],
      "name": "update_shoot_counter",
      "outputs": [],
      "stateMutability": "nonpayable",
      "type": "function"
    },
    {
      "inputs": [],
      "name": "update_round_counter",
      "outputs": [],
      "stateMutability": "nonpayable",
      "type": "function"
    },
    {
      "inputs": [],
      "name": "reset",
      "outputs": [],
      "stateMutability": "nonpayable",
      "type": "function"
    },
    {
      "inputs": [],
      "name": "score_team1",
      "outputs": [
        {
          "internalType": "uint8",
          "name": "",
          "type": "uint8"
        }
      ],
      "stateMutability": "view",
      "type": "function",
      "constant": true
    },
    {
      "inputs": [],
      "name": "score_team2",
      "outputs": [
        {
          "internalType": "uint8",
          "name": "",
          "type": "uint8"
        }
      ],
      "stateMutability": "view",
      "type": "function",
      "constant": true
    },
    {
      "inputs": [],
      "name": "requestRandomWords",
      "outputs": [
        {
          "internalType": "uint256",
          "name": "requestId",
          "type": "uint256"
        }
      ],
      "stateMutability": "nonpayable",
      "type": "function"
    },
    {
      "inputs": [
        {
          "internalType": "uint256",
          "name": "_requestId",
          "type": "uint256"
        }
      ],
      "name": "getRequestStatus",
      "outputs": [
        {
          "internalType": "bool",
          "name": "fulfilled",
          "type": "bool"
        },
        {
          "internalType": "uint256[]",
          "name": "randomWords",
          "type": "uint256[]"
        },
        {
          "internalType": "bool",
          "name": "didWin",
          "type": "bool"
        }
      ],
      "stateMutability": "view",
      "type": "function",
      "constant": true
    }
  ],
  "bytecode": "0x60a06040525f600160146101000a81548160ff021916908360ff1602179055506002600160166101000a81548160ff02191690836002811115620000485762000047620003ff565b5b02179055507f474e34a077df58807dbe9c96d3c009b23b3c6d0cce433e59bbf5b34f823bc56c5f1b603055620f424060315f6101000a81548163ffffffff021916908363ffffffff1602179055506003603160046101000a81548161ffff021916908361ffff1602179055506014603160066101000a81548163ffffffff021916908363ffffffff160217905550348015620000e2575f80fd5b506040516200462038038062004620833981810160405281019062000108919062000472565b33805f738103b0a8a00be2ddc778e6e7eaa21791cd3646258073ffffffffffffffffffffffffffffffffffffffff1660808173ffffffffffffffffffffffffffffffffffffffff1681525050505f73ffffffffffffffffffffffffffffffffffffffff168273ffffffffffffffffffffffffffffffffffffffff1603620001c6576040517f08c379a0000000000000000000000000000000000000000000000000000000008152600401620001bd9062000500565b60405180910390fd5b815f806101000a81548173ffffffffffffffffffffffffffffffffffffffff021916908373ffffffffffffffffffffffffffffffffffffffff1602179055505f73ffffffffffffffffffffffffffffffffffffffff168173ffffffffffffffffffffffffffffffffffffffff16146200024b576200024a81620002d260201b60201c565b5b505050738103b0a8a00be2ddc778e6e7eaa21791cd364625602d5f6101000a81548173ffffffffffffffffffffffffffffffffffffffff021916908373ffffffffffffffffffffffffffffffffffffffff16021790555080602d60146101000a81548167ffffffffffffffff021916908367ffffffffffffffff160217905550506200058e565b3373ffffffffffffffffffffffffffffffffffffffff168173ffffffffffffffffffffffffffffffffffffffff160362000343576040517f08c379a00000000000000000000000000000000000000000000000000000000081526004016200033a906200056e565b60405180910390fd5b8060015f6101000a81548173ffffffffffffffffffffffffffffffffffffffff021916908373ffffffffffffffffffffffffffffffffffffffff1602179055508073ffffffffffffffffffffffffffffffffffffffff165f8054906101000a900473ffffffffffffffffffffffffffffffffffffffff1673ffffffffffffffffffffffffffffffffffffffff167fed8889f560326eb138920d842192f0eb3dd22b4f139c87a2c57538e05bae127860405160405180910390a350565b7f4e487b71000000000000000000000000000000000000000000000000000000005f52602160045260245ffd5b5f80fd5b5f67ffffffffffffffff82169050919050565b6200044e8162000430565b811462000459575f80fd5b50565b5f815190506200046c8162000443565b92915050565b5f602082840312156200048a57620004896200042c565b5b5f62000499848285016200045c565b91505092915050565b5f82825260208201905092915050565b7f43616e6e6f7420736574206f776e657220746f207a65726f00000000000000005f82015250565b5f620004e8601883620004a2565b9150620004f582620004b2565b602082019050919050565b5f6020820190508181035f8301526200051981620004da565b9050919050565b7f43616e6e6f74207472616e7366657220746f2073656c660000000000000000005f82015250565b5f62000556601783620004a2565b9150620005638262000520565b602082019050919050565b5f6020820190508181035f830152620005878162000548565b9050919050565b608051614072620005ae5f395f818161042f015261048301526140725ff3fe608060405234801561000f575f80fd5b506004361061014b575f3560e01c8063a168fa89116100c1578063e0c862891161007a578063e0c862891461032f578063e497064a1461034d578063ecae46b91461036b578063f2fde38b1461039b578063f8a8fd6d146103b7578063fc2a88c3146103d55761014b565b8063a168fa891461027b578063d34c9d46146102ad578063d826f88f146102cb578063d8a4676f146102d5578063dc91697e14610307578063dd4b23cd146103255761014b565b806354e52aed1161011357806354e52aed146101df57806357de2cbb146101e95780635f59d29c1461020557806379ba5097146102235780638796ba8c1461022d5780638da5cb5b1461025d5761014b565b80630a1aa7651461014f5780631fe543e3146101595780632ff285bc146101755780633564ac9c146101915780635257cd90146101af575b5f80fd5b6101576103f3565b005b610173600480360381019061016e9190613619565b61042d565b005b61018f600480360381019061018a91906136a9565b6104ed565b005b610199611a9b565b6040516101a69190613708565b60405180910390f35b6101c960048036038101906101c49190613721565b611aae565b6040516101d6919061375b565b60405180910390f35b6101e7611ace565b005b61020360048036038101906101fe9190613721565b611c94565b005b61020d611c9e565b60405161021a9190613708565b60405180910390f35b61022b611cb1565b005b61024760048036038101906102429190613721565b611e40565b604051610254919061375b565b60405180910390f35b610265611e60565b60405161027291906137b3565b60405180910390f35b61029560048036038101906102909190613721565b611e87565b6040516102a4939291906137e6565b60405180910390f35b6102b5611ed1565b6040516102c29190613708565b60405180910390f35b6102d3611f0e565b005b6102ef60048036038101906102ea9190613721565b611f2b565b6040516102fe939291906138d2565b60405180910390f35b61030f61206d565b60405161031c9190613708565b60405180910390f35b61032d6120aa565b005b6103376120e4565b604051610344919061375b565b60405180910390f35b61035561234c565b6040516103629190613708565b60405180910390f35b610385600480360381019061038091906136a9565b612977565b6040516103929190613708565b60405180910390f35b6103b560048036038101906103b09190613938565b6130e4565b005b6103bf6130f8565b6040516103cc919061375b565b60405180910390f35b6103dd6130fe565b6040516103ea919061375b565b60405180910390f35b6001601581819054906101000a900460ff168092919061041290613990565b91906101000a81548160ff021916908360ff16021790555050565b7f000000000000000000000000000000000000000000000000000000000000000073ffffffffffffffffffffffffffffffffffffffff163373ffffffffffffffffffffffffffffffffffffffff16146104df57337f00000000000000000000000000000000000000000000000000000000000000006040517f1cf993f40000000000000000000000000000000000000000000000000000000081526004016104d69291906139b8565b60405180910390fd5b6104e98282613104565b5050565b600280811115610500576104ff6139df565b5b600160169054906101000a900460ff166002811115610522576105216139df565b5b14610562576040517f08c379a000000000000000000000000000000000000000000000000000000000815260040161055990613a66565b60405180910390fd5b60018360ff16148015610578575060018160ff16145b156108ea575f8260ff1610158015610594575060018260ff1611155b6105d3576040517f08c379a00000000000000000000000000000000000000000000000000000000081526004016105ca90613ace565b60405180910390fd5b5f600280600160149054906101000a900460ff1660ff16815481106105fb576105fa613aec565b5b905f5260205f20015461060e9190613b46565b9050808360ff16036107535760016004600160149054906101000a900460ff1660ff166014811061064257610641613aec565b5b015f0160056101000a81548160ff0219169083151502179055505f6004600160149054906101000a900460ff1660ff166014811061068357610682613aec565b5b015f0160066101000a81548160ff021916908360018111156106a8576106a76139df565b5b02179055505f6004600160149054906101000a900460ff1660ff16601481106106d4576106d3613aec565b5b015f0160076101000a81548160ff021916908360018111156106f9576106f86139df565b5b0217905550600160149054906101000a900460ff166018600160159054906101000a900460ff1660ff166014811061073457610733613aec565b5b015f015f6101000a81548160ff021916908360ff1602179055506108e8565b60016004600160149054906101000a900460ff1660ff166014811061077b5761077a613aec565b5b015f0160056101000a81548160ff02191690831515021790555060016004600160149054906101000a900460ff1660ff16601481106107bd576107bc613aec565b5b015f0160066101000a81548160ff021916908360018111156107e2576107e16139df565b5b021790555060016004600160149054906101000a900460ff1660ff166014811061080f5761080e613aec565b5b015f0160076101000a81548160ff02191690836001811115610834576108336139df565b5b0217905550600160149054906101000a900460ff166018600160159054906101000a900460ff1660ff166014811061086f5761086e613aec565b5b015f015f6101000a81548160ff021916908360ff16021790555060016018600160159054906101000a900460ff1660ff16601481106108b1576108b0613aec565b5b015f0160028282829054906101000a900460ff166108cf9190613b76565b92506101000a81548160ff021916908360ff1602179055505b505b60018360ff16148015610900575060028160ff16145b15610c72575f8260ff161015801561091c575060018260ff1611155b61095b576040517f08c379a000000000000000000000000000000000000000000000000000000000815260040161095290613ace565b60405180910390fd5b5f600280600160149054906101000a900460ff1660ff168154811061098357610982613aec565b5b905f5260205f2001546109969190613b46565b9050808360ff1603610adc5760016004600160149054906101000a900460ff1660ff16601481106109ca576109c9613aec565b5b015f0160056101000a81548160ff0219169083151502179055505f6004600160149054906101000a900460ff1660ff1660148110610a0b57610a0a613aec565b5b015f0160066101000a81548160ff02191690836001811115610a3057610a2f6139df565b5b021790555060016004600160149054906101000a900460ff1660ff1660148110610a5d57610a5c613aec565b5b015f0160076101000a81548160ff02191690836001811115610a8257610a816139df565b5b0217905550600160149054906101000a900460ff166018600160159054906101000a900460ff1660ff1660148110610abd57610abc613aec565b5b015f015f6101000a81548160ff021916908360ff160217905550610c70565b60016004600160149054906101000a900460ff1660ff1660148110610b0457610b03613aec565b5b015f0160056101000a81548160ff02191690831515021790555060016004600160149054906101000a900460ff1660ff1660148110610b4657610b45613aec565b5b015f0160066101000a81548160ff02191690836001811115610b6b57610b6a6139df565b5b02179055505f6004600160149054906101000a900460ff1660ff1660148110610b9757610b96613aec565b5b015f0160076101000a81548160ff02191690836001811115610bbc57610bbb6139df565b5b0217905550600160149054906101000a900460ff166018600160159054906101000a900460ff1660ff1660148110610bf757610bf6613aec565b5b015f015f6101000a81548160ff021916908360ff16021790555060016018600160159054906101000a900460ff1660ff1660148110610c3957610c38613aec565b5b015f0160018282829054906101000a900460ff16610c579190613b76565b92506101000a81548160ff021916908360ff1602179055505b505b60028360ff16148015610c88575060018160ff16145b15610ffb575f8260ff1610158015610ca4575060038260ff1611155b610ce3576040517f08c379a0000000000000000000000000000000000000000000000000000000008152600401610cda90613ace565b60405180910390fd5b5f60046002600160149054906101000a900460ff1660ff1681548110610d0c57610d0b613aec565b5b905f5260205f200154610d1f9190613b46565b9050808360ff1603610e645760016004600160149054906101000a900460ff1660ff1660148110610d5357610d52613aec565b5b015f0160056101000a81548160ff0219169083151502179055505f6004600160149054906101000a900460ff1660ff1660148110610d9457610d93613aec565b5b015f0160066101000a81548160ff02191690836001811115610db957610db86139df565b5b02179055505f6004600160149054906101000a900460ff1660ff1660148110610de557610de4613aec565b5b015f0160076101000a81548160ff02191690836001811115610e0a57610e096139df565b5b0217905550600160149054906101000a900460ff166018600160159054906101000a900460ff1660ff1660148110610e4557610e44613aec565b5b015f015f6101000a81548160ff021916908360ff160217905550610ff9565b60016004600160149054906101000a900460ff1660ff1660148110610e8c57610e8b613aec565b5b015f0160056101000a81548160ff02191690831515021790555060016004600160149054906101000a900460ff1660ff1660148110610ece57610ecd613aec565b5b015f0160066101000a81548160ff02191690836001811115610ef357610ef26139df565b5b021790555060016004600160149054906101000a900460ff1660ff1660148110610f2057610f1f613aec565b5b015f0160076101000a81548160ff02191690836001811115610f4557610f446139df565b5b0217905550600160149054906101000a900460ff166018600160159054906101000a900460ff1660ff1660148110610f8057610f7f613aec565b5b015f015f6101000a81548160ff021916908360ff16021790555060016018600160159054906101000a900460ff1660ff1660148110610fc257610fc1613aec565b5b015f0160028282829054906101000a900460ff16610fe09190613b76565b92506101000a81548160ff021916908360ff1602179055505b505b60028360ff16148015611011575060028160ff16145b15611384575f8260ff161015801561102d575060038260ff1611155b61106c576040517f08c379a000000000000000000000000000000000000000000000000000000000815260040161106390613ace565b60405180910390fd5b5f60046002600160149054906101000a900460ff1660ff168154811061109557611094613aec565b5b905f5260205f2001546110a89190613b46565b9050808360ff16036111ee5760016004600160149054906101000a900460ff1660ff16601481106110dc576110db613aec565b5b015f0160056101000a81548160ff0219169083151502179055505f6004600160149054906101000a900460ff1660ff166014811061111d5761111c613aec565b5b015f0160066101000a81548160ff02191690836001811115611142576111416139df565b5b021790555060016004600160149054906101000a900460ff1660ff166014811061116f5761116e613aec565b5b015f0160076101000a81548160ff02191690836001811115611194576111936139df565b5b0217905550600160149054906101000a900460ff166018600160159054906101000a900460ff1660ff16601481106111cf576111ce613aec565b5b015f015f6101000a81548160ff021916908360ff160217905550611382565b60016004600160149054906101000a900460ff1660ff166014811061121657611215613aec565b5b015f0160056101000a81548160ff02191690831515021790555060016004600160149054906101000a900460ff1660ff166014811061125857611257613aec565b5b015f0160066101000a81548160ff0219169083600181111561127d5761127c6139df565b5b02179055505f6004600160149054906101000a900460ff1660ff16601481106112a9576112a8613aec565b5b015f0160076101000a81548160ff021916908360018111156112ce576112cd6139df565b5b0217905550600160149054906101000a900460ff166018600160159054906101000a900460ff1660ff166014811061130957611308613aec565b5b015f015f6101000a81548160ff021916908360ff16021790555060016018600160159054906101000a900460ff1660ff166014811061134b5761134a613aec565b5b015f0160018282829054906101000a900460ff166113699190613b76565b92506101000a81548160ff021916908360ff1602179055505b505b60038360ff1614801561139a575060018160ff16145b1561170d575f8260ff16101580156113b6575060078260ff1611155b6113f5576040517f08c379a00000000000000000000000000000000000000000000000000000000081526004016113ec90613ace565b60405180910390fd5b5f60086002600160149054906101000a900460ff1660ff168154811061141e5761141d613aec565b5b905f5260205f2001546114319190613b46565b9050808360ff16036115765760016004600160149054906101000a900460ff1660ff166014811061146557611464613aec565b5b015f0160056101000a81548160ff0219169083151502179055505f6004600160149054906101000a900460ff1660ff16601481106114a6576114a5613aec565b5b015f0160066101000a81548160ff021916908360018111156114cb576114ca6139df565b5b02179055505f6004600160149054906101000a900460ff1660ff16601481106114f7576114f6613aec565b5b015f0160076101000a81548160ff0219169083600181111561151c5761151b6139df565b5b0217905550600160149054906101000a900460ff166018600160159054906101000a900460ff1660ff166014811061155757611556613aec565b5b015f015f6101000a81548160ff021916908360ff16021790555061170b565b60016004600160149054906101000a900460ff1660ff166014811061159e5761159d613aec565b5b015f0160056101000a81548160ff02191690831515021790555060016004600160149054906101000a900460ff1660ff16601481106115e0576115df613aec565b5b015f0160066101000a81548160ff02191690836001811115611605576116046139df565b5b021790555060016004600160149054906101000a900460ff1660ff166014811061163257611631613aec565b5b015f0160076101000a81548160ff02191690836001811115611657576116566139df565b5b0217905550600160149054906101000a900460ff166018600160159054906101000a900460ff1660ff166014811061169257611691613aec565b5b015f015f6101000a81548160ff021916908360ff16021790555060016018600160159054906101000a900460ff1660ff16601481106116d4576116d3613aec565b5b015f0160028282829054906101000a900460ff166116f29190613b76565b92506101000a81548160ff021916908360ff1602179055505b505b60038360ff16148015611723575060028160ff16145b15611a96575f8260ff161015801561173f575060078260ff1611155b61177e576040517f08c379a000000000000000000000000000000000000000000000000000000000815260040161177590613ace565b60405180910390fd5b5f60086002600160149054906101000a900460ff1660ff16815481106117a7576117a6613aec565b5b905f5260205f2001546117ba9190613b46565b9050808360ff16036119005760016004600160149054906101000a900460ff1660ff16601481106117ee576117ed613aec565b5b015f0160056101000a81548160ff0219169083151502179055505f6004600160149054906101000a900460ff1660ff166014811061182f5761182e613aec565b5b015f0160066101000a81548160ff02191690836001811115611854576118536139df565b5b021790555060016004600160149054906101000a900460ff1660ff166014811061188157611880613aec565b5b015f0160076101000a81548160ff021916908360018111156118a6576118a56139df565b5b0217905550600160149054906101000a900460ff166018600160159054906101000a900460ff1660ff16601481106118e1576118e0613aec565b5b015f015f6101000a81548160ff021916908360ff160217905550611a94565b60016004600160149054906101000a900460ff1660ff166014811061192857611927613aec565b5b015f0160056101000a81548160ff02191690831515021790555060016004600160149054906101000a900460ff1660ff166014811061196a57611969613aec565b5b015f0160066101000a81548160ff0219169083600181111561198f5761198e6139df565b5b02179055505f6004600160149054906101000a900460ff1660ff16601481106119bb576119ba613aec565b5b015f0160076101000a81548160ff021916908360018111156119e0576119df6139df565b5b0217905550600160149054906101000a900460ff166018600160159054906101000a900460ff1660ff1660148110611a1b57611a1a613aec565b5b015f015f6101000a81548160ff021916908360ff16021790555060016018600160159054906101000a900460ff1660ff1660148110611a5d57611a5c613aec565b5b015f0160018282829054906101000a900460ff16611a7b9190613b76565b92506101000a81548160ff021916908360ff1602179055505b505b505050565b600160149054906101000a900460ff1681565b60028181548110611abd575f80fd5b905f5260205f20015f915090505481565b600460025f81548110611ae457611ae3613aec565b5b905f5260205f20018190555060066002600181548110611b0757611b06613aec565b5b905f5260205f200181905550600660028081548110611b2957611b28613aec565b5b905f5260205f20018190555060046002600381548110611b4c57611b4b613aec565b5b905f5260205f20018190555060016002600481548110611b6f57611b6e613aec565b5b905f5260205f20018190555060046002600581548110611b9257611b91613aec565b5b905f5260205f20018190555060036002600681548110611bb557611bb4613aec565b5b905f5260205f200181905550600280600781548110611bd757611bd6613aec565b5b905f5260205f20018190555060076002600881548110611bfa57611bf9613aec565b5b905f5260205f20018190555060126002600981548110611c1d57611c1c613aec565b5b905f5260205f200181905550602d6002600a81548110611c4057611c3f613aec565b5b905f5260205f200181905550600a6002600b81548110611c6357611c62613aec565b5b905f5260205f200181905550601b6002600c81548110611c8657611c85613aec565b5b905f5260205f200181905550565b8060038190555050565b600160159054906101000a900460ff1681565b60015f9054906101000a900473ffffffffffffffffffffffffffffffffffffffff1673ffffffffffffffffffffffffffffffffffffffff163373ffffffffffffffffffffffffffffffffffffffff1614611d40576040517f08c379a0000000000000000000000000000000000000000000000000000000008152600401611d3790613bf4565b60405180910390fd5b5f805f9054906101000a900473ffffffffffffffffffffffffffffffffffffffff169050335f806101000a81548173ffffffffffffffffffffffffffffffffffffffff021916908373ffffffffffffffffffffffffffffffffffffffff1602179055505f60015f6101000a81548173ffffffffffffffffffffffffffffffffffffffff021916908373ffffffffffffffffffffffffffffffffffffffff1602179055503373ffffffffffffffffffffffffffffffffffffffff168173ffffffffffffffffffffffffffffffffffffffff167f8be0079c531659141344cd1fd0a4f28419497f9722a3daafe3b4186f6b6457e060405160405180910390a350565b602e8181548110611e4f575f80fd5b905f5260205f20015f915090505481565b5f805f9054906101000a900473ffffffffffffffffffffffffffffffffffffffff16905090565b602c602052805f5260405f205f91509050805f015f9054906101000a900460ff1690805f0160019054906101000a900460ff1690806002015f9054906101000a900460ff16905083565b5f6018600160159054906101000a900460ff1660ff1660148110611ef857611ef7613aec565b5b015f0160019054906101000a900460ff16905090565b5f600160146101000a81548160ff021916908360ff160217905550565b5f60605f602c5f8581526020019081526020015f205f0160019054906101000a900460ff16611f8f576040517f08c379a0000000000000000000000000000000000000000000000000000000008152600401611f8690613c5c565b60405180910390fd5b5f602c5f8681526020019081526020015f206040518060800160405290815f82015f9054906101000a900460ff161515151581526020015f820160019054906101000a900460ff161515151581526020016001820180548060200260200160405190810160405280929190818152602001828054801561202c57602002820191905f5260205f20905b815481526020019060010190808311612018575b50505050508152602001600282015f9054906101000a900460ff1615151515815250509050805f015181604001518260600151935093509350509193909250565b5f6018600160159054906101000a900460ff1660ff166014811061209457612093613aec565b5b015f0160029054906101000a900460ff16905090565b6001601481819054906101000a900460ff16809291906120c990613990565b91906101000a81548160ff021916908360ff16021790555050565b5f602d5f9054906101000a900473ffffffffffffffffffffffffffffffffffffffff1673ffffffffffffffffffffffffffffffffffffffff16635d3b1d30603054602d60149054906101000a900467ffffffffffffffff16603160049054906101000a900461ffff1660315f9054906101000a900463ffffffff16603160069054906101000a900463ffffffff166040518663ffffffff1660e01b8152600401612192959493929190613cee565b6020604051808303815f875af11580156121ae573d5f803e3d5ffd5b505050506040513d601f19601f820116820180604052508101906121d29190613d53565b905060405180608001604052805f151581526020016001151581526020015f67ffffffffffffffff81111561220a576122096134dd565b5b6040519080825280602002602001820160405280156122385781602001602082028036833780820191505090505b50815260200160011515815250602c5f8381526020019081526020015f205f820151815f015f6101000a81548160ff0219169083151502179055506020820151815f0160016101000a81548160ff02191690831515021790555060408201518160010190805190602001906122ae92919061341f565b506060820151816002015f6101000a81548160ff021916908315150217905550905050602e81908060018154018082558091505060019003905f5260205f20015f909190919091505580602f819055507fcc58b13ad3eab50626c6a6300b1d139cd6ebb1688a7cced9461c2f7e762665ee81603160069054906101000a900463ffffffff16604051612341929190613d7e565b60405180910390a190565b5f6005600160149054906101000a900460ff1660ff1610156123a3576040517f08c379a000000000000000000000000000000000000000000000000000000000815260040161239a90613def565b60405180910390fd5b600a600160149054906101000a900460ff1660ff161015612713575f6018600160159054906101000a900460ff1660ff16601481106123e5576123e4613aec565b5b015f0160019054906101000a900460ff1690505f6018600160159054906101000a900460ff1660ff166014811061241f5761241e613aec565b5b015f0160029054906101000a900460ff1690505f8060016002600160149054906101000a900460ff166124529190613e0d565b60ff16036124df5783600260018060149054906101000a900460ff166124789190613b76565b6124829190613e3d565b600561248e9190613e6d565b6124989190613b76565b915082600260018060149054906101000a900460ff166124b89190613b76565b6124c29190613e3d565b60056124ce9190613e6d565b6124d89190613b76565b9050612556565b8360016002600160149054906101000a900460ff166124fe9190613e3d565b600561250a9190613e6d565b6125149190613e6d565b61251e9190613b76565b9150826002600160149054906101000a900460ff1661253d9190613e3d565b60056125499190613e6d565b6125539190613b76565b90505b8060ff168460ff16111561262e5760016018600160159054906101000a900460ff1660ff166014811061258c5761258b613aec565b5b015f0160036101000a81548160ff0219169083151502179055505f6018600160159054906101000a900460ff1660ff16601481106125cd576125cc613aec565b5b015f0160046101000a81548160ff021916908360028111156125f2576125f16139df565b5b02179055505f600160166101000a81548160ff0219169083600281111561261c5761261b6139df565b5b02179055506001945050505050612974565b8160ff168360ff1611156127075760016018600160159054906101000a900460ff1660ff166014811061266457612663613aec565b5b015f0160036101000a81548160ff02191690831515021790555060016018600160159054906101000a900460ff1660ff16601481106126a6576126a5613aec565b5b015f0160046101000a81548160ff021916908360028111156126cb576126ca6139df565b5b021790555060018060166101000a81548160ff021916908360028111156126f5576126f46139df565b5b02179055506002945050505050612974565b5f945050505050612974565b5f6018600160159054906101000a900460ff1660ff166014811061273a57612739613aec565b5b015f0160019054906101000a900460ff1690505f6018600160159054906101000a900460ff1660ff166014811061277457612773613aec565b5b015f0160029054906101000a900460ff1690505f600260018060149054906101000a900460ff166127a59190613b76565b6127af9190613e0d565b60ff160361296e578060ff168260ff16111561288d5760016018600160159054906101000a900460ff1660ff16601481106127ed576127ec613aec565b5b015f0160036101000a81548160ff0219169083151502179055505f6018600160159054906101000a900460ff1660ff166014811061282e5761282d613aec565b5b015f0160046101000a81548160ff02191690836002811115612853576128526139df565b5b02179055505f600160166101000a81548160ff0219169083600281111561287d5761287c6139df565b5b0217905550600192505050612974565b8060ff168260ff1610156129645760016018600160159054906101000a900460ff1660ff16601481106128c3576128c2613aec565b5b015f0160036101000a81548160ff02191690831515021790555060016018600160159054906101000a900460ff1660ff166014811061290557612904613aec565b5b015f0160046101000a81548160ff0219169083600281111561292a576129296139df565b5b021790555060018060166101000a81548160ff02191690836002811115612954576129536139df565b5b0217905550600292505050612974565b5f92505050612974565b5f925050505b90565b5f8360ff16600160149054906101000a900460ff1660ff16146129cf576040517f08c379a00000000000000000000000000000000000000000000000000000000081526004016129c690613eeb565b60405180910390fd5b836004600160149054906101000a900460ff1660ff16601481106129f6576129f5613aec565b5b015f015f6101000a81548160ff021916908360ff160217905550826004600160149054906101000a900460ff1660ff1660148110612a3757612a36613aec565b5b015f0160016101000a81548160ff021916908360ff160217905550816004600160149054906101000a900460ff1660ff1660148110612a7957612a78613aec565b5b015f0160026101000a81548160ff021916908360ff1602179055507ffba8819b2953a32d000161333229434169fafe95a4747637212b14655368d818848484604051612ac793929190613f09565b60405180910390a160018360ff16148015612ae5575060018260ff16145b15612b745760016004600160149054906101000a900460ff1660ff1660148110612b1257612b11613aec565b5b015f0160036101000a81548160ff02191690831515021790555060026004600160149054906101000a900460ff1660ff1660148110612b5457612b53613aec565b5b015f0160046101000a81548160ff021916908360ff1602179055506130a3565b60018360ff16148015612b8a575060028260ff16145b15612c195760016004600160149054906101000a900460ff1660ff1660148110612bb757612bb6613aec565b5b015f0160036101000a81548160ff02191690831515021790555060016004600160149054906101000a900460ff1660ff1660148110612bf957612bf8613aec565b5b015f0160046101000a81548160ff021916908360ff1602179055506130a2565b60018360ff16148015612c2f575060038260ff16145b15612cbe5760016004600160149054906101000a900460ff1660ff1660148110612c5c57612c5b613aec565b5b015f0160036101000a81548160ff02191690831515021790555060016004600160149054906101000a900460ff1660ff1660148110612c9e57612c9d613aec565b5b015f0160046101000a81548160ff021916908360ff1602179055506130a1565b60028360ff16148015612cd4575060018260ff16145b15612d635760016004600160149054906101000a900460ff1660ff1660148110612d0157612d00613aec565b5b015f0160036101000a81548160ff02191690831515021790555060036004600160149054906101000a900460ff1660ff1660148110612d4357612d42613aec565b5b015f0160046101000a81548160ff021916908360ff1602179055506130a0565b60028360ff16148015612d79575060028260ff16145b15612e085760016004600160149054906101000a900460ff1660ff1660148110612da657612da5613aec565b5b015f0160036101000a81548160ff02191690831515021790555060026004600160149054906101000a900460ff1660ff1660148110612de857612de7613aec565b5b015f0160046101000a81548160ff021916908360ff16021790555061309f565b60028360ff16148015612e1e575060038260ff16145b15612ead5760016004600160149054906101000a900460ff1660ff1660148110612e4b57612e4a613aec565b5b015f0160036101000a81548160ff02191690831515021790555060016004600160149054906101000a900460ff1660ff1660148110612e8d57612e8c613aec565b5b015f0160046101000a81548160ff021916908360ff16021790555061309e565b60038360ff16148015612ec3575060018260ff16145b15612f565760016004600160149054906101000a900460ff1660ff1660148110612ef057612eef613aec565b5b015f0160036101000a81548160ff02191690831515021790555060036004600160149054906101000a900460ff1660ff1660148110612f3257612f31613aec565b5b015f0160046101000a81548160ff021916908360ff160217905550600390506130dd565b60038360ff16148015612f6c575060028260ff16145b15612ffb5760016004600160149054906101000a900460ff1660ff1660148110612f9957612f98613aec565b5b015f0160036101000a81548160ff02191690831515021790555060036004600160149054906101000a900460ff1660ff1660148110612fdb57612fda613aec565b5b015f0160046101000a81548160ff021916908360ff16021790555061309d565b60038360ff16148015613011575060038260ff16145b1561309c5760016004600160149054906101000a900460ff1660ff166014811061303e5761303d613aec565b5b015f0160036101000a81548160ff02191690831515021790555060026004600160149054906101000a900460ff1660ff16601481106130805761307f613aec565b5b015f0160046101000a81548160ff021916908360ff1602179055505b5b5b5b5b5b5b5b6004600160149054906101000a900460ff1660ff16601481106130c9576130c8613aec565b5b015f0160049054906101000a900460ff1690505b9392505050565b6130ec613266565b6130f5816132f5565b50565b60035481565b602f5481565b602c5f8381526020019081526020015f205f0160019054906101000a900460ff16613164576040517f08c379a000000000000000000000000000000000000000000000000000000000815260040161315b90613c5c565b60405180910390fd5b6001602c5f8481526020019081526020015f205f015f6101000a81548160ff02191690831515021790555080602c5f8481526020019081526020015f2060010190805190602001906131b792919061341f565b505f6002825f815181106131ce576131cd613aec565b5b60200260200101516131e09190613b46565b03613212576001602c5f8481526020019081526020015f206002015f6101000a81548160ff0219169083151502179055505b806002908051906020019061322892919061341f565b507ffe2e2d779dba245964d4e3ef9b994be63856fd568bf7d3ca9e224755cb1bd54d828260405161325a929190613f3e565b60405180910390a15050565b5f8054906101000a900473ffffffffffffffffffffffffffffffffffffffff1673ffffffffffffffffffffffffffffffffffffffff163373ffffffffffffffffffffffffffffffffffffffff16146132f3576040517f08c379a00000000000000000000000000000000000000000000000000000000081526004016132ea90613fb6565b60405180910390fd5b565b3373ffffffffffffffffffffffffffffffffffffffff168173ffffffffffffffffffffffffffffffffffffffff1603613363576040517f08c379a000000000000000000000000000000000000000000000000000000000815260040161335a9061401e565b60405180910390fd5b8060015f6101000a81548173ffffffffffffffffffffffffffffffffffffffff021916908373ffffffffffffffffffffffffffffffffffffffff1602179055508073ffffffffffffffffffffffffffffffffffffffff165f8054906101000a900473ffffffffffffffffffffffffffffffffffffffff1673ffffffffffffffffffffffffffffffffffffffff167fed8889f560326eb138920d842192f0eb3dd22b4f139c87a2c57538e05bae127860405160405180910390a350565b828054828255905f5260205f20908101928215613459579160200282015b8281111561345857825182559160200191906001019061343d565b5b509050613466919061346a565b5090565b5b80821115613481575f815f90555060010161346b565b5090565b5f604051905090565b5f80fd5b5f80fd5b5f819050919050565b6134a881613496565b81146134b2575f80fd5b50565b5f813590506134c38161349f565b92915050565b5f80fd5b5f601f19601f8301169050919050565b7f4e487b71000000000000000000000000000000000000000000000000000000005f52604160045260245ffd5b613513826134cd565b810181811067ffffffffffffffff82111715613532576135316134dd565b5b80604052505050565b5f613544613485565b9050613550828261350a565b919050565b5f67ffffffffffffffff82111561356f5761356e6134dd565b5b602082029050602081019050919050565b5f80fd5b5f61359661359184613555565b61353b565b905080838252602082019050602084028301858111156135b9576135b8613580565b5b835b818110156135e257806135ce88826134b5565b8452602084019350506020810190506135bb565b5050509392505050565b5f82601f830112613600576135ff6134c9565b5b8135613610848260208601613584565b91505092915050565b5f806040838503121561362f5761362e61348e565b5b5f61363c858286016134b5565b925050602083013567ffffffffffffffff81111561365d5761365c613492565b5b613669858286016135ec565b9150509250929050565b5f60ff82169050919050565b61368881613673565b8114613692575f80fd5b50565b5f813590506136a38161367f565b92915050565b5f805f606084860312156136c0576136bf61348e565b5b5f6136cd86828701613695565b93505060206136de86828701613695565b92505060406136ef86828701613695565b9150509250925092565b61370281613673565b82525050565b5f60208201905061371b5f8301846136f9565b92915050565b5f602082840312156137365761373561348e565b5b5f613743848285016134b5565b91505092915050565b61375581613496565b82525050565b5f60208201905061376e5f83018461374c565b92915050565b5f73ffffffffffffffffffffffffffffffffffffffff82169050919050565b5f61379d82613774565b9050919050565b6137ad81613793565b82525050565b5f6020820190506137c65f8301846137a4565b92915050565b5f8115159050919050565b6137e0816137cc565b82525050565b5f6060820190506137f95f8301866137d7565b61380660208301856137d7565b61381360408301846137d7565b949350505050565b5f81519050919050565b5f82825260208201905092915050565b5f819050602082019050919050565b61384d81613496565b82525050565b5f61385e8383613844565b60208301905092915050565b5f602082019050919050565b5f6138808261381b565b61388a8185613825565b935061389583613835565b805f5b838110156138c55781516138ac8882613853565b97506138b78361386a565b925050600181019050613898565b5085935050505092915050565b5f6060820190506138e55f8301866137d7565b81810360208301526138f78185613876565b905061390660408301846137d7565b949350505050565b61391781613793565b8114613921575f80fd5b50565b5f813590506139328161390e565b92915050565b5f6020828403121561394d5761394c61348e565b5b5f61395a84828501613924565b91505092915050565b7f4e487b71000000000000000000000000000000000000000000000000000000005f52601160045260245ffd5b5f61399a82613673565b915060ff82036139ad576139ac613963565b5b600182019050919050565b5f6040820190506139cb5f8301856137a4565b6139d860208301846137a4565b9392505050565b7f4e487b71000000000000000000000000000000000000000000000000000000005f52602160045260245ffd5b5f82825260208201905092915050565b7f526f756e6420697320636f6d706c6574656400000000000000000000000000005f82015250565b5f613a50601283613a0c565b9150613a5b82613a1c565b602082019050919050565b5f6020820190508181035f830152613a7d81613a44565b9050919050565b7f496e76616c69642063686f6963652066726f6d20706c617965720000000000005f82015250565b5f613ab8601a83613a0c565b9150613ac382613a84565b602082019050919050565b5f6020820190508181035f830152613ae581613aac565b9050919050565b7f4e487b71000000000000000000000000000000000000000000000000000000005f52603260045260245ffd5b7f4e487b71000000000000000000000000000000000000000000000000000000005f52601260045260245ffd5b5f613b5082613496565b9150613b5b83613496565b925082613b6b57613b6a613b19565b5b828206905092915050565b5f613b8082613673565b9150613b8b83613673565b9250828201905060ff811115613ba457613ba3613963565b5b92915050565b7f4d7573742062652070726f706f736564206f776e6572000000000000000000005f82015250565b5f613bde601683613a0c565b9150613be982613baa565b602082019050919050565b5f6020820190508181035f830152613c0b81613bd2565b9050919050565b7f72657175657374206e6f7420666f756e640000000000000000000000000000005f82015250565b5f613c46601183613a0c565b9150613c5182613c12565b602082019050919050565b5f6020820190508181035f830152613c7381613c3a565b9050919050565b5f819050919050565b613c8c81613c7a565b82525050565b5f67ffffffffffffffff82169050919050565b613cae81613c92565b82525050565b5f61ffff82169050919050565b613cca81613cb4565b82525050565b5f63ffffffff82169050919050565b613ce881613cd0565b82525050565b5f60a082019050613d015f830188613c83565b613d0e6020830187613ca5565b613d1b6040830186613cc1565b613d286060830185613cdf565b613d356080830184613cdf565b9695505050505050565b5f81519050613d4d8161349f565b92915050565b5f60208284031215613d6857613d6761348e565b5b5f613d7584828501613d3f565b91505092915050565b5f604082019050613d915f83018561374c565b613d9e6020830184613cdf565b9392505050565b7f4d617463682063616e207374696c6c20676f206f6e00000000000000000000005f82015250565b5f613dd9601583613a0c565b9150613de482613da5565b602082019050919050565b5f6020820190508181035f830152613e0681613dcd565b9050919050565b5f613e1782613673565b9150613e2283613673565b925082613e3257613e31613b19565b5b828206905092915050565b5f613e4782613673565b9150613e5283613673565b925082613e6257613e61613b19565b5b828204905092915050565b5f613e7782613673565b9150613e8283613673565b9250828203905060ff811115613e9b57613e9a613963565b5b92915050565b7f53686f6f7420636f756e74206973206e6f7420696e2073796e630000000000005f82015250565b5f613ed5601a83613a0c565b9150613ee082613ea1565b602082019050919050565b5f6020820190508181035f830152613f0281613ec9565b9050919050565b5f606082019050613f1c5f8301866136f9565b613f2960208301856136f9565b613f3660408301846136f9565b949350505050565b5f604082019050613f515f83018561374c565b8181036020830152613f638184613876565b90509392505050565b7f4f6e6c792063616c6c61626c65206279206f776e6572000000000000000000005f82015250565b5f613fa0601683613a0c565b9150613fab82613f6c565b602082019050919050565b5f6020820190508181035f830152613fcd81613f94565b9050919050565b7f43616e6e6f74207472616e7366657220746f2073656c660000000000000000005f82015250565b5f614008601783613a0c565b915061401382613fd4565b602082019050919050565b5f6020820190508181035f83015261403581613ffc565b905091905056fea26469706673582212206d60ce4a92a8cbe84769a67dd7be9a03de92178b906a57a072b3ea2ff841d01764736f6c63430008140033",
  "immutableReferences": {
    "192": [
      {
        "length": 32,
        "start": 1071
      },
      {
        "length": 32,
        "start": 1155
      }
    ]
  },
  "source": "// SPDX-License-Identifier: MIT\r\n// An example of a consumer contract that relies on a subscription for funding.\r\npragma solidity ^0.8.7;\r\n\r\nimport \"@chainlink/contracts/src/v0.8/interfaces/VRFCoordinatorV2Interface.sol\";\r\nimport \"@chainlink/contracts/src/v0.8/VRFConsumerBaseV2.sol\";\r\nimport \"@chainlink/contracts/src/v0.8/ConfirmedOwner.sol\";\r\n\r\n/**\r\n * Request testnet LINK and ETH here: https://faucets.chain.link/\r\n * Find information on LINK Token Contracts and get the latest ETH and LINK faucets here: https://docs.chain.link/docs/link-token-contracts/\r\n */\r\n\r\n/**\r\n * THIS IS AN EXAMPLE CONTRACT THAT USES HARDCODED VALUES FOR CLARITY.\r\n * THIS IS AN EXAMPLE CONTRACT THAT USES UN-AUDITED CODE.\r\n * DO NOT USE THIS CODE IN PRODUCTION.\r\n */\r\n\r\ncontract Web3Football is VRFConsumerBaseV2, ConfirmedOwner {\r\n    uint8 public shoot_counter = 0;\r\n    uint8 public round_counter;\r\n    round_winner status = round_winner.MATCH_GOING_ON;\r\n    uint256[] public randomNumbers;\r\n\r\n    uint256 public test;\r\n\r\n    function raghav(uint256 _test) public {\r\n        test = _test;\r\n    }\r\n\r\n    function initialize_array() public {\r\n        randomNumbers[0] = 4;\r\n        randomNumbers[1] = 6;\r\n        randomNumbers[2] = 6;\r\n        randomNumbers[3] = 4;\r\n        randomNumbers[4] = 1;\r\n        randomNumbers[5] = 4;\r\n        randomNumbers[6] = 3;\r\n        randomNumbers[7] = 2;\r\n        randomNumbers[8] = 7;\r\n        randomNumbers[9] = 18;\r\n        randomNumbers[10] = 45;\r\n        randomNumbers[11] = 10;\r\n        randomNumbers[12] = 27;\r\n    }\r\n\r\n    //stores the random number in the array\r\n\r\n    //structure that stores the details\r\n    struct game_starting_details {\r\n        uint8 player1_level;\r\n        uint8 player2_level;\r\n        string wonToss;\r\n    }\r\n\r\n    enum shoot_winner {\r\n        GOALKEEPER,\r\n        STRIKER\r\n    }\r\n\r\n    enum round_winner {\r\n        TEAM1,\r\n        TEAM2,\r\n        MATCH_GOING_ON\r\n    }\r\n\r\n    enum team_shoot_winner {\r\n        team1,\r\n        team2\r\n    }\r\n\r\n    //structure that has shoot details\r\n    struct shoot_detail {\r\n        uint8 shoot_no;\r\n        uint8 team1_lvl; //player is team 1\r\n        uint8 team2_lvl; //computer is team 2\r\n        bool select_interface; //checks if the interface has been selected or not\r\n        uint8 selected_interface; // stores the interface a =1, b = 2, c =3\r\n        bool shoot_completed; //checks if the shoot is completed or not\r\n        shoot_winner Winner_playerType;\r\n        team_shoot_winner ShootWinner_Team;\r\n    }\r\n\r\n    //structure that has round details\r\n    struct round_detail {\r\n        uint8 no_of_shoots;\r\n        uint8 team1_score;\r\n        uint8 team2_score;\r\n        bool round_complete;\r\n        round_winner Round_Winner;\r\n    }\r\n\r\n    shoot_detail[20] Shoot_Detail;\r\n    round_detail[20] Round_Detail;\r\n\r\n    //function that selects which interface to play on\r\n    //return?\r\n    event testi(uint8 shoot_counter, uint8 Team1_Lvl, uint8 Team2_Lvl); //team 1 lvl is goalkeeper level and team 2 levelis striker level\r\n\r\n    function interface_Selection(\r\n        uint8 Shoot_No,\r\n        uint8 Team1_Lvl,\r\n        uint8 Team2_Lvl\r\n    ) external returns (uint8) {\r\n        require(shoot_counter == Shoot_No, \"Shoot count is not in sync\");\r\n        Shoot_Detail[shoot_counter].shoot_no = Shoot_No;\r\n        Shoot_Detail[shoot_counter].team1_lvl = Team1_Lvl;\r\n        Shoot_Detail[shoot_counter].team2_lvl = Team2_Lvl;\r\n\r\n        emit testi(Shoot_No, Team1_Lvl, Team2_Lvl);\r\n\r\n        // // shoot_detail.shoot_no = 2;\r\n\r\n        // //There will be 9 differnt cases if there are three different levels of player cards\r\n\r\n        if (Team1_Lvl == 1 && Team2_Lvl == 1) {\r\n            Shoot_Detail[shoot_counter].select_interface = true;\r\n            Shoot_Detail[shoot_counter].selected_interface = 2;\r\n        } else if (Team1_Lvl == 1 && Team2_Lvl == 2) {\r\n            Shoot_Detail[shoot_counter].select_interface = true;\r\n            Shoot_Detail[shoot_counter].selected_interface = 1;\r\n        } else if (Team1_Lvl == 1 && Team2_Lvl == 3) {\r\n            Shoot_Detail[shoot_counter].select_interface = true;\r\n            Shoot_Detail[shoot_counter].selected_interface = 1;\r\n        } else if (Team1_Lvl == 2 && Team2_Lvl == 1) {\r\n            Shoot_Detail[shoot_counter].select_interface = true;\r\n            Shoot_Detail[shoot_counter].selected_interface = 3;\r\n        } else if (Team1_Lvl == 2 && Team2_Lvl == 2) {\r\n            Shoot_Detail[shoot_counter].select_interface = true;\r\n            Shoot_Detail[shoot_counter].selected_interface = 2;\r\n        } else if (Team1_Lvl == 2 && Team2_Lvl == 3) {\r\n            Shoot_Detail[shoot_counter].select_interface = true;\r\n            Shoot_Detail[shoot_counter].selected_interface = 1;\r\n        } else if (Team1_Lvl == 3 && Team2_Lvl == 1) {\r\n            Shoot_Detail[shoot_counter].select_interface = true;\r\n            Shoot_Detail[shoot_counter].selected_interface = 3;\r\n            return 3;\r\n        } else if (Team1_Lvl == 3 && Team2_Lvl == 2) {\r\n            Shoot_Detail[shoot_counter].select_interface = true;\r\n            Shoot_Detail[shoot_counter].selected_interface = 3;\r\n        } else if (Team1_Lvl == 3 && Team2_Lvl == 3) {\r\n            Shoot_Detail[shoot_counter].select_interface = true;\r\n            Shoot_Detail[shoot_counter].selected_interface = 2;\r\n        }\r\n\r\n        return Shoot_Detail[shoot_counter].selected_interface;\r\n    }\r\n\r\n    //this function will process the random number and check the result\r\n    function penalty_shoot(\r\n        uint8 penalty_interface,\r\n        uint8 user_choice,\r\n        uint8 player_type // provide 1 for goalkeeper and 2 for striker\r\n    ) external {\r\n        require(status == round_winner.MATCH_GOING_ON, \"Round is completed\");\r\n\r\n        //logic for interface 1\r\n        if (penalty_interface == 1 && player_type == 1) {\r\n            require(\r\n                user_choice >= 0 && user_choice <= 1,\r\n                \"Invalid choice from player\"\r\n            );\r\n            uint256 computer_choice = randomNumbers[shoot_counter] % 2;\r\n\r\n            if (user_choice == computer_choice) {\r\n                Shoot_Detail[shoot_counter].shoot_completed = true;\r\n                Shoot_Detail[shoot_counter].Winner_playerType = shoot_winner\r\n                    .GOALKEEPER;\r\n                Shoot_Detail[shoot_counter].ShootWinner_Team = team_shoot_winner\r\n                    .team1;\r\n\r\n                Round_Detail[round_counter].no_of_shoots = shoot_counter;\r\n                // Round_Detail[round_counter].team1_score += 1;\r\n            } else {\r\n                Shoot_Detail[shoot_counter].shoot_completed = true;\r\n                Shoot_Detail[shoot_counter].Winner_playerType = shoot_winner\r\n                    .STRIKER;\r\n                Shoot_Detail[shoot_counter].ShootWinner_Team = team_shoot_winner\r\n                    .team2;\r\n\r\n                Round_Detail[round_counter].no_of_shoots = shoot_counter;\r\n                Round_Detail[round_counter].team2_score += 1;\r\n            }\r\n        }\r\n\r\n        if (penalty_interface == 1 && player_type == 2) {\r\n            require(\r\n                user_choice >= 0 && user_choice <= 1,\r\n                \"Invalid choice from player\"\r\n            );\r\n            uint256 computer_choice = randomNumbers[shoot_counter] % 2;\r\n            if (user_choice == computer_choice) {\r\n                Shoot_Detail[shoot_counter].shoot_completed = true;\r\n                Shoot_Detail[shoot_counter].Winner_playerType = shoot_winner\r\n                    .GOALKEEPER;\r\n                Shoot_Detail[shoot_counter].ShootWinner_Team = team_shoot_winner\r\n                    .team2;\r\n\r\n                Round_Detail[round_counter].no_of_shoots = shoot_counter;\r\n                // Round_Detail[round_counter].team2_score += 1;\r\n            } else {\r\n                Shoot_Detail[shoot_counter].shoot_completed = true;\r\n                Shoot_Detail[shoot_counter].Winner_playerType = shoot_winner\r\n                    .STRIKER;\r\n                Shoot_Detail[shoot_counter].ShootWinner_Team = team_shoot_winner\r\n                    .team1;\r\n\r\n                Round_Detail[round_counter].no_of_shoots = shoot_counter;\r\n                Round_Detail[round_counter].team1_score += 1;\r\n            }\r\n        }\r\n\r\n        //logic for interface 2\r\n        //add 1 to user choice as indexing starts from 0\r\n        if (penalty_interface == 2 && player_type == 1) {\r\n            require(\r\n                user_choice >= 0 && user_choice <= 3,\r\n                \"Invalid choice from player\"\r\n            );\r\n            uint256 computer_choice = randomNumbers[shoot_counter] % 4;\r\n            if (user_choice == computer_choice) {\r\n                Shoot_Detail[shoot_counter].shoot_completed = true;\r\n                Shoot_Detail[shoot_counter].Winner_playerType = shoot_winner\r\n                    .GOALKEEPER;\r\n                Shoot_Detail[shoot_counter].ShootWinner_Team = team_shoot_winner\r\n                    .team1;\r\n\r\n                Round_Detail[round_counter].no_of_shoots = shoot_counter;\r\n                // Round_Detail[round_counter].team1_score += 1;\r\n            } else {\r\n                Shoot_Detail[shoot_counter].shoot_completed = true;\r\n                Shoot_Detail[shoot_counter].Winner_playerType = shoot_winner\r\n                    .STRIKER;\r\n                Shoot_Detail[shoot_counter].ShootWinner_Team = team_shoot_winner\r\n                    .team2;\r\n\r\n                Round_Detail[round_counter].no_of_shoots = shoot_counter;\r\n                Round_Detail[round_counter].team2_score += 1;\r\n            }\r\n        }\r\n\r\n        if (penalty_interface == 2 && player_type == 2) {\r\n            require(\r\n                user_choice >= 0 && user_choice <= 3,\r\n                \"Invalid choice from player\"\r\n            );\r\n            uint256 computer_choice = randomNumbers[shoot_counter] % 4;\r\n            if (user_choice == computer_choice) {\r\n                Shoot_Detail[shoot_counter].shoot_completed = true;\r\n                Shoot_Detail[shoot_counter].Winner_playerType = shoot_winner\r\n                    .GOALKEEPER;\r\n                Shoot_Detail[shoot_counter].ShootWinner_Team = team_shoot_winner\r\n                    .team2;\r\n\r\n                Round_Detail[round_counter].no_of_shoots = shoot_counter;\r\n                // Round_Detail[round_counter].team2_score += 1;\r\n            } else {\r\n                Shoot_Detail[shoot_counter].shoot_completed = true;\r\n                Shoot_Detail[shoot_counter].Winner_playerType = shoot_winner\r\n                    .STRIKER;\r\n                Shoot_Detail[shoot_counter].ShootWinner_Team = team_shoot_winner\r\n                    .team1;\r\n\r\n                Round_Detail[round_counter].no_of_shoots = shoot_counter;\r\n                Round_Detail[round_counter].team1_score += 1;\r\n            }\r\n        }\r\n\r\n        //logic for interface 3\r\n\r\n        if (penalty_interface == 3 && player_type == 1) {\r\n            require(\r\n                user_choice >= 0 && user_choice <= 7,\r\n                \"Invalid choice from player\"\r\n            );\r\n            uint256 computer_choice = randomNumbers[shoot_counter] % 8;\r\n            if (user_choice == computer_choice) {\r\n                Shoot_Detail[shoot_counter].shoot_completed = true;\r\n                Shoot_Detail[shoot_counter].Winner_playerType = shoot_winner\r\n                    .GOALKEEPER;\r\n                Shoot_Detail[shoot_counter].ShootWinner_Team = team_shoot_winner\r\n                    .team1;\r\n\r\n                Round_Detail[round_counter].no_of_shoots = shoot_counter;\r\n                // Round_Detail[round_counter].team1_score += 1;\r\n            } else {\r\n                Shoot_Detail[shoot_counter].shoot_completed = true;\r\n                Shoot_Detail[shoot_counter].Winner_playerType = shoot_winner\r\n                    .STRIKER;\r\n                Shoot_Detail[shoot_counter].ShootWinner_Team = team_shoot_winner\r\n                    .team2;\r\n\r\n                Round_Detail[round_counter].no_of_shoots = shoot_counter;\r\n                Round_Detail[round_counter].team2_score += 1;\r\n            }\r\n        }\r\n\r\n        if (penalty_interface == 3 && player_type == 2) {\r\n            require(\r\n                user_choice >= 0 && user_choice <= 7,\r\n                \"Invalid choice from player\"\r\n            );\r\n            uint256 computer_choice = randomNumbers[shoot_counter] % 8;\r\n            if (user_choice == computer_choice) {\r\n                Shoot_Detail[shoot_counter].shoot_completed = true;\r\n                Shoot_Detail[shoot_counter].Winner_playerType = shoot_winner\r\n                    .GOALKEEPER;\r\n                Shoot_Detail[shoot_counter].ShootWinner_Team = team_shoot_winner\r\n                    .team2;\r\n\r\n                Round_Detail[round_counter].no_of_shoots = shoot_counter;\r\n                // Round_Detail[round_counter].team2_score += 1;\r\n            } else {\r\n                Shoot_Detail[shoot_counter].shoot_completed = true;\r\n                Shoot_Detail[shoot_counter].Winner_playerType = shoot_winner\r\n                    .STRIKER;\r\n                Shoot_Detail[shoot_counter].ShootWinner_Team = team_shoot_winner\r\n                    .team1;\r\n\r\n                Round_Detail[round_counter].no_of_shoots = shoot_counter;\r\n                Round_Detail[round_counter].team1_score += 1;\r\n            }\r\n        }\r\n    }\r\n\r\n    //this function will check the round result by comparing score\r\n    function round_result_check() external returns (uint8) {\r\n        require(shoot_counter >= 5, \"Match can still go on\"); // can comment this line later\r\n        if (shoot_counter < 10) {\r\n            uint8 curr_team1 = Round_Detail[round_counter].team1_score;\r\n            uint8 curr_team2 = Round_Detail[round_counter].team2_score;\r\n            uint8 potential_team1;\r\n            uint8 potential_team2;\r\n\r\n            if (shoot_counter % 2 == 1) {\r\n                potential_team1 = 5 - ((shoot_counter + 1) / 2) + curr_team1;\r\n                potential_team2 = 5 - ((shoot_counter + 1) / 2) + curr_team2;\r\n            } else {\r\n                potential_team1 = 5 - ((shoot_counter) / 2) - 1 + curr_team1;\r\n                potential_team2 = 5 - ((shoot_counter) / 2) + curr_team2;\r\n            }\r\n\r\n            if (curr_team1 > potential_team2) {\r\n                Round_Detail[round_counter].round_complete = true;\r\n                Round_Detail[round_counter].Round_Winner = round_winner.TEAM1;\r\n                status = round_winner.TEAM1;\r\n                return 1; //returning 1 means that team 1 has won(player)\r\n            } else if (curr_team2 > potential_team1) {\r\n                Round_Detail[round_counter].round_complete = true;\r\n                Round_Detail[round_counter].Round_Winner = round_winner.TEAM2;\r\n                status = round_winner.TEAM2;\r\n                return 2; //returning 2 means that team 2 has won(computer)\r\n            } else {\r\n                return 0; //match is still going on\r\n            }\r\n        } else {\r\n            uint8 curr_team1 = Round_Detail[round_counter].team1_score;\r\n            uint8 curr_team2 = Round_Detail[round_counter].team2_score;\r\n            if ((shoot_counter + 1) % 2 == 0) {\r\n                if (curr_team1 > curr_team2) {\r\n                    Round_Detail[round_counter].round_complete = true;\r\n                    Round_Detail[round_counter].Round_Winner = round_winner\r\n                        .TEAM1;\r\n                    status = round_winner.TEAM1;\r\n                    return 1;\r\n                } else if (curr_team1 < curr_team2) {\r\n                    Round_Detail[round_counter].round_complete = true;\r\n                    Round_Detail[round_counter].Round_Winner = round_winner\r\n                        .TEAM2;\r\n                    status = round_winner.TEAM2;\r\n                    return 2;\r\n                } else {\r\n                    return 0;\r\n                }\r\n            } else {\r\n                return 0;\r\n            }\r\n        }\r\n    }\r\n\r\n    //this function updates the shoot_counter variable. It is done after every penaly shot taken.\r\n    function update_shoot_counter() public {\r\n        shoot_counter++;\r\n    }\r\n\r\n    //function that updates the round counter\r\n    function update_round_counter() public {\r\n        round_counter++;\r\n    }\r\n\r\n    function reset() public {\r\n        shoot_counter = 0;\r\n    }\r\n\r\n    function score_team1() external view returns (uint8) {\r\n        return Round_Detail[round_counter].team1_score;\r\n    }\r\n\r\n    function score_team2() external view returns (uint8) {\r\n        return Round_Detail[round_counter].team2_score;\r\n    }\r\n\r\n    //////////////////////////////////////////////////////////\r\n\r\n    event RequestSent(uint256 requestId, uint32 numWords);\r\n    event RequestFulfilled(uint256 requestId, uint256[] randomWords);\r\n\r\n    struct RequestStatus {\r\n        bool fulfilled; // whether the request has been successfully fulfilled\r\n        bool exists; // whether a requestId exists\r\n        uint256[] randomWords;\r\n        bool didWin;\r\n    }\r\n    mapping(uint256 => RequestStatus)\r\n        public s_requests; /* requestId --> requestStatus */\r\n    VRFCoordinatorV2Interface COORDINATOR;\r\n\r\n    // Your subscription ID.\r\n    uint64 s_subscriptionId;\r\n\r\n    // past requests Id.\r\n    uint256[] public requestIds;\r\n    uint256 public lastRequestId;\r\n\r\n    // The gas lane to use, which specifies the maximum gas price to bump to.\r\n    // For a list of available gas lanes on each network,\r\n    // see https://docs.chain.link/docs/vrf/v2/subscription/supported-networks/#configurations\r\n    bytes32 keyHash =\r\n        0x474e34a077df58807dbe9c96d3c009b23b3c6d0cce433e59bbf5b34f823bc56c;\r\n\r\n    // Depends on the number of requested values that you want sent to the\r\n    // fulfillRandomWords() function. Storing each word costs about 20,000 gas,\r\n    // so 100,000 is a safe default for this example contract. Test and adjust\r\n    // this limit based on the network that you select, the size of the request,\r\n    // and the processing of the callback request in the fulfillRandomWords()\r\n    // function.\r\n    uint32 callbackGasLimit = 1000000;\r\n\r\n    // The default is 3, but you can set this higher.\r\n    uint16 requestConfirmations = 3;\r\n\r\n    // For this example, retrieve 2 random values in one request.\r\n    // Cannot exceed VRFCoordinatorV2.MAX_NUM_WORDS.\r\n    uint32 numWords = 20;\r\n\r\n    /**\r\n     * HARDCODED FOR SEPOLIA\r\n     * COORDINATOR: 0x8103B0A8A00be2DDC778e6e7eaa21791Cd364625\r\n     */\r\n    constructor(\r\n        uint64 subscriptionId\r\n    )\r\n        VRFConsumerBaseV2(0x8103B0A8A00be2DDC778e6e7eaa21791Cd364625)\r\n        ConfirmedOwner(msg.sender)\r\n    {\r\n        COORDINATOR = VRFCoordinatorV2Interface(\r\n            0x8103B0A8A00be2DDC778e6e7eaa21791Cd364625\r\n        );\r\n        s_subscriptionId = subscriptionId;\r\n    }\r\n\r\n    // Assumes the subscription is funded sufficiently.\r\n    function requestRandomWords() external returns (uint256 requestId) {\r\n        // Will revert if subscription is not set and funded.\r\n        requestId = COORDINATOR.requestRandomWords(\r\n            keyHash,\r\n            s_subscriptionId,\r\n            requestConfirmations,\r\n            callbackGasLimit,\r\n            numWords\r\n        );\r\n        s_requests[requestId] = RequestStatus({\r\n            randomWords: new uint256[](0),\r\n            exists: true,\r\n            fulfilled: false,\r\n            didWin: true\r\n        });\r\n        requestIds.push(requestId);\r\n        lastRequestId = requestId;\r\n        emit RequestSent(requestId, numWords);\r\n        return requestId;\r\n    }\r\n\r\n    function fulfillRandomWords(\r\n        uint256 _requestId,\r\n        uint256[] memory _randomWords\r\n    ) internal override {\r\n        require(s_requests[_requestId].exists, \"request not found\");\r\n        s_requests[_requestId].fulfilled = true;\r\n        s_requests[_requestId].randomWords = _randomWords;\r\n        if (_randomWords[0] % 2 == 0) {\r\n            s_requests[_requestId].didWin = true;\r\n        }\r\n        randomNumbers = _randomWords;\r\n        emit RequestFulfilled(_requestId, _randomWords);\r\n    }\r\n\r\n    function getRequestStatus(\r\n        uint256 _requestId\r\n    )\r\n        external\r\n        view\r\n        returns (bool fulfilled, uint256[] memory randomWords, bool didWin)\r\n    {\r\n        require(s_requests[_requestId].exists, \"request not found\");\r\n        RequestStatus memory request = s_requests[_requestId];\r\n        return (request.fulfilled, request.randomWords, request.didWin);\r\n    }\r\n\r\n    //mycode\r\n}\r\n",
  "sourcePath": "C:\\Users\\Akash Sahu\\Desktop\\chainlink\\Web3Football\\contracts\\Web3Football.sol",
  "compiler": {
    "name": "solc",
    "version": "0.8.20+commit.a1b79de6.Emscripten.clang"
  },
  "schemaVersion": "3.4.14",
  "updatedAt": "2023-06-07T13:40:21.242Z",
  "networkType": "ethereum",
  "devdoc": {
    "kind": "dev",
    "methods": {},
    "version": 1
  },
  "userdoc": {
    "kind": "user",
    "methods": {
      "acceptOwnership()": {
        "notice": "Allows an ownership transfer to be completed by the recipient."
      },
      "constructor": {
        "notice": "HARDCODED FOR SEPOLIA COORDINATOR: 0x8103B0A8A00be2DDC778e6e7eaa21791Cd364625"
      },
      "owner()": {
        "notice": "Get the current owner"
      },
      "transferOwnership(address)": {
        "notice": "Allows an owner to begin transferring ownership to a new address, pending."
      }
    },
    "notice": "THIS IS AN EXAMPLE CONTRACT THAT USES HARDCODED VALUES FOR CLARITY. THIS IS AN EXAMPLE CONTRACT THAT USES UN-AUDITED CODE. DO NOT USE THIS CODE IN PRODUCTION.",
    "version": 1
  }
}