{
  "contractName": "Web3Football",
  "abi": [
    {
      "inputs": [
        {
          "internalType": "uint64",
          "name": "subscriptionId",
          "type": "uint64"
        }
      ],
      "stateMutability": "nonpayable",
      "type": "constructor"
    },
    {
      "inputs": [
        {
          "internalType": "address",
          "name": "have",
          "type": "address"
        },
        {
          "internalType": "address",
          "name": "want",
          "type": "address"
        }
      ],
      "name": "OnlyCoordinatorCanFulfill",
      "type": "error"
    },
    {
      "anonymous": false,
      "inputs": [
        {
          "indexed": true,
          "internalType": "address",
          "name": "from",
          "type": "address"
        },
        {
          "indexed": true,
          "internalType": "address",
          "name": "to",
          "type": "address"
        }
      ],
      "name": "OwnershipTransferRequested",
      "type": "event"
    },
    {
      "anonymous": false,
      "inputs": [
        {
          "indexed": true,
          "internalType": "address",
          "name": "from",
          "type": "address"
        },
        {
          "indexed": true,
          "internalType": "address",
          "name": "to",
          "type": "address"
        }
      ],
      "name": "OwnershipTransferred",
      "type": "event"
    },
    {
      "anonymous": false,
      "inputs": [
        {
          "indexed": false,
          "internalType": "uint256",
          "name": "requestId",
          "type": "uint256"
        },
        {
          "indexed": false,
          "internalType": "uint256[]",
          "name": "randomWords",
          "type": "uint256[]"
        }
      ],
      "name": "RequestFulfilled",
      "type": "event"
    },
    {
      "anonymous": false,
      "inputs": [
        {
          "indexed": false,
          "internalType": "uint256",
          "name": "requestId",
          "type": "uint256"
        },
        {
          "indexed": false,
          "internalType": "uint32",
          "name": "numWords",
          "type": "uint32"
        }
      ],
      "name": "RequestSent",
      "type": "event"
    },
    {
      "anonymous": false,
      "inputs": [
        {
          "indexed": false,
          "internalType": "uint8",
          "name": "shoot_counter",
          "type": "uint8"
        },
        {
          "indexed": false,
          "internalType": "uint8",
          "name": "Team1_Lvl",
          "type": "uint8"
        },
        {
          "indexed": false,
          "internalType": "uint8",
          "name": "Team2_Lvl",
          "type": "uint8"
        }
      ],
      "name": "testi",
      "type": "event"
    },
    {
      "inputs": [
        {
          "internalType": "uint256",
          "name": "",
          "type": "uint256"
        }
      ],
      "name": "Shoot_Detail",
      "outputs": [
        {
          "internalType": "uint8",
          "name": "shoot_no",
          "type": "uint8"
        },
        {
          "internalType": "uint8",
          "name": "team1_lvl",
          "type": "uint8"
        },
        {
          "internalType": "uint8",
          "name": "team2_lvl",
          "type": "uint8"
        },
        {
          "internalType": "bool",
          "name": "select_interface",
          "type": "bool"
        },
        {
          "internalType": "uint8",
          "name": "selected_interface",
          "type": "uint8"
        },
        {
          "internalType": "bool",
          "name": "shoot_completed",
          "type": "bool"
        },
        {
          "internalType": "enum Web3Football.shoot_winner",
          "name": "Winner_playerType",
          "type": "uint8"
        },
        {
          "internalType": "enum Web3Football.team_shoot_winner",
          "name": "ShootWinner_Team",
          "type": "uint8"
        }
      ],
      "stateMutability": "view",
      "type": "function"
    },
    {
      "inputs": [],
      "name": "acceptOwnership",
      "outputs": [],
      "stateMutability": "nonpayable",
      "type": "function"
    },
    {
      "inputs": [],
      "name": "lastRequestId",
      "outputs": [
        {
          "internalType": "uint256",
          "name": "",
          "type": "uint256"
        }
      ],
      "stateMutability": "view",
      "type": "function"
    },
    {
      "inputs": [],
      "name": "owner",
      "outputs": [
        {
          "internalType": "address",
          "name": "",
          "type": "address"
        }
      ],
      "stateMutability": "view",
      "type": "function"
    },
    {
      "inputs": [
        {
          "internalType": "address",
          "name": "",
          "type": "address"
        }
      ],
      "name": "playerBalance",
      "outputs": [
        {
          "internalType": "uint256",
          "name": "",
          "type": "uint256"
        }
      ],
      "stateMutability": "view",
      "type": "function"
    },
    {
      "inputs": [],
      "name": "playerState",
      "outputs": [
        {
          "internalType": "uint8",
          "name": "",
          "type": "uint8"
        }
      ],
      "stateMutability": "view",
      "type": "function"
    },
    {
      "inputs": [
        {
          "internalType": "uint256",
          "name": "",
          "type": "uint256"
        }
      ],
      "name": "randomNumbers",
      "outputs": [
        {
          "internalType": "uint256",
          "name": "",
          "type": "uint256"
        }
      ],
      "stateMutability": "view",
      "type": "function"
    },
    {
      "inputs": [
        {
          "internalType": "uint256",
          "name": "requestId",
          "type": "uint256"
        },
        {
          "internalType": "uint256[]",
          "name": "randomWords",
          "type": "uint256[]"
        }
      ],
      "name": "rawFulfillRandomWords",
      "outputs": [],
      "stateMutability": "nonpayable",
      "type": "function"
    },
    {
      "inputs": [
        {
          "internalType": "uint256",
          "name": "",
          "type": "uint256"
        }
      ],
      "name": "requestIds",
      "outputs": [
        {
          "internalType": "uint256",
          "name": "",
          "type": "uint256"
        }
      ],
      "stateMutability": "view",
      "type": "function"
    },
    {
      "inputs": [],
      "name": "roundNumber",
      "outputs": [
        {
          "internalType": "uint8",
          "name": "",
          "type": "uint8"
        }
      ],
      "stateMutability": "view",
      "type": "function"
    },
    {
      "inputs": [],
      "name": "round_counter",
      "outputs": [
        {
          "internalType": "uint8",
          "name": "",
          "type": "uint8"
        }
      ],
      "stateMutability": "view",
      "type": "function"
    },
    {
      "inputs": [
        {
          "internalType": "uint256",
          "name": "",
          "type": "uint256"
        }
      ],
      "name": "s_requests",
      "outputs": [
        {
          "internalType": "bool",
          "name": "fulfilled",
          "type": "bool"
        },
        {
          "internalType": "bool",
          "name": "exists",
          "type": "bool"
        },
        {
          "internalType": "bool",
          "name": "didWin",
          "type": "bool"
        }
      ],
      "stateMutability": "view",
      "type": "function"
    },
    {
      "inputs": [],
      "name": "shoot_counter",
      "outputs": [
        {
          "internalType": "uint8",
          "name": "",
          "type": "uint8"
        }
      ],
      "stateMutability": "view",
      "type": "function"
    },
    {
      "inputs": [],
      "name": "team1Score",
      "outputs": [
        {
          "internalType": "uint8",
          "name": "",
          "type": "uint8"
        }
      ],
      "stateMutability": "view",
      "type": "function"
    },
    {
      "inputs": [],
      "name": "team2Score",
      "outputs": [
        {
          "internalType": "uint8",
          "name": "",
          "type": "uint8"
        }
      ],
      "stateMutability": "view",
      "type": "function"
    },
    {
      "inputs": [],
      "name": "tossChoice",
      "outputs": [
        {
          "internalType": "uint8",
          "name": "",
          "type": "uint8"
        }
      ],
      "stateMutability": "view",
      "type": "function"
    },
    {
      "inputs": [
        {
          "internalType": "address",
          "name": "to",
          "type": "address"
        }
      ],
      "name": "transferOwnership",
      "outputs": [],
      "stateMutability": "nonpayable",
      "type": "function"
    },
    {
      "inputs": [],
      "name": "winOrLoss",
      "outputs": [
        {
          "internalType": "bool",
          "name": "",
          "type": "bool"
        }
      ],
      "stateMutability": "view",
      "type": "function"
    },
    {
      "inputs": [],
      "name": "getPlayerBalance",
      "outputs": [
        {
          "internalType": "uint256",
          "name": "",
          "type": "uint256"
        }
      ],
      "stateMutability": "view",
      "type": "function"
    },
    {
      "inputs": [],
      "name": "initialize_array",
      "outputs": [],
      "stateMutability": "nonpayable",
      "type": "function"
    },
    {
      "inputs": [
        {
          "internalType": "uint8",
          "name": "choice",
          "type": "uint8"
        }
      ],
      "name": "updatePlayerState",
      "outputs": [],
      "stateMutability": "nonpayable",
      "type": "function"
    },
    {
      "inputs": [],
      "name": "roundNumberIncrease",
      "outputs": [],
      "stateMutability": "nonpayable",
      "type": "function"
    },
    {
      "inputs": [
        {
          "internalType": "uint8",
          "name": "choice",
          "type": "uint8"
        }
      ],
      "name": "setPlayerState",
      "outputs": [],
      "stateMutability": "nonpayable",
      "type": "function"
    },
    {
      "inputs": [
        {
          "internalType": "uint8",
          "name": "_tossChoice",
          "type": "uint8"
        }
      ],
      "name": "toss",
      "outputs": [],
      "stateMutability": "nonpayable",
      "type": "function"
    },
    {
      "inputs": [
        {
          "internalType": "uint8",
          "name": "_shootNumber",
          "type": "uint8"
        },
        {
          "internalType": "uint8",
          "name": "_playerState",
          "type": "uint8"
        }
      ],
      "name": "interface_Selection",
      "outputs": [
        {
          "internalType": "uint8",
          "name": "",
          "type": "uint8"
        }
      ],
      "stateMutability": "view",
      "type": "function"
    },
    {
      "inputs": [
        {
          "internalType": "uint8",
          "name": "penalty_interface",
          "type": "uint8"
        },
        {
          "internalType": "uint8",
          "name": "user_choice",
          "type": "uint8"
        },
        {
          "internalType": "uint8",
          "name": "_shootNumber",
          "type": "uint8"
        }
      ],
      "name": "penalty_shoot",
      "outputs": [
        {
          "internalType": "bool",
          "name": "res",
          "type": "bool"
        }
      ],
      "stateMutability": "view",
      "type": "function"
    },
    {
      "inputs": [
        {
          "internalType": "uint8",
          "name": "_team1Score",
          "type": "uint8"
        },
        {
          "internalType": "uint8",
          "name": "_team2Score",
          "type": "uint8"
        },
        {
          "internalType": "uint8",
          "name": "shootNumber",
          "type": "uint8"
        },
        {
          "internalType": "uint8",
          "name": "_playerState",
          "type": "uint8"
        }
      ],
      "name": "round_result_check",
      "outputs": [
        {
          "internalType": "uint8",
          "name": "",
          "type": "uint8"
        }
      ],
      "stateMutability": "pure",
      "type": "function"
    },
    {
      "inputs": [],
      "name": "update_shoot_counter",
      "outputs": [],
      "stateMutability": "nonpayable",
      "type": "function"
    },
    {
      "inputs": [],
      "name": "update_round_counter",
      "outputs": [],
      "stateMutability": "nonpayable",
      "type": "function"
    },
    {
      "inputs": [],
      "name": "reset",
      "outputs": [],
      "stateMutability": "nonpayable",
      "type": "function"
    },
    {
      "inputs": [],
      "name": "score_team1",
      "outputs": [
        {
          "internalType": "uint8",
          "name": "",
          "type": "uint8"
        }
      ],
      "stateMutability": "view",
      "type": "function"
    },
    {
      "inputs": [],
      "name": "score_team2",
      "outputs": [
        {
          "internalType": "uint8",
          "name": "",
          "type": "uint8"
        }
      ],
      "stateMutability": "view",
      "type": "function"
    },
    {
      "inputs": [],
      "name": "requestRandomWords",
      "outputs": [
        {
          "internalType": "uint256",
          "name": "requestId",
          "type": "uint256"
        }
      ],
      "stateMutability": "nonpayable",
      "type": "function"
    },
    {
      "inputs": [
        {
          "internalType": "uint256",
          "name": "_requestId",
          "type": "uint256"
        }
      ],
      "name": "getRequestStatus",
      "outputs": [
        {
          "internalType": "bool",
          "name": "fulfilled",
          "type": "bool"
        },
        {
          "internalType": "uint256[]",
          "name": "randomWords",
          "type": "uint256[]"
        },
        {
          "internalType": "bool",
          "name": "didWin",
          "type": "bool"
        }
      ],
      "stateMutability": "view",
      "type": "function"
    }
  ],
  "bytecode": "0x60a06040525f600160146101000a81548160ff021916908360ff1602179055506002600160166101000a81548160ff02191690836002811115620000485762000047620005c5565b5b02179055505f60035f6101000a81548160ff021916908360ff1602179055505f600360016101000a81548160ff021916908360ff1602179055505f600360026101000a81548160ff021916908360ff1602179055506040518060c00160405280600360ff168152602001600160ff168152602001600160ff168152602001600260ff168152602001600260ff168152602001600260ff168152506006906006620000f4929190620004ff565b506040518060c00160405280600260ff168152602001600360ff168152602001600260ff168152602001600160ff168152602001600160ff168152602001600260ff1681525060079060066200014c929190620004ff565b507f474e34a077df58807dbe9c96d3c009b23b3c6d0cce433e59bbf5b34f823bc56c5f1b603455620f424060355f6101000a81548163ffffffff021916908363ffffffff1602179055506003603560046101000a81548161ffff021916908361ffff1602179055506014603560066101000a81548163ffffffff021916908363ffffffff160217905550348015620001e2575f80fd5b5060405162002e0f38038062002e0f833981810160405281019062000208919062000638565b33805f738103b0a8a00be2ddc778e6e7eaa21791cd3646258073ffffffffffffffffffffffffffffffffffffffff1660808173ffffffffffffffffffffffffffffffffffffffff1681525050505f73ffffffffffffffffffffffffffffffffffffffff168273ffffffffffffffffffffffffffffffffffffffff1603620002c6576040517f08c379a0000000000000000000000000000000000000000000000000000000008152600401620002bd90620006c6565b60405180910390fd5b815f806101000a81548173ffffffffffffffffffffffffffffffffffffffff021916908373ffffffffffffffffffffffffffffffffffffffff1602179055505f73ffffffffffffffffffffffffffffffffffffffff168173ffffffffffffffffffffffffffffffffffffffff16146200034b576200034a81620003d260201b60201c565b5b505050738103b0a8a00be2ddc778e6e7eaa21791cd36462560315f6101000a81548173ffffffffffffffffffffffffffffffffffffffff021916908373ffffffffffffffffffffffffffffffffffffffff16021790555080603160146101000a81548167ffffffffffffffff021916908367ffffffffffffffff1602179055505062000754565b3373ffffffffffffffffffffffffffffffffffffffff168173ffffffffffffffffffffffffffffffffffffffff160362000443576040517f08c379a00000000000000000000000000000000000000000000000000000000081526004016200043a9062000734565b60405180910390fd5b8060015f6101000a81548173ffffffffffffffffffffffffffffffffffffffff021916908373ffffffffffffffffffffffffffffffffffffffff1602179055508073ffffffffffffffffffffffffffffffffffffffff165f8054906101000a900473ffffffffffffffffffffffffffffffffffffffff1673ffffffffffffffffffffffffffffffffffffffff167fed8889f560326eb138920d842192f0eb3dd22b4f139c87a2c57538e05bae127860405160405180910390a350565b828054828255905f5260205f2090601f0160209004810192821562000595579160200282015f5b838211156200056557835183826101000a81548160ff021916908360ff16021790555092602001926001016020815f0104928301926001030262000526565b8015620005935782816101000a81549060ff02191690556001016020815f0104928301926001030262000565565b505b509050620005a49190620005a8565b5090565b5b80821115620005c1575f815f905550600101620005a9565b5090565b7f4e487b71000000000000000000000000000000000000000000000000000000005f52602160045260245ffd5b5f80fd5b5f67ffffffffffffffff82169050919050565b6200061481620005f6565b81146200061f575f80fd5b50565b5f81519050620006328162000609565b92915050565b5f6020828403121562000650576200064f620005f2565b5b5f6200065f8482850162000622565b91505092915050565b5f82825260208201905092915050565b7f43616e6e6f7420736574206f776e657220746f207a65726f00000000000000005f82015250565b5f620006ae60188362000668565b9150620006bb8262000678565b602082019050919050565b5f6020820190508181035f830152620006df81620006a0565b9050919050565b7f43616e6e6f74207472616e7366657220746f2073656c660000000000000000005f82015250565b5f6200071c60178362000668565b91506200072982620006e6565b602082019050919050565b5f6020820190508181035f8301526200074d816200070e565b9050919050565b60805161269b620007745f395f818161089001526108e4015261269b5ff3fe608060405234801561000f575f80fd5b5060043610610204575f3560e01c80638da5cb5b11610118578063d8a4676f116100ab578063efb8e1091161007a578063efb8e1091461058b578063f1b65bdb146105a7578063f2fde38b146105c5578063fc2a88c3146105e1578063fe979ea2146105ff57610204565b8063d8a4676f14610513578063dc91697e14610545578063dd4b23cd14610563578063e0c862891461056d57610204565b8063bc173c5f116100e7578063bc173c5f146104c3578063c8cf4378146104e1578063d34c9d46146104eb578063d826f88f1461050957610204565b80638da5cb5b14610439578063a168fa8914610457578063a768853814610489578063b2f343e6146104a757610204565b806350ace4e51161019b5780635f59d29c1161016a5780635f59d29c1461038c57806361958ca9146103aa57806370d02e9b146103e157806379ba5097146103ff5780638796ba8c1461040957610204565b806350ace4e5146103185780635257cd901461033657806354e52aed14610366578063557fcdd81461037057610204565b80632ff285bc116101d75780632ff285bc1461027c5780633564ac9c146102ac5780634e2786fb146102ca5780634e33f83b146102e857610204565b80630a1aa765146102085780630b01517c146102125780631c69d17d146102305780631fe543e314610260575b5f80fd5b61021061062f565b005b61021a610669565b6040516102279190611a7a565b60405180910390f35b61024a60048036038101906102459190611ada565b6106ad565b6040516102579190611b4d565b60405180910390f35b61027a60048036038101906102759190611ce0565b61088e565b005b61029660048036038101906102919190611d3a565b61094e565b6040516102a39190611da4565b60405180910390f35b6102b4610a7f565b6040516102c19190611b4d565b60405180910390f35b6102d2610a92565b6040516102df9190611b4d565b60405180910390f35b61030260048036038101906102fd9190611e17565b610aa5565b60405161030f9190611a7a565b60405180910390f35b610320610aba565b60405161032d9190611b4d565b60405180910390f35b610350600480360381019061034b9190611e42565b610acc565b60405161035d9190611a7a565b60405180910390f35b61036e610aec565b005b61038a60048036038101906103859190611e6d565b610c68565b005b610394610c85565b6040516103a19190611b4d565b60405180910390f35b6103c460048036038101906103bf9190611e42565b610c98565b6040516103d8989796959493929190611f51565b60405180910390f35b6103e9610d40565b6040516103f69190611da4565b60405180910390f35b610407610d53565b005b610423600480360381019061041e9190611e42565b610ee2565b6040516104309190611a7a565b60405180910390f35b610441610f02565b60405161044e9190611fdc565b60405180910390f35b610471600480360381019061046c9190611e42565b610f29565b60405161048093929190611ff5565b60405180910390f35b610491610f73565b60405161049e9190611b4d565b60405180910390f35b6104c160048036038101906104bc9190611e6d565b610f86565b005b6104cb61101f565b6040516104d89190611b4d565b60405180910390f35b6104e9611031565b005b6104f3611069565b6040516105009190611b4d565b60405180910390f35b6105116110a6565b005b61052d60048036038101906105289190611e42565b61112d565b60405161053c939291906120e1565b60405180910390f35b61054d61126f565b60405161055a9190611b4d565b60405180910390f35b61056b6112ac565b005b6105756112e6565b6040516105829190611a7a565b60405180910390f35b6105a560048036038101906105a09190611e6d565b61154e565b005b6105af61156b565b6040516105bc9190611b4d565b60405180910390f35b6105df60048036038101906105da9190611e17565b61157e565b005b6105e9611592565b6040516105f69190611a7a565b60405180910390f35b6106196004803603810190610614919061211d565b611598565b6040516106269190611b4d565b60405180910390f35b6001601581819054906101000a900460ff168092919061064e90612188565b91906101000a81548160ff021916908360ff16021790555050565b5f60045f3373ffffffffffffffffffffffffffffffffffffffff1673ffffffffffffffffffffffffffffffffffffffff1681526020019081526020015f2054905090565b5f808590505f859050600a8560ff161161082e575f805f6002886106d191906121dd565b60ff160361072a57836002886106e7919061220d565b60056106f3919061223d565b6106fd9190612271565b91508260028861070d919061220d565b6005610719919061223d565b6107239190612271565b90506107ec565b60028660ff16036107925783600288610743919061220d565b600561074f919061223d565b6107599190612271565b915082600160028961076b919061220d565b6005610777919061223d565b610781919061223d565b61078b9190612271565b90506107eb565b8360016002896107a2919061220d565b60056107ae919061223d565b6107b8919061223d565b6107c29190612271565b9150826002886107d2919061220d565b60056107de919061223d565b6107e89190612271565b90505b5b8060ff168460ff161115610807576001945050505050610886565b8160ff168360ff161115610822576002945050505050610886565b5f945050505050610886565b5f60028661083c91906121dd565b60ff1603610880578060ff168260ff16111561085d57600192505050610886565b8060ff168260ff16101561087657600292505050610886565b5f92505050610886565b5f925050505b949350505050565b7f000000000000000000000000000000000000000000000000000000000000000073ffffffffffffffffffffffffffffffffffffffff163373ffffffffffffffffffffffffffffffffffffffff161461094057337f00000000000000000000000000000000000000000000000000000000000000006040517f1cf993f40000000000000000000000000000000000000000000000000000000081526004016109379291906122a5565b60405180910390fd5b61094a82826116e1565b5050565b5f60018460ff16036109b1575f60016002808560ff1681548110610975576109746122cc565b5b905f5260205f20015461098891906122f9565b6109929190612329565b9050808460ff16036109a7575f915050610a78565b6001915050610a78565b60028460ff1603610a14575f6001600460028560ff16815481106109d8576109d76122cc565b5b905f5260205f2001546109eb91906122f9565b6109f59190612329565b9050808460ff1603610a0a575f915050610a78565b6001915050610a78565b60038460ff1603610a77575f6001600860028560ff1681548110610a3b57610a3a6122cc565b5b905f5260205f200154610a4e91906122f9565b610a589190612329565b9050808460ff1603610a6d575f915050610a78565b6001915050610a78565b5b9392505050565b600160149054906101000a900460ff1681565b600360029054906101000a900460ff1681565b6004602052805f5260405f205f915090505481565b60035f9054906101000a900460ff1681565b60028181548110610adb575f80fd5b905f5260205f20015f915090505481565b6303227f2860025f81548110610b0557610b046122cc565b5b905f5260205f20018190555063356c19966002600181548110610b2b57610b2a6122cc565b5b905f5260205f200181905550632d69508860028081548110610b5057610b4f6122cc565b5b905f5260205f20018190555063279df8006002600381548110610b7657610b756122cc565b5b905f5260205f2001819055506328582b376002600481548110610b9c57610b9b6122cc565b5b905f5260205f2001819055506303227f286002600581548110610bc257610bc16122cc565b5b905f5260205f20018190555063356c19966002600681548110610be857610be76122cc565b5b905f5260205f200181905550632d6950886002600781548110610c0e57610c0d6122cc565b5b905f5260205f20018190555063279df8006002600881548110610c3457610c336122cc565b5b905f5260205f2001819055506328582b376002600981548110610c5a57610c596122cc565b5b905f5260205f200181905550565b8060055f6101000a81548160ff021916908360ff16021790555050565b600160159054906101000a900460ff1681565b60088160148110610ca7575f80fd5b015f91509050805f015f9054906101000a900460ff1690805f0160019054906101000a900460ff1690805f0160029054906101000a900460ff1690805f0160039054906101000a900460ff1690805f0160049054906101000a900460ff1690805f0160059054906101000a900460ff1690805f0160069054906101000a900460ff1690805f0160079054906101000a900460ff16905088565b600560029054906101000a900460ff1681565b60015f9054906101000a900473ffffffffffffffffffffffffffffffffffffffff1673ffffffffffffffffffffffffffffffffffffffff163373ffffffffffffffffffffffffffffffffffffffff1614610de2576040517f08c379a0000000000000000000000000000000000000000000000000000000008152600401610dd9906123b6565b60405180910390fd5b5f805f9054906101000a900473ffffffffffffffffffffffffffffffffffffffff169050335f806101000a81548173ffffffffffffffffffffffffffffffffffffffff021916908373ffffffffffffffffffffffffffffffffffffffff1602179055505f60015f6101000a81548173ffffffffffffffffffffffffffffffffffffffff021916908373ffffffffffffffffffffffffffffffffffffffff1602179055503373ffffffffffffffffffffffffffffffffffffffff168173ffffffffffffffffffffffffffffffffffffffff167f8be0079c531659141344cd1fd0a4f28419497f9722a3daafe3b4186f6b6457e060405160405180910390a350565b60328181548110610ef1575f80fd5b905f5260205f20015f915090505481565b5f805f9054906101000a900473ffffffffffffffffffffffffffffffffffffffff16905090565b6030602052805f5260405f205f91509050805f015f9054906101000a900460ff1690805f0160019054906101000a900460ff1690806002015f9054906101000a900460ff16905083565b600360019054906101000a900460ff1681565b80600560016101000a81548160ff021916908360ff160217905550600560019054906101000a900460ff1660ff166002805f81548110610fc957610fc86122cc565b5b905f5260205f200154610fdc91906122f9565b03611001576001600560026101000a81548160ff02191690831515021790555061101c565b5f600560026101000a81548160ff0219169083151502179055505b50565b60055f9054906101000a900460ff1681565b6001600360029054906101000a900460ff1661104d9190612271565b600360026101000a81548160ff021916908360ff160217905550565b5f601c600160159054906101000a900460ff1660ff16601481106110905761108f6122cc565b5b015f0160019054906101000a900460ff16905090565b5f600160146101000a81548160ff021916908360ff1602179055505f600360026101000a81548160ff021916908360ff1602179055505f60035f6101000a81548160ff021916908360ff1602179055505f600360016101000a81548160ff021916908360ff1602179055505f60055f6101000a81548160ff021916908360ff160217905550565b5f60605f60305f8581526020019081526020015f205f0160019054906101000a900460ff16611191576040517f08c379a00000000000000000000000000000000000000000000000000000000081526004016111889061241e565b60405180910390fd5b5f60305f8681526020019081526020015f206040518060800160405290815f82015f9054906101000a900460ff161515151581526020015f820160019054906101000a900460ff161515151581526020016001820180548060200260200160405190810160405280929190818152602001828054801561122e57602002820191905f5260205f20905b81548152602001906001019080831161121a575b50505050508152602001600282015f9054906101000a900460ff1615151515815250509050805f015181604001518260600151935093509350509193909250565b5f601c600160159054906101000a900460ff1660ff1660148110611296576112956122cc565b5b015f0160029054906101000a900460ff16905090565b6001601481819054906101000a900460ff16809291906112cb90612188565b91906101000a81548160ff021916908360ff16021790555050565b5f60315f9054906101000a900473ffffffffffffffffffffffffffffffffffffffff1673ffffffffffffffffffffffffffffffffffffffff16635d3b1d30603454603160149054906101000a900467ffffffffffffffff16603560049054906101000a900461ffff1660355f9054906101000a900463ffffffff16603560069054906101000a900463ffffffff166040518663ffffffff1660e01b81526004016113949594939291906124b0565b6020604051808303815f875af11580156113b0573d5f803e3d5ffd5b505050506040513d601f19601f820116820180604052508101906113d49190612515565b905060405180608001604052805f151581526020016001151581526020015f67ffffffffffffffff81111561140c5761140b611ba4565b5b60405190808252806020026020018201604052801561143a5781602001602082028036833780820191505090505b5081526020016001151581525060305f8381526020019081526020015f205f820151815f015f6101000a81548160ff0219169083151502179055506020820151815f0160016101000a81548160ff02191690831515021790555060408201518160010190805190602001906114b09291906119fc565b506060820151816002015f6101000a81548160ff021916908315150217905550905050603281908060018154018082558091505060019003905f5260205f20015f9091909190915055806033819055507fcc58b13ad3eab50626c6a6300b1d139cd6ebb1688a7cced9461c2f7e762665ee81603560069054906101000a900463ffffffff16604051611543929190612540565b60405180910390a190565b8060055f6101000a81548160ff021916908360ff16021790555050565b600560019054906101000a900460ff1681565b611586611843565b61158f816118d2565b50565b60335481565b5f805f806002600a876115ab91906121dd565b6115b5919061220d565b905060028560ff16036116335760068160ff16815481106115d9576115d86122cc565b5b905f5260205f2090602091828204019190069054906101000a900460ff169150600760058154811061160e5761160d6122cc565b5b905f5260205f2090602091828204019190069054906101000a900460ff1692506116a0565b60078160ff168154811061164a576116496122cc565b5b905f5260205f2090602091828204019190069054906101000a900460ff169150600660058154811061167f5761167e6122cc565b5b905f5260205f2090602091828204019190069054906101000a900460ff1692505b8260ff168260ff1611156116ba57600393505050506116db565b8260ff168260ff16036116d357600293505050506116db565b600193505050505b92915050565b60305f8381526020019081526020015f205f0160019054906101000a900460ff16611741576040517f08c379a00000000000000000000000000000000000000000000000000000000081526004016117389061241e565b60405180910390fd5b600160305f8481526020019081526020015f205f015f6101000a81548160ff0219169083151502179055508060305f8481526020019081526020015f2060010190805190602001906117949291906119fc565b505f6002825f815181106117ab576117aa6122cc565b5b60200260200101516117bd91906122f9565b036117ef57600160305f8481526020019081526020015f206002015f6101000a81548160ff0219169083151502179055505b80600290805190602001906118059291906119fc565b507ffe2e2d779dba245964d4e3ef9b994be63856fd568bf7d3ca9e224755cb1bd54d8282604051611837929190612567565b60405180910390a15050565b5f8054906101000a900473ffffffffffffffffffffffffffffffffffffffff1673ffffffffffffffffffffffffffffffffffffffff163373ffffffffffffffffffffffffffffffffffffffff16146118d0576040517f08c379a00000000000000000000000000000000000000000000000000000000081526004016118c7906125df565b60405180910390fd5b565b3373ffffffffffffffffffffffffffffffffffffffff168173ffffffffffffffffffffffffffffffffffffffff1603611940576040517f08c379a000000000000000000000000000000000000000000000000000000000815260040161193790612647565b60405180910390fd5b8060015f6101000a81548173ffffffffffffffffffffffffffffffffffffffff021916908373ffffffffffffffffffffffffffffffffffffffff1602179055508073ffffffffffffffffffffffffffffffffffffffff165f8054906101000a900473ffffffffffffffffffffffffffffffffffffffff1673ffffffffffffffffffffffffffffffffffffffff167fed8889f560326eb138920d842192f0eb3dd22b4f139c87a2c57538e05bae127860405160405180910390a350565b828054828255905f5260205f20908101928215611a36579160200282015b82811115611a35578251825591602001919060010190611a1a565b5b509050611a439190611a47565b5090565b5b80821115611a5e575f815f905550600101611a48565b5090565b5f819050919050565b611a7481611a62565b82525050565b5f602082019050611a8d5f830184611a6b565b92915050565b5f604051905090565b5f80fd5b5f80fd5b5f60ff82169050919050565b611ab981611aa4565b8114611ac3575f80fd5b50565b5f81359050611ad481611ab0565b92915050565b5f805f8060808587031215611af257611af1611a9c565b5b5f611aff87828801611ac6565b9450506020611b1087828801611ac6565b9350506040611b2187828801611ac6565b9250506060611b3287828801611ac6565b91505092959194509250565b611b4781611aa4565b82525050565b5f602082019050611b605f830184611b3e565b92915050565b611b6f81611a62565b8114611b79575f80fd5b50565b5f81359050611b8a81611b66565b92915050565b5f80fd5b5f601f19601f8301169050919050565b7f4e487b71000000000000000000000000000000000000000000000000000000005f52604160045260245ffd5b611bda82611b94565b810181811067ffffffffffffffff82111715611bf957611bf8611ba4565b5b80604052505050565b5f611c0b611a93565b9050611c178282611bd1565b919050565b5f67ffffffffffffffff821115611c3657611c35611ba4565b5b602082029050602081019050919050565b5f80fd5b5f611c5d611c5884611c1c565b611c02565b90508083825260208201905060208402830185811115611c8057611c7f611c47565b5b835b81811015611ca95780611c958882611b7c565b845260208401935050602081019050611c82565b5050509392505050565b5f82601f830112611cc757611cc6611b90565b5b8135611cd7848260208601611c4b565b91505092915050565b5f8060408385031215611cf657611cf5611a9c565b5b5f611d0385828601611b7c565b925050602083013567ffffffffffffffff811115611d2457611d23611aa0565b5b611d3085828601611cb3565b9150509250929050565b5f805f60608486031215611d5157611d50611a9c565b5b5f611d5e86828701611ac6565b9350506020611d6f86828701611ac6565b9250506040611d8086828701611ac6565b9150509250925092565b5f8115159050919050565b611d9e81611d8a565b82525050565b5f602082019050611db75f830184611d95565b92915050565b5f73ffffffffffffffffffffffffffffffffffffffff82169050919050565b5f611de682611dbd565b9050919050565b611df681611ddc565b8114611e00575f80fd5b50565b5f81359050611e1181611ded565b92915050565b5f60208284031215611e2c57611e2b611a9c565b5b5f611e3984828501611e03565b91505092915050565b5f60208284031215611e5757611e56611a9c565b5b5f611e6484828501611b7c565b91505092915050565b5f60208284031215611e8257611e81611a9c565b5b5f611e8f84828501611ac6565b91505092915050565b7f4e487b71000000000000000000000000000000000000000000000000000000005f52602160045260245ffd5b60028110611ed657611ed5611e98565b5b50565b5f819050611ee682611ec5565b919050565b5f611ef582611ed9565b9050919050565b611f0581611eeb565b82525050565b60028110611f1c57611f1b611e98565b5b50565b5f819050611f2c82611f0b565b919050565b5f611f3b82611f1f565b9050919050565b611f4b81611f31565b82525050565b5f61010082019050611f655f83018b611b3e565b611f72602083018a611b3e565b611f7f6040830189611b3e565b611f8c6060830188611d95565b611f996080830187611b3e565b611fa660a0830186611d95565b611fb360c0830185611efc565b611fc060e0830184611f42565b9998505050505050505050565b611fd681611ddc565b82525050565b5f602082019050611fef5f830184611fcd565b92915050565b5f6060820190506120085f830186611d95565b6120156020830185611d95565b6120226040830184611d95565b949350505050565b5f81519050919050565b5f82825260208201905092915050565b5f819050602082019050919050565b61205c81611a62565b82525050565b5f61206d8383612053565b60208301905092915050565b5f602082019050919050565b5f61208f8261202a565b6120998185612034565b93506120a483612044565b805f5b838110156120d45781516120bb8882612062565b97506120c683612079565b9250506001810190506120a7565b5085935050505092915050565b5f6060820190506120f45f830186611d95565b81810360208301526121068185612085565b90506121156040830184611d95565b949350505050565b5f806040838503121561213357612132611a9c565b5b5f61214085828601611ac6565b925050602061215185828601611ac6565b9150509250929050565b7f4e487b71000000000000000000000000000000000000000000000000000000005f52601160045260245ffd5b5f61219282611aa4565b915060ff82036121a5576121a461215b565b5b600182019050919050565b7f4e487b71000000000000000000000000000000000000000000000000000000005f52601260045260245ffd5b5f6121e782611aa4565b91506121f283611aa4565b925082612202576122016121b0565b5b828206905092915050565b5f61221782611aa4565b915061222283611aa4565b925082612232576122316121b0565b5b828204905092915050565b5f61224782611aa4565b915061225283611aa4565b9250828203905060ff81111561226b5761226a61215b565b5b92915050565b5f61227b82611aa4565b915061228683611aa4565b9250828201905060ff81111561229f5761229e61215b565b5b92915050565b5f6040820190506122b85f830185611fcd565b6122c56020830184611fcd565b9392505050565b7f4e487b71000000000000000000000000000000000000000000000000000000005f52603260045260245ffd5b5f61230382611a62565b915061230e83611a62565b92508261231e5761231d6121b0565b5b828206905092915050565b5f61233382611a62565b915061233e83611a62565b92508282019050808211156123565761235561215b565b5b92915050565b5f82825260208201905092915050565b7f4d7573742062652070726f706f736564206f776e6572000000000000000000005f82015250565b5f6123a060168361235c565b91506123ab8261236c565b602082019050919050565b5f6020820190508181035f8301526123cd81612394565b9050919050565b7f72657175657374206e6f7420666f756e640000000000000000000000000000005f82015250565b5f61240860118361235c565b9150612413826123d4565b602082019050919050565b5f6020820190508181035f830152612435816123fc565b9050919050565b5f819050919050565b61244e8161243c565b82525050565b5f67ffffffffffffffff82169050919050565b61247081612454565b82525050565b5f61ffff82169050919050565b61248c81612476565b82525050565b5f63ffffffff82169050919050565b6124aa81612492565b82525050565b5f60a0820190506124c35f830188612445565b6124d06020830187612467565b6124dd6040830186612483565b6124ea60608301856124a1565b6124f760808301846124a1565b9695505050505050565b5f8151905061250f81611b66565b92915050565b5f6020828403121561252a57612529611a9c565b5b5f61253784828501612501565b91505092915050565b5f6040820190506125535f830185611a6b565b61256060208301846124a1565b9392505050565b5f60408201905061257a5f830185611a6b565b818103602083015261258c8184612085565b90509392505050565b7f4f6e6c792063616c6c61626c65206279206f776e6572000000000000000000005f82015250565b5f6125c960168361235c565b91506125d482612595565b602082019050919050565b5f6020820190508181035f8301526125f6816125bd565b9050919050565b7f43616e6e6f74207472616e7366657220746f2073656c660000000000000000005f82015250565b5f61263160178361235c565b915061263c826125fd565b602082019050919050565b5f6020820190508181035f83015261265e81612625565b905091905056fea26469706673582212201f755fe5e478ba5b603306bbe439b7fac5e5632453bb089d15d3c25b5523359e64736f6c63430008140033",
  "immutableReferences": {
    "192": [
      {
        "length": 32,
        "start": 2192
      },
      {
        "length": 32,
        "start": 2276
      }
    ]
  },
  "source": "// SPDX-License-Identifier: MIT\r\n// An example of a consumer contract that relies on a subscription for funding.\r\npragma solidity ^0.8.7;\r\n\r\nimport \"@chainlink/contracts/src/v0.8/interfaces/VRFCoordinatorV2Interface.sol\";\r\nimport \"@chainlink/contracts/src/v0.8/VRFConsumerBaseV2.sol\";\r\nimport \"@chainlink/contracts/src/v0.8/ConfirmedOwner.sol\";\r\n\r\n/**\r\n * Request testnet LINK and ETH here: https://faucets.chain.link/\r\n * Find information on LINK Token Contracts and get the latest ETH and LINK faucets here: https://docs.chain.link/docs/link-token-contracts/\r\n */\r\n\r\n/**\r\n * THIS IS AN EXAMPLE CONTRACT THAT USES HARDCODED VALUES FOR CLARITY.\r\n * THIS IS AN EXAMPLE CONTRACT THAT USES UN-AUDITED CODE.\r\n * DO NOT USE THIS CODE IN PRODUCTION.\r\n */\r\n\r\ncontract Web3Football is VRFConsumerBaseV2, ConfirmedOwner {\r\n    uint8 public shoot_counter = 0;\r\n    uint8 public round_counter;\r\n    round_winner status = round_winner.MATCH_GOING_ON;\r\n    uint256[] public randomNumbers;\r\n\r\n    uint8 public team1Score = 0;\r\n    uint8 public team2Score = 0;\r\n    uint8 public roundNumber = 0;\r\n\r\n    mapping(address => uint256) public playerBalance;\r\n\r\n    function getPlayerBalance() public view returns (uint256) {\r\n        return playerBalance[msg.sender];\r\n    }\r\n\r\n    function initialize_array() public {\r\n        randomNumbers[0] = 52592424;\r\n        randomNumbers[1] = 896276886;\r\n        randomNumbers[2] = 761876616;\r\n        randomNumbers[3] = 664664064;\r\n        randomNumbers[4] = 676866871;\r\n        randomNumbers[5] = 52592424;\r\n        randomNumbers[6] = 896276886;\r\n        randomNumbers[7] = 761876616;\r\n        randomNumbers[8] = 664664064;\r\n        randomNumbers[9] = 676866871;\r\n    }\r\n\r\n    uint8 public playerState;\r\n\r\n    function updatePlayerState(uint8 choice) public {\r\n        playerState = choice;\r\n    }\r\n\r\n    function roundNumberIncrease() public {\r\n        roundNumber = roundNumber + 1;\r\n    }\r\n\r\n    function setPlayerState(uint8 choice) public {\r\n        playerState = choice;\r\n    }\r\n\r\n    //stores the random number in the array\r\n\r\n    //toss\r\n\r\n    uint8 public tossChoice;\r\n    bool public winOrLoss;\r\n\r\n    function toss(uint8 _tossChoice) public {\r\n        tossChoice = _tossChoice;\r\n        if (randomNumbers[0] % 2 == tossChoice) {\r\n            winOrLoss = true;\r\n        } else {\r\n            winOrLoss = false;\r\n        }\r\n    }\r\n\r\n    //structure that stores the details\r\n    struct game_starting_details {\r\n        uint8 player1_level;\r\n        uint8 player2_level;\r\n        string wonToss;\r\n    }\r\n\r\n    enum shoot_winner {\r\n        GOALKEEPER,\r\n        STRIKER\r\n    }\r\n\r\n    enum round_winner {\r\n        TEAM1,\r\n        TEAM2,\r\n        MATCH_GOING_ON\r\n    }\r\n\r\n    enum team_shoot_winner {\r\n        team1,\r\n        team2\r\n    }\r\n\r\n    //For trial purposes\r\n    uint8[] team1Ratings = [3, 1, 1, 2, 2, 2];\r\n    uint8[] team2Ratings = [2, 3, 2, 1, 1, 2];\r\n    //structure that has shoot details\r\n    struct shoot_detail {\r\n        uint8 shoot_no;\r\n        uint8 team1_lvl; //player is team 1\r\n        uint8 team2_lvl; //computer is team 2\r\n        bool select_interface; //checks if the interface has been selected or not\r\n        uint8 selected_interface; // stores the interface a =1, b = 2, c =3\r\n        bool shoot_completed; //checks if the shoot is completed or not\r\n        shoot_winner Winner_playerType;\r\n        team_shoot_winner ShootWinner_Team;\r\n    }\r\n\r\n    //structure that has round details\r\n    struct round_detail {\r\n        uint8 no_of_shoots;\r\n        uint8 team1_score;\r\n        uint8 team2_score;\r\n        bool round_complete;\r\n        round_winner Round_Winner;\r\n    }\r\n\r\n    shoot_detail[20] public Shoot_Detail;\r\n    round_detail[20] Round_Detail;\r\n\r\n    //function that selects which interface to play on\r\n    //return?\r\n    event testi(uint8 shoot_counter, uint8 Team1_Lvl, uint8 Team2_Lvl); //team 1 lvl is goalkeeper level and team 2 levelis striker level\r\n\r\n    function interface_Selection(\r\n        uint8 _shootNumber,\r\n        uint8 _playerState\r\n    ) external view returns (uint8) {\r\n        uint8 goalkeeper;\r\n        uint8 striker;\r\n        uint8 index = (_shootNumber % 10) / 2;\r\n\r\n        if (_playerState == 2) {\r\n            striker = team1Ratings[index];\r\n            goalkeeper = team2Ratings[5];\r\n        } else {\r\n            striker = team2Ratings[index];\r\n            goalkeeper = team1Ratings[5];\r\n        }\r\n\r\n        if (striker > goalkeeper) {\r\n            return 3;\r\n        } else if (striker == goalkeeper) {\r\n            return 2;\r\n        } else {\r\n            return 1;\r\n        }\r\n    }\r\n\r\n    //this function will process the random number and check the result\r\n    function penalty_shoot(\r\n        uint8 penalty_interface,\r\n        uint8 user_choice,\r\n        uint8 _shootNumber\r\n    ) public view returns (bool res) {\r\n        //logic for interface 1\r\n        if (penalty_interface == 1) {\r\n            uint256 computer_choice = (randomNumbers[_shootNumber] % 2) + 1;\r\n\r\n            if (user_choice == computer_choice) {\r\n                return false;\r\n            } else {\r\n                return true;\r\n            }\r\n        }\r\n        //logic for interface 2\r\n        if (penalty_interface == 2) {\r\n            uint256 computer_choice = (randomNumbers[_shootNumber] % 4) + 1;\r\n            if (user_choice == computer_choice) {\r\n                return false;\r\n            } else {\r\n                return true;\r\n            }\r\n        }\r\n\r\n        //logic for interface 3\r\n        if (penalty_interface == 3) {\r\n            uint256 computer_choice = (randomNumbers[_shootNumber] % 8) + 1;\r\n            if (user_choice == computer_choice) {\r\n                return false;\r\n            } else {\r\n                return true;\r\n            }\r\n        }\r\n    }\r\n\r\n    //this function will check the round result by comparing score\r\n    function round_result_check(\r\n        uint8 _team1Score,\r\n        uint8 _team2Score,\r\n        uint8 shootNumber,\r\n        uint8 _playerState\r\n    ) external pure returns (uint8) {\r\n        uint8 curr_team1 = _team1Score;\r\n        uint8 curr_team2 = _team2Score;\r\n        if (shootNumber <= 10) {\r\n            uint8 potential_team1;\r\n            uint8 potential_team2;\r\n\r\n            if (shootNumber % 2 == 0) {\r\n                potential_team1 = 5 - ((shootNumber) / 2) + curr_team1;\r\n                potential_team2 = 5 - ((shootNumber) / 2) + curr_team2;\r\n            } else {\r\n                if (_playerState == 2) {\r\n                    potential_team1 = 5 - ((shootNumber) / 2) + curr_team1;\r\n                    potential_team2 = 5 - ((shootNumber) / 2) - 1 + curr_team2;\r\n                } else {\r\n                    potential_team1 = 5 - ((shootNumber) / 2) - 1 + curr_team1;\r\n                    potential_team2 = 5 - ((shootNumber) / 2) + curr_team2;\r\n                }\r\n            }\r\n\r\n            if (curr_team1 > potential_team2) {\r\n                return 1; //returning 1 means that team 1 has won(player)\r\n            } else if (curr_team2 > potential_team1) {\r\n                return 2; //returning 2 means that team 2 has won(computer)\r\n            } else {\r\n                return 0; //match is still going on\r\n            }\r\n        } else {\r\n            if (shootNumber % 2 == 0) {\r\n                if (curr_team1 > curr_team2) {\r\n                    return 1;\r\n                } else if (curr_team1 < curr_team2) {\r\n                    return 2;\r\n                } else {\r\n                    return 0;\r\n                }\r\n            } else {\r\n                return 0;\r\n            }\r\n        }\r\n    }\r\n\r\n    //this function updates the shoot_counter variable. It is done after every penaly shot taken.\r\n    function update_shoot_counter() public {\r\n        shoot_counter++;\r\n    }\r\n\r\n    //function that updates the round counter\r\n    function update_round_counter() public {\r\n        round_counter++;\r\n    }\r\n\r\n    function reset() public {\r\n        shoot_counter = 0;\r\n        roundNumber = 0;\r\n        team1Score = 0;\r\n        team2Score = 0;\r\n        playerState = 0;\r\n    }\r\n\r\n    function score_team1() external view returns (uint8) {\r\n        return Round_Detail[round_counter].team1_score;\r\n    }\r\n\r\n    function score_team2() external view returns (uint8) {\r\n        return Round_Detail[round_counter].team2_score;\r\n    }\r\n\r\n    //////////////////////////////////////////////////////////\r\n\r\n    event RequestSent(uint256 requestId, uint32 numWords);\r\n    event RequestFulfilled(uint256 requestId, uint256[] randomWords);\r\n\r\n    struct RequestStatus {\r\n        bool fulfilled; // whether the request has been successfully fulfilled\r\n        bool exists; // whether a requestId exists\r\n        uint256[] randomWords;\r\n        bool didWin;\r\n    }\r\n    mapping(uint256 => RequestStatus)\r\n        public s_requests; /* requestId --> requestStatus */\r\n    VRFCoordinatorV2Interface COORDINATOR;\r\n\r\n    // Your subscription ID.\r\n    uint64 s_subscriptionId;\r\n\r\n    // past requests Id.\r\n    uint256[] public requestIds;\r\n    uint256 public lastRequestId;\r\n\r\n    // The gas lane to use, which specifies the maximum gas price to bump to.\r\n    // For a list of available gas lanes on each network,\r\n    // see https://docs.chain.link/docs/vrf/v2/subscription/supported-networks/#configurations\r\n    bytes32 keyHash =\r\n        0x474e34a077df58807dbe9c96d3c009b23b3c6d0cce433e59bbf5b34f823bc56c;\r\n\r\n    // Depends on the number of requested values that you want sent to the\r\n    // fulfillRandomWords() function. Storing each word costs about 20,000 gas,\r\n    // so 100,000 is a safe default for this example contract. Test and adjust\r\n    // this limit based on the network that you select, the size of the request,\r\n    // and the processing of the callback request in the fulfillRandomWords()\r\n    // function.\r\n    uint32 callbackGasLimit = 1000000;\r\n\r\n    // The default is 3, but you can set this higher.\r\n    uint16 requestConfirmations = 3;\r\n\r\n    // For this example, retrieve 2 random values in one request.\r\n    // Cannot exceed VRFCoordinatorV2.MAX_NUM_WORDS.\r\n    uint32 numWords = 20;\r\n\r\n    /**\r\n     * HARDCODED FOR SEPOLIA\r\n     * COORDINATOR: 0x8103B0A8A00be2DDC778e6e7eaa21791Cd364625\r\n     */\r\n    constructor(\r\n        uint64 subscriptionId\r\n    )\r\n        VRFConsumerBaseV2(0x8103B0A8A00be2DDC778e6e7eaa21791Cd364625)\r\n        ConfirmedOwner(msg.sender)\r\n    {\r\n        COORDINATOR = VRFCoordinatorV2Interface(\r\n            0x8103B0A8A00be2DDC778e6e7eaa21791Cd364625\r\n        );\r\n        s_subscriptionId = subscriptionId;\r\n    }\r\n\r\n    // Assumes the subscription is funded sufficiently.\r\n    function requestRandomWords() external returns (uint256 requestId) {\r\n        // Will revert if subscription is not set and funded.\r\n        requestId = COORDINATOR.requestRandomWords(\r\n            keyHash,\r\n            s_subscriptionId,\r\n            requestConfirmations,\r\n            callbackGasLimit,\r\n            numWords\r\n        );\r\n        s_requests[requestId] = RequestStatus({\r\n            randomWords: new uint256[](0),\r\n            exists: true,\r\n            fulfilled: false,\r\n            didWin: true\r\n        });\r\n        requestIds.push(requestId);\r\n        lastRequestId = requestId;\r\n        emit RequestSent(requestId, numWords);\r\n        return requestId;\r\n    }\r\n\r\n    function fulfillRandomWords(\r\n        uint256 _requestId,\r\n        uint256[] memory _randomWords\r\n    ) internal override {\r\n        require(s_requests[_requestId].exists, \"request not found\");\r\n        s_requests[_requestId].fulfilled = true;\r\n        s_requests[_requestId].randomWords = _randomWords;\r\n        if (_randomWords[0] % 2 == 0) {\r\n            s_requests[_requestId].didWin = true;\r\n        }\r\n        randomNumbers = _randomWords;\r\n        emit RequestFulfilled(_requestId, _randomWords);\r\n    }\r\n\r\n    function getRequestStatus(\r\n        uint256 _requestId\r\n    )\r\n        external\r\n        view\r\n        returns (bool fulfilled, uint256[] memory randomWords, bool didWin)\r\n    {\r\n        require(s_requests[_requestId].exists, \"request not found\");\r\n        RequestStatus memory request = s_requests[_requestId];\r\n        return (request.fulfilled, request.randomWords, request.didWin);\r\n    }\r\n\r\n    //mycode\r\n}\r\n",
  "sourcePath": "C:\\Users\\Akash Sahu\\Desktop\\cchanges\\Web3Football\\contracts\\Web3Football.sol",
  "compiler": {
    "name": "solc",
    "version": "0.8.20+commit.a1b79de6.Emscripten.clang"
  },
  "schemaVersion": "3.4.14",
  "updatedAt": "2023-06-10T20:34:36.589Z",
  "devdoc": {
    "kind": "dev",
    "methods": {},
    "version": 1
  },
  "userdoc": {
    "kind": "user",
    "methods": {
      "acceptOwnership()": {
        "notice": "Allows an ownership transfer to be completed by the recipient."
      },
      "constructor": {
        "notice": "HARDCODED FOR SEPOLIA COORDINATOR: 0x8103B0A8A00be2DDC778e6e7eaa21791Cd364625"
      },
      "owner()": {
        "notice": "Get the current owner"
      },
      "transferOwnership(address)": {
        "notice": "Allows an owner to begin transferring ownership to a new address, pending."
      }
    },
    "notice": "THIS IS AN EXAMPLE CONTRACT THAT USES HARDCODED VALUES FOR CLARITY. THIS IS AN EXAMPLE CONTRACT THAT USES UN-AUDITED CODE. DO NOT USE THIS CODE IN PRODUCTION.",
    "version": 1
  }
}