{
  "contractName": "Web3Football",
  "abi": [
    {
      "inputs": [
        {
          "internalType": "uint64",
          "name": "subscriptionId",
          "type": "uint64"
        }
      ],
      "stateMutability": "nonpayable",
      "type": "constructor"
    },
    {
      "inputs": [
        {
          "internalType": "address",
          "name": "have",
          "type": "address"
        },
        {
          "internalType": "address",
          "name": "want",
          "type": "address"
        }
      ],
      "name": "OnlyCoordinatorCanFulfill",
      "type": "error"
    },
    {
      "anonymous": false,
      "inputs": [
        {
          "indexed": true,
          "internalType": "address",
          "name": "from",
          "type": "address"
        },
        {
          "indexed": true,
          "internalType": "address",
          "name": "to",
          "type": "address"
        }
      ],
      "name": "OwnershipTransferRequested",
      "type": "event"
    },
    {
      "anonymous": false,
      "inputs": [
        {
          "indexed": true,
          "internalType": "address",
          "name": "from",
          "type": "address"
        },
        {
          "indexed": true,
          "internalType": "address",
          "name": "to",
          "type": "address"
        }
      ],
      "name": "OwnershipTransferred",
      "type": "event"
    },
    {
      "anonymous": false,
      "inputs": [
        {
          "indexed": false,
          "internalType": "uint256",
          "name": "requestId",
          "type": "uint256"
        },
        {
          "indexed": false,
          "internalType": "uint256[]",
          "name": "randomWords",
          "type": "uint256[]"
        }
      ],
      "name": "RequestFulfilled",
      "type": "event"
    },
    {
      "anonymous": false,
      "inputs": [
        {
          "indexed": false,
          "internalType": "uint256",
          "name": "requestId",
          "type": "uint256"
        },
        {
          "indexed": false,
          "internalType": "uint32",
          "name": "numWords",
          "type": "uint32"
        }
      ],
      "name": "RequestSent",
      "type": "event"
    },
    {
      "anonymous": false,
      "inputs": [
        {
          "indexed": false,
          "internalType": "uint8",
          "name": "shoot_counter",
          "type": "uint8"
        },
        {
          "indexed": false,
          "internalType": "uint8",
          "name": "Team1_Lvl",
          "type": "uint8"
        },
        {
          "indexed": false,
          "internalType": "uint8",
          "name": "Team2_Lvl",
          "type": "uint8"
        }
      ],
      "name": "testi",
      "type": "event"
    },
    {
      "inputs": [],
      "name": "acceptOwnership",
      "outputs": [],
      "stateMutability": "nonpayable",
      "type": "function"
    },
    {
      "inputs": [],
      "name": "lastRequestId",
      "outputs": [
        {
          "internalType": "uint256",
          "name": "",
          "type": "uint256"
        }
      ],
      "stateMutability": "view",
      "type": "function",
      "constant": true
    },
    {
      "inputs": [],
      "name": "owner",
      "outputs": [
        {
          "internalType": "address",
          "name": "",
          "type": "address"
        }
      ],
      "stateMutability": "view",
      "type": "function",
      "constant": true
    },
    {
      "inputs": [
        {
          "internalType": "uint256",
          "name": "",
          "type": "uint256"
        }
      ],
      "name": "randomNumbers",
      "outputs": [
        {
          "internalType": "uint256",
          "name": "",
          "type": "uint256"
        }
      ],
      "stateMutability": "view",
      "type": "function",
      "constant": true
    },
    {
      "inputs": [
        {
          "internalType": "uint256",
          "name": "requestId",
          "type": "uint256"
        },
        {
          "internalType": "uint256[]",
          "name": "randomWords",
          "type": "uint256[]"
        }
      ],
      "name": "rawFulfillRandomWords",
      "outputs": [],
      "stateMutability": "nonpayable",
      "type": "function"
    },
    {
      "inputs": [
        {
          "internalType": "uint256",
          "name": "",
          "type": "uint256"
        }
      ],
      "name": "requestIds",
      "outputs": [
        {
          "internalType": "uint256",
          "name": "",
          "type": "uint256"
        }
      ],
      "stateMutability": "view",
      "type": "function",
      "constant": true
    },
    {
      "inputs": [],
      "name": "round_counter",
      "outputs": [
        {
          "internalType": "uint8",
          "name": "",
          "type": "uint8"
        }
      ],
      "stateMutability": "view",
      "type": "function",
      "constant": true
    },
    {
      "inputs": [
        {
          "internalType": "uint256",
          "name": "",
          "type": "uint256"
        }
      ],
      "name": "s_requests",
      "outputs": [
        {
          "internalType": "bool",
          "name": "fulfilled",
          "type": "bool"
        },
        {
          "internalType": "bool",
          "name": "exists",
          "type": "bool"
        },
        {
          "internalType": "bool",
          "name": "didWin",
          "type": "bool"
        }
      ],
      "stateMutability": "view",
      "type": "function",
      "constant": true
    },
    {
      "inputs": [],
      "name": "shoot_counter",
      "outputs": [
        {
          "internalType": "uint8",
          "name": "",
          "type": "uint8"
        }
      ],
      "stateMutability": "view",
      "type": "function",
      "constant": true
    },
    {
      "inputs": [],
      "name": "test",
      "outputs": [
        {
          "internalType": "uint256",
          "name": "",
          "type": "uint256"
        }
      ],
      "stateMutability": "view",
      "type": "function",
      "constant": true
    },
    {
      "inputs": [],
      "name": "tossChoice",
      "outputs": [
        {
          "internalType": "uint8",
          "name": "",
          "type": "uint8"
        }
      ],
      "stateMutability": "view",
      "type": "function",
      "constant": true
    },
    {
      "inputs": [
        {
          "internalType": "address",
          "name": "to",
          "type": "address"
        }
      ],
      "name": "transferOwnership",
      "outputs": [],
      "stateMutability": "nonpayable",
      "type": "function"
    },
    {
      "inputs": [],
      "name": "winOrLoss",
      "outputs": [
        {
          "internalType": "bool",
          "name": "",
          "type": "bool"
        }
      ],
      "stateMutability": "view",
      "type": "function",
      "constant": true
    },
    {
      "inputs": [
        {
          "internalType": "uint256",
          "name": "_test",
          "type": "uint256"
        }
      ],
      "name": "raghav",
      "outputs": [],
      "stateMutability": "nonpayable",
      "type": "function"
    },
    {
      "inputs": [],
      "name": "initialize_array",
      "outputs": [],
      "stateMutability": "nonpayable",
      "type": "function"
    },
    {
      "inputs": [
        {
          "internalType": "uint8",
          "name": "_tossChoice",
          "type": "uint8"
        }
      ],
      "name": "toss",
      "outputs": [],
      "stateMutability": "nonpayable",
      "type": "function"
    },
    {
      "inputs": [
        {
          "internalType": "uint8",
          "name": "Shoot_No",
          "type": "uint8"
        },
        {
          "internalType": "uint8",
          "name": "Team1_Lvl",
          "type": "uint8"
        },
        {
          "internalType": "uint8",
          "name": "Team2_Lvl",
          "type": "uint8"
        }
      ],
      "name": "interface_Selection",
      "outputs": [
        {
          "internalType": "uint8",
          "name": "",
          "type": "uint8"
        }
      ],
      "stateMutability": "nonpayable",
      "type": "function"
    },
    {
      "inputs": [
        {
          "internalType": "uint8",
          "name": "penalty_interface",
          "type": "uint8"
        },
        {
          "internalType": "uint8",
          "name": "user_choice",
          "type": "uint8"
        },
        {
          "internalType": "uint8",
          "name": "player_type",
          "type": "uint8"
        }
      ],
      "name": "penalty_shoot",
      "outputs": [],
      "stateMutability": "nonpayable",
      "type": "function"
    },
    {
      "inputs": [],
      "name": "round_result_check",
      "outputs": [
        {
          "internalType": "uint8",
          "name": "",
          "type": "uint8"
        }
      ],
      "stateMutability": "nonpayable",
      "type": "function"
    },
    {
      "inputs": [],
      "name": "update_shoot_counter",
      "outputs": [],
      "stateMutability": "nonpayable",
      "type": "function"
    },
    {
      "inputs": [],
      "name": "update_round_counter",
      "outputs": [],
      "stateMutability": "nonpayable",
      "type": "function"
    },
    {
      "inputs": [],
      "name": "reset",
      "outputs": [],
      "stateMutability": "nonpayable",
      "type": "function"
    },
    {
      "inputs": [],
      "name": "score_team1",
      "outputs": [
        {
          "internalType": "uint8",
          "name": "",
          "type": "uint8"
        }
      ],
      "stateMutability": "view",
      "type": "function",
      "constant": true
    },
    {
      "inputs": [],
      "name": "score_team2",
      "outputs": [
        {
          "internalType": "uint8",
          "name": "",
          "type": "uint8"
        }
      ],
      "stateMutability": "view",
      "type": "function",
      "constant": true
    },
    {
      "inputs": [],
      "name": "requestRandomWords",
      "outputs": [
        {
          "internalType": "uint256",
          "name": "requestId",
          "type": "uint256"
        }
      ],
      "stateMutability": "nonpayable",
      "type": "function"
    },
    {
      "inputs": [
        {
          "internalType": "uint256",
          "name": "_requestId",
          "type": "uint256"
        }
      ],
      "name": "getRequestStatus",
      "outputs": [
        {
          "internalType": "bool",
          "name": "fulfilled",
          "type": "bool"
        },
        {
          "internalType": "uint256[]",
          "name": "randomWords",
          "type": "uint256[]"
        },
        {
          "internalType": "bool",
          "name": "didWin",
          "type": "bool"
        }
      ],
      "stateMutability": "view",
      "type": "function",
      "constant": true
    }
  ],
  "bytecode": "0x60a06040525f600160146101000a81548160ff021916908360ff1602179055506002600160166101000a81548160ff02191690836002811115620000485762000047620003ff565b5b02179055507f474e34a077df58807dbe9c96d3c009b23b3c6d0cce433e59bbf5b34f823bc56c5f1b603155620f424060325f6101000a81548163ffffffff021916908363ffffffff1602179055506003603260046101000a81548161ffff021916908361ffff1602179055506014603260066101000a81548163ffffffff021916908363ffffffff160217905550348015620000e2575f80fd5b50604051620047b9380380620047b9833981810160405281019062000108919062000472565b33805f738103b0a8a00be2ddc778e6e7eaa21791cd3646258073ffffffffffffffffffffffffffffffffffffffff1660808173ffffffffffffffffffffffffffffffffffffffff1681525050505f73ffffffffffffffffffffffffffffffffffffffff168273ffffffffffffffffffffffffffffffffffffffff1603620001c6576040517f08c379a0000000000000000000000000000000000000000000000000000000008152600401620001bd9062000500565b60405180910390fd5b815f806101000a81548173ffffffffffffffffffffffffffffffffffffffff021916908373ffffffffffffffffffffffffffffffffffffffff1602179055505f73ffffffffffffffffffffffffffffffffffffffff168173ffffffffffffffffffffffffffffffffffffffff16146200024b576200024a81620002d260201b60201c565b5b505050738103b0a8a00be2ddc778e6e7eaa21791cd364625602e5f6101000a81548173ffffffffffffffffffffffffffffffffffffffff021916908373ffffffffffffffffffffffffffffffffffffffff16021790555080602e60146101000a81548167ffffffffffffffff021916908367ffffffffffffffff160217905550506200058e565b3373ffffffffffffffffffffffffffffffffffffffff168173ffffffffffffffffffffffffffffffffffffffff160362000343576040517f08c379a00000000000000000000000000000000000000000000000000000000081526004016200033a906200056e565b60405180910390fd5b8060015f6101000a81548173ffffffffffffffffffffffffffffffffffffffff021916908373ffffffffffffffffffffffffffffffffffffffff1602179055508073ffffffffffffffffffffffffffffffffffffffff165f8054906101000a900473ffffffffffffffffffffffffffffffffffffffff1673ffffffffffffffffffffffffffffffffffffffff167fed8889f560326eb138920d842192f0eb3dd22b4f139c87a2c57538e05bae127860405160405180910390a350565b7f4e487b71000000000000000000000000000000000000000000000000000000005f52602160045260245ffd5b5f80fd5b5f67ffffffffffffffff82169050919050565b6200044e8162000430565b811462000459575f80fd5b50565b5f815190506200046c8162000443565b92915050565b5f602082840312156200048a57620004896200042c565b5b5f62000499848285016200045c565b91505092915050565b5f82825260208201905092915050565b7f43616e6e6f7420736574206f776e657220746f207a65726f00000000000000005f82015250565b5f620004e8601883620004a2565b9150620004f582620004b2565b602082019050919050565b5f6020820190508181035f8301526200051981620004da565b9050919050565b7f43616e6e6f74207472616e7366657220746f2073656c660000000000000000005f82015250565b5f62000556601783620004a2565b9150620005638262000520565b602082019050919050565b5f6020820190508181035f830152620005878162000548565b9050919050565b60805161420b620005ae5f395f81816104c8015261051c015261420b5ff3fe608060405234801561000f575f80fd5b506004361061018c575f3560e01c8063b2f343e6116100dc578063e0c8628911610095578063f1b65bdb1161006f578063f1b65bdb14610416578063f2fde38b14610434578063f8a8fd6d14610450578063fc2a88c31461046e5761018c565b8063e0c86289146103aa578063e497064a146103c8578063ecae46b9146103e65761018c565b8063b2f343e61461030c578063d34c9d4614610328578063d826f88f14610346578063d8a4676f14610350578063dc91697e14610382578063dd4b23cd146103a05761018c565b806357de2cbb1161014957806379ba50971161012357806379ba5097146102825780638796ba8c1461028c5780638da5cb5b146102bc578063a168fa89146102da5761018c565b806357de2cbb1461022a5780635f59d29c1461024657806370d02e9b146102645761018c565b80630a1aa765146101905780631fe543e31461019a5780632ff285bc146101b65780633564ac9c146101d25780635257cd90146101f057806354e52aed14610220575b5f80fd5b61019861048c565b005b6101b460048036038101906101af919061376e565b6104c6565b005b6101d060048036038101906101cb91906137fe565b610586565b005b6101da611b34565b6040516101e7919061385d565b60405180910390f35b61020a60048036038101906102059190613876565b611b47565b60405161021791906138b0565b60405180910390f35b610228611b67565b005b610244600480360381019061023f9190613876565b611d2d565b005b61024e611d37565b60405161025b919061385d565b60405180910390f35b61026c611d4a565b60405161027991906138e3565b60405180910390f35b61028a611d5d565b005b6102a660048036038101906102a19190613876565b611eec565b6040516102b391906138b0565b60405180910390f35b6102c4611f0c565b6040516102d1919061393b565b60405180910390f35b6102f460048036038101906102ef9190613876565b611f33565b60405161030393929190613954565b60405180910390f35b61032660048036038101906103219190613989565b611f7d565b005b610330612014565b60405161033d919061385d565b60405180910390f35b61034e612051565b005b61036a60048036038101906103659190613876565b61206e565b60405161037993929190613a6b565b60405180910390f35b61038a6121b0565b604051610397919061385d565b60405180910390f35b6103a86121ed565b005b6103b2612227565b6040516103bf91906138b0565b60405180910390f35b6103d061248f565b6040516103dd919061385d565b60405180910390f35b61040060048036038101906103fb91906137fe565b612aba565b60405161040d919061385d565b60405180910390f35b61041e613227565b60405161042b919061385d565b60405180910390f35b61044e60048036038101906104499190613ad1565b613239565b005b61045861324d565b60405161046591906138b0565b60405180910390f35b610476613253565b60405161048391906138b0565b60405180910390f35b6001601581819054906101000a900460ff16809291906104ab90613b29565b91906101000a81548160ff021916908360ff16021790555050565b7f000000000000000000000000000000000000000000000000000000000000000073ffffffffffffffffffffffffffffffffffffffff163373ffffffffffffffffffffffffffffffffffffffff161461057857337f00000000000000000000000000000000000000000000000000000000000000006040517f1cf993f400000000000000000000000000000000000000000000000000000000815260040161056f929190613b51565b60405180910390fd5b6105828282613259565b5050565b60028081111561059957610598613b78565b5b600160169054906101000a900460ff1660028111156105bb576105ba613b78565b5b146105fb576040517f08c379a00000000000000000000000000000000000000000000000000000000081526004016105f290613bff565b60405180910390fd5b60018360ff16148015610611575060018160ff16145b15610983575f8260ff161015801561062d575060018260ff1611155b61066c576040517f08c379a000000000000000000000000000000000000000000000000000000000815260040161066390613c67565b60405180910390fd5b5f600280600160149054906101000a900460ff1660ff168154811061069457610693613c85565b5b905f5260205f2001546106a79190613cdf565b9050808360ff16036107ec5760016005600160149054906101000a900460ff1660ff16601481106106db576106da613c85565b5b015f0160056101000a81548160ff0219169083151502179055505f6005600160149054906101000a900460ff1660ff166014811061071c5761071b613c85565b5b015f0160066101000a81548160ff0219169083600181111561074157610740613b78565b5b02179055505f6005600160149054906101000a900460ff1660ff166014811061076d5761076c613c85565b5b015f0160076101000a81548160ff0219169083600181111561079257610791613b78565b5b0217905550600160149054906101000a900460ff166019600160159054906101000a900460ff1660ff16601481106107cd576107cc613c85565b5b015f015f6101000a81548160ff021916908360ff160217905550610981565b60016005600160149054906101000a900460ff1660ff166014811061081457610813613c85565b5b015f0160056101000a81548160ff02191690831515021790555060016005600160149054906101000a900460ff1660ff166014811061085657610855613c85565b5b015f0160066101000a81548160ff0219169083600181111561087b5761087a613b78565b5b021790555060016005600160149054906101000a900460ff1660ff16601481106108a8576108a7613c85565b5b015f0160076101000a81548160ff021916908360018111156108cd576108cc613b78565b5b0217905550600160149054906101000a900460ff166019600160159054906101000a900460ff1660ff166014811061090857610907613c85565b5b015f015f6101000a81548160ff021916908360ff16021790555060016019600160159054906101000a900460ff1660ff166014811061094a57610949613c85565b5b015f0160028282829054906101000a900460ff166109689190613d0f565b92506101000a81548160ff021916908360ff1602179055505b505b60018360ff16148015610999575060028160ff16145b15610d0b575f8260ff16101580156109b5575060018260ff1611155b6109f4576040517f08c379a00000000000000000000000000000000000000000000000000000000081526004016109eb90613c67565b60405180910390fd5b5f600280600160149054906101000a900460ff1660ff1681548110610a1c57610a1b613c85565b5b905f5260205f200154610a2f9190613cdf565b9050808360ff1603610b755760016005600160149054906101000a900460ff1660ff1660148110610a6357610a62613c85565b5b015f0160056101000a81548160ff0219169083151502179055505f6005600160149054906101000a900460ff1660ff1660148110610aa457610aa3613c85565b5b015f0160066101000a81548160ff02191690836001811115610ac957610ac8613b78565b5b021790555060016005600160149054906101000a900460ff1660ff1660148110610af657610af5613c85565b5b015f0160076101000a81548160ff02191690836001811115610b1b57610b1a613b78565b5b0217905550600160149054906101000a900460ff166019600160159054906101000a900460ff1660ff1660148110610b5657610b55613c85565b5b015f015f6101000a81548160ff021916908360ff160217905550610d09565b60016005600160149054906101000a900460ff1660ff1660148110610b9d57610b9c613c85565b5b015f0160056101000a81548160ff02191690831515021790555060016005600160149054906101000a900460ff1660ff1660148110610bdf57610bde613c85565b5b015f0160066101000a81548160ff02191690836001811115610c0457610c03613b78565b5b02179055505f6005600160149054906101000a900460ff1660ff1660148110610c3057610c2f613c85565b5b015f0160076101000a81548160ff02191690836001811115610c5557610c54613b78565b5b0217905550600160149054906101000a900460ff166019600160159054906101000a900460ff1660ff1660148110610c9057610c8f613c85565b5b015f015f6101000a81548160ff021916908360ff16021790555060016019600160159054906101000a900460ff1660ff1660148110610cd257610cd1613c85565b5b015f0160018282829054906101000a900460ff16610cf09190613d0f565b92506101000a81548160ff021916908360ff1602179055505b505b60028360ff16148015610d21575060018160ff16145b15611094575f8260ff1610158015610d3d575060038260ff1611155b610d7c576040517f08c379a0000000000000000000000000000000000000000000000000000000008152600401610d7390613c67565b60405180910390fd5b5f60046002600160149054906101000a900460ff1660ff1681548110610da557610da4613c85565b5b905f5260205f200154610db89190613cdf565b9050808360ff1603610efd5760016005600160149054906101000a900460ff1660ff1660148110610dec57610deb613c85565b5b015f0160056101000a81548160ff0219169083151502179055505f6005600160149054906101000a900460ff1660ff1660148110610e2d57610e2c613c85565b5b015f0160066101000a81548160ff02191690836001811115610e5257610e51613b78565b5b02179055505f6005600160149054906101000a900460ff1660ff1660148110610e7e57610e7d613c85565b5b015f0160076101000a81548160ff02191690836001811115610ea357610ea2613b78565b5b0217905550600160149054906101000a900460ff166019600160159054906101000a900460ff1660ff1660148110610ede57610edd613c85565b5b015f015f6101000a81548160ff021916908360ff160217905550611092565b60016005600160149054906101000a900460ff1660ff1660148110610f2557610f24613c85565b5b015f0160056101000a81548160ff02191690831515021790555060016005600160149054906101000a900460ff1660ff1660148110610f6757610f66613c85565b5b015f0160066101000a81548160ff02191690836001811115610f8c57610f8b613b78565b5b021790555060016005600160149054906101000a900460ff1660ff1660148110610fb957610fb8613c85565b5b015f0160076101000a81548160ff02191690836001811115610fde57610fdd613b78565b5b0217905550600160149054906101000a900460ff166019600160159054906101000a900460ff1660ff166014811061101957611018613c85565b5b015f015f6101000a81548160ff021916908360ff16021790555060016019600160159054906101000a900460ff1660ff166014811061105b5761105a613c85565b5b015f0160028282829054906101000a900460ff166110799190613d0f565b92506101000a81548160ff021916908360ff1602179055505b505b60028360ff161480156110aa575060028160ff16145b1561141d575f8260ff16101580156110c6575060038260ff1611155b611105576040517f08c379a00000000000000000000000000000000000000000000000000000000081526004016110fc90613c67565b60405180910390fd5b5f60046002600160149054906101000a900460ff1660ff168154811061112e5761112d613c85565b5b905f5260205f2001546111419190613cdf565b9050808360ff16036112875760016005600160149054906101000a900460ff1660ff166014811061117557611174613c85565b5b015f0160056101000a81548160ff0219169083151502179055505f6005600160149054906101000a900460ff1660ff16601481106111b6576111b5613c85565b5b015f0160066101000a81548160ff021916908360018111156111db576111da613b78565b5b021790555060016005600160149054906101000a900460ff1660ff166014811061120857611207613c85565b5b015f0160076101000a81548160ff0219169083600181111561122d5761122c613b78565b5b0217905550600160149054906101000a900460ff166019600160159054906101000a900460ff1660ff166014811061126857611267613c85565b5b015f015f6101000a81548160ff021916908360ff16021790555061141b565b60016005600160149054906101000a900460ff1660ff16601481106112af576112ae613c85565b5b015f0160056101000a81548160ff02191690831515021790555060016005600160149054906101000a900460ff1660ff16601481106112f1576112f0613c85565b5b015f0160066101000a81548160ff0219169083600181111561131657611315613b78565b5b02179055505f6005600160149054906101000a900460ff1660ff166014811061134257611341613c85565b5b015f0160076101000a81548160ff0219169083600181111561136757611366613b78565b5b0217905550600160149054906101000a900460ff166019600160159054906101000a900460ff1660ff16601481106113a2576113a1613c85565b5b015f015f6101000a81548160ff021916908360ff16021790555060016019600160159054906101000a900460ff1660ff16601481106113e4576113e3613c85565b5b015f0160018282829054906101000a900460ff166114029190613d0f565b92506101000a81548160ff021916908360ff1602179055505b505b60038360ff16148015611433575060018160ff16145b156117a6575f8260ff161015801561144f575060078260ff1611155b61148e576040517f08c379a000000000000000000000000000000000000000000000000000000000815260040161148590613c67565b60405180910390fd5b5f60086002600160149054906101000a900460ff1660ff16815481106114b7576114b6613c85565b5b905f5260205f2001546114ca9190613cdf565b9050808360ff160361160f5760016005600160149054906101000a900460ff1660ff16601481106114fe576114fd613c85565b5b015f0160056101000a81548160ff0219169083151502179055505f6005600160149054906101000a900460ff1660ff166014811061153f5761153e613c85565b5b015f0160066101000a81548160ff0219169083600181111561156457611563613b78565b5b02179055505f6005600160149054906101000a900460ff1660ff16601481106115905761158f613c85565b5b015f0160076101000a81548160ff021916908360018111156115b5576115b4613b78565b5b0217905550600160149054906101000a900460ff166019600160159054906101000a900460ff1660ff16601481106115f0576115ef613c85565b5b015f015f6101000a81548160ff021916908360ff1602179055506117a4565b60016005600160149054906101000a900460ff1660ff166014811061163757611636613c85565b5b015f0160056101000a81548160ff02191690831515021790555060016005600160149054906101000a900460ff1660ff166014811061167957611678613c85565b5b015f0160066101000a81548160ff0219169083600181111561169e5761169d613b78565b5b021790555060016005600160149054906101000a900460ff1660ff16601481106116cb576116ca613c85565b5b015f0160076101000a81548160ff021916908360018111156116f0576116ef613b78565b5b0217905550600160149054906101000a900460ff166019600160159054906101000a900460ff1660ff166014811061172b5761172a613c85565b5b015f015f6101000a81548160ff021916908360ff16021790555060016019600160159054906101000a900460ff1660ff166014811061176d5761176c613c85565b5b015f0160028282829054906101000a900460ff1661178b9190613d0f565b92506101000a81548160ff021916908360ff1602179055505b505b60038360ff161480156117bc575060028160ff16145b15611b2f575f8260ff16101580156117d8575060078260ff1611155b611817576040517f08c379a000000000000000000000000000000000000000000000000000000000815260040161180e90613c67565b60405180910390fd5b5f60086002600160149054906101000a900460ff1660ff16815481106118405761183f613c85565b5b905f5260205f2001546118539190613cdf565b9050808360ff16036119995760016005600160149054906101000a900460ff1660ff166014811061188757611886613c85565b5b015f0160056101000a81548160ff0219169083151502179055505f6005600160149054906101000a900460ff1660ff16601481106118c8576118c7613c85565b5b015f0160066101000a81548160ff021916908360018111156118ed576118ec613b78565b5b021790555060016005600160149054906101000a900460ff1660ff166014811061191a57611919613c85565b5b015f0160076101000a81548160ff0219169083600181111561193f5761193e613b78565b5b0217905550600160149054906101000a900460ff166019600160159054906101000a900460ff1660ff166014811061197a57611979613c85565b5b015f015f6101000a81548160ff021916908360ff160217905550611b2d565b60016005600160149054906101000a900460ff1660ff16601481106119c1576119c0613c85565b5b015f0160056101000a81548160ff02191690831515021790555060016005600160149054906101000a900460ff1660ff1660148110611a0357611a02613c85565b5b015f0160066101000a81548160ff02191690836001811115611a2857611a27613b78565b5b02179055505f6005600160149054906101000a900460ff1660ff1660148110611a5457611a53613c85565b5b015f0160076101000a81548160ff02191690836001811115611a7957611a78613b78565b5b0217905550600160149054906101000a900460ff166019600160159054906101000a900460ff1660ff1660148110611ab457611ab3613c85565b5b015f015f6101000a81548160ff021916908360ff16021790555060016019600160159054906101000a900460ff1660ff1660148110611af657611af5613c85565b5b015f0160018282829054906101000a900460ff16611b149190613d0f565b92506101000a81548160ff021916908360ff1602179055505b505b505050565b600160149054906101000a900460ff1681565b60028181548110611b56575f80fd5b905f5260205f20015f915090505481565b600460025f81548110611b7d57611b7c613c85565b5b905f5260205f20018190555060066002600181548110611ba057611b9f613c85565b5b905f5260205f200181905550600660028081548110611bc257611bc1613c85565b5b905f5260205f20018190555060046002600381548110611be557611be4613c85565b5b905f5260205f20018190555060016002600481548110611c0857611c07613c85565b5b905f5260205f20018190555060046002600581548110611c2b57611c2a613c85565b5b905f5260205f20018190555060036002600681548110611c4e57611c4d613c85565b5b905f5260205f200181905550600280600781548110611c7057611c6f613c85565b5b905f5260205f20018190555060076002600881548110611c9357611c92613c85565b5b905f5260205f20018190555060126002600981548110611cb657611cb5613c85565b5b905f5260205f200181905550602d6002600a81548110611cd957611cd8613c85565b5b905f5260205f200181905550600a6002600b81548110611cfc57611cfb613c85565b5b905f5260205f200181905550601b6002600c81548110611d1f57611d1e613c85565b5b905f5260205f200181905550565b8060038190555050565b600160159054906101000a900460ff1681565b600460019054906101000a900460ff1681565b60015f9054906101000a900473ffffffffffffffffffffffffffffffffffffffff1673ffffffffffffffffffffffffffffffffffffffff163373ffffffffffffffffffffffffffffffffffffffff1614611dec576040517f08c379a0000000000000000000000000000000000000000000000000000000008152600401611de390613d8d565b60405180910390fd5b5f805f9054906101000a900473ffffffffffffffffffffffffffffffffffffffff169050335f806101000a81548173ffffffffffffffffffffffffffffffffffffffff021916908373ffffffffffffffffffffffffffffffffffffffff1602179055505f60015f6101000a81548173ffffffffffffffffffffffffffffffffffffffff021916908373ffffffffffffffffffffffffffffffffffffffff1602179055503373ffffffffffffffffffffffffffffffffffffffff168173ffffffffffffffffffffffffffffffffffffffff167f8be0079c531659141344cd1fd0a4f28419497f9722a3daafe3b4186f6b6457e060405160405180910390a350565b602f8181548110611efb575f80fd5b905f5260205f20015f915090505481565b5f805f9054906101000a900473ffffffffffffffffffffffffffffffffffffffff16905090565b602d602052805f5260405f205f91509050805f015f9054906101000a900460ff1690805f0160019054906101000a900460ff1690806002015f9054906101000a900460ff16905083565b8060045f6101000a81548160ff021916908360ff16021790555060045f9054906101000a900460ff1660ff166002805f81548110611fbe57611fbd613c85565b5b905f5260205f200154611fd19190613cdf565b03611ff6576001600460016101000a81548160ff021916908315150217905550612011565b5f600460016101000a81548160ff0219169083151502179055505b50565b5f6019600160159054906101000a900460ff1660ff166014811061203b5761203a613c85565b5b015f0160019054906101000a900460ff16905090565b5f600160146101000a81548160ff021916908360ff160217905550565b5f60605f602d5f8581526020019081526020015f205f0160019054906101000a900460ff166120d2576040517f08c379a00000000000000000000000000000000000000000000000000000000081526004016120c990613df5565b60405180910390fd5b5f602d5f8681526020019081526020015f206040518060800160405290815f82015f9054906101000a900460ff161515151581526020015f820160019054906101000a900460ff161515151581526020016001820180548060200260200160405190810160405280929190818152602001828054801561216f57602002820191905f5260205f20905b81548152602001906001019080831161215b575b50505050508152602001600282015f9054906101000a900460ff1615151515815250509050805f015181604001518260600151935093509350509193909250565b5f6019600160159054906101000a900460ff1660ff16601481106121d7576121d6613c85565b5b015f0160029054906101000a900460ff16905090565b6001601481819054906101000a900460ff168092919061220c90613b29565b91906101000a81548160ff021916908360ff16021790555050565b5f602e5f9054906101000a900473ffffffffffffffffffffffffffffffffffffffff1673ffffffffffffffffffffffffffffffffffffffff16635d3b1d30603154602e60149054906101000a900467ffffffffffffffff16603260049054906101000a900461ffff1660325f9054906101000a900463ffffffff16603260069054906101000a900463ffffffff166040518663ffffffff1660e01b81526004016122d5959493929190613e87565b6020604051808303815f875af11580156122f1573d5f803e3d5ffd5b505050506040513d601f19601f820116820180604052508101906123159190613eec565b905060405180608001604052805f151581526020016001151581526020015f67ffffffffffffffff81111561234d5761234c613632565b5b60405190808252806020026020018201604052801561237b5781602001602082028036833780820191505090505b50815260200160011515815250602d5f8381526020019081526020015f205f820151815f015f6101000a81548160ff0219169083151502179055506020820151815f0160016101000a81548160ff02191690831515021790555060408201518160010190805190602001906123f1929190613574565b506060820151816002015f6101000a81548160ff021916908315150217905550905050602f81908060018154018082558091505060019003905f5260205f20015f9091909190915055806030819055507fcc58b13ad3eab50626c6a6300b1d139cd6ebb1688a7cced9461c2f7e762665ee81603260069054906101000a900463ffffffff16604051612484929190613f17565b60405180910390a190565b5f6005600160149054906101000a900460ff1660ff1610156124e6576040517f08c379a00000000000000000000000000000000000000000000000000000000081526004016124dd90613f88565b60405180910390fd5b600a600160149054906101000a900460ff1660ff161015612856575f6019600160159054906101000a900460ff1660ff166014811061252857612527613c85565b5b015f0160019054906101000a900460ff1690505f6019600160159054906101000a900460ff1660ff166014811061256257612561613c85565b5b015f0160029054906101000a900460ff1690505f8060016002600160149054906101000a900460ff166125959190613fa6565b60ff16036126225783600260018060149054906101000a900460ff166125bb9190613d0f565b6125c59190613fd6565b60056125d19190614006565b6125db9190613d0f565b915082600260018060149054906101000a900460ff166125fb9190613d0f565b6126059190613fd6565b60056126119190614006565b61261b9190613d0f565b9050612699565b8360016002600160149054906101000a900460ff166126419190613fd6565b600561264d9190614006565b6126579190614006565b6126619190613d0f565b9150826002600160149054906101000a900460ff166126809190613fd6565b600561268c9190614006565b6126969190613d0f565b90505b8060ff168460ff1611156127715760016019600160159054906101000a900460ff1660ff16601481106126cf576126ce613c85565b5b015f0160036101000a81548160ff0219169083151502179055505f6019600160159054906101000a900460ff1660ff16601481106127105761270f613c85565b5b015f0160046101000a81548160ff0219169083600281111561273557612734613b78565b5b02179055505f600160166101000a81548160ff0219169083600281111561275f5761275e613b78565b5b02179055506001945050505050612ab7565b8160ff168360ff16111561284a5760016019600160159054906101000a900460ff1660ff16601481106127a7576127a6613c85565b5b015f0160036101000a81548160ff02191690831515021790555060016019600160159054906101000a900460ff1660ff16601481106127e9576127e8613c85565b5b015f0160046101000a81548160ff0219169083600281111561280e5761280d613b78565b5b021790555060018060166101000a81548160ff0219169083600281111561283857612837613b78565b5b02179055506002945050505050612ab7565b5f945050505050612ab7565b5f6019600160159054906101000a900460ff1660ff166014811061287d5761287c613c85565b5b015f0160019054906101000a900460ff1690505f6019600160159054906101000a900460ff1660ff16601481106128b7576128b6613c85565b5b015f0160029054906101000a900460ff1690505f600260018060149054906101000a900460ff166128e89190613d0f565b6128f29190613fa6565b60ff1603612ab1578060ff168260ff1611156129d05760016019600160159054906101000a900460ff1660ff16601481106129305761292f613c85565b5b015f0160036101000a81548160ff0219169083151502179055505f6019600160159054906101000a900460ff1660ff166014811061297157612970613c85565b5b015f0160046101000a81548160ff0219169083600281111561299657612995613b78565b5b02179055505f600160166101000a81548160ff021916908360028111156129c0576129bf613b78565b5b0217905550600192505050612ab7565b8060ff168260ff161015612aa75760016019600160159054906101000a900460ff1660ff1660148110612a0657612a05613c85565b5b015f0160036101000a81548160ff02191690831515021790555060016019600160159054906101000a900460ff1660ff1660148110612a4857612a47613c85565b5b015f0160046101000a81548160ff02191690836002811115612a6d57612a6c613b78565b5b021790555060018060166101000a81548160ff02191690836002811115612a9757612a96613b78565b5b0217905550600292505050612ab7565b5f92505050612ab7565b5f925050505b90565b5f8360ff16600160149054906101000a900460ff1660ff1614612b12576040517f08c379a0000000000000000000000000000000000000000000000000000000008152600401612b0990614084565b60405180910390fd5b836005600160149054906101000a900460ff1660ff1660148110612b3957612b38613c85565b5b015f015f6101000a81548160ff021916908360ff160217905550826005600160149054906101000a900460ff1660ff1660148110612b7a57612b79613c85565b5b015f0160016101000a81548160ff021916908360ff160217905550816005600160149054906101000a900460ff1660ff1660148110612bbc57612bbb613c85565b5b015f0160026101000a81548160ff021916908360ff1602179055507ffba8819b2953a32d000161333229434169fafe95a4747637212b14655368d818848484604051612c0a939291906140a2565b60405180910390a160018360ff16148015612c28575060018260ff16145b15612cb75760016005600160149054906101000a900460ff1660ff1660148110612c5557612c54613c85565b5b015f0160036101000a81548160ff02191690831515021790555060026005600160149054906101000a900460ff1660ff1660148110612c9757612c96613c85565b5b015f0160046101000a81548160ff021916908360ff1602179055506131e6565b60018360ff16148015612ccd575060028260ff16145b15612d5c5760016005600160149054906101000a900460ff1660ff1660148110612cfa57612cf9613c85565b5b015f0160036101000a81548160ff02191690831515021790555060016005600160149054906101000a900460ff1660ff1660148110612d3c57612d3b613c85565b5b015f0160046101000a81548160ff021916908360ff1602179055506131e5565b60018360ff16148015612d72575060038260ff16145b15612e015760016005600160149054906101000a900460ff1660ff1660148110612d9f57612d9e613c85565b5b015f0160036101000a81548160ff02191690831515021790555060016005600160149054906101000a900460ff1660ff1660148110612de157612de0613c85565b5b015f0160046101000a81548160ff021916908360ff1602179055506131e4565b60028360ff16148015612e17575060018260ff16145b15612ea65760016005600160149054906101000a900460ff1660ff1660148110612e4457612e43613c85565b5b015f0160036101000a81548160ff02191690831515021790555060036005600160149054906101000a900460ff1660ff1660148110612e8657612e85613c85565b5b015f0160046101000a81548160ff021916908360ff1602179055506131e3565b60028360ff16148015612ebc575060028260ff16145b15612f4b5760016005600160149054906101000a900460ff1660ff1660148110612ee957612ee8613c85565b5b015f0160036101000a81548160ff02191690831515021790555060026005600160149054906101000a900460ff1660ff1660148110612f2b57612f2a613c85565b5b015f0160046101000a81548160ff021916908360ff1602179055506131e2565b60028360ff16148015612f61575060038260ff16145b15612ff05760016005600160149054906101000a900460ff1660ff1660148110612f8e57612f8d613c85565b5b015f0160036101000a81548160ff02191690831515021790555060016005600160149054906101000a900460ff1660ff1660148110612fd057612fcf613c85565b5b015f0160046101000a81548160ff021916908360ff1602179055506131e1565b60038360ff16148015613006575060018260ff16145b156130995760016005600160149054906101000a900460ff1660ff166014811061303357613032613c85565b5b015f0160036101000a81548160ff02191690831515021790555060036005600160149054906101000a900460ff1660ff166014811061307557613074613c85565b5b015f0160046101000a81548160ff021916908360ff16021790555060039050613220565b60038360ff161480156130af575060028260ff16145b1561313e5760016005600160149054906101000a900460ff1660ff16601481106130dc576130db613c85565b5b015f0160036101000a81548160ff02191690831515021790555060036005600160149054906101000a900460ff1660ff166014811061311e5761311d613c85565b5b015f0160046101000a81548160ff021916908360ff1602179055506131e0565b60038360ff16148015613154575060038260ff16145b156131df5760016005600160149054906101000a900460ff1660ff166014811061318157613180613c85565b5b015f0160036101000a81548160ff02191690831515021790555060026005600160149054906101000a900460ff1660ff16601481106131c3576131c2613c85565b5b015f0160046101000a81548160ff021916908360ff1602179055505b5b5b5b5b5b5b5b6005600160149054906101000a900460ff1660ff166014811061320c5761320b613c85565b5b015f0160049054906101000a900460ff1690505b9392505050565b60045f9054906101000a900460ff1681565b6132416133bb565b61324a8161344a565b50565b60035481565b60305481565b602d5f8381526020019081526020015f205f0160019054906101000a900460ff166132b9576040517f08c379a00000000000000000000000000000000000000000000000000000000081526004016132b090613df5565b60405180910390fd5b6001602d5f8481526020019081526020015f205f015f6101000a81548160ff02191690831515021790555080602d5f8481526020019081526020015f20600101908051906020019061330c929190613574565b505f6002825f8151811061332357613322613c85565b5b60200260200101516133359190613cdf565b03613367576001602d5f8481526020019081526020015f206002015f6101000a81548160ff0219169083151502179055505b806002908051906020019061337d929190613574565b507ffe2e2d779dba245964d4e3ef9b994be63856fd568bf7d3ca9e224755cb1bd54d82826040516133af9291906140d7565b60405180910390a15050565b5f8054906101000a900473ffffffffffffffffffffffffffffffffffffffff1673ffffffffffffffffffffffffffffffffffffffff163373ffffffffffffffffffffffffffffffffffffffff1614613448576040517f08c379a000000000000000000000000000000000000000000000000000000000815260040161343f9061414f565b60405180910390fd5b565b3373ffffffffffffffffffffffffffffffffffffffff168173ffffffffffffffffffffffffffffffffffffffff16036134b8576040517f08c379a00000000000000000000000000000000000000000000000000000000081526004016134af906141b7565b60405180910390fd5b8060015f6101000a81548173ffffffffffffffffffffffffffffffffffffffff021916908373ffffffffffffffffffffffffffffffffffffffff1602179055508073ffffffffffffffffffffffffffffffffffffffff165f8054906101000a900473ffffffffffffffffffffffffffffffffffffffff1673ffffffffffffffffffffffffffffffffffffffff167fed8889f560326eb138920d842192f0eb3dd22b4f139c87a2c57538e05bae127860405160405180910390a350565b828054828255905f5260205f209081019282156135ae579160200282015b828111156135ad578251825591602001919060010190613592565b5b5090506135bb91906135bf565b5090565b5b808211156135d6575f815f9055506001016135c0565b5090565b5f604051905090565b5f80fd5b5f80fd5b5f819050919050565b6135fd816135eb565b8114613607575f80fd5b50565b5f81359050613618816135f4565b92915050565b5f80fd5b5f601f19601f8301169050919050565b7f4e487b71000000000000000000000000000000000000000000000000000000005f52604160045260245ffd5b61366882613622565b810181811067ffffffffffffffff8211171561368757613686613632565b5b80604052505050565b5f6136996135da565b90506136a5828261365f565b919050565b5f67ffffffffffffffff8211156136c4576136c3613632565b5b602082029050602081019050919050565b5f80fd5b5f6136eb6136e6846136aa565b613690565b9050808382526020820190506020840283018581111561370e5761370d6136d5565b5b835b818110156137375780613723888261360a565b845260208401935050602081019050613710565b5050509392505050565b5f82601f8301126137555761375461361e565b5b81356137658482602086016136d9565b91505092915050565b5f8060408385031215613784576137836135e3565b5b5f6137918582860161360a565b925050602083013567ffffffffffffffff8111156137b2576137b16135e7565b5b6137be85828601613741565b9150509250929050565b5f60ff82169050919050565b6137dd816137c8565b81146137e7575f80fd5b50565b5f813590506137f8816137d4565b92915050565b5f805f60608486031215613815576138146135e3565b5b5f613822868287016137ea565b9350506020613833868287016137ea565b9250506040613844868287016137ea565b9150509250925092565b613857816137c8565b82525050565b5f6020820190506138705f83018461384e565b92915050565b5f6020828403121561388b5761388a6135e3565b5b5f6138988482850161360a565b91505092915050565b6138aa816135eb565b82525050565b5f6020820190506138c35f8301846138a1565b92915050565b5f8115159050919050565b6138dd816138c9565b82525050565b5f6020820190506138f65f8301846138d4565b92915050565b5f73ffffffffffffffffffffffffffffffffffffffff82169050919050565b5f613925826138fc565b9050919050565b6139358161391b565b82525050565b5f60208201905061394e5f83018461392c565b92915050565b5f6060820190506139675f8301866138d4565b61397460208301856138d4565b61398160408301846138d4565b949350505050565b5f6020828403121561399e5761399d6135e3565b5b5f6139ab848285016137ea565b91505092915050565b5f81519050919050565b5f82825260208201905092915050565b5f819050602082019050919050565b6139e6816135eb565b82525050565b5f6139f783836139dd565b60208301905092915050565b5f602082019050919050565b5f613a19826139b4565b613a2381856139be565b9350613a2e836139ce565b805f5b83811015613a5e578151613a4588826139ec565b9750613a5083613a03565b925050600181019050613a31565b5085935050505092915050565b5f606082019050613a7e5f8301866138d4565b8181036020830152613a908185613a0f565b9050613a9f60408301846138d4565b949350505050565b613ab08161391b565b8114613aba575f80fd5b50565b5f81359050613acb81613aa7565b92915050565b5f60208284031215613ae657613ae56135e3565b5b5f613af384828501613abd565b91505092915050565b7f4e487b71000000000000000000000000000000000000000000000000000000005f52601160045260245ffd5b5f613b33826137c8565b915060ff8203613b4657613b45613afc565b5b600182019050919050565b5f604082019050613b645f83018561392c565b613b71602083018461392c565b9392505050565b7f4e487b71000000000000000000000000000000000000000000000000000000005f52602160045260245ffd5b5f82825260208201905092915050565b7f526f756e6420697320636f6d706c6574656400000000000000000000000000005f82015250565b5f613be9601283613ba5565b9150613bf482613bb5565b602082019050919050565b5f6020820190508181035f830152613c1681613bdd565b9050919050565b7f496e76616c69642063686f6963652066726f6d20706c617965720000000000005f82015250565b5f613c51601a83613ba5565b9150613c5c82613c1d565b602082019050919050565b5f6020820190508181035f830152613c7e81613c45565b9050919050565b7f4e487b71000000000000000000000000000000000000000000000000000000005f52603260045260245ffd5b7f4e487b71000000000000000000000000000000000000000000000000000000005f52601260045260245ffd5b5f613ce9826135eb565b9150613cf4836135eb565b925082613d0457613d03613cb2565b5b828206905092915050565b5f613d19826137c8565b9150613d24836137c8565b9250828201905060ff811115613d3d57613d3c613afc565b5b92915050565b7f4d7573742062652070726f706f736564206f776e6572000000000000000000005f82015250565b5f613d77601683613ba5565b9150613d8282613d43565b602082019050919050565b5f6020820190508181035f830152613da481613d6b565b9050919050565b7f72657175657374206e6f7420666f756e640000000000000000000000000000005f82015250565b5f613ddf601183613ba5565b9150613dea82613dab565b602082019050919050565b5f6020820190508181035f830152613e0c81613dd3565b9050919050565b5f819050919050565b613e2581613e13565b82525050565b5f67ffffffffffffffff82169050919050565b613e4781613e2b565b82525050565b5f61ffff82169050919050565b613e6381613e4d565b82525050565b5f63ffffffff82169050919050565b613e8181613e69565b82525050565b5f60a082019050613e9a5f830188613e1c565b613ea76020830187613e3e565b613eb46040830186613e5a565b613ec16060830185613e78565b613ece6080830184613e78565b9695505050505050565b5f81519050613ee6816135f4565b92915050565b5f60208284031215613f0157613f006135e3565b5b5f613f0e84828501613ed8565b91505092915050565b5f604082019050613f2a5f8301856138a1565b613f376020830184613e78565b9392505050565b7f4d617463682063616e207374696c6c20676f206f6e00000000000000000000005f82015250565b5f613f72601583613ba5565b9150613f7d82613f3e565b602082019050919050565b5f6020820190508181035f830152613f9f81613f66565b9050919050565b5f613fb0826137c8565b9150613fbb836137c8565b925082613fcb57613fca613cb2565b5b828206905092915050565b5f613fe0826137c8565b9150613feb836137c8565b925082613ffb57613ffa613cb2565b5b828204905092915050565b5f614010826137c8565b915061401b836137c8565b9250828203905060ff81111561403457614033613afc565b5b92915050565b7f53686f6f7420636f756e74206973206e6f7420696e2073796e630000000000005f82015250565b5f61406e601a83613ba5565b91506140798261403a565b602082019050919050565b5f6020820190508181035f83015261409b81614062565b9050919050565b5f6060820190506140b55f83018661384e565b6140c2602083018561384e565b6140cf604083018461384e565b949350505050565b5f6040820190506140ea5f8301856138a1565b81810360208301526140fc8184613a0f565b90509392505050565b7f4f6e6c792063616c6c61626c65206279206f776e6572000000000000000000005f82015250565b5f614139601683613ba5565b915061414482614105565b602082019050919050565b5f6020820190508181035f8301526141668161412d565b9050919050565b7f43616e6e6f74207472616e7366657220746f2073656c660000000000000000005f82015250565b5f6141a1601783613ba5565b91506141ac8261416d565b602082019050919050565b5f6020820190508181035f8301526141ce81614195565b905091905056fea2646970667358221220739f1d14b24b99b9e0bd669bda25249fa217a5f2ec9a3744527f9afe75a4baa964736f6c63430008140033",
  "immutableReferences": {
    "192": [
      {
        "length": 32,
        "start": 1224
      },
      {
        "length": 32,
        "start": 1308
      }
    ]
  },
  "source": "// SPDX-License-Identifier: MIT\r\n// An example of a consumer contract that relies on a subscription for funding.\r\npragma solidity ^0.8.7;\r\n\r\nimport \"@chainlink/contracts/src/v0.8/interfaces/VRFCoordinatorV2Interface.sol\";\r\nimport \"@chainlink/contracts/src/v0.8/VRFConsumerBaseV2.sol\";\r\nimport \"@chainlink/contracts/src/v0.8/ConfirmedOwner.sol\";\r\n\r\n/**\r\n * Request testnet LINK and ETH here: https://faucets.chain.link/\r\n * Find information on LINK Token Contracts and get the latest ETH and LINK faucets here: https://docs.chain.link/docs/link-token-contracts/\r\n */\r\n\r\n/**\r\n * THIS IS AN EXAMPLE CONTRACT THAT USES HARDCODED VALUES FOR CLARITY.\r\n * THIS IS AN EXAMPLE CONTRACT THAT USES UN-AUDITED CODE.\r\n * DO NOT USE THIS CODE IN PRODUCTION.\r\n */\r\n\r\ncontract Web3Football is VRFConsumerBaseV2, ConfirmedOwner {\r\n    uint8 public shoot_counter = 0;\r\n    uint8 public round_counter;\r\n    round_winner status = round_winner.MATCH_GOING_ON;\r\n    uint256[] public randomNumbers;\r\n\r\n    uint256 public test;\r\n\r\n    function raghav(uint256 _test) public {\r\n        test = _test;\r\n    }\r\n\r\n    function initialize_array() public {\r\n        randomNumbers[0] = 4;\r\n        randomNumbers[1] = 6;\r\n        randomNumbers[2] = 6;\r\n        randomNumbers[3] = 4;\r\n        randomNumbers[4] = 1;\r\n        randomNumbers[5] = 4;\r\n        randomNumbers[6] = 3;\r\n        randomNumbers[7] = 2;\r\n        randomNumbers[8] = 7;\r\n        randomNumbers[9] = 18;\r\n        randomNumbers[10] = 45;\r\n        randomNumbers[11] = 10;\r\n        randomNumbers[12] = 27;\r\n    }\r\n\r\n    //stores the random number in the array\r\n\r\n    //toss\r\n\r\n    uint8 public tossChoice;\r\n    bool public winOrLoss;\r\n\r\n    function toss(uint8 _tossChoice) public {\r\n        tossChoice = _tossChoice;\r\n        if (randomNumbers[0] % 2 == tossChoice) {\r\n            winOrLoss = true;\r\n        } else {\r\n            winOrLoss = false;\r\n        }\r\n    }\r\n\r\n    //structure that stores the details\r\n    struct game_starting_details {\r\n        uint8 player1_level;\r\n        uint8 player2_level;\r\n        string wonToss;\r\n    }\r\n\r\n    enum shoot_winner {\r\n        GOALKEEPER,\r\n        STRIKER\r\n    }\r\n\r\n    enum round_winner {\r\n        TEAM1,\r\n        TEAM2,\r\n        MATCH_GOING_ON\r\n    }\r\n\r\n    enum team_shoot_winner {\r\n        team1,\r\n        team2\r\n    }\r\n\r\n    //structure that has shoot details\r\n    struct shoot_detail {\r\n        uint8 shoot_no;\r\n        uint8 team1_lvl; //player is team 1\r\n        uint8 team2_lvl; //computer is team 2\r\n        bool select_interface; //checks if the interface has been selected or not\r\n        uint8 selected_interface; // stores the interface a =1, b = 2, c =3\r\n        bool shoot_completed; //checks if the shoot is completed or not\r\n        shoot_winner Winner_playerType;\r\n        team_shoot_winner ShootWinner_Team;\r\n    }\r\n\r\n    //structure that has round details\r\n    struct round_detail {\r\n        uint8 no_of_shoots;\r\n        uint8 team1_score;\r\n        uint8 team2_score;\r\n        bool round_complete;\r\n        round_winner Round_Winner;\r\n    }\r\n\r\n    shoot_detail[20] Shoot_Detail;\r\n    round_detail[20] Round_Detail;\r\n\r\n    //function that selects which interface to play on\r\n    //return?\r\n    event testi(uint8 shoot_counter, uint8 Team1_Lvl, uint8 Team2_Lvl); //team 1 lvl is goalkeeper level and team 2 levelis striker level\r\n\r\n    function interface_Selection(\r\n        uint8 Shoot_No,\r\n        uint8 Team1_Lvl,\r\n        uint8 Team2_Lvl\r\n    ) external returns (uint8) {\r\n        require(shoot_counter == Shoot_No, \"Shoot count is not in sync\");\r\n        Shoot_Detail[shoot_counter].shoot_no = Shoot_No;\r\n        Shoot_Detail[shoot_counter].team1_lvl = Team1_Lvl;\r\n        Shoot_Detail[shoot_counter].team2_lvl = Team2_Lvl;\r\n\r\n        emit testi(Shoot_No, Team1_Lvl, Team2_Lvl);\r\n\r\n        // // shoot_detail.shoot_no = 2;\r\n\r\n        // //There will be 9 differnt cases if there are three different levels of player cards\r\n\r\n        if (Team1_Lvl == 1 && Team2_Lvl == 1) {\r\n            Shoot_Detail[shoot_counter].select_interface = true;\r\n            Shoot_Detail[shoot_counter].selected_interface = 2;\r\n        } else if (Team1_Lvl == 1 && Team2_Lvl == 2) {\r\n            Shoot_Detail[shoot_counter].select_interface = true;\r\n            Shoot_Detail[shoot_counter].selected_interface = 1;\r\n        } else if (Team1_Lvl == 1 && Team2_Lvl == 3) {\r\n            Shoot_Detail[shoot_counter].select_interface = true;\r\n            Shoot_Detail[shoot_counter].selected_interface = 1;\r\n        } else if (Team1_Lvl == 2 && Team2_Lvl == 1) {\r\n            Shoot_Detail[shoot_counter].select_interface = true;\r\n            Shoot_Detail[shoot_counter].selected_interface = 3;\r\n        } else if (Team1_Lvl == 2 && Team2_Lvl == 2) {\r\n            Shoot_Detail[shoot_counter].select_interface = true;\r\n            Shoot_Detail[shoot_counter].selected_interface = 2;\r\n        } else if (Team1_Lvl == 2 && Team2_Lvl == 3) {\r\n            Shoot_Detail[shoot_counter].select_interface = true;\r\n            Shoot_Detail[shoot_counter].selected_interface = 1;\r\n        } else if (Team1_Lvl == 3 && Team2_Lvl == 1) {\r\n            Shoot_Detail[shoot_counter].select_interface = true;\r\n            Shoot_Detail[shoot_counter].selected_interface = 3;\r\n            return 3;\r\n        } else if (Team1_Lvl == 3 && Team2_Lvl == 2) {\r\n            Shoot_Detail[shoot_counter].select_interface = true;\r\n            Shoot_Detail[shoot_counter].selected_interface = 3;\r\n        } else if (Team1_Lvl == 3 && Team2_Lvl == 3) {\r\n            Shoot_Detail[shoot_counter].select_interface = true;\r\n            Shoot_Detail[shoot_counter].selected_interface = 2;\r\n        }\r\n\r\n        return Shoot_Detail[shoot_counter].selected_interface;\r\n    }\r\n\r\n    //this function will process the random number and check the result\r\n    function penalty_shoot(\r\n        uint8 penalty_interface,\r\n        uint8 user_choice,\r\n        uint8 player_type // provide 1 for goalkeeper and 2 for striker\r\n    ) external {\r\n        require(status == round_winner.MATCH_GOING_ON, \"Round is completed\");\r\n\r\n        //logic for interface 1\r\n        if (penalty_interface == 1 && player_type == 1) {\r\n            require(\r\n                user_choice >= 0 && user_choice <= 1,\r\n                \"Invalid choice from player\"\r\n            );\r\n            uint256 computer_choice = randomNumbers[shoot_counter] % 2;\r\n\r\n            if (user_choice == computer_choice) {\r\n                Shoot_Detail[shoot_counter].shoot_completed = true;\r\n                Shoot_Detail[shoot_counter].Winner_playerType = shoot_winner\r\n                    .GOALKEEPER;\r\n                Shoot_Detail[shoot_counter].ShootWinner_Team = team_shoot_winner\r\n                    .team1;\r\n\r\n                Round_Detail[round_counter].no_of_shoots = shoot_counter;\r\n                // Round_Detail[round_counter].team1_score += 1;\r\n            } else {\r\n                Shoot_Detail[shoot_counter].shoot_completed = true;\r\n                Shoot_Detail[shoot_counter].Winner_playerType = shoot_winner\r\n                    .STRIKER;\r\n                Shoot_Detail[shoot_counter].ShootWinner_Team = team_shoot_winner\r\n                    .team2;\r\n\r\n                Round_Detail[round_counter].no_of_shoots = shoot_counter;\r\n                Round_Detail[round_counter].team2_score += 1;\r\n            }\r\n        }\r\n\r\n        if (penalty_interface == 1 && player_type == 2) {\r\n            require(\r\n                user_choice >= 0 && user_choice <= 1,\r\n                \"Invalid choice from player\"\r\n            );\r\n            uint256 computer_choice = randomNumbers[shoot_counter] % 2;\r\n            if (user_choice == computer_choice) {\r\n                Shoot_Detail[shoot_counter].shoot_completed = true;\r\n                Shoot_Detail[shoot_counter].Winner_playerType = shoot_winner\r\n                    .GOALKEEPER;\r\n                Shoot_Detail[shoot_counter].ShootWinner_Team = team_shoot_winner\r\n                    .team2;\r\n\r\n                Round_Detail[round_counter].no_of_shoots = shoot_counter;\r\n                // Round_Detail[round_counter].team2_score += 1;\r\n            } else {\r\n                Shoot_Detail[shoot_counter].shoot_completed = true;\r\n                Shoot_Detail[shoot_counter].Winner_playerType = shoot_winner\r\n                    .STRIKER;\r\n                Shoot_Detail[shoot_counter].ShootWinner_Team = team_shoot_winner\r\n                    .team1;\r\n\r\n                Round_Detail[round_counter].no_of_shoots = shoot_counter;\r\n                Round_Detail[round_counter].team1_score += 1;\r\n            }\r\n        }\r\n\r\n        //logic for interface 2\r\n        //add 1 to user choice as indexing starts from 0\r\n        if (penalty_interface == 2 && player_type == 1) {\r\n            require(\r\n                user_choice >= 0 && user_choice <= 3,\r\n                \"Invalid choice from player\"\r\n            );\r\n            uint256 computer_choice = randomNumbers[shoot_counter] % 4;\r\n            if (user_choice == computer_choice) {\r\n                Shoot_Detail[shoot_counter].shoot_completed = true;\r\n                Shoot_Detail[shoot_counter].Winner_playerType = shoot_winner\r\n                    .GOALKEEPER;\r\n                Shoot_Detail[shoot_counter].ShootWinner_Team = team_shoot_winner\r\n                    .team1;\r\n\r\n                Round_Detail[round_counter].no_of_shoots = shoot_counter;\r\n                // Round_Detail[round_counter].team1_score += 1;\r\n            } else {\r\n                Shoot_Detail[shoot_counter].shoot_completed = true;\r\n                Shoot_Detail[shoot_counter].Winner_playerType = shoot_winner\r\n                    .STRIKER;\r\n                Shoot_Detail[shoot_counter].ShootWinner_Team = team_shoot_winner\r\n                    .team2;\r\n\r\n                Round_Detail[round_counter].no_of_shoots = shoot_counter;\r\n                Round_Detail[round_counter].team2_score += 1;\r\n            }\r\n        }\r\n\r\n        if (penalty_interface == 2 && player_type == 2) {\r\n            require(\r\n                user_choice >= 0 && user_choice <= 3,\r\n                \"Invalid choice from player\"\r\n            );\r\n            uint256 computer_choice = randomNumbers[shoot_counter] % 4;\r\n            if (user_choice == computer_choice) {\r\n                Shoot_Detail[shoot_counter].shoot_completed = true;\r\n                Shoot_Detail[shoot_counter].Winner_playerType = shoot_winner\r\n                    .GOALKEEPER;\r\n                Shoot_Detail[shoot_counter].ShootWinner_Team = team_shoot_winner\r\n                    .team2;\r\n\r\n                Round_Detail[round_counter].no_of_shoots = shoot_counter;\r\n                // Round_Detail[round_counter].team2_score += 1;\r\n            } else {\r\n                Shoot_Detail[shoot_counter].shoot_completed = true;\r\n                Shoot_Detail[shoot_counter].Winner_playerType = shoot_winner\r\n                    .STRIKER;\r\n                Shoot_Detail[shoot_counter].ShootWinner_Team = team_shoot_winner\r\n                    .team1;\r\n\r\n                Round_Detail[round_counter].no_of_shoots = shoot_counter;\r\n                Round_Detail[round_counter].team1_score += 1;\r\n            }\r\n        }\r\n\r\n        //logic for interface 3\r\n\r\n        if (penalty_interface == 3 && player_type == 1) {\r\n            require(\r\n                user_choice >= 0 && user_choice <= 7,\r\n                \"Invalid choice from player\"\r\n            );\r\n            uint256 computer_choice = randomNumbers[shoot_counter] % 8;\r\n            if (user_choice == computer_choice) {\r\n                Shoot_Detail[shoot_counter].shoot_completed = true;\r\n                Shoot_Detail[shoot_counter].Winner_playerType = shoot_winner\r\n                    .GOALKEEPER;\r\n                Shoot_Detail[shoot_counter].ShootWinner_Team = team_shoot_winner\r\n                    .team1;\r\n\r\n                Round_Detail[round_counter].no_of_shoots = shoot_counter;\r\n                // Round_Detail[round_counter].team1_score += 1;\r\n            } else {\r\n                Shoot_Detail[shoot_counter].shoot_completed = true;\r\n                Shoot_Detail[shoot_counter].Winner_playerType = shoot_winner\r\n                    .STRIKER;\r\n                Shoot_Detail[shoot_counter].ShootWinner_Team = team_shoot_winner\r\n                    .team2;\r\n\r\n                Round_Detail[round_counter].no_of_shoots = shoot_counter;\r\n                Round_Detail[round_counter].team2_score += 1;\r\n            }\r\n        }\r\n\r\n        if (penalty_interface == 3 && player_type == 2) {\r\n            require(\r\n                user_choice >= 0 && user_choice <= 7,\r\n                \"Invalid choice from player\"\r\n            );\r\n            uint256 computer_choice = randomNumbers[shoot_counter] % 8;\r\n            if (user_choice == computer_choice) {\r\n                Shoot_Detail[shoot_counter].shoot_completed = true;\r\n                Shoot_Detail[shoot_counter].Winner_playerType = shoot_winner\r\n                    .GOALKEEPER;\r\n                Shoot_Detail[shoot_counter].ShootWinner_Team = team_shoot_winner\r\n                    .team2;\r\n\r\n                Round_Detail[round_counter].no_of_shoots = shoot_counter;\r\n                // Round_Detail[round_counter].team2_score += 1;\r\n            } else {\r\n                Shoot_Detail[shoot_counter].shoot_completed = true;\r\n                Shoot_Detail[shoot_counter].Winner_playerType = shoot_winner\r\n                    .STRIKER;\r\n                Shoot_Detail[shoot_counter].ShootWinner_Team = team_shoot_winner\r\n                    .team1;\r\n\r\n                Round_Detail[round_counter].no_of_shoots = shoot_counter;\r\n                Round_Detail[round_counter].team1_score += 1;\r\n            }\r\n        }\r\n    }\r\n\r\n    //this function will check the round result by comparing score\r\n    function round_result_check() external returns (uint8) {\r\n        require(shoot_counter >= 5, \"Match can still go on\"); // can comment this line later\r\n        if (shoot_counter < 10) {\r\n            uint8 curr_team1 = Round_Detail[round_counter].team1_score;\r\n            uint8 curr_team2 = Round_Detail[round_counter].team2_score;\r\n            uint8 potential_team1;\r\n            uint8 potential_team2;\r\n\r\n            if (shoot_counter % 2 == 1) {\r\n                potential_team1 = 5 - ((shoot_counter + 1) / 2) + curr_team1;\r\n                potential_team2 = 5 - ((shoot_counter + 1) / 2) + curr_team2;\r\n            } else {\r\n                potential_team1 = 5 - ((shoot_counter) / 2) - 1 + curr_team1;\r\n                potential_team2 = 5 - ((shoot_counter) / 2) + curr_team2;\r\n            }\r\n\r\n            if (curr_team1 > potential_team2) {\r\n                Round_Detail[round_counter].round_complete = true;\r\n                Round_Detail[round_counter].Round_Winner = round_winner.TEAM1;\r\n                status = round_winner.TEAM1;\r\n                return 1; //returning 1 means that team 1 has won(player)\r\n            } else if (curr_team2 > potential_team1) {\r\n                Round_Detail[round_counter].round_complete = true;\r\n                Round_Detail[round_counter].Round_Winner = round_winner.TEAM2;\r\n                status = round_winner.TEAM2;\r\n                return 2; //returning 2 means that team 2 has won(computer)\r\n            } else {\r\n                return 0; //match is still going on\r\n            }\r\n        } else {\r\n            uint8 curr_team1 = Round_Detail[round_counter].team1_score;\r\n            uint8 curr_team2 = Round_Detail[round_counter].team2_score;\r\n            if ((shoot_counter + 1) % 2 == 0) {\r\n                if (curr_team1 > curr_team2) {\r\n                    Round_Detail[round_counter].round_complete = true;\r\n                    Round_Detail[round_counter].Round_Winner = round_winner\r\n                        .TEAM1;\r\n                    status = round_winner.TEAM1;\r\n                    return 1;\r\n                } else if (curr_team1 < curr_team2) {\r\n                    Round_Detail[round_counter].round_complete = true;\r\n                    Round_Detail[round_counter].Round_Winner = round_winner\r\n                        .TEAM2;\r\n                    status = round_winner.TEAM2;\r\n                    return 2;\r\n                } else {\r\n                    return 0;\r\n                }\r\n            } else {\r\n                return 0;\r\n            }\r\n        }\r\n    }\r\n\r\n    //this function updates the shoot_counter variable. It is done after every penaly shot taken.\r\n    function update_shoot_counter() public {\r\n        shoot_counter++;\r\n    }\r\n\r\n    //function that updates the round counter\r\n    function update_round_counter() public {\r\n        round_counter++;\r\n    }\r\n\r\n    function reset() public {\r\n        shoot_counter = 0;\r\n    }\r\n\r\n    function score_team1() external view returns (uint8) {\r\n        return Round_Detail[round_counter].team1_score;\r\n    }\r\n\r\n    function score_team2() external view returns (uint8) {\r\n        return Round_Detail[round_counter].team2_score;\r\n    }\r\n\r\n    //////////////////////////////////////////////////////////\r\n\r\n    event RequestSent(uint256 requestId, uint32 numWords);\r\n    event RequestFulfilled(uint256 requestId, uint256[] randomWords);\r\n\r\n    struct RequestStatus {\r\n        bool fulfilled; // whether the request has been successfully fulfilled\r\n        bool exists; // whether a requestId exists\r\n        uint256[] randomWords;\r\n        bool didWin;\r\n    }\r\n    mapping(uint256 => RequestStatus)\r\n        public s_requests; /* requestId --> requestStatus */\r\n    VRFCoordinatorV2Interface COORDINATOR;\r\n\r\n    // Your subscription ID.\r\n    uint64 s_subscriptionId;\r\n\r\n    // past requests Id.\r\n    uint256[] public requestIds;\r\n    uint256 public lastRequestId;\r\n\r\n    // The gas lane to use, which specifies the maximum gas price to bump to.\r\n    // For a list of available gas lanes on each network,\r\n    // see https://docs.chain.link/docs/vrf/v2/subscription/supported-networks/#configurations\r\n    bytes32 keyHash =\r\n        0x474e34a077df58807dbe9c96d3c009b23b3c6d0cce433e59bbf5b34f823bc56c;\r\n\r\n    // Depends on the number of requested values that you want sent to the\r\n    // fulfillRandomWords() function. Storing each word costs about 20,000 gas,\r\n    // so 100,000 is a safe default for this example contract. Test and adjust\r\n    // this limit based on the network that you select, the size of the request,\r\n    // and the processing of the callback request in the fulfillRandomWords()\r\n    // function.\r\n    uint32 callbackGasLimit = 1000000;\r\n\r\n    // The default is 3, but you can set this higher.\r\n    uint16 requestConfirmations = 3;\r\n\r\n    // For this example, retrieve 2 random values in one request.\r\n    // Cannot exceed VRFCoordinatorV2.MAX_NUM_WORDS.\r\n    uint32 numWords = 20;\r\n\r\n    /**\r\n     * HARDCODED FOR SEPOLIA\r\n     * COORDINATOR: 0x8103B0A8A00be2DDC778e6e7eaa21791Cd364625\r\n     */\r\n    constructor(\r\n        uint64 subscriptionId\r\n    )\r\n        VRFConsumerBaseV2(0x8103B0A8A00be2DDC778e6e7eaa21791Cd364625)\r\n        ConfirmedOwner(msg.sender)\r\n    {\r\n        COORDINATOR = VRFCoordinatorV2Interface(\r\n            0x8103B0A8A00be2DDC778e6e7eaa21791Cd364625\r\n        );\r\n        s_subscriptionId = subscriptionId;\r\n    }\r\n\r\n    // Assumes the subscription is funded sufficiently.\r\n    function requestRandomWords() external returns (uint256 requestId) {\r\n        // Will revert if subscription is not set and funded.\r\n        requestId = COORDINATOR.requestRandomWords(\r\n            keyHash,\r\n            s_subscriptionId,\r\n            requestConfirmations,\r\n            callbackGasLimit,\r\n            numWords\r\n        );\r\n        s_requests[requestId] = RequestStatus({\r\n            randomWords: new uint256[](0),\r\n            exists: true,\r\n            fulfilled: false,\r\n            didWin: true\r\n        });\r\n        requestIds.push(requestId);\r\n        lastRequestId = requestId;\r\n        emit RequestSent(requestId, numWords);\r\n        return requestId;\r\n    }\r\n\r\n    function fulfillRandomWords(\r\n        uint256 _requestId,\r\n        uint256[] memory _randomWords\r\n    ) internal override {\r\n        require(s_requests[_requestId].exists, \"request not found\");\r\n        s_requests[_requestId].fulfilled = true;\r\n        s_requests[_requestId].randomWords = _randomWords;\r\n        if (_randomWords[0] % 2 == 0) {\r\n            s_requests[_requestId].didWin = true;\r\n        }\r\n        randomNumbers = _randomWords;\r\n        emit RequestFulfilled(_requestId, _randomWords);\r\n    }\r\n\r\n    function getRequestStatus(\r\n        uint256 _requestId\r\n    )\r\n        external\r\n        view\r\n        returns (bool fulfilled, uint256[] memory randomWords, bool didWin)\r\n    {\r\n        require(s_requests[_requestId].exists, \"request not found\");\r\n        RequestStatus memory request = s_requests[_requestId];\r\n        return (request.fulfilled, request.randomWords, request.didWin);\r\n    }\r\n\r\n    //mycode\r\n}\r\n",
  "sourcePath": "C:\\Users\\Akash Sahu\\Desktop\\chainlink\\Web3Football\\contracts\\Web3Football.sol",
  "compiler": {
    "name": "solc",
    "version": "0.8.20+commit.a1b79de6.Emscripten.clang"
  },
  "schemaVersion": "3.4.14",
  "updatedAt": "2023-06-07T17:00:45.675Z",
  "networkType": "ethereum",
  "devdoc": {
    "kind": "dev",
    "methods": {},
    "version": 1
  },
  "userdoc": {
    "kind": "user",
    "methods": {
      "acceptOwnership()": {
        "notice": "Allows an ownership transfer to be completed by the recipient."
      },
      "constructor": {
        "notice": "HARDCODED FOR SEPOLIA COORDINATOR: 0x8103B0A8A00be2DDC778e6e7eaa21791Cd364625"
      },
      "owner()": {
        "notice": "Get the current owner"
      },
      "transferOwnership(address)": {
        "notice": "Allows an owner to begin transferring ownership to a new address, pending."
      }
    },
    "notice": "THIS IS AN EXAMPLE CONTRACT THAT USES HARDCODED VALUES FOR CLARITY. THIS IS AN EXAMPLE CONTRACT THAT USES UN-AUDITED CODE. DO NOT USE THIS CODE IN PRODUCTION.",
    "version": 1
  }
}