{
  "contractName": "Web3Football",
  "abi": [
    {
      "inputs": [
        {
          "internalType": "uint64",
          "name": "subscriptionId",
          "type": "uint64"
        }
      ],
      "stateMutability": "nonpayable",
      "type": "constructor"
    },
    {
      "inputs": [
        {
          "internalType": "address",
          "name": "have",
          "type": "address"
        },
        {
          "internalType": "address",
          "name": "want",
          "type": "address"
        }
      ],
      "name": "OnlyCoordinatorCanFulfill",
      "type": "error"
    },
    {
      "anonymous": false,
      "inputs": [
        {
          "indexed": true,
          "internalType": "address",
          "name": "owner",
          "type": "address"
        },
        {
          "indexed": true,
          "internalType": "address",
          "name": "approved",
          "type": "address"
        },
        {
          "indexed": true,
          "internalType": "uint256",
          "name": "tokenId",
          "type": "uint256"
        }
      ],
      "name": "Approval",
      "type": "event"
    },
    {
      "anonymous": false,
      "inputs": [
        {
          "indexed": true,
          "internalType": "address",
          "name": "owner",
          "type": "address"
        },
        {
          "indexed": true,
          "internalType": "address",
          "name": "operator",
          "type": "address"
        },
        {
          "indexed": false,
          "internalType": "bool",
          "name": "approved",
          "type": "bool"
        }
      ],
      "name": "ApprovalForAll",
      "type": "event"
    },
    {
      "anonymous": false,
      "inputs": [
        {
          "indexed": true,
          "internalType": "address",
          "name": "from",
          "type": "address"
        },
        {
          "indexed": true,
          "internalType": "address",
          "name": "to",
          "type": "address"
        }
      ],
      "name": "OwnershipTransferRequested",
      "type": "event"
    },
    {
      "anonymous": false,
      "inputs": [
        {
          "indexed": true,
          "internalType": "address",
          "name": "from",
          "type": "address"
        },
        {
          "indexed": true,
          "internalType": "address",
          "name": "to",
          "type": "address"
        }
      ],
      "name": "OwnershipTransferred",
      "type": "event"
    },
    {
      "anonymous": false,
      "inputs": [
        {
          "indexed": false,
          "internalType": "uint256",
          "name": "requestId",
          "type": "uint256"
        },
        {
          "indexed": false,
          "internalType": "uint256[]",
          "name": "randomWords",
          "type": "uint256[]"
        }
      ],
      "name": "RequestFulfilled",
      "type": "event"
    },
    {
      "anonymous": false,
      "inputs": [
        {
          "indexed": false,
          "internalType": "uint256",
          "name": "requestId",
          "type": "uint256"
        },
        {
          "indexed": false,
          "internalType": "uint32",
          "name": "numWords",
          "type": "uint32"
        }
      ],
      "name": "RequestSent",
      "type": "event"
    },
    {
      "anonymous": false,
      "inputs": [
        {
          "indexed": true,
          "internalType": "address",
          "name": "from",
          "type": "address"
        },
        {
          "indexed": true,
          "internalType": "address",
          "name": "to",
          "type": "address"
        },
        {
          "indexed": true,
          "internalType": "uint256",
          "name": "tokenId",
          "type": "uint256"
        }
      ],
      "name": "Transfer",
      "type": "event"
    },
    {
      "anonymous": false,
      "inputs": [
        {
          "indexed": false,
          "internalType": "uint8",
          "name": "shoot_counter",
          "type": "uint8"
        },
        {
          "indexed": false,
          "internalType": "uint8",
          "name": "Team1_Lvl",
          "type": "uint8"
        },
        {
          "indexed": false,
          "internalType": "uint8",
          "name": "Team2_Lvl",
          "type": "uint8"
        }
      ],
      "name": "testi",
      "type": "event"
    },
    {
      "inputs": [
        {
          "internalType": "uint256",
          "name": "",
          "type": "uint256"
        }
      ],
      "name": "Shoot_Detail",
      "outputs": [
        {
          "internalType": "uint8",
          "name": "shoot_no",
          "type": "uint8"
        },
        {
          "internalType": "uint8",
          "name": "team1_lvl",
          "type": "uint8"
        },
        {
          "internalType": "uint8",
          "name": "team2_lvl",
          "type": "uint8"
        },
        {
          "internalType": "bool",
          "name": "select_interface",
          "type": "bool"
        },
        {
          "internalType": "uint8",
          "name": "selected_interface",
          "type": "uint8"
        },
        {
          "internalType": "bool",
          "name": "shoot_completed",
          "type": "bool"
        },
        {
          "internalType": "enum Web3Football.shoot_winner",
          "name": "Winner_playerType",
          "type": "uint8"
        },
        {
          "internalType": "enum Web3Football.team_shoot_winner",
          "name": "ShootWinner_Team",
          "type": "uint8"
        }
      ],
      "stateMutability": "view",
      "type": "function",
      "constant": true
    },
    {
      "inputs": [],
      "name": "acceptOwnership",
      "outputs": [],
      "stateMutability": "nonpayable",
      "type": "function"
    },
    {
      "inputs": [
        {
          "internalType": "address",
          "name": "to",
          "type": "address"
        },
        {
          "internalType": "uint256",
          "name": "tokenId",
          "type": "uint256"
        }
      ],
      "name": "approve",
      "outputs": [],
      "stateMutability": "nonpayable",
      "type": "function"
    },
    {
      "inputs": [
        {
          "internalType": "uint256",
          "name": "",
          "type": "uint256"
        }
      ],
      "name": "availableCards",
      "outputs": [
        {
          "internalType": "uint256",
          "name": "id",
          "type": "uint256"
        },
        {
          "internalType": "uint8",
          "name": "level",
          "type": "uint8"
        }
      ],
      "stateMutability": "view",
      "type": "function",
      "constant": true
    },
    {
      "inputs": [
        {
          "internalType": "uint256",
          "name": "",
          "type": "uint256"
        }
      ],
      "name": "availableGKCards",
      "outputs": [
        {
          "internalType": "uint256",
          "name": "id",
          "type": "uint256"
        },
        {
          "internalType": "uint8",
          "name": "level",
          "type": "uint8"
        }
      ],
      "stateMutability": "view",
      "type": "function",
      "constant": true
    },
    {
      "inputs": [
        {
          "internalType": "address",
          "name": "owner",
          "type": "address"
        }
      ],
      "name": "balanceOf",
      "outputs": [
        {
          "internalType": "uint256",
          "name": "",
          "type": "uint256"
        }
      ],
      "stateMutability": "view",
      "type": "function",
      "constant": true
    },
    {
      "inputs": [
        {
          "internalType": "uint256",
          "name": "",
          "type": "uint256"
        }
      ],
      "name": "cards",
      "outputs": [
        {
          "internalType": "uint256",
          "name": "id",
          "type": "uint256"
        },
        {
          "internalType": "uint8",
          "name": "level",
          "type": "uint8"
        }
      ],
      "stateMutability": "view",
      "type": "function",
      "constant": true
    },
    {
      "inputs": [
        {
          "internalType": "uint256",
          "name": "tokenId",
          "type": "uint256"
        }
      ],
      "name": "getApproved",
      "outputs": [
        {
          "internalType": "address",
          "name": "",
          "type": "address"
        }
      ],
      "stateMutability": "view",
      "type": "function",
      "constant": true
    },
    {
      "inputs": [
        {
          "internalType": "address",
          "name": "owner",
          "type": "address"
        },
        {
          "internalType": "address",
          "name": "operator",
          "type": "address"
        }
      ],
      "name": "isApprovedForAll",
      "outputs": [
        {
          "internalType": "bool",
          "name": "",
          "type": "bool"
        }
      ],
      "stateMutability": "view",
      "type": "function",
      "constant": true
    },
    {
      "inputs": [
        {
          "internalType": "address",
          "name": "",
          "type": "address"
        }
      ],
      "name": "joinStatus",
      "outputs": [
        {
          "internalType": "bool",
          "name": "",
          "type": "bool"
        }
      ],
      "stateMutability": "view",
      "type": "function",
      "constant": true
    },
    {
      "inputs": [],
      "name": "lastRequestId",
      "outputs": [
        {
          "internalType": "uint256",
          "name": "",
          "type": "uint256"
        }
      ],
      "stateMutability": "view",
      "type": "function",
      "constant": true
    },
    {
      "inputs": [],
      "name": "name",
      "outputs": [
        {
          "internalType": "string",
          "name": "",
          "type": "string"
        }
      ],
      "stateMutability": "view",
      "type": "function",
      "constant": true
    },
    {
      "inputs": [],
      "name": "owner",
      "outputs": [
        {
          "internalType": "address",
          "name": "",
          "type": "address"
        }
      ],
      "stateMutability": "view",
      "type": "function",
      "constant": true
    },
    {
      "inputs": [
        {
          "internalType": "uint256",
          "name": "tokenId",
          "type": "uint256"
        }
      ],
      "name": "ownerOf",
      "outputs": [
        {
          "internalType": "address",
          "name": "",
          "type": "address"
        }
      ],
      "stateMutability": "view",
      "type": "function",
      "constant": true
    },
    {
      "inputs": [
        {
          "internalType": "address",
          "name": "",
          "type": "address"
        },
        {
          "internalType": "uint256",
          "name": "",
          "type": "uint256"
        }
      ],
      "name": "playerActiveCards",
      "outputs": [
        {
          "internalType": "uint256",
          "name": "id",
          "type": "uint256"
        },
        {
          "internalType": "uint8",
          "name": "level",
          "type": "uint8"
        }
      ],
      "stateMutability": "view",
      "type": "function",
      "constant": true
    },
    {
      "inputs": [
        {
          "internalType": "address",
          "name": "",
          "type": "address"
        }
      ],
      "name": "playerActiveGKCard",
      "outputs": [
        {
          "internalType": "uint256",
          "name": "id",
          "type": "uint256"
        },
        {
          "internalType": "uint8",
          "name": "level",
          "type": "uint8"
        }
      ],
      "stateMutability": "view",
      "type": "function",
      "constant": true
    },
    {
      "inputs": [
        {
          "internalType": "address",
          "name": "",
          "type": "address"
        },
        {
          "internalType": "uint256",
          "name": "",
          "type": "uint256"
        }
      ],
      "name": "playerInactiveCards",
      "outputs": [
        {
          "internalType": "uint256",
          "name": "id",
          "type": "uint256"
        },
        {
          "internalType": "uint8",
          "name": "level",
          "type": "uint8"
        }
      ],
      "stateMutability": "view",
      "type": "function",
      "constant": true
    },
    {
      "inputs": [
        {
          "internalType": "address",
          "name": "",
          "type": "address"
        }
      ],
      "name": "playerPoints",
      "outputs": [
        {
          "internalType": "uint256",
          "name": "",
          "type": "uint256"
        }
      ],
      "stateMutability": "view",
      "type": "function",
      "constant": true
    },
    {
      "inputs": [],
      "name": "playerState",
      "outputs": [
        {
          "internalType": "uint8",
          "name": "",
          "type": "uint8"
        }
      ],
      "stateMutability": "view",
      "type": "function",
      "constant": true
    },
    {
      "inputs": [
        {
          "internalType": "uint256",
          "name": "",
          "type": "uint256"
        }
      ],
      "name": "randomNumbers",
      "outputs": [
        {
          "internalType": "uint256",
          "name": "",
          "type": "uint256"
        }
      ],
      "stateMutability": "view",
      "type": "function",
      "constant": true
    },
    {
      "inputs": [
        {
          "internalType": "uint256",
          "name": "requestId",
          "type": "uint256"
        },
        {
          "internalType": "uint256[]",
          "name": "randomWords",
          "type": "uint256[]"
        }
      ],
      "name": "rawFulfillRandomWords",
      "outputs": [],
      "stateMutability": "nonpayable",
      "type": "function"
    },
    {
      "inputs": [
        {
          "internalType": "uint256",
          "name": "",
          "type": "uint256"
        }
      ],
      "name": "requestIds",
      "outputs": [
        {
          "internalType": "uint256",
          "name": "",
          "type": "uint256"
        }
      ],
      "stateMutability": "view",
      "type": "function",
      "constant": true
    },
    {
      "inputs": [],
      "name": "roundNumber",
      "outputs": [
        {
          "internalType": "uint8",
          "name": "",
          "type": "uint8"
        }
      ],
      "stateMutability": "view",
      "type": "function",
      "constant": true
    },
    {
      "inputs": [],
      "name": "round_counter",
      "outputs": [
        {
          "internalType": "uint8",
          "name": "",
          "type": "uint8"
        }
      ],
      "stateMutability": "view",
      "type": "function",
      "constant": true
    },
    {
      "inputs": [
        {
          "internalType": "uint256",
          "name": "",
          "type": "uint256"
        }
      ],
      "name": "s_requests",
      "outputs": [
        {
          "internalType": "bool",
          "name": "fulfilled",
          "type": "bool"
        },
        {
          "internalType": "bool",
          "name": "exists",
          "type": "bool"
        },
        {
          "internalType": "bool",
          "name": "didWin",
          "type": "bool"
        }
      ],
      "stateMutability": "view",
      "type": "function",
      "constant": true
    },
    {
      "inputs": [
        {
          "internalType": "address",
          "name": "from",
          "type": "address"
        },
        {
          "internalType": "address",
          "name": "to",
          "type": "address"
        },
        {
          "internalType": "uint256",
          "name": "tokenId",
          "type": "uint256"
        }
      ],
      "name": "safeTransferFrom",
      "outputs": [],
      "stateMutability": "nonpayable",
      "type": "function"
    },
    {
      "inputs": [
        {
          "internalType": "address",
          "name": "from",
          "type": "address"
        },
        {
          "internalType": "address",
          "name": "to",
          "type": "address"
        },
        {
          "internalType": "uint256",
          "name": "tokenId",
          "type": "uint256"
        },
        {
          "internalType": "bytes",
          "name": "_data",
          "type": "bytes"
        }
      ],
      "name": "safeTransferFrom",
      "outputs": [],
      "stateMutability": "nonpayable",
      "type": "function"
    },
    {
      "inputs": [
        {
          "internalType": "address",
          "name": "operator",
          "type": "address"
        },
        {
          "internalType": "bool",
          "name": "approved",
          "type": "bool"
        }
      ],
      "name": "setApprovalForAll",
      "outputs": [],
      "stateMutability": "nonpayable",
      "type": "function"
    },
    {
      "inputs": [],
      "name": "shoot_counter",
      "outputs": [
        {
          "internalType": "uint8",
          "name": "",
          "type": "uint8"
        }
      ],
      "stateMutability": "view",
      "type": "function",
      "constant": true
    },
    {
      "inputs": [
        {
          "internalType": "bytes4",
          "name": "interfaceId",
          "type": "bytes4"
        }
      ],
      "name": "supportsInterface",
      "outputs": [
        {
          "internalType": "bool",
          "name": "",
          "type": "bool"
        }
      ],
      "stateMutability": "view",
      "type": "function",
      "constant": true
    },
    {
      "inputs": [],
      "name": "symbol",
      "outputs": [
        {
          "internalType": "string",
          "name": "",
          "type": "string"
        }
      ],
      "stateMutability": "view",
      "type": "function",
      "constant": true
    },
    {
      "inputs": [],
      "name": "team1Score",
      "outputs": [
        {
          "internalType": "uint8",
          "name": "",
          "type": "uint8"
        }
      ],
      "stateMutability": "view",
      "type": "function",
      "constant": true
    },
    {
      "inputs": [],
      "name": "team2Score",
      "outputs": [
        {
          "internalType": "uint8",
          "name": "",
          "type": "uint8"
        }
      ],
      "stateMutability": "view",
      "type": "function",
      "constant": true
    },
    {
      "inputs": [
        {
          "internalType": "uint256",
          "name": "tokenId",
          "type": "uint256"
        }
      ],
      "name": "tokenURI",
      "outputs": [
        {
          "internalType": "string",
          "name": "",
          "type": "string"
        }
      ],
      "stateMutability": "view",
      "type": "function",
      "constant": true
    },
    {
      "inputs": [],
      "name": "tossChoice",
      "outputs": [
        {
          "internalType": "uint8",
          "name": "",
          "type": "uint8"
        }
      ],
      "stateMutability": "view",
      "type": "function",
      "constant": true
    },
    {
      "inputs": [
        {
          "internalType": "address",
          "name": "from",
          "type": "address"
        },
        {
          "internalType": "address",
          "name": "to",
          "type": "address"
        },
        {
          "internalType": "uint256",
          "name": "tokenId",
          "type": "uint256"
        }
      ],
      "name": "transferFrom",
      "outputs": [],
      "stateMutability": "nonpayable",
      "type": "function"
    },
    {
      "inputs": [
        {
          "internalType": "address",
          "name": "to",
          "type": "address"
        }
      ],
      "name": "transferOwnership",
      "outputs": [],
      "stateMutability": "nonpayable",
      "type": "function"
    },
    {
      "inputs": [],
      "name": "winOrLoss",
      "outputs": [
        {
          "internalType": "bool",
          "name": "",
          "type": "bool"
        }
      ],
      "stateMutability": "view",
      "type": "function",
      "constant": true
    },
    {
      "inputs": [],
      "name": "initialize_array",
      "outputs": [],
      "stateMutability": "nonpayable",
      "type": "function"
    },
    {
      "inputs": [
        {
          "internalType": "uint8",
          "name": "choice",
          "type": "uint8"
        }
      ],
      "name": "updatePlayerState",
      "outputs": [],
      "stateMutability": "nonpayable",
      "type": "function"
    },
    {
      "inputs": [],
      "name": "roundNumberIncrease",
      "outputs": [],
      "stateMutability": "nonpayable",
      "type": "function"
    },
    {
      "inputs": [
        {
          "internalType": "uint8",
          "name": "choice",
          "type": "uint8"
        }
      ],
      "name": "setPlayerState",
      "outputs": [],
      "stateMutability": "nonpayable",
      "type": "function"
    },
    {
      "inputs": [
        {
          "internalType": "uint8",
          "name": "_tossChoice",
          "type": "uint8"
        }
      ],
      "name": "toss",
      "outputs": [],
      "stateMutability": "nonpayable",
      "type": "function"
    },
    {
      "inputs": [
        {
          "internalType": "uint8",
          "name": "_shootNumber",
          "type": "uint8"
        },
        {
          "internalType": "uint8",
          "name": "_playerState",
          "type": "uint8"
        }
      ],
      "name": "interface_Selection",
      "outputs": [
        {
          "internalType": "uint8",
          "name": "",
          "type": "uint8"
        }
      ],
      "stateMutability": "view",
      "type": "function",
      "constant": true
    },
    {
      "inputs": [
        {
          "internalType": "uint8",
          "name": "penalty_interface",
          "type": "uint8"
        },
        {
          "internalType": "uint8",
          "name": "user_choice",
          "type": "uint8"
        },
        {
          "internalType": "uint8",
          "name": "_shootNumber",
          "type": "uint8"
        }
      ],
      "name": "penalty_shoot",
      "outputs": [
        {
          "internalType": "bool",
          "name": "res",
          "type": "bool"
        }
      ],
      "stateMutability": "view",
      "type": "function",
      "constant": true
    },
    {
      "inputs": [
        {
          "internalType": "uint8",
          "name": "_team1Score",
          "type": "uint8"
        },
        {
          "internalType": "uint8",
          "name": "_team2Score",
          "type": "uint8"
        },
        {
          "internalType": "uint8",
          "name": "shootNumber",
          "type": "uint8"
        },
        {
          "internalType": "uint8",
          "name": "_playerState",
          "type": "uint8"
        }
      ],
      "name": "round_result_check",
      "outputs": [
        {
          "internalType": "uint8",
          "name": "",
          "type": "uint8"
        }
      ],
      "stateMutability": "pure",
      "type": "function",
      "constant": true
    },
    {
      "inputs": [],
      "name": "update_shoot_counter",
      "outputs": [],
      "stateMutability": "nonpayable",
      "type": "function"
    },
    {
      "inputs": [],
      "name": "update_round_counter",
      "outputs": [],
      "stateMutability": "nonpayable",
      "type": "function"
    },
    {
      "inputs": [],
      "name": "reset",
      "outputs": [],
      "stateMutability": "nonpayable",
      "type": "function"
    },
    {
      "inputs": [],
      "name": "score_team1",
      "outputs": [
        {
          "internalType": "uint8",
          "name": "",
          "type": "uint8"
        }
      ],
      "stateMutability": "view",
      "type": "function",
      "constant": true
    },
    {
      "inputs": [],
      "name": "score_team2",
      "outputs": [
        {
          "internalType": "uint8",
          "name": "",
          "type": "uint8"
        }
      ],
      "stateMutability": "view",
      "type": "function",
      "constant": true
    },
    {
      "inputs": [],
      "name": "requestRandomWords",
      "outputs": [
        {
          "internalType": "uint256",
          "name": "requestId",
          "type": "uint256"
        }
      ],
      "stateMutability": "nonpayable",
      "type": "function"
    },
    {
      "inputs": [
        {
          "internalType": "uint256",
          "name": "_requestId",
          "type": "uint256"
        }
      ],
      "name": "getRequestStatus",
      "outputs": [
        {
          "internalType": "bool",
          "name": "fulfilled",
          "type": "bool"
        },
        {
          "internalType": "uint256[]",
          "name": "randomWords",
          "type": "uint256[]"
        },
        {
          "internalType": "bool",
          "name": "didWin",
          "type": "bool"
        }
      ],
      "stateMutability": "view",
      "type": "function",
      "constant": true
    },
    {
      "inputs": [],
      "name": "getAvailableCards",
      "outputs": [
        {
          "components": [
            {
              "internalType": "uint256",
              "name": "id",
              "type": "uint256"
            },
            {
              "internalType": "uint8",
              "name": "level",
              "type": "uint8"
            }
          ],
          "internalType": "struct Web3Football.Card[]",
          "name": "",
          "type": "tuple[]"
        }
      ],
      "stateMutability": "view",
      "type": "function",
      "constant": true
    },
    {
      "inputs": [],
      "name": "getAvailableGKCards",
      "outputs": [
        {
          "components": [
            {
              "internalType": "uint256",
              "name": "id",
              "type": "uint256"
            },
            {
              "internalType": "uint8",
              "name": "level",
              "type": "uint8"
            }
          ],
          "internalType": "struct Web3Football.Card[]",
          "name": "",
          "type": "tuple[]"
        }
      ],
      "stateMutability": "view",
      "type": "function",
      "constant": true
    },
    {
      "inputs": [
        {
          "internalType": "uint8",
          "name": "_id",
          "type": "uint8"
        },
        {
          "internalType": "uint8",
          "name": "option",
          "type": "uint8"
        }
      ],
      "name": "buyNftCard",
      "outputs": [],
      "stateMutability": "nonpayable",
      "type": "function"
    },
    {
      "inputs": [
        {
          "internalType": "uint8",
          "name": "_id",
          "type": "uint8"
        },
        {
          "internalType": "uint8",
          "name": "option",
          "type": "uint8"
        }
      ],
      "name": "createActiveCard",
      "outputs": [],
      "stateMutability": "nonpayable",
      "type": "function"
    },
    {
      "inputs": [
        {
          "internalType": "address",
          "name": "player",
          "type": "address"
        }
      ],
      "name": "getPlayingCards",
      "outputs": [
        {
          "components": [
            {
              "internalType": "uint256",
              "name": "id",
              "type": "uint256"
            },
            {
              "internalType": "uint8",
              "name": "level",
              "type": "uint8"
            }
          ],
          "internalType": "struct Web3Football.Card[]",
          "name": "",
          "type": "tuple[]"
        }
      ],
      "stateMutability": "view",
      "type": "function",
      "constant": true
    },
    {
      "inputs": [
        {
          "internalType": "address",
          "name": "player",
          "type": "address"
        }
      ],
      "name": "getInactiveCards",
      "outputs": [
        {
          "components": [
            {
              "internalType": "uint256",
              "name": "id",
              "type": "uint256"
            },
            {
              "internalType": "uint8",
              "name": "level",
              "type": "uint8"
            }
          ],
          "internalType": "struct Web3Football.Card[]",
          "name": "",
          "type": "tuple[]"
        }
      ],
      "stateMutability": "view",
      "type": "function",
      "constant": true
    },
    {
      "inputs": [],
      "name": "getJoinStatus",
      "outputs": [
        {
          "internalType": "bool",
          "name": "",
          "type": "bool"
        }
      ],
      "stateMutability": "view",
      "type": "function",
      "constant": true
    },
    {
      "inputs": [],
      "name": "join",
      "outputs": [],
      "stateMutability": "nonpayable",
      "type": "function"
    }
  ],
  "bytecode": "0x60a06040525f60095f6101000a81548160ff021916908360ff1602179055506002600960026101000a81548160ff0219169083600281111562000047576200004662000cf3565b5b02179055505f600b5f6101000a81548160ff021916908360ff1602179055505f600b60016101000a81548160ff021916908360ff1602179055505f600b60026101000a81548160ff021916908360ff1602179055506040518060c00160405280600360ff168152602001600160ff168152602001600160ff168152602001600260ff168152602001600260ff168152602001600260ff16815250600c906006620000f392919062000c2d565b506040518060c00160405280600260ff168152602001600360ff168152602001600260ff168152602001600160ff168152602001600160ff168152602001600260ff16815250600d9060066200014b92919062000c2d565b507f474e34a077df58807dbe9c96d3c009b23b3c6d0cce433e59bbf5b34f823bc56c5f1b603a55620f4240603b5f6101000a81548163ffffffff021916908363ffffffff1602179055506003603b60046101000a81548161ffff021916908361ffff1602179055506014603b60066101000a81548163ffffffff021916908363ffffffff160217905550348015620001e1575f80fd5b506040516200691438038062006914833981810160405281019062000207919062000d66565b6040518060400160405280600c81526020017f57656233466f6f7462616c6c00000000000000000000000000000000000000008152506040518060400160405280600281526020017f464300000000000000000000000000000000000000000000000000000000000081525033805f738103b0a8a00be2ddc778e6e7eaa21791cd3646258073ffffffffffffffffffffffffffffffffffffffff1660808173ffffffffffffffffffffffffffffffffffffffff1681525050505f73ffffffffffffffffffffffffffffffffffffffff168273ffffffffffffffffffffffffffffffffffffffff160362000331576040517f08c379a0000000000000000000000000000000000000000000000000000000008152600401620003289062000df4565b60405180910390fd5b815f806101000a81548173ffffffffffffffffffffffffffffffffffffffff021916908373ffffffffffffffffffffffffffffffffffffffff1602179055505f73ffffffffffffffffffffffffffffffffffffffff168173ffffffffffffffffffffffffffffffffffffffff1614620003b657620003b58162000b0060201b60201c565b5b5050508160029081620003ca919062001078565b508060039081620003dc919062001078565b505050738103b0a8a00be2ddc778e6e7eaa21791cd36462560375f6101000a81548173ffffffffffffffffffffffffffffffffffffffff021916908373ffffffffffffffffffffffffffffffffffffffff16021790555080603760146101000a81548167ffffffffffffffff021916908367ffffffffffffffff1602179055505f60405180604001604052805f8152602001600360ff1681525090505f604051806040016040528060018152602001600360ff1681525090505f604051806040016040528060028152602001600360ff1681525090505f604051806040016040528060038152602001600260ff1681525090505f604051806040016040528060048152602001600260ff1681525090505f604051806040016040528060058152602001600260ff1681525090505f604051806040016040528060068152602001600260ff1681525090505f604051806040016040528060078152602001600260ff1681525090505f604051806040016040528060088152602001600160ff1681525090505f604051806040016040528060098152602001600160ff1681525090505f6040518060400160405280600a8152602001600160ff168152509050603e8b908060018154018082558091505060019003905f5260205f2090600202015f909190919091505f820151815f01556020820151816001015f6101000a81548160ff021916908360ff1602179055505050603e8a908060018154018082558091505060019003905f5260205f2090600202015f909190919091505f820151815f01556020820151816001015f6101000a81548160ff021916908360ff1602179055505050603e89908060018154018082558091505060019003905f5260205f2090600202015f909190919091505f820151815f01556020820151816001015f6101000a81548160ff021916908360ff1602179055505050603e88908060018154018082558091505060019003905f5260205f2090600202015f909190919091505f820151815f01556020820151816001015f6101000a81548160ff021916908360ff1602179055505050603e87908060018154018082558091505060019003905f5260205f2090600202015f909190919091505f820151815f01556020820151816001015f6101000a81548160ff021916908360ff1602179055505050603e86908060018154018082558091505060019003905f5260205f2090600202015f909190919091505f820151815f01556020820151816001015f6101000a81548160ff021916908360ff1602179055505050603e85908060018154018082558091505060019003905f5260205f2090600202015f909190919091505f820151815f01556020820151816001015f6101000a81548160ff021916908360ff1602179055505050603e84908060018154018082558091505060019003905f5260205f2090600202015f909190919091505f820151815f01556020820151816001015f6101000a81548160ff021916908360ff1602179055505050603e83908060018154018082558091505060019003905f5260205f2090600202015f909190919091505f820151815f01556020820151816001015f6101000a81548160ff021916908360ff1602179055505050603e82908060018154018082558091505060019003905f5260205f2090600202015f909190919091505f820151815f01556020820151816001015f6101000a81548160ff021916908360ff1602179055505050603e81908060018154018082558091505060019003905f5260205f2090600202015f909190919091505f820151815f01556020820151816001015f6101000a81548160ff021916908360ff16021790555050505f60405180604001604052805f8152602001600360ff1681525090505f604051806040016040528060018152602001600260ff1681525090505f604051806040016040528060028152602001600260ff1681525090505f604051806040016040528060038152602001600160ff168152509050603f84908060018154018082558091505060019003905f5260205f2090600202015f909190919091505f820151815f01556020820151816001015f6101000a81548160ff021916908360ff1602179055505050603f83908060018154018082558091505060019003905f5260205f2090600202015f909190919091505f820151815f01556020820151816001015f6101000a81548160ff021916908360ff1602179055505050603f82908060018154018082558091505060019003905f5260205f2090600202015f909190919091505f820151815f01556020820151816001015f6101000a81548160ff021916908360ff1602179055505050603f81908060018154018082558091505060019003905f5260205f2090600202015f909190919091505f820151815f01556020820151816001015f6101000a81548160ff021916908360ff160217905550505050505050505050505050505050505050620011ca565b3373ffffffffffffffffffffffffffffffffffffffff168173ffffffffffffffffffffffffffffffffffffffff160362000b71576040517f08c379a000000000000000000000000000000000000000000000000000000000815260040162000b6890620011aa565b60405180910390fd5b8060015f6101000a81548173ffffffffffffffffffffffffffffffffffffffff021916908373ffffffffffffffffffffffffffffffffffffffff1602179055508073ffffffffffffffffffffffffffffffffffffffff165f8054906101000a900473ffffffffffffffffffffffffffffffffffffffff1673ffffffffffffffffffffffffffffffffffffffff167fed8889f560326eb138920d842192f0eb3dd22b4f139c87a2c57538e05bae127860405160405180910390a350565b828054828255905f5260205f2090601f0160209004810192821562000cc3579160200282015f5b8382111562000c9357835183826101000a81548160ff021916908360ff16021790555092602001926001016020815f0104928301926001030262000c54565b801562000cc15782816101000a81549060ff02191690556001016020815f0104928301926001030262000c93565b505b50905062000cd2919062000cd6565b5090565b5b8082111562000cef575f815f90555060010162000cd7565b5090565b7f4e487b71000000000000000000000000000000000000000000000000000000005f52602160045260245ffd5b5f80fd5b5f67ffffffffffffffff82169050919050565b62000d428162000d24565b811462000d4d575f80fd5b50565b5f8151905062000d608162000d37565b92915050565b5f6020828403121562000d7e5762000d7d62000d20565b5b5f62000d8d8482850162000d50565b91505092915050565b5f82825260208201905092915050565b7f43616e6e6f7420736574206f776e657220746f207a65726f00000000000000005f82015250565b5f62000ddc60188362000d96565b915062000de98262000da6565b602082019050919050565b5f6020820190508181035f83015262000e0d8162000dce565b9050919050565b5f81519050919050565b7f4e487b71000000000000000000000000000000000000000000000000000000005f52604160045260245ffd5b7f4e487b71000000000000000000000000000000000000000000000000000000005f52602260045260245ffd5b5f600282049050600182168062000e9057607f821691505b60208210810362000ea65762000ea562000e4b565b5b50919050565b5f819050815f5260205f209050919050565b5f6020601f8301049050919050565b5f82821b905092915050565b5f6008830262000f0a7fffffffffffffffffffffffffffffffffffffffffffffffffffffffffffffffff8262000ecd565b62000f16868362000ecd565b95508019841693508086168417925050509392505050565b5f819050919050565b5f819050919050565b5f62000f6062000f5a62000f548462000f2e565b62000f37565b62000f2e565b9050919050565b5f819050919050565b62000f7b8362000f40565b62000f9362000f8a8262000f67565b84845462000ed9565b825550505050565b5f90565b62000fa962000f9b565b62000fb681848462000f70565b505050565b5b8181101562000fdd5762000fd15f8262000f9f565b60018101905062000fbc565b5050565b601f8211156200102c5762000ff68162000eac565b620010018462000ebe565b8101602085101562001011578190505b62001029620010208562000ebe565b83018262000fbb565b50505b505050565b5f82821c905092915050565b5f6200104e5f198460080262001031565b1980831691505092915050565b5f6200106883836200103d565b9150826002028217905092915050565b620010838262000e14565b67ffffffffffffffff8111156200109f576200109e62000e1e565b5b620010ab825462000e78565b620010b882828562000fe1565b5f60209050601f831160018114620010ee575f8415620010d9578287015190505b620010e585826200105b565b86555062001154565b601f198416620010fe8662000eac565b5f5b82811015620011275784890151825560018201915060208501945060208101905062001100565b8683101562001147578489015162001143601f8916826200103d565b8355505b6001600288020188555050505b505050505050565b7f43616e6e6f74207472616e7366657220746f2073656c660000000000000000005f82015250565b5f6200119260178362000d96565b91506200119f826200115c565b602082019050919050565b5f6020820190508181035f830152620011c38162001184565b9050919050565b60805161572a620011ea5f395f818161115401526111a8015261572a5ff3fe608060405234801561000f575f80fd5b50600436106103ad575f3560e01c806370d02e9b116101f2578063b88d4fde11610118578063dd4b23cd116100ab578063f1b65bdb1161007a578063f1b65bdb14610b6c578063f2fde38b14610b8a578063fc2a88c314610ba6578063fe979ea214610bc4576103ad565b8063dd4b23cd14610af8578063e0c8628914610b02578063e985e9c514610b20578063efb8e10914610b50576103ad565b8063d34c9d46116100e7578063d34c9d4614610a80578063d826f88f14610a9e578063d8a4676f14610aa8578063dc91697e14610ada576103ad565b8063b88d4fde14610a0c578063bc173c5f14610a28578063c87b56dd14610a46578063c8cf437814610a76576103ad565b80638de8a92511610190578063a22cb4651161015f578063a22cb465146109ac578063a7688538146109c8578063b2f343e6146109e6578063b688a36314610a02576103ad565b80638de8a925146108fc57806395d89b411461092c5780639b211fc41461094a578063a168fa891461097a576103ad565b806379e4a5b7116101cc57806379e4a5b71461085f5780638796ba8c1461087d5780638da5cb5b146108ad5780638dc10768146108cb576103ad565b806370d02e9b1461080657806371f01e0f1461082457806379ba509714610855576103ad565b806342842e0e116102d75780635723c788116102755780636352211e116102445780636352211e1461076e5780636c7adaa51461079e5780636f2e9fbf146107ba57806370a08231146107d6576103ad565b80635723c788146106b85780635ba58387146106e85780635f59d29c1461071957806361958ca914610737576103ad565b80635257cd90116102b15780635257cd901461064457806354e52aed14610674578063557fcdd81461067e578063567558dc1461069a576103ad565b806342842e0e146105ec5780634e2786fb1461060857806350ace4e514610626576103ad565b80631fe543e31161034f5780632f64bcab1161031e5780632f64bcab146105505780632ff285bc146105805780633564ac9c146105b057806337d179bb146105ce576103ad565b80631fe543e3146104b65780632199ea3a146104d257806323b872dd146105035780632874f11a1461051f576103ad565b8063081812fc1161038b578063081812fc14610430578063095ea7b3146104605780630a1aa7651461047c5780631c69d17d14610486576103ad565b806301ffc9a7146103b157806305736bce146103e157806306fdde0314610412575b5f80fd5b6103cb60048036038101906103c69190613c9f565b610bf4565b6040516103d89190613ce4565b60405180910390f35b6103fb60048036038101906103f69190613d30565b610cd5565b604051610409929190613d85565b60405180910390f35b61041a610d10565b6040516104279190613e36565b60405180910390f35b61044a60048036038101906104459190613d30565b610da0565b6040516104579190613e95565b60405180910390f35b61047a60048036038101906104759190613ed8565b610e21565b005b610484610f37565b005b6104a0600480360381019061049b9190613f40565b610f71565b6040516104ad9190613fa4565b60405180910390f35b6104d060048036038101906104cb91906140fd565b611152565b005b6104ec60048036038101906104e79190614157565b611212565b6040516104fa929190613d85565b60405180910390f35b61051d60048036038101906105189190614182565b61123e565b005b61053960048036038101906105349190613ed8565b61129e565b604051610547929190613d85565b60405180910390f35b61056a60048036038101906105659190614157565b6112e4565b60405161057791906142c5565b60405180910390f35b61059a600480360381019061059591906142e5565b6113a2565b6040516105a79190613ce4565b60405180910390f35b6105b86114d4565b6040516105c59190613fa4565b60405180910390f35b6105d66114e6565b6040516105e39190613ce4565b60405180910390f35b61060660048036038101906106019190614182565b611536565b005b610610611555565b60405161061d9190613fa4565b60405180910390f35b61062e611568565b60405161063b9190613fa4565b60405180910390f35b61065e60048036038101906106599190613d30565b61157a565b60405161066b9190614335565b60405180910390f35b61067c61159a565b005b6106986004803603810190610693919061434e565b611717565b005b6106a2611735565b6040516106af91906142c5565b60405180910390f35b6106d260048036038101906106cd9190614157565b6117b6565b6040516106df91906142c5565b60405180910390f35b61070260048036038101906106fd9190613d30565b611874565b604051610710929190613d85565b60405180910390f35b6107216118af565b60405161072e9190613fa4565b60405180910390f35b610751600480360381019061074c9190613d30565b6118c2565b604051610765989796959493929190614432565b60405180910390f35b61078860048036038101906107839190613d30565b61196a565b6040516107959190613e95565b60405180910390f35b6107b860048036038101906107b391906144ae565b611a16565b005b6107d460048036038101906107cf91906144ae565b611a24565b005b6107f060048036038101906107eb9190614157565b611a38565b6040516107fd9190614335565b60405180910390f35b61080e611aec565b60405161081b9190613ce4565b60405180910390f35b61083e60048036038101906108399190613ed8565b611aff565b60405161084c929190613d85565b60405180910390f35b61085d611b45565b005b610867611cd4565b60405161087491906142c5565b60405180910390f35b61089760048036038101906108929190613d30565b611d55565b6040516108a49190614335565b60405180910390f35b6108b5611d75565b6040516108c29190613e95565b60405180910390f35b6108e560048036038101906108e09190613d30565b611d9c565b6040516108f3929190613d85565b60405180910390f35b61091660048036038101906109119190614157565b611dd7565b6040516109239190613ce4565b60405180910390f35b610934611df4565b6040516109419190613e36565b60405180910390f35b610964600480360381019061095f9190614157565b611e84565b6040516109719190614335565b60405180910390f35b610994600480360381019061098f9190613d30565b611e99565b6040516109a3939291906144ec565b60405180910390f35b6109c660048036038101906109c1919061454b565b611ee3565b005b6109d061205e565b6040516109dd9190613fa4565b60405180910390f35b610a0060048036038101906109fb919061434e565b612071565b005b610a0a61210b565b005b610a266004803603810190610a219190614639565b6121ec565b005b610a3061224e565b604051610a3d9190613fa4565b60405180910390f35b610a606004803603810190610a5b9190613d30565b612261565b604051610a6d9190613e36565b60405180910390f35b610a7e6123aa565b005b610a886123e2565b604051610a959190613fa4565b60405180910390f35b610aa661241f565b005b610ac26004803603810190610abd9190613d30565b6124a6565b604051610ad193929190614761565b60405180910390f35b610ae26125e8565b604051610aef9190613fa4565b60405180910390f35b610b00612625565b005b610b0a61265e565b604051610b179190614335565b60405180910390f35b610b3a6004803603810190610b35919061479d565b6128c6565b604051610b479190613ce4565b60405180910390f35b610b6a6004803603810190610b65919061434e565b612954565b005b610b74612972565b604051610b819190613fa4565b60405180910390f35b610ba46004803603810190610b9f9190614157565b612985565b005b610bae612999565b604051610bbb9190614335565b60405180910390f35b610bde6004803603810190610bd991906144ae565b61299f565b604051610beb9190613fa4565b60405180910390f35b5f7f80ac58cd000000000000000000000000000000000000000000000000000000007bffffffffffffffffffffffffffffffffffffffffffffffffffffffff1916827bffffffffffffffffffffffffffffffffffffffffffffffffffffffff19161480610cbe57507f5b5e139f000000000000000000000000000000000000000000000000000000007bffffffffffffffffffffffffffffffffffffffffffffffffffffffff1916827bffffffffffffffffffffffffffffffffffffffffffffffffffffffff1916145b80610cce5750610ccd82612ae8565b5b9050919050565b603e8181548110610ce4575f80fd5b905f5260205f2090600202015f91509050805f015490806001015f9054906101000a900460ff16905082565b606060028054610d1f90614808565b80601f0160208091040260200160405190810160405280929190818152602001828054610d4b90614808565b8015610d965780601f10610d6d57610100808354040283529160200191610d96565b820191905f5260205f20905b815481529060010190602001808311610d7957829003601f168201915b5050505050905090565b5f610daa82612b51565b610de9576040517f08c379a0000000000000000000000000000000000000000000000000000000008152600401610de0906148a8565b60405180910390fd5b60065f8381526020019081526020015f205f9054906101000a900473ffffffffffffffffffffffffffffffffffffffff169050919050565b5f610e2b8261196a565b90508073ffffffffffffffffffffffffffffffffffffffff168373ffffffffffffffffffffffffffffffffffffffff1603610e9b576040517f08c379a0000000000000000000000000000000000000000000000000000000008152600401610e9290614936565b60405180910390fd5b8073ffffffffffffffffffffffffffffffffffffffff16610eba612bb9565b73ffffffffffffffffffffffffffffffffffffffff161480610ee95750610ee881610ee3612bb9565b6128c6565b5b610f28576040517f08c379a0000000000000000000000000000000000000000000000000000000008152600401610f1f906149c4565b60405180910390fd5b610f328383612bc0565b505050565b6009600181819054906101000a900460ff1680929190610f5690614a0f565b91906101000a81548160ff021916908360ff16021790555050565b5f808590505f859050600a8560ff16116110f2575f805f600288610f959190614a64565b60ff1603610fee5783600288610fab9190614a94565b6005610fb79190614ac4565b610fc19190614af8565b915082600288610fd19190614a94565b6005610fdd9190614ac4565b610fe79190614af8565b90506110b0565b60028660ff160361105657836002886110079190614a94565b60056110139190614ac4565b61101d9190614af8565b915082600160028961102f9190614a94565b600561103b9190614ac4565b6110459190614ac4565b61104f9190614af8565b90506110af565b8360016002896110669190614a94565b60056110729190614ac4565b61107c9190614ac4565b6110869190614af8565b9150826002886110969190614a94565b60056110a29190614ac4565b6110ac9190614af8565b90505b5b8060ff168460ff1611156110cb57600194505050505061114a565b8160ff168360ff1611156110e657600294505050505061114a565b5f94505050505061114a565b5f6002866111009190614a64565b60ff1603611144578060ff168260ff1611156111215760019250505061114a565b8060ff168260ff16101561113a5760029250505061114a565b5f9250505061114a565b5f925050505b949350505050565b7f000000000000000000000000000000000000000000000000000000000000000073ffffffffffffffffffffffffffffffffffffffff163373ffffffffffffffffffffffffffffffffffffffff161461120457337f00000000000000000000000000000000000000000000000000000000000000006040517f1cf993f40000000000000000000000000000000000000000000000000000000081526004016111fb929190614b2c565b60405180910390fd5b61120e8282612c76565b5050565b6042602052805f5260405f205f91509050805f015490806001015f9054906101000a900460ff16905082565b61124f611249612bb9565b82612dd8565b61128e576040517f08c379a000000000000000000000000000000000000000000000000000000000815260040161128590614bc3565b60405180910390fd5b611299838383612eb4565b505050565b6041602052815f5260405f2081815481106112b7575f80fd5b905f5260205f2090600202015f9150915050805f015490806001015f9054906101000a900460ff16905082565b606060405f8373ffffffffffffffffffffffffffffffffffffffff1673ffffffffffffffffffffffffffffffffffffffff1681526020019081526020015f20805480602002602001604051908101604052809291908181526020015f905b82821015611397578382905f5260205f2090600202016040518060400160405290815f8201548152602001600182015f9054906101000a900460ff1660ff1660ff168152505081526020019060010190611342565b505050509050919050565b5f60018460ff1603611406575f60016002600a8560ff16815481106113ca576113c9614be1565b5b905f5260205f2001546113dd9190614c0e565b6113e79190614c3e565b9050808460ff16036113fc575f9150506114cd565b60019150506114cd565b60028460ff1603611469575f60016004600a8560ff168154811061142d5761142c614be1565b5b905f5260205f2001546114409190614c0e565b61144a9190614c3e565b9050808460ff160361145f575f9150506114cd565b60019150506114cd565b60038460ff16036114cc575f60016008600a8560ff16815481106114905761148f614be1565b5b905f5260205f2001546114a39190614c0e565b6114ad9190614c3e565b9050808460ff16036114c2575f9150506114cd565b60019150506114cd565b5b9392505050565b60095f9054906101000a900460ff1681565b5f60435f3373ffffffffffffffffffffffffffffffffffffffff1673ffffffffffffffffffffffffffffffffffffffff1681526020019081526020015f205f9054906101000a900460ff16905090565b61155083838360405180602001604052805f8152506121ec565b505050565b600b60029054906101000a900460ff1681565b600b5f9054906101000a900460ff1681565b600a8181548110611589575f80fd5b905f5260205f20015f915090505481565b6303227f28600a5f815481106115b3576115b2614be1565b5b905f5260205f20018190555063356c1996600a6001815481106115d9576115d8614be1565b5b905f5260205f200181905550632d695088600a6002815481106115ff576115fe614be1565b5b905f5260205f20018190555063279df800600a60038154811061162557611624614be1565b5b905f5260205f2001819055506328582b37600a60048154811061164b5761164a614be1565b5b905f5260205f2001819055506303227f28600a60058154811061167157611670614be1565b5b905f5260205f20018190555063356c1996600a60068154811061169757611696614be1565b5b905f5260205f200181905550632d695088600a6007815481106116bd576116bc614be1565b5b905f5260205f20018190555063279df800600a6008815481106116e3576116e2614be1565b5b905f5260205f2001819055506328582b37600a60098154811061170957611708614be1565b5b905f5260205f200181905550565b80600b60036101000a81548160ff021916908360ff16021790555050565b6060603f805480602002602001604051908101604052809291908181526020015f905b828210156117ad578382905f5260205f2090600202016040518060400160405290815f8201548152602001600182015f9054906101000a900460ff1660ff1660ff168152505081526020019060010190611758565b50505050905090565b606060415f8373ffffffffffffffffffffffffffffffffffffffff1673ffffffffffffffffffffffffffffffffffffffff1681526020019081526020015f20805480602002602001604051908101604052809291908181526020015f905b82821015611869578382905f5260205f2090600202016040518060400160405290815f8201548152602001600182015f9054906101000a900460ff1660ff1660ff168152505081526020019060010190611814565b505050509050919050565b603f8181548110611883575f80fd5b905f5260205f2090600202015f91509050805f015490806001015f9054906101000a900460ff16905082565b600960019054906101000a900460ff1681565b600e81601481106118d1575f80fd5b015f91509050805f015f9054906101000a900460ff1690805f0160019054906101000a900460ff1690805f0160029054906101000a900460ff1690805f0160039054906101000a900460ff1690805f0160049054906101000a900460ff1690805f0160059054906101000a900460ff1690805f0160069054906101000a900460ff1690805f0160079054906101000a900460ff16905088565b5f8060045f8481526020019081526020015f205f9054906101000a900473ffffffffffffffffffffffffffffffffffffffff1690505f73ffffffffffffffffffffffffffffffffffffffff168173ffffffffffffffffffffffffffffffffffffffff1603611a0d576040517f08c379a0000000000000000000000000000000000000000000000000000000008152600401611a0490614ce1565b60405180910390fd5b80915050919050565b611a208282613104565b5050565b611a348260ff168260ff1661329b565b5050565b5f8073ffffffffffffffffffffffffffffffffffffffff168273ffffffffffffffffffffffffffffffffffffffff1603611aa7576040517f08c379a0000000000000000000000000000000000000000000000000000000008152600401611a9e90614d6f565b60405180910390fd5b60055f8373ffffffffffffffffffffffffffffffffffffffff1673ffffffffffffffffffffffffffffffffffffffff1681526020019081526020015f20549050919050565b600b60059054906101000a900460ff1681565b6040602052815f5260405f208181548110611b18575f80fd5b905f5260205f2090600202015f9150915050805f015490806001015f9054906101000a900460ff16905082565b60015f9054906101000a900473ffffffffffffffffffffffffffffffffffffffff1673ffffffffffffffffffffffffffffffffffffffff163373ffffffffffffffffffffffffffffffffffffffff1614611bd4576040517f08c379a0000000000000000000000000000000000000000000000000000000008152600401611bcb90614dd7565b60405180910390fd5b5f805f9054906101000a900473ffffffffffffffffffffffffffffffffffffffff169050335f806101000a81548173ffffffffffffffffffffffffffffffffffffffff021916908373ffffffffffffffffffffffffffffffffffffffff1602179055505f60015f6101000a81548173ffffffffffffffffffffffffffffffffffffffff021916908373ffffffffffffffffffffffffffffffffffffffff1602179055503373ffffffffffffffffffffffffffffffffffffffff168173ffffffffffffffffffffffffffffffffffffffff167f8be0079c531659141344cd1fd0a4f28419497f9722a3daafe3b4186f6b6457e060405160405180910390a350565b6060603e805480602002602001604051908101604052809291908181526020015f905b82821015611d4c578382905f5260205f2090600202016040518060400160405290815f8201548152602001600182015f9054906101000a900460ff1660ff1660ff168152505081526020019060010190611cf7565b50505050905090565b60388181548110611d64575f80fd5b905f5260205f20015f915090505481565b5f805f9054906101000a900473ffffffffffffffffffffffffffffffffffffffff16905090565b603d8181548110611dab575f80fd5b905f5260205f2090600202015f91509050805f015490806001015f9054906101000a900460ff16905082565b6043602052805f5260405f205f915054906101000a900460ff1681565b606060038054611e0390614808565b80601f0160208091040260200160405190810160405280929190818152602001828054611e2f90614808565b8015611e7a5780601f10611e5157610100808354040283529160200191611e7a565b820191905f5260205f20905b815481529060010190602001808311611e5d57829003601f168201915b5050505050905090565b6044602052805f5260405f205f915090505481565b6036602052805f5260405f205f91509050805f015f9054906101000a900460ff1690805f0160019054906101000a900460ff1690806002015f9054906101000a900460ff16905083565b611eeb612bb9565b73ffffffffffffffffffffffffffffffffffffffff168273ffffffffffffffffffffffffffffffffffffffff1603611f58576040517f08c379a0000000000000000000000000000000000000000000000000000000008152600401611f4f90614e3f565b60405180910390fd5b8060075f611f64612bb9565b73ffffffffffffffffffffffffffffffffffffffff1673ffffffffffffffffffffffffffffffffffffffff1681526020019081526020015f205f8473ffffffffffffffffffffffffffffffffffffffff1673ffffffffffffffffffffffffffffffffffffffff1681526020019081526020015f205f6101000a81548160ff0219169083151502179055508173ffffffffffffffffffffffffffffffffffffffff1661200d612bb9565b73ffffffffffffffffffffffffffffffffffffffff167f17307eab39ab6107e8899845ad3d59bd9653f200f220920489ca2b5937696c31836040516120529190613ce4565b60405180910390a35050565b600b60019054906101000a900460ff1681565b80600b60046101000a81548160ff021916908360ff160217905550600b60049054906101000a900460ff1660ff166002600a5f815481106120b5576120b4614be1565b5b905f5260205f2001546120c89190614c0e565b036120ed576001600b60056101000a81548160ff021916908315150217905550612108565b5f600b60056101000a81548160ff0219169083151502179055505b50565b600160435f3373ffffffffffffffffffffffffffffffffffffffff1673ffffffffffffffffffffffffffffffffffffffff1681526020019081526020015f205f6101000a81548160ff02191690831515021790555061019060445f3373ffffffffffffffffffffffffffffffffffffffff1673ffffffffffffffffffffffffffffffffffffffff1681526020019081526020015f20819055506121af5f6002613104565b6121bb60086002613104565b6121c7600a6002613104565b6121d360046002613104565b6121df60066002613104565b6121ea600180613104565b565b6121fd6121f7612bb9565b83612dd8565b61223c576040517f08c379a000000000000000000000000000000000000000000000000000000000815260040161223390614bc3565b60405180910390fd5b612248848484846133d8565b50505050565b600b60039054906101000a900460ff1681565b606061226c82612b51565b6122ab576040517f08c379a00000000000000000000000000000000000000000000000000000000081526004016122a290614ecd565b60405180910390fd5b5f60085f8481526020019081526020015f2080546122c890614808565b80601f01602080910402602001604051908101604052809291908181526020018280546122f490614808565b801561233f5780601f106123165761010080835404028352916020019161233f565b820191905f5260205f20905b81548152906001019060200180831161232257829003601f168201915b505050505090505f61234f613434565b90505f8151036123635781925050506123a5565b5f8251111561239757808260405160200161237f929190614f25565b604051602081830303815290604052925050506123a5565b6123a08461344a565b925050505b919050565b6001600b60029054906101000a900460ff166123c69190614af8565b600b60026101000a81548160ff021916908360ff160217905550565b5f6022600960019054906101000a900460ff1660ff166014811061240957612408614be1565b5b015f0160019054906101000a900460ff16905090565b5f60095f6101000a81548160ff021916908360ff1602179055505f600b60026101000a81548160ff021916908360ff1602179055505f600b5f6101000a81548160ff021916908360ff1602179055505f600b60016101000a81548160ff021916908360ff1602179055505f600b60036101000a81548160ff021916908360ff160217905550565b5f60605f60365f8581526020019081526020015f205f0160019054906101000a900460ff1661250a576040517f08c379a000000000000000000000000000000000000000000000000000000000815260040161250190614f92565b60405180910390fd5b5f60365f8681526020019081526020015f206040518060800160405290815f82015f9054906101000a900460ff161515151581526020015f820160019054906101000a900460ff16151515158152602001600182018054806020026020016040519081016040528092919081815260200182805480156125a757602002820191905f5260205f20905b815481526020019060010190808311612593575b50505050508152602001600282015f9054906101000a900460ff1615151515815250509050805f015181604001518260600151935093509350509193909250565b5f6022600960019054906101000a900460ff1660ff166014811061260f5761260e614be1565b5b015f0160029054906101000a900460ff16905090565b60095f81819054906101000a900460ff168092919061264390614a0f565b91906101000a81548160ff021916908360ff16021790555050565b5f60375f9054906101000a900473ffffffffffffffffffffffffffffffffffffffff1673ffffffffffffffffffffffffffffffffffffffff16635d3b1d30603a54603760149054906101000a900467ffffffffffffffff16603b60049054906101000a900461ffff16603b5f9054906101000a900463ffffffff16603b60069054906101000a900463ffffffff166040518663ffffffff1660e01b815260040161270c959493929190615024565b6020604051808303815f875af1158015612728573d5f803e3d5ffd5b505050506040513d601f19601f8201168201806040525081019061274c9190615089565b905060405180608001604052805f151581526020016001151581526020015f67ffffffffffffffff81111561278457612783613fc1565b5b6040519080825280602002602001820160405280156127b25781602001602082028036833780820191505090505b5081526020016001151581525060365f8381526020019081526020015f205f820151815f015f6101000a81548160ff0219169083151502179055506020820151815f0160016101000a81548160ff0219169083151502179055506040820151816001019080519060200190612828929190613bd3565b506060820151816002015f6101000a81548160ff021916908315150217905550905050603881908060018154018082558091505060019003905f5260205f20015f9091909190915055806039819055507fcc58b13ad3eab50626c6a6300b1d139cd6ebb1688a7cced9461c2f7e762665ee81603b60069054906101000a900463ffffffff166040516128bb9291906150b4565b60405180910390a190565b5f60075f8473ffffffffffffffffffffffffffffffffffffffff1673ffffffffffffffffffffffffffffffffffffffff1681526020019081526020015f205f8373ffffffffffffffffffffffffffffffffffffffff1673ffffffffffffffffffffffffffffffffffffffff1681526020019081526020015f205f9054906101000a900460ff16905092915050565b80600b60036101000a81548160ff021916908360ff16021790555050565b600b60049054906101000a900460ff1681565b61298d6134ee565b6129968161357d565b50565b60395481565b5f805f806002600a876129b29190614a64565b6129bc9190614a94565b905060028560ff1603612a3a57600c8160ff16815481106129e0576129df614be1565b5b905f5260205f2090602091828204019190069054906101000a900460ff169150600d600581548110612a1557612a14614be1565b5b905f5260205f2090602091828204019190069054906101000a900460ff169250612aa7565b600d8160ff1681548110612a5157612a50614be1565b5b905f5260205f2090602091828204019190069054906101000a900460ff169150600c600581548110612a8657612a85614be1565b5b905f5260205f2090602091828204019190069054906101000a900460ff1692505b8260ff168260ff161115612ac15760039350505050612ae2565b8260ff168260ff1603612ada5760029350505050612ae2565b600193505050505b92915050565b5f7f01ffc9a7000000000000000000000000000000000000000000000000000000007bffffffffffffffffffffffffffffffffffffffffffffffffffffffff1916827bffffffffffffffffffffffffffffffffffffffffffffffffffffffff1916149050919050565b5f8073ffffffffffffffffffffffffffffffffffffffff1660045f8481526020019081526020015f205f9054906101000a900473ffffffffffffffffffffffffffffffffffffffff1673ffffffffffffffffffffffffffffffffffffffff1614159050919050565b5f33905090565b8160065f8381526020019081526020015f205f6101000a81548173ffffffffffffffffffffffffffffffffffffffff021916908373ffffffffffffffffffffffffffffffffffffffff160217905550808273ffffffffffffffffffffffffffffffffffffffff16612c308361196a565b73ffffffffffffffffffffffffffffffffffffffff167f8c5be1e5ebec7d5bd14f71427d1e84f3dd0314c0f7b2291e5b200ac8c7c3b92560405160405180910390a45050565b60365f8381526020019081526020015f205f0160019054906101000a900460ff16612cd6576040517f08c379a0000000000000000000000000000000000000000000000000000000008152600401612ccd90614f92565b60405180910390fd5b600160365f8481526020019081526020015f205f015f6101000a81548160ff0219169083151502179055508060365f8481526020019081526020015f206001019080519060200190612d29929190613bd3565b505f6002825f81518110612d4057612d3f614be1565b5b6020026020010151612d529190614c0e565b03612d8457600160365f8481526020019081526020015f206002015f6101000a81548160ff0219169083151502179055505b80600a9080519060200190612d9a929190613bd3565b507ffe2e2d779dba245964d4e3ef9b994be63856fd568bf7d3ca9e224755cb1bd54d8282604051612dcc9291906150db565b60405180910390a15050565b5f612de282612b51565b612e21576040517f08c379a0000000000000000000000000000000000000000000000000000000008152600401612e1890615179565b60405180910390fd5b5f612e2b8361196a565b90508073ffffffffffffffffffffffffffffffffffffffff168473ffffffffffffffffffffffffffffffffffffffff161480612e9a57508373ffffffffffffffffffffffffffffffffffffffff16612e8284610da0565b73ffffffffffffffffffffffffffffffffffffffff16145b80612eab5750612eaa81856128c6565b5b91505092915050565b8273ffffffffffffffffffffffffffffffffffffffff16612ed48261196a565b73ffffffffffffffffffffffffffffffffffffffff1614612f2a576040517f08c379a0000000000000000000000000000000000000000000000000000000008152600401612f2190615207565b60405180910390fd5b5f73ffffffffffffffffffffffffffffffffffffffff168273ffffffffffffffffffffffffffffffffffffffff1603612f98576040517f08c379a0000000000000000000000000000000000000000000000000000000008152600401612f8f90615295565b60405180910390fd5b612fa38383836136a7565b612fad5f82612bc0565b600160055f8573ffffffffffffffffffffffffffffffffffffffff1673ffffffffffffffffffffffffffffffffffffffff1681526020019081526020015f205f828254612ffa91906152b3565b92505081905550600160055f8473ffffffffffffffffffffffffffffffffffffffff1673ffffffffffffffffffffffffffffffffffffffff1681526020019081526020015f205f82825461304e9190614c3e565b925050819055508160045f8381526020019081526020015f205f6101000a81548173ffffffffffffffffffffffffffffffffffffffff021916908373ffffffffffffffffffffffffffffffffffffffff160217905550808273ffffffffffffffffffffffffffffffffffffffff168473ffffffffffffffffffffffffffffffffffffffff167fddf252ad1be2c89b69c2b068fc378daa952ba7f163c4a11628f55a4df523b3ef60405160405180910390a4505050565b60018160ff16036131ab57603f8260ff168154811061312657613125614be1565b5b905f5260205f20906002020160425f3373ffffffffffffffffffffffffffffffffffffffff1673ffffffffffffffffffffffffffffffffffffffff1681526020019081526020015f205f820154815f0155600182015f9054906101000a900460ff16816001015f6101000a81548160ff021916908360ff160217905550905050613274565b60028160ff16036132735760405f3373ffffffffffffffffffffffffffffffffffffffff1673ffffffffffffffffffffffffffffffffffffffff1681526020019081526020015f20603e8360ff168154811061320a57613209614be1565b5b905f5260205f209060020201908060018154018082558091505060019003905f5260205f2090600202015f909190919091505f820154815f0155600182015f9054906101000a900460ff16816001015f6101000a81548160ff021916908360ff16021790555050505b5b61328033603c546136ac565b603c5f815480929190613292906152e6565b91905055505050565b60c860445f3373ffffffffffffffffffffffffffffffffffffffff1673ffffffffffffffffffffffffffffffffffffffff1681526020019081526020015f205f8282546132e891906152b3565b92505081905550600281036133b15760415f3373ffffffffffffffffffffffffffffffffffffffff1673ffffffffffffffffffffffffffffffffffffffff1681526020019081526020015f20603e838154811061334857613347614be1565b5b905f5260205f209060020201908060018154018082558091505060019003905f5260205f2090600202015f909190919091505f820154815f0155600182015f9054906101000a900460ff16816001015f6101000a81548160ff021916908360ff16021790555050505b6133bd33603c546136ac565b603c5f8154809291906133cf906152e6565b91905055505050565b6133e3848484612eb4565b6133ef848484846136c9565b61342e576040517f08c379a00000000000000000000000000000000000000000000000000000000081526004016134259061539d565b60405180910390fd5b50505050565b606060405180602001604052805f815250905090565b606061345582612b51565b613494576040517f08c379a000000000000000000000000000000000000000000000000000000000815260040161348b9061542b565b60405180910390fd5b5f61349d613434565b90505f8151116134bb5760405180602001604052805f8152506134e6565b806134c58461384b565b6040516020016134d6929190614f25565b6040516020818303038152906040525b915050919050565b5f8054906101000a900473ffffffffffffffffffffffffffffffffffffffff1673ffffffffffffffffffffffffffffffffffffffff163373ffffffffffffffffffffffffffffffffffffffff161461357b576040517f08c379a000000000000000000000000000000000000000000000000000000000815260040161357290615493565b60405180910390fd5b565b3373ffffffffffffffffffffffffffffffffffffffff168173ffffffffffffffffffffffffffffffffffffffff16036135eb576040517f08c379a00000000000000000000000000000000000000000000000000000000081526004016135e2906154fb565b60405180910390fd5b8060015f6101000a81548173ffffffffffffffffffffffffffffffffffffffff021916908373ffffffffffffffffffffffffffffffffffffffff1602179055508073ffffffffffffffffffffffffffffffffffffffff165f8054906101000a900473ffffffffffffffffffffffffffffffffffffffff1673ffffffffffffffffffffffffffffffffffffffff167fed8889f560326eb138920d842192f0eb3dd22b4f139c87a2c57538e05bae127860405160405180910390a350565b505050565b6136c5828260405180602001604052805f8152506139a4565b5050565b5f6136e98473ffffffffffffffffffffffffffffffffffffffff166139fe565b1561383e578373ffffffffffffffffffffffffffffffffffffffff1663150b7a02613712612bb9565b8786866040518563ffffffff1660e01b8152600401613734949392919061556b565b6020604051808303815f875af192505050801561376f57506040513d601f19601f8201168201806040525081019061376c91906155c9565b60015b6137ee573d805f811461379d576040519150601f19603f3d011682016040523d82523d5f602084013e6137a2565b606091505b505f8151036137e6576040517f08c379a00000000000000000000000000000000000000000000000000000000081526004016137dd9061539d565b60405180910390fd5b805181602001fd5b63150b7a0260e01b7bffffffffffffffffffffffffffffffffffffffffffffffffffffffff1916817bffffffffffffffffffffffffffffffffffffffffffffffffffffffff191614915050613843565b600190505b949350505050565b60605f8203613891576040518060400160405280600181526020017f3000000000000000000000000000000000000000000000000000000000000000815250905061399f565b5f8290505f5b5f82146138c05780806138a9906152e6565b915050600a826138b991906155f4565b9150613897565b5f8167ffffffffffffffff8111156138db576138da613fc1565b5b6040519080825280601f01601f19166020018201604052801561390d5781602001600182028036833780820191505090505b5090505b5f85146139985760018261392591906152b3565b9150600a856139349190614c0e565b60306139409190614c3e565b60f81b81838151811061395657613955614be1565b5b60200101907effffffffffffffffffffffffffffffffffffffffffffffffffffffffffffff191690815f1a905350600a8561399191906155f4565b9450613911565b8093505050505b919050565b6139ae8383613a0f565b6139ba5f8484846136c9565b6139f9576040517f08c379a00000000000000000000000000000000000000000000000000000000081526004016139f09061539d565b60405180910390fd5b505050565b5f80823b90505f8111915050919050565b5f73ffffffffffffffffffffffffffffffffffffffff168273ffffffffffffffffffffffffffffffffffffffff1603613a7d576040517f08c379a0000000000000000000000000000000000000000000000000000000008152600401613a749061566e565b60405180910390fd5b613a8681612b51565b15613ac6576040517f08c379a0000000000000000000000000000000000000000000000000000000008152600401613abd906156d6565b60405180910390fd5b613ad15f83836136a7565b600160055f8473ffffffffffffffffffffffffffffffffffffffff1673ffffffffffffffffffffffffffffffffffffffff1681526020019081526020015f205f828254613b1e9190614c3e565b925050819055508160045f8381526020019081526020015f205f6101000a81548173ffffffffffffffffffffffffffffffffffffffff021916908373ffffffffffffffffffffffffffffffffffffffff160217905550808273ffffffffffffffffffffffffffffffffffffffff165f73ffffffffffffffffffffffffffffffffffffffff167fddf252ad1be2c89b69c2b068fc378daa952ba7f163c4a11628f55a4df523b3ef60405160405180910390a45050565b828054828255905f5260205f20908101928215613c0d579160200282015b82811115613c0c578251825591602001919060010190613bf1565b5b509050613c1a9190613c1e565b5090565b5b80821115613c35575f815f905550600101613c1f565b5090565b5f604051905090565b5f80fd5b5f80fd5b5f7fffffffff0000000000000000000000000000000000000000000000000000000082169050919050565b613c7e81613c4a565b8114613c88575f80fd5b50565b5f81359050613c9981613c75565b92915050565b5f60208284031215613cb457613cb3613c42565b5b5f613cc184828501613c8b565b91505092915050565b5f8115159050919050565b613cde81613cca565b82525050565b5f602082019050613cf75f830184613cd5565b92915050565b5f819050919050565b613d0f81613cfd565b8114613d19575f80fd5b50565b5f81359050613d2a81613d06565b92915050565b5f60208284031215613d4557613d44613c42565b5b5f613d5284828501613d1c565b91505092915050565b613d6481613cfd565b82525050565b5f60ff82169050919050565b613d7f81613d6a565b82525050565b5f604082019050613d985f830185613d5b565b613da56020830184613d76565b9392505050565b5f81519050919050565b5f82825260208201905092915050565b5f5b83811015613de3578082015181840152602081019050613dc8565b5f8484015250505050565b5f601f19601f8301169050919050565b5f613e0882613dac565b613e128185613db6565b9350613e22818560208601613dc6565b613e2b81613dee565b840191505092915050565b5f6020820190508181035f830152613e4e8184613dfe565b905092915050565b5f73ffffffffffffffffffffffffffffffffffffffff82169050919050565b5f613e7f82613e56565b9050919050565b613e8f81613e75565b82525050565b5f602082019050613ea85f830184613e86565b92915050565b613eb781613e75565b8114613ec1575f80fd5b50565b5f81359050613ed281613eae565b92915050565b5f8060408385031215613eee57613eed613c42565b5b5f613efb85828601613ec4565b9250506020613f0c85828601613d1c565b9150509250929050565b613f1f81613d6a565b8114613f29575f80fd5b50565b5f81359050613f3a81613f16565b92915050565b5f805f8060808587031215613f5857613f57613c42565b5b5f613f6587828801613f2c565b9450506020613f7687828801613f2c565b9350506040613f8787828801613f2c565b9250506060613f9887828801613f2c565b91505092959194509250565b5f602082019050613fb75f830184613d76565b92915050565b5f80fd5b7f4e487b71000000000000000000000000000000000000000000000000000000005f52604160045260245ffd5b613ff782613dee565b810181811067ffffffffffffffff8211171561401657614015613fc1565b5b80604052505050565b5f614028613c39565b90506140348282613fee565b919050565b5f67ffffffffffffffff82111561405357614052613fc1565b5b602082029050602081019050919050565b5f80fd5b5f61407a61407584614039565b61401f565b9050808382526020820190506020840283018581111561409d5761409c614064565b5b835b818110156140c657806140b28882613d1c565b84526020840193505060208101905061409f565b5050509392505050565b5f82601f8301126140e4576140e3613fbd565b5b81356140f4848260208601614068565b91505092915050565b5f806040838503121561411357614112613c42565b5b5f61412085828601613d1c565b925050602083013567ffffffffffffffff81111561414157614140613c46565b5b61414d858286016140d0565b9150509250929050565b5f6020828403121561416c5761416b613c42565b5b5f61417984828501613ec4565b91505092915050565b5f805f6060848603121561419957614198613c42565b5b5f6141a686828701613ec4565b93505060206141b786828701613ec4565b92505060406141c886828701613d1c565b9150509250925092565b5f81519050919050565b5f82825260208201905092915050565b5f819050602082019050919050565b61420481613cfd565b82525050565b61421381613d6a565b82525050565b604082015f82015161422d5f8501826141fb565b506020820151614240602085018261420a565b50505050565b5f6142518383614219565b60408301905092915050565b5f602082019050919050565b5f614273826141d2565b61427d81856141dc565b9350614288836141ec565b805f5b838110156142b857815161429f8882614246565b97506142aa8361425d565b92505060018101905061428b565b5085935050505092915050565b5f6020820190508181035f8301526142dd8184614269565b905092915050565b5f805f606084860312156142fc576142fb613c42565b5b5f61430986828701613f2c565b935050602061431a86828701613f2c565b925050604061432b86828701613f2c565b9150509250925092565b5f6020820190506143485f830184613d5b565b92915050565b5f6020828403121561436357614362613c42565b5b5f61437084828501613f2c565b91505092915050565b7f4e487b71000000000000000000000000000000000000000000000000000000005f52602160045260245ffd5b600281106143b7576143b6614379565b5b50565b5f8190506143c7826143a6565b919050565b5f6143d6826143ba565b9050919050565b6143e6816143cc565b82525050565b600281106143fd576143fc614379565b5b50565b5f81905061440d826143ec565b919050565b5f61441c82614400565b9050919050565b61442c81614412565b82525050565b5f610100820190506144465f83018b613d76565b614453602083018a613d76565b6144606040830189613d76565b61446d6060830188613cd5565b61447a6080830187613d76565b61448760a0830186613cd5565b61449460c08301856143dd565b6144a160e0830184614423565b9998505050505050505050565b5f80604083850312156144c4576144c3613c42565b5b5f6144d185828601613f2c565b92505060206144e285828601613f2c565b9150509250929050565b5f6060820190506144ff5f830186613cd5565b61450c6020830185613cd5565b6145196040830184613cd5565b949350505050565b61452a81613cca565b8114614534575f80fd5b50565b5f8135905061454581614521565b92915050565b5f806040838503121561456157614560613c42565b5b5f61456e85828601613ec4565b925050602061457f85828601614537565b9150509250929050565b5f80fd5b5f67ffffffffffffffff8211156145a7576145a6613fc1565b5b6145b082613dee565b9050602081019050919050565b828183375f83830152505050565b5f6145dd6145d88461458d565b61401f565b9050828152602081018484840111156145f9576145f8614589565b5b6146048482856145bd565b509392505050565b5f82601f8301126146205761461f613fbd565b5b81356146308482602086016145cb565b91505092915050565b5f805f806080858703121561465157614650613c42565b5b5f61465e87828801613ec4565b945050602061466f87828801613ec4565b935050604061468087828801613d1c565b925050606085013567ffffffffffffffff8111156146a1576146a0613c46565b5b6146ad8782880161460c565b91505092959194509250565b5f81519050919050565b5f82825260208201905092915050565b5f819050602082019050919050565b5f6146ed83836141fb565b60208301905092915050565b5f602082019050919050565b5f61470f826146b9565b61471981856146c3565b9350614724836146d3565b805f5b8381101561475457815161473b88826146e2565b9750614746836146f9565b925050600181019050614727565b5085935050505092915050565b5f6060820190506147745f830186613cd5565b81810360208301526147868185614705565b90506147956040830184613cd5565b949350505050565b5f80604083850312156147b3576147b2613c42565b5b5f6147c085828601613ec4565b92505060206147d185828601613ec4565b9150509250929050565b7f4e487b71000000000000000000000000000000000000000000000000000000005f52602260045260245ffd5b5f600282049050600182168061481f57607f821691505b602082108103614832576148316147db565b5b50919050565b7f4552433732313a20617070726f76656420717565727920666f72206e6f6e65785f8201527f697374656e7420746f6b656e0000000000000000000000000000000000000000602082015250565b5f614892602c83613db6565b915061489d82614838565b604082019050919050565b5f6020820190508181035f8301526148bf81614886565b9050919050565b7f4552433732313a20617070726f76616c20746f2063757272656e74206f776e655f8201527f7200000000000000000000000000000000000000000000000000000000000000602082015250565b5f614920602183613db6565b915061492b826148c6565b604082019050919050565b5f6020820190508181035f83015261494d81614914565b9050919050565b7f4552433732313a20617070726f76652063616c6c6572206973206e6f74206f775f8201527f6e6572206e6f7220617070726f76656420666f7220616c6c0000000000000000602082015250565b5f6149ae603883613db6565b91506149b982614954565b604082019050919050565b5f6020820190508181035f8301526149db816149a2565b9050919050565b7f4e487b71000000000000000000000000000000000000000000000000000000005f52601160045260245ffd5b5f614a1982613d6a565b915060ff8203614a2c57614a2b6149e2565b5b600182019050919050565b7f4e487b71000000000000000000000000000000000000000000000000000000005f52601260045260245ffd5b5f614a6e82613d6a565b9150614a7983613d6a565b925082614a8957614a88614a37565b5b828206905092915050565b5f614a9e82613d6a565b9150614aa983613d6a565b925082614ab957614ab8614a37565b5b828204905092915050565b5f614ace82613d6a565b9150614ad983613d6a565b9250828203905060ff811115614af257614af16149e2565b5b92915050565b5f614b0282613d6a565b9150614b0d83613d6a565b9250828201905060ff811115614b2657614b256149e2565b5b92915050565b5f604082019050614b3f5f830185613e86565b614b4c6020830184613e86565b9392505050565b7f4552433732313a207472616e736665722063616c6c6572206973206e6f74206f5f8201527f776e6572206e6f7220617070726f766564000000000000000000000000000000602082015250565b5f614bad603183613db6565b9150614bb882614b53565b604082019050919050565b5f6020820190508181035f830152614bda81614ba1565b9050919050565b7f4e487b71000000000000000000000000000000000000000000000000000000005f52603260045260245ffd5b5f614c1882613cfd565b9150614c2383613cfd565b925082614c3357614c32614a37565b5b828206905092915050565b5f614c4882613cfd565b9150614c5383613cfd565b9250828201905080821115614c6b57614c6a6149e2565b5b92915050565b7f4552433732313a206f776e657220717565727920666f72206e6f6e65786973745f8201527f656e7420746f6b656e0000000000000000000000000000000000000000000000602082015250565b5f614ccb602983613db6565b9150614cd682614c71565b604082019050919050565b5f6020820190508181035f830152614cf881614cbf565b9050919050565b7f4552433732313a2062616c616e636520717565727920666f7220746865207a655f8201527f726f206164647265737300000000000000000000000000000000000000000000602082015250565b5f614d59602a83613db6565b9150614d6482614cff565b604082019050919050565b5f6020820190508181035f830152614d8681614d4d565b9050919050565b7f4d7573742062652070726f706f736564206f776e6572000000000000000000005f82015250565b5f614dc1601683613db6565b9150614dcc82614d8d565b602082019050919050565b5f6020820190508181035f830152614dee81614db5565b9050919050565b7f4552433732313a20617070726f766520746f2063616c6c6572000000000000005f82015250565b5f614e29601983613db6565b9150614e3482614df5565b602082019050919050565b5f6020820190508181035f830152614e5681614e1d565b9050919050565b7f45524337323155524953746f726167653a2055524920717565727920666f72205f8201527f6e6f6e6578697374656e7420746f6b656e000000000000000000000000000000602082015250565b5f614eb7603183613db6565b9150614ec282614e5d565b604082019050919050565b5f6020820190508181035f830152614ee481614eab565b9050919050565b5f81905092915050565b5f614eff82613dac565b614f098185614eeb565b9350614f19818560208601613dc6565b80840191505092915050565b5f614f308285614ef5565b9150614f3c8284614ef5565b91508190509392505050565b7f72657175657374206e6f7420666f756e640000000000000000000000000000005f82015250565b5f614f7c601183613db6565b9150614f8782614f48565b602082019050919050565b5f6020820190508181035f830152614fa981614f70565b9050919050565b5f819050919050565b614fc281614fb0565b82525050565b5f67ffffffffffffffff82169050919050565b614fe481614fc8565b82525050565b5f61ffff82169050919050565b61500081614fea565b82525050565b5f63ffffffff82169050919050565b61501e81615006565b82525050565b5f60a0820190506150375f830188614fb9565b6150446020830187614fdb565b6150516040830186614ff7565b61505e6060830185615015565b61506b6080830184615015565b9695505050505050565b5f8151905061508381613d06565b92915050565b5f6020828403121561509e5761509d613c42565b5b5f6150ab84828501615075565b91505092915050565b5f6040820190506150c75f830185613d5b565b6150d46020830184615015565b9392505050565b5f6040820190506150ee5f830185613d5b565b81810360208301526151008184614705565b90509392505050565b7f4552433732313a206f70657261746f7220717565727920666f72206e6f6e65785f8201527f697374656e7420746f6b656e0000000000000000000000000000000000000000602082015250565b5f615163602c83613db6565b915061516e82615109565b604082019050919050565b5f6020820190508181035f83015261519081615157565b9050919050565b7f4552433732313a207472616e73666572206f6620746f6b656e207468617420695f8201527f73206e6f74206f776e0000000000000000000000000000000000000000000000602082015250565b5f6151f1602983613db6565b91506151fc82615197565b604082019050919050565b5f6020820190508181035f83015261521e816151e5565b9050919050565b7f4552433732313a207472616e7366657220746f20746865207a65726f206164645f8201527f7265737300000000000000000000000000000000000000000000000000000000602082015250565b5f61527f602483613db6565b915061528a82615225565b604082019050919050565b5f6020820190508181035f8301526152ac81615273565b9050919050565b5f6152bd82613cfd565b91506152c883613cfd565b92508282039050818111156152e0576152df6149e2565b5b92915050565b5f6152f082613cfd565b91507fffffffffffffffffffffffffffffffffffffffffffffffffffffffffffffffff8203615322576153216149e2565b5b600182019050919050565b7f4552433732313a207472616e7366657220746f206e6f6e2045524337323152655f8201527f63656976657220696d706c656d656e7465720000000000000000000000000000602082015250565b5f615387603283613db6565b91506153928261532d565b604082019050919050565b5f6020820190508181035f8301526153b48161537b565b9050919050565b7f4552433732314d657461646174613a2055524920717565727920666f72206e6f5f8201527f6e6578697374656e7420746f6b656e0000000000000000000000000000000000602082015250565b5f615415602f83613db6565b9150615420826153bb565b604082019050919050565b5f6020820190508181035f83015261544281615409565b9050919050565b7f4f6e6c792063616c6c61626c65206279206f776e6572000000000000000000005f82015250565b5f61547d601683613db6565b915061548882615449565b602082019050919050565b5f6020820190508181035f8301526154aa81615471565b9050919050565b7f43616e6e6f74207472616e7366657220746f2073656c660000000000000000005f82015250565b5f6154e5601783613db6565b91506154f0826154b1565b602082019050919050565b5f6020820190508181035f830152615512816154d9565b9050919050565b5f81519050919050565b5f82825260208201905092915050565b5f61553d82615519565b6155478185615523565b9350615557818560208601613dc6565b61556081613dee565b840191505092915050565b5f60808201905061557e5f830187613e86565b61558b6020830186613e86565b6155986040830185613d5b565b81810360608301526155aa8184615533565b905095945050505050565b5f815190506155c381613c75565b92915050565b5f602082840312156155de576155dd613c42565b5b5f6155eb848285016155b5565b91505092915050565b5f6155fe82613cfd565b915061560983613cfd565b92508261561957615618614a37565b5b828204905092915050565b7f4552433732313a206d696e7420746f20746865207a65726f20616464726573735f82015250565b5f615658602083613db6565b915061566382615624565b602082019050919050565b5f6020820190508181035f8301526156858161564c565b9050919050565b7f4552433732313a20746f6b656e20616c7265616479206d696e746564000000005f82015250565b5f6156c0601c83613db6565b91506156cb8261568c565b602082019050919050565b5f6020820190508181035f8301526156ed816156b4565b905091905056fea26469706673582212202351dbc7c61b5e4990be12c8d6b48d79112e3595267e5788930235aedfc6800564736f6c63430008140033",
  "immutableReferences": {
    "192": [
      {
        "length": 32,
        "start": 4436
      },
      {
        "length": 32,
        "start": 4520
      }
    ]
  },
  "source": "// SPDX-License-Identifier: MIT\r\n// An example of a consumer contract that relies on a subscription for funding.\r\npragma solidity ^0.8.7;\r\n\r\nimport \"@chainlink/contracts/src/v0.8/interfaces/VRFCoordinatorV2Interface.sol\";\r\nimport \"@chainlink/contracts/src/v0.8/VRFConsumerBaseV2.sol\";\r\nimport \"@chainlink/contracts/src/v0.8/ConfirmedOwner.sol\";\r\nimport \"@openzeppelin/contracts/token/ERC721/extensions/ERC721URIStorage.sol\";\r\n\r\n/**\r\n * Request testnet LINK and ETH here: https://faucets.chain.link/\r\n * Find information on LINK Token Contracts and get the latest ETH and LINK faucets here: https://docs.chain.link/docs/link-token-contracts/\r\n */\r\n\r\n/**\r\n * THIS IS AN EXAMPLE CONTRACT THAT USES HARDCODED VALUES FOR CLARITY.\r\n * THIS IS AN EXAMPLE CONTRACT THAT USES UN-AUDITED CODE.\r\n * DO NOT USE THIS CODE IN PRODUCTION.\r\n */\r\n\r\ncontract Web3Football is VRFConsumerBaseV2, ConfirmedOwner, ERC721URIStorage {\r\n    uint8 public shoot_counter = 0;\r\n    uint8 public round_counter;\r\n    round_winner status = round_winner.MATCH_GOING_ON;\r\n    uint256[] public randomNumbers;\r\n\r\n    uint8 public team1Score = 0;\r\n    uint8 public team2Score = 0;\r\n    uint8 public roundNumber = 0;\r\n\r\n    function initialize_array() public {\r\n        randomNumbers[0] = 52592424;\r\n        randomNumbers[1] = 896276886;\r\n        randomNumbers[2] = 761876616;\r\n        randomNumbers[3] = 664664064;\r\n        randomNumbers[4] = 676866871;\r\n        randomNumbers[5] = 52592424;\r\n        randomNumbers[6] = 896276886;\r\n        randomNumbers[7] = 761876616;\r\n        randomNumbers[8] = 664664064;\r\n        randomNumbers[9] = 676866871;\r\n    }\r\n\r\n    uint8 public playerState;\r\n\r\n    function updatePlayerState(uint8 choice) public {\r\n        playerState = choice;\r\n    }\r\n\r\n    function roundNumberIncrease() public {\r\n        roundNumber = roundNumber + 1;\r\n    }\r\n\r\n    function setPlayerState(uint8 choice) public {\r\n        playerState = choice;\r\n    }\r\n\r\n    //stores the random number in the array\r\n\r\n    //toss\r\n\r\n    uint8 public tossChoice;\r\n    bool public winOrLoss;\r\n\r\n    function toss(uint8 _tossChoice) public {\r\n        tossChoice = _tossChoice;\r\n        if (randomNumbers[0] % 2 == tossChoice) {\r\n            winOrLoss = true;\r\n        } else {\r\n            winOrLoss = false;\r\n        }\r\n    }\r\n\r\n    //structure that stores the details\r\n    struct game_starting_details {\r\n        uint8 player1_level;\r\n        uint8 player2_level;\r\n        string wonToss;\r\n    }\r\n\r\n    enum shoot_winner {\r\n        GOALKEEPER,\r\n        STRIKER\r\n    }\r\n\r\n    enum round_winner {\r\n        TEAM1,\r\n        TEAM2,\r\n        MATCH_GOING_ON\r\n    }\r\n\r\n    enum team_shoot_winner {\r\n        team1,\r\n        team2\r\n    }\r\n\r\n    //For trial purposes\r\n    uint8[] team1Ratings = [3, 1, 1, 2, 2, 2];\r\n    uint8[] team2Ratings = [2, 3, 2, 1, 1, 2];\r\n    //structure that has shoot details\r\n    struct shoot_detail {\r\n        uint8 shoot_no;\r\n        uint8 team1_lvl; //player is team 1\r\n        uint8 team2_lvl; //computer is team 2\r\n        bool select_interface; //checks if the interface has been selected or not\r\n        uint8 selected_interface; // stores the interface a =1, b = 2, c =3\r\n        bool shoot_completed; //checks if the shoot is completed or not\r\n        shoot_winner Winner_playerType;\r\n        team_shoot_winner ShootWinner_Team;\r\n    }\r\n\r\n    //structure that has round details\r\n    struct round_detail {\r\n        uint8 no_of_shoots;\r\n        uint8 team1_score;\r\n        uint8 team2_score;\r\n        bool round_complete;\r\n        round_winner Round_Winner;\r\n    }\r\n\r\n    shoot_detail[20] public Shoot_Detail;\r\n    round_detail[20] Round_Detail;\r\n\r\n    //function that selects which interface to play on\r\n    //return?\r\n    event testi(uint8 shoot_counter, uint8 Team1_Lvl, uint8 Team2_Lvl); //team 1 lvl is goalkeeper level and team 2 levelis striker level\r\n\r\n    function interface_Selection(\r\n        uint8 _shootNumber,\r\n        uint8 _playerState\r\n    ) external view returns (uint8) {\r\n        uint8 goalkeeper;\r\n        uint8 striker;\r\n        uint8 index = (_shootNumber % 10) / 2;\r\n\r\n        if (_playerState == 2) {\r\n            striker = team1Ratings[index];\r\n            goalkeeper = team2Ratings[5];\r\n        } else {\r\n            striker = team2Ratings[index];\r\n            goalkeeper = team1Ratings[5];\r\n        }\r\n\r\n        if (striker > goalkeeper) {\r\n            return 3;\r\n        } else if (striker == goalkeeper) {\r\n            return 2;\r\n        } else {\r\n            return 1;\r\n        }\r\n    }\r\n\r\n    //this function will process the random number and check the result\r\n    function penalty_shoot(\r\n        uint8 penalty_interface,\r\n        uint8 user_choice,\r\n        uint8 _shootNumber\r\n    ) public view returns (bool res) {\r\n        //logic for interface 1\r\n        if (penalty_interface == 1) {\r\n            uint256 computer_choice = (randomNumbers[_shootNumber] % 2) + 1;\r\n\r\n            if (user_choice == computer_choice) {\r\n                return false;\r\n            } else {\r\n                return true;\r\n            }\r\n        }\r\n        //logic for interface 2\r\n        if (penalty_interface == 2) {\r\n            uint256 computer_choice = (randomNumbers[_shootNumber] % 4) + 1;\r\n            if (user_choice == computer_choice) {\r\n                return false;\r\n            } else {\r\n                return true;\r\n            }\r\n        }\r\n\r\n        //logic for interface 3\r\n        if (penalty_interface == 3) {\r\n            uint256 computer_choice = (randomNumbers[_shootNumber] % 8) + 1;\r\n            if (user_choice == computer_choice) {\r\n                return false;\r\n            } else {\r\n                return true;\r\n            }\r\n        }\r\n    }\r\n\r\n    //this function will check the round result by comparing score\r\n    function round_result_check(\r\n        uint8 _team1Score,\r\n        uint8 _team2Score,\r\n        uint8 shootNumber,\r\n        uint8 _playerState\r\n    ) external pure returns (uint8) {\r\n        uint8 curr_team1 = _team1Score;\r\n        uint8 curr_team2 = _team2Score;\r\n        if (shootNumber <= 10) {\r\n            uint8 potential_team1;\r\n            uint8 potential_team2;\r\n\r\n            if (shootNumber % 2 == 0) {\r\n                potential_team1 = 5 - ((shootNumber) / 2) + curr_team1;\r\n                potential_team2 = 5 - ((shootNumber) / 2) + curr_team2;\r\n            } else {\r\n                if (_playerState == 2) {\r\n                    potential_team1 = 5 - ((shootNumber) / 2) + curr_team1;\r\n                    potential_team2 = 5 - ((shootNumber) / 2) - 1 + curr_team2;\r\n                } else {\r\n                    potential_team1 = 5 - ((shootNumber) / 2) - 1 + curr_team1;\r\n                    potential_team2 = 5 - ((shootNumber) / 2) + curr_team2;\r\n                }\r\n            }\r\n\r\n            if (curr_team1 > potential_team2) {\r\n                return 1; //returning 1 means that team 1 has won(player)\r\n            } else if (curr_team2 > potential_team1) {\r\n                return 2; //returning 2 means that team 2 has won(computer)\r\n            } else {\r\n                return 0; //match is still going on\r\n            }\r\n        } else {\r\n            if (shootNumber % 2 == 0) {\r\n                if (curr_team1 > curr_team2) {\r\n                    return 1;\r\n                } else if (curr_team1 < curr_team2) {\r\n                    return 2;\r\n                } else {\r\n                    return 0;\r\n                }\r\n            } else {\r\n                return 0;\r\n            }\r\n        }\r\n    }\r\n\r\n    //this function updates the shoot_counter variable. It is done after every penaly shot taken.\r\n    function update_shoot_counter() public {\r\n        shoot_counter++;\r\n    }\r\n\r\n    //function that updates the round counter\r\n    function update_round_counter() public {\r\n        round_counter++;\r\n    }\r\n\r\n    function reset() public {\r\n        shoot_counter = 0;\r\n        roundNumber = 0;\r\n        team1Score = 0;\r\n        team2Score = 0;\r\n        playerState = 0;\r\n    }\r\n\r\n    function score_team1() external view returns (uint8) {\r\n        return Round_Detail[round_counter].team1_score;\r\n    }\r\n\r\n    function score_team2() external view returns (uint8) {\r\n        return Round_Detail[round_counter].team2_score;\r\n    }\r\n\r\n    //////////////////////////////////////////////////////////\r\n\r\n    event RequestSent(uint256 requestId, uint32 numWords);\r\n    event RequestFulfilled(uint256 requestId, uint256[] randomWords);\r\n\r\n    struct RequestStatus {\r\n        bool fulfilled; // whether the request has been successfully fulfilled\r\n        bool exists; // whether a requestId exists\r\n        uint256[] randomWords;\r\n        bool didWin;\r\n    }\r\n    mapping(uint256 => RequestStatus)\r\n        public s_requests; /* requestId --> requestStatus */\r\n    VRFCoordinatorV2Interface COORDINATOR;\r\n\r\n    // Your subscription ID.\r\n    uint64 s_subscriptionId;\r\n\r\n    // past requests Id.\r\n    uint256[] public requestIds;\r\n    uint256 public lastRequestId;\r\n\r\n    // The gas lane to use, which specifies the maximum gas price to bump to.\r\n    // For a list of available gas lanes on each network,\r\n    // see https://docs.chain.link/docs/vrf/v2/subscription/supported-networks/#configurations\r\n    bytes32 keyHash =\r\n        0x474e34a077df58807dbe9c96d3c009b23b3c6d0cce433e59bbf5b34f823bc56c;\r\n\r\n    // Depends on the number of requested values that you want sent to the\r\n    // fulfillRandomWords() function. Storing each word costs about 20,000 gas,\r\n    // so 100,000 is a safe default for this example contract. Test and adjust\r\n    // this limit based on the network that you select, the size of the request,\r\n    // and the processing of the callback request in the fulfillRandomWords()\r\n    // function.\r\n    uint32 callbackGasLimit = 1000000;\r\n\r\n    // The default is 3, but you can set this higher.\r\n    uint16 requestConfirmations = 3;\r\n\r\n    // For this example, retrieve 2 random values in one request.\r\n    // Cannot exceed VRFCoordinatorV2.MAX_NUM_WORDS.\r\n    uint32 numWords = 20;\r\n\r\n    /**\r\n     * HARDCODED FOR SEPOLIA\r\n     * COORDINATOR: 0x8103B0A8A00be2DDC778e6e7eaa21791Cd364625\r\n     */\r\n    constructor(\r\n        uint64 subscriptionId\r\n    )\r\n        VRFConsumerBaseV2(0x8103B0A8A00be2DDC778e6e7eaa21791Cd364625)\r\n        ConfirmedOwner(msg.sender)\r\n        ERC721(\"Web3Football\", \"FC\")\r\n    {\r\n        COORDINATOR = VRFCoordinatorV2Interface(\r\n            0x8103B0A8A00be2DDC778e6e7eaa21791Cd364625\r\n        );\r\n        s_subscriptionId = subscriptionId;\r\n\r\n        //nfts\r\n        Card memory p0 = Card(0, 3);\r\n        Card memory p1 = Card(1, 3);\r\n        Card memory p2 = Card(2, 3);\r\n        Card memory p3 = Card(3, 2);\r\n        Card memory p4 = Card(4, 2);\r\n        Card memory p5 = Card(5, 2);\r\n        Card memory p6 = Card(6, 2);\r\n        Card memory p7 = Card(7, 2);\r\n        Card memory p8 = Card(8, 1);\r\n        Card memory p9 = Card(9, 1);\r\n        Card memory p10 = Card(10, 1);\r\n\r\n        availableCards.push(p0);\r\n        availableCards.push(p1);\r\n        availableCards.push(p2);\r\n        availableCards.push(p3);\r\n        availableCards.push(p4);\r\n        availableCards.push(p5);\r\n        availableCards.push(p6);\r\n        availableCards.push(p7);\r\n        availableCards.push(p8);\r\n        availableCards.push(p9);\r\n        availableCards.push(p10);\r\n\r\n        Card memory g0 = Card(0, 3);\r\n        Card memory g1 = Card(1, 2);\r\n        Card memory g2 = Card(2, 2);\r\n        Card memory g3 = Card(3, 1);\r\n\r\n        availableGKCards.push(g0);\r\n        availableGKCards.push(g1);\r\n        availableGKCards.push(g2);\r\n        availableGKCards.push(g3);\r\n    }\r\n\r\n    // Assumes the subscription is funded sufficiently.\r\n    function requestRandomWords() external returns (uint256 requestId) {\r\n        // Will revert if subscription is not set and funded.\r\n        requestId = COORDINATOR.requestRandomWords(\r\n            keyHash,\r\n            s_subscriptionId,\r\n            requestConfirmations,\r\n            callbackGasLimit,\r\n            numWords\r\n        );\r\n        s_requests[requestId] = RequestStatus({\r\n            randomWords: new uint256[](0),\r\n            exists: true,\r\n            fulfilled: false,\r\n            didWin: true\r\n        });\r\n        requestIds.push(requestId);\r\n        lastRequestId = requestId;\r\n        emit RequestSent(requestId, numWords);\r\n        return requestId;\r\n    }\r\n\r\n    function fulfillRandomWords(\r\n        uint256 _requestId,\r\n        uint256[] memory _randomWords\r\n    ) internal override {\r\n        require(s_requests[_requestId].exists, \"request not found\");\r\n        s_requests[_requestId].fulfilled = true;\r\n        s_requests[_requestId].randomWords = _randomWords;\r\n        if (_randomWords[0] % 2 == 0) {\r\n            s_requests[_requestId].didWin = true;\r\n        }\r\n        randomNumbers = _randomWords;\r\n        emit RequestFulfilled(_requestId, _randomWords);\r\n    }\r\n\r\n    function getRequestStatus(\r\n        uint256 _requestId\r\n    )\r\n        external\r\n        view\r\n        returns (bool fulfilled, uint256[] memory randomWords, bool didWin)\r\n    {\r\n        require(s_requests[_requestId].exists, \"request not found\");\r\n        RequestStatus memory request = s_requests[_requestId];\r\n        return (request.fulfilled, request.randomWords, request.didWin);\r\n    }\r\n\r\n    //cards and points\r\n    function getAvailableCards() public view returns (Card[] memory) {\r\n        return availableCards;\r\n    }\r\n\r\n    function getAvailableGKCards() public view returns (Card[] memory) {\r\n        return availableGKCards;\r\n    }\r\n\r\n    uint256 COUNTER;\r\n\r\n    struct Card {\r\n        uint256 id;\r\n        uint8 level;\r\n    }\r\n\r\n    Card[] public cards;\r\n    Card[] public availableCards;\r\n    Card[] public availableGKCards;\r\n    mapping(address => Card[]) public playerActiveCards;\r\n    mapping(address => Card[]) public playerInactiveCards;\r\n    mapping(address => Card) public playerActiveGKCard;\r\n\r\n    //CreationOfNFT\r\n    function _createNft(uint8 _id, uint8 option) internal {\r\n        // _safeMint(_to,COUNTER);\r\n        // COUNTER++;\r\n        if (option == 1) {\r\n            playerActiveGKCard[msg.sender] = availableGKCards[_id];\r\n        } else if (option == 2) {\r\n            playerActiveCards[msg.sender].push(availableCards[_id]);\r\n        }\r\n        _safeMint(msg.sender, COUNTER);\r\n        COUNTER++;\r\n    }\r\n\r\n    function _buyNft(uint _id, uint option) internal {\r\n        playerPoints[msg.sender] -= 200;\r\n        if (option == 2) {\r\n            playerInactiveCards[msg.sender].push(availableCards[_id]);\r\n        }\r\n        _safeMint(msg.sender, COUNTER);\r\n        COUNTER++;\r\n    }\r\n\r\n    function buyNftCard(uint8 _id, uint8 option) public {\r\n        _buyNft(_id, option);\r\n    }\r\n\r\n    function createActiveCard(uint8 _id, uint8 option) public {\r\n        _createNft(_id, option);\r\n    }\r\n\r\n    //GettingNFT\r\n    function getPlayingCards(\r\n        address player\r\n    ) public view returns (Card[] memory) {\r\n        return playerActiveCards[player];\r\n    }\r\n\r\n    function getInactiveCards(\r\n        address player\r\n    ) public view returns (Card[] memory) {\r\n        return playerInactiveCards[player];\r\n    }\r\n\r\n    //playerpoints\r\n    mapping(address => bool) public joinStatus;\r\n\r\n    function getJoinStatus() public view returns (bool) {\r\n        return joinStatus[msg.sender];\r\n    }\r\n\r\n    mapping(address => uint256) public playerPoints;\r\n\r\n    function join() public {\r\n        joinStatus[msg.sender] = true;\r\n        playerPoints[msg.sender] = 400;\r\n        _createNft(0, 2);\r\n        _createNft(8, 2);\r\n        _createNft(10, 2);\r\n        _createNft(4, 2);\r\n        _createNft(6, 2);\r\n        _createNft(1, 1);\r\n    }\r\n}\r\n",
  "sourcePath": "C:\\Users\\Akash Sahu\\Desktop\\3\\Web3Football\\contracts\\Web3Football.sol",
  "compiler": {
    "name": "solc",
    "version": "0.8.20+commit.a1b79de6.Emscripten.clang"
  },
  "schemaVersion": "3.4.14",
  "updatedAt": "2023-06-11T13:22:00.862Z",
  "networkType": "ethereum",
  "devdoc": {
    "events": {
      "Approval(address,address,uint256)": {
        "details": "Emitted when `owner` enables `approved` to manage the `tokenId` token."
      },
      "ApprovalForAll(address,address,bool)": {
        "details": "Emitted when `owner` enables or disables (`approved`) `operator` to manage all of its assets."
      },
      "Transfer(address,address,uint256)": {
        "details": "Emitted when `tokenId` token is transferred from `from` to `to`."
      }
    },
    "kind": "dev",
    "methods": {
      "approve(address,uint256)": {
        "details": "See {IERC721-approve}."
      },
      "balanceOf(address)": {
        "details": "See {IERC721-balanceOf}."
      },
      "getApproved(uint256)": {
        "details": "See {IERC721-getApproved}."
      },
      "isApprovedForAll(address,address)": {
        "details": "See {IERC721-isApprovedForAll}."
      },
      "name()": {
        "details": "See {IERC721Metadata-name}."
      },
      "ownerOf(uint256)": {
        "details": "See {IERC721-ownerOf}."
      },
      "safeTransferFrom(address,address,uint256)": {
        "details": "See {IERC721-safeTransferFrom}."
      },
      "safeTransferFrom(address,address,uint256,bytes)": {
        "details": "See {IERC721-safeTransferFrom}."
      },
      "setApprovalForAll(address,bool)": {
        "details": "See {IERC721-setApprovalForAll}."
      },
      "supportsInterface(bytes4)": {
        "details": "See {IERC165-supportsInterface}."
      },
      "symbol()": {
        "details": "See {IERC721Metadata-symbol}."
      },
      "tokenURI(uint256)": {
        "details": "See {IERC721Metadata-tokenURI}."
      },
      "transferFrom(address,address,uint256)": {
        "details": "See {IERC721-transferFrom}."
      }
    },
    "version": 1
  },
  "userdoc": {
    "kind": "user",
    "methods": {
      "acceptOwnership()": {
        "notice": "Allows an ownership transfer to be completed by the recipient."
      },
      "constructor": {
        "notice": "HARDCODED FOR SEPOLIA COORDINATOR: 0x8103B0A8A00be2DDC778e6e7eaa21791Cd364625"
      },
      "owner()": {
        "notice": "Get the current owner"
      },
      "transferOwnership(address)": {
        "notice": "Allows an owner to begin transferring ownership to a new address, pending."
      }
    },
    "notice": "THIS IS AN EXAMPLE CONTRACT THAT USES HARDCODED VALUES FOR CLARITY. THIS IS AN EXAMPLE CONTRACT THAT USES UN-AUDITED CODE. DO NOT USE THIS CODE IN PRODUCTION.",
    "version": 1
  }
}